{
  "contractName": "LoyaltyMarketplace",
  "abi": [
    {
      "inputs": [],
      "stateMutability": "nonpayable",
      "type": "constructor"
    },
    {
      "anonymous": false,
      "inputs": [
        {
          "indexed": true,
          "internalType": "address",
          "name": "owner",
          "type": "address"
        },
        {
          "indexed": true,
          "internalType": "address",
          "name": "approved",
          "type": "address"
        },
        {
          "indexed": true,
          "internalType": "uint256",
          "name": "tokenId",
          "type": "uint256"
        }
      ],
      "name": "Approval",
      "type": "event"
    },
    {
      "anonymous": false,
      "inputs": [
        {
          "indexed": true,
          "internalType": "address",
          "name": "owner",
          "type": "address"
        },
        {
          "indexed": true,
          "internalType": "address",
          "name": "operator",
          "type": "address"
        },
        {
          "indexed": false,
          "internalType": "bool",
          "name": "approved",
          "type": "bool"
        }
      ],
      "name": "ApprovalForAll",
      "type": "event"
    },
    {
      "anonymous": false,
      "inputs": [
        {
          "indexed": false,
          "internalType": "uint256",
          "name": "_fromTokenId",
          "type": "uint256"
        },
        {
          "indexed": false,
          "internalType": "uint256",
          "name": "_toTokenId",
          "type": "uint256"
        }
      ],
      "name": "BatchMetadataUpdate",
      "type": "event"
    },
    {
      "anonymous": false,
      "inputs": [
        {
          "indexed": false,
          "internalType": "uint256",
          "name": "_tokenId",
          "type": "uint256"
        }
      ],
      "name": "MetadataUpdate",
      "type": "event"
    },
    {
      "anonymous": false,
      "inputs": [
        {
          "indexed": true,
          "internalType": "uint256",
          "name": "tokenId",
          "type": "uint256"
        },
        {
          "indexed": false,
          "internalType": "address",
          "name": "owner",
          "type": "address"
        },
        {
          "indexed": false,
          "internalType": "address",
          "name": "seller",
          "type": "address"
        },
        {
          "indexed": false,
          "internalType": "uint256",
          "name": "price",
          "type": "uint256"
        },
        {
          "indexed": false,
          "internalType": "bool",
          "name": "currentlyListed",
          "type": "bool"
        }
      ],
      "name": "TokenListedSuccess",
      "type": "event"
    },
    {
      "anonymous": false,
      "inputs": [
        {
          "indexed": true,
          "internalType": "address",
          "name": "from",
          "type": "address"
        },
        {
          "indexed": true,
          "internalType": "address",
          "name": "to",
          "type": "address"
        },
        {
          "indexed": true,
          "internalType": "uint256",
          "name": "tokenId",
          "type": "uint256"
        }
      ],
      "name": "Transfer",
      "type": "event"
    },
    {
      "anonymous": false,
      "inputs": [
        {
          "indexed": false,
          "internalType": "uint256",
          "name": "brandId",
          "type": "uint256"
        },
        {
          "indexed": false,
          "internalType": "string",
          "name": "name",
          "type": "string"
        },
        {
          "indexed": false,
          "internalType": "string",
          "name": "description",
          "type": "string"
        },
        {
          "indexed": false,
          "internalType": "string",
          "name": "image",
          "type": "string"
        },
        {
          "indexed": false,
          "internalType": "bool",
          "name": "isABrand",
          "type": "bool"
        },
        {
          "indexed": false,
          "internalType": "bool",
          "name": "isBrandRegisterOnPlatform",
          "type": "bool"
        },
        {
          "indexed": false,
          "internalType": "bool",
          "name": "isAddressAlreadyCreatedAccount",
          "type": "bool"
        }
      ],
      "name": "UserAccountCreated",
      "type": "event"
    },
    {
      "inputs": [
        {
          "internalType": "address",
          "name": "to",
          "type": "address"
        },
        {
          "internalType": "uint256",
          "name": "tokenId",
          "type": "uint256"
        }
      ],
      "name": "approve",
      "outputs": [],
      "stateMutability": "nonpayable",
      "type": "function"
    },
    {
      "inputs": [
        {
          "internalType": "address",
          "name": "owner",
          "type": "address"
        }
      ],
      "name": "balanceOf",
      "outputs": [
        {
          "internalType": "uint256",
          "name": "",
          "type": "uint256"
        }
      ],
      "stateMutability": "view",
      "type": "function",
      "constant": true
    },
    {
      "inputs": [
        {
          "internalType": "uint256",
          "name": "tokenId",
          "type": "uint256"
        }
      ],
      "name": "getApproved",
      "outputs": [
        {
          "internalType": "address",
          "name": "",
          "type": "address"
        }
      ],
      "stateMutability": "view",
      "type": "function",
      "constant": true
    },
    {
      "inputs": [
        {
          "internalType": "address",
          "name": "owner",
          "type": "address"
        },
        {
          "internalType": "address",
          "name": "operator",
          "type": "address"
        }
      ],
      "name": "isApprovedForAll",
      "outputs": [
        {
          "internalType": "bool",
          "name": "",
          "type": "bool"
        }
      ],
      "stateMutability": "view",
      "type": "function",
      "constant": true
    },
    {
      "inputs": [],
      "name": "name",
      "outputs": [
        {
          "internalType": "string",
          "name": "",
          "type": "string"
        }
      ],
      "stateMutability": "view",
      "type": "function",
      "constant": true
    },
    {
      "inputs": [
        {
          "internalType": "uint256",
          "name": "tokenId",
          "type": "uint256"
        }
      ],
      "name": "ownerOf",
      "outputs": [
        {
          "internalType": "address",
          "name": "",
          "type": "address"
        }
      ],
      "stateMutability": "view",
      "type": "function",
      "constant": true
    },
    {
      "inputs": [
        {
          "internalType": "address",
          "name": "from",
          "type": "address"
        },
        {
          "internalType": "address",
          "name": "to",
          "type": "address"
        },
        {
          "internalType": "uint256",
          "name": "tokenId",
          "type": "uint256"
        }
      ],
      "name": "safeTransferFrom",
      "outputs": [],
      "stateMutability": "nonpayable",
      "type": "function"
    },
    {
      "inputs": [
        {
          "internalType": "address",
          "name": "from",
          "type": "address"
        },
        {
          "internalType": "address",
          "name": "to",
          "type": "address"
        },
        {
          "internalType": "uint256",
          "name": "tokenId",
          "type": "uint256"
        },
        {
          "internalType": "bytes",
          "name": "data",
          "type": "bytes"
        }
      ],
      "name": "safeTransferFrom",
      "outputs": [],
      "stateMutability": "nonpayable",
      "type": "function"
    },
    {
      "inputs": [
        {
          "internalType": "address",
          "name": "operator",
          "type": "address"
        },
        {
          "internalType": "bool",
          "name": "approved",
          "type": "bool"
        }
      ],
      "name": "setApprovalForAll",
      "outputs": [],
      "stateMutability": "nonpayable",
      "type": "function"
    },
    {
      "inputs": [
        {
          "internalType": "bytes4",
          "name": "interfaceId",
          "type": "bytes4"
        }
      ],
      "name": "supportsInterface",
      "outputs": [
        {
          "internalType": "bool",
          "name": "",
          "type": "bool"
        }
      ],
      "stateMutability": "view",
      "type": "function",
      "constant": true
    },
    {
      "inputs": [],
      "name": "symbol",
      "outputs": [
        {
          "internalType": "string",
          "name": "",
          "type": "string"
        }
      ],
      "stateMutability": "view",
      "type": "function",
      "constant": true
    },
    {
      "inputs": [
        {
          "internalType": "uint256",
          "name": "tokenId",
          "type": "uint256"
        }
      ],
      "name": "tokenURI",
      "outputs": [
        {
          "internalType": "string",
          "name": "",
          "type": "string"
        }
      ],
      "stateMutability": "view",
      "type": "function",
      "constant": true
    },
    {
      "inputs": [
        {
          "internalType": "address",
          "name": "from",
          "type": "address"
        },
        {
          "internalType": "address",
          "name": "to",
          "type": "address"
        },
        {
          "internalType": "uint256",
          "name": "tokenId",
          "type": "uint256"
        }
      ],
      "name": "transferFrom",
      "outputs": [],
      "stateMutability": "nonpayable",
      "type": "function"
    },
    {
      "inputs": [
        {
          "internalType": "address",
          "name": "",
          "type": "address"
        }
      ],
      "name": "userAccounts",
      "outputs": [
        {
          "internalType": "uint256",
          "name": "brandId",
          "type": "uint256"
        },
        {
          "internalType": "string",
          "name": "name",
          "type": "string"
        },
        {
          "internalType": "string",
          "name": "description",
          "type": "string"
        },
        {
          "internalType": "string",
          "name": "image",
          "type": "string"
        },
        {
          "internalType": "bool",
          "name": "isABrand",
          "type": "bool"
        },
        {
          "internalType": "bool",
          "name": "isBrandRegisterOnPlatform",
          "type": "bool"
        },
        {
          "internalType": "bool",
          "name": "isAddressAlreadyCreatedAccount",
          "type": "bool"
        }
      ],
      "stateMutability": "view",
      "type": "function",
      "constant": true
    },
    {
      "inputs": [
        {
          "internalType": "string",
          "name": "_name",
          "type": "string"
        },
        {
          "internalType": "string",
          "name": "_description",
          "type": "string"
        },
        {
          "internalType": "string",
          "name": "_image",
          "type": "string"
        }
      ],
      "name": "createUserAccount",
      "outputs": [],
      "stateMutability": "nonpayable",
      "type": "function"
    },
    {
      "inputs": [
        {
          "internalType": "address",
          "name": "_addr",
          "type": "address"
        }
      ],
      "name": "setIsBrandRegisterOnPlatform",
      "outputs": [],
      "stateMutability": "nonpayable",
      "type": "function"
    },
    {
      "inputs": [
        {
          "internalType": "address",
          "name": "_addr",
          "type": "address"
        }
      ],
      "name": "setUserIsABrand",
      "outputs": [],
      "stateMutability": "nonpayable",
      "type": "function"
    },
    {
      "inputs": [
        {
          "internalType": "uint256",
          "name": "_listPrice",
          "type": "uint256"
        }
      ],
      "name": "updateListPrice",
      "outputs": [],
      "stateMutability": "payable",
      "type": "function",
      "payable": true
    },
    {
      "inputs": [],
      "name": "getListPrice",
      "outputs": [
        {
          "internalType": "uint256",
          "name": "",
          "type": "uint256"
        }
      ],
      "stateMutability": "view",
      "type": "function",
      "constant": true
    },
    {
      "inputs": [],
      "name": "getLatestIdToListedToken",
      "outputs": [
        {
          "components": [
            {
              "internalType": "uint256",
              "name": "tokenId",
              "type": "uint256"
            },
            {
              "internalType": "uint256",
              "name": "brandId",
              "type": "uint256"
            },
            {
              "internalType": "address payable",
              "name": "owner",
              "type": "address"
            },
            {
              "internalType": "address payable",
              "name": "seller",
              "type": "address"
            },
            {
              "internalType": "uint256",
              "name": "price",
              "type": "uint256"
            },
            {
              "internalType": "bool",
              "name": "currentlyListed",
              "type": "bool"
            }
          ],
          "internalType": "struct LoyaltyMarketplace.ListedToken",
          "name": "",
          "type": "tuple"
        }
      ],
      "stateMutability": "view",
      "type": "function",
      "constant": true
    },
    {
      "inputs": [
        {
          "internalType": "uint256",
          "name": "tokenId",
          "type": "uint256"
        }
      ],
      "name": "getListedTokenForId",
      "outputs": [
        {
          "components": [
            {
              "internalType": "uint256",
              "name": "tokenId",
              "type": "uint256"
            },
            {
              "internalType": "uint256",
              "name": "brandId",
              "type": "uint256"
            },
            {
              "internalType": "address payable",
              "name": "owner",
              "type": "address"
            },
            {
              "internalType": "address payable",
              "name": "seller",
              "type": "address"
            },
            {
              "internalType": "uint256",
              "name": "price",
              "type": "uint256"
            },
            {
              "internalType": "bool",
              "name": "currentlyListed",
              "type": "bool"
            }
          ],
          "internalType": "struct LoyaltyMarketplace.ListedToken",
          "name": "",
          "type": "tuple"
        }
      ],
      "stateMutability": "view",
      "type": "function",
      "constant": true
    },
    {
      "inputs": [],
      "name": "getCurrentToken",
      "outputs": [
        {
          "internalType": "uint256",
          "name": "",
          "type": "uint256"
        }
      ],
      "stateMutability": "view",
      "type": "function",
      "constant": true
    },
    {
      "inputs": [
        {
          "internalType": "string",
          "name": "tokenURI",
          "type": "string"
        },
        {
          "internalType": "uint256",
          "name": "price",
          "type": "uint256"
        }
      ],
      "name": "createTokenToMarketplace",
      "outputs": [
        {
          "internalType": "uint256",
          "name": "",
          "type": "uint256"
        }
      ],
      "stateMutability": "payable",
      "type": "function",
      "payable": true
    },
    {
      "inputs": [
        {
          "internalType": "string",
          "name": "tokenURI",
          "type": "string"
        },
        {
          "internalType": "address",
          "name": "_addr",
          "type": "address"
        }
      ],
      "name": "createTokenToAddress",
      "outputs": [
        {
          "internalType": "uint256",
          "name": "",
          "type": "uint256"
        }
      ],
      "stateMutability": "payable",
      "type": "function",
      "payable": true
    },
    {
      "inputs": [
        {
          "internalType": "address",
          "name": "_addr",
          "type": "address"
        }
      ],
      "name": "getIdBrandFromAddress",
      "outputs": [
        {
          "internalType": "uint256",
          "name": "_id",
          "type": "uint256"
        }
      ],
      "stateMutability": "view",
      "type": "function",
      "constant": true
    },
    {
      "inputs": [
        {
          "internalType": "uint256",
          "name": "_idBrand",
          "type": "uint256"
        }
      ],
      "name": "getBrandFromId",
      "outputs": [
        {
          "components": [
            {
              "internalType": "uint256",
              "name": "brandId",
              "type": "uint256"
            },
            {
              "internalType": "string",
              "name": "name",
              "type": "string"
            },
            {
              "internalType": "string",
              "name": "description",
              "type": "string"
            },
            {
              "internalType": "string",
              "name": "image",
              "type": "string"
            },
            {
              "internalType": "bool",
              "name": "isABrand",
              "type": "bool"
            },
            {
              "internalType": "bool",
              "name": "isBrandRegisterOnPlatform",
              "type": "bool"
            },
            {
              "internalType": "bool",
              "name": "isAddressAlreadyCreatedAccount",
              "type": "bool"
            }
          ],
          "internalType": "struct LoyaltyMarketplace.UserAccount",
          "name": "",
          "type": "tuple"
        }
      ],
      "stateMutability": "view",
      "type": "function",
      "constant": true
    },
    {
      "inputs": [],
      "name": "getAllBrands",
      "outputs": [
        {
          "components": [
            {
              "internalType": "uint256",
              "name": "brandId",
              "type": "uint256"
            },
            {
              "internalType": "string",
              "name": "name",
              "type": "string"
            },
            {
              "internalType": "string",
              "name": "description",
              "type": "string"
            },
            {
              "internalType": "string",
              "name": "image",
              "type": "string"
            },
            {
              "internalType": "bool",
              "name": "isABrand",
              "type": "bool"
            },
            {
              "internalType": "bool",
              "name": "isBrandRegisterOnPlatform",
              "type": "bool"
            },
            {
              "internalType": "bool",
              "name": "isAddressAlreadyCreatedAccount",
              "type": "bool"
            }
          ],
          "internalType": "struct LoyaltyMarketplace.UserAccount[]",
          "name": "",
          "type": "tuple[]"
        }
      ],
      "stateMutability": "view",
      "type": "function",
      "constant": true
    },
    {
      "inputs": [],
      "name": "getMyNFTs",
      "outputs": [
        {
          "components": [
            {
              "internalType": "uint256",
              "name": "tokenId",
              "type": "uint256"
            },
            {
              "internalType": "uint256",
              "name": "brandId",
              "type": "uint256"
            },
            {
              "internalType": "address payable",
              "name": "owner",
              "type": "address"
            },
            {
              "internalType": "address payable",
              "name": "seller",
              "type": "address"
            },
            {
              "internalType": "uint256",
              "name": "price",
              "type": "uint256"
            },
            {
              "internalType": "bool",
              "name": "currentlyListed",
              "type": "bool"
            }
          ],
          "internalType": "struct LoyaltyMarketplace.ListedToken[]",
          "name": "",
          "type": "tuple[]"
        }
      ],
      "stateMutability": "view",
      "type": "function",
      "constant": true
    },
    {
      "inputs": [
        {
          "internalType": "uint256",
          "name": "_idBrand",
          "type": "uint256"
        }
      ],
      "name": "getNFTsByBrand",
      "outputs": [
        {
          "components": [
            {
              "internalType": "uint256",
              "name": "tokenId",
              "type": "uint256"
            },
            {
              "internalType": "uint256",
              "name": "brandId",
              "type": "uint256"
            },
            {
              "internalType": "address payable",
              "name": "owner",
              "type": "address"
            },
            {
              "internalType": "address payable",
              "name": "seller",
              "type": "address"
            },
            {
              "internalType": "uint256",
              "name": "price",
              "type": "uint256"
            },
            {
              "internalType": "bool",
              "name": "currentlyListed",
              "type": "bool"
            }
          ],
          "internalType": "struct LoyaltyMarketplace.ListedToken[]",
          "name": "",
          "type": "tuple[]"
        }
      ],
      "stateMutability": "view",
      "type": "function",
      "constant": true
    },
    {
      "inputs": [
        {
          "internalType": "uint256",
          "name": "_idToken",
          "type": "uint256"
        }
      ],
      "name": "removeTokenFromMarket",
      "outputs": [],
      "stateMutability": "nonpayable",
      "type": "function"
    },
    {
      "inputs": [
        {
          "internalType": "uint256",
          "name": "tokenId",
          "type": "uint256"
        }
      ],
      "name": "executeSale",
      "outputs": [],
      "stateMutability": "payable",
      "type": "function",
      "payable": true
    },
    {
      "inputs": [
        {
          "internalType": "uint256",
          "name": "_idToken",
          "type": "uint256"
        },
        {
          "internalType": "uint256",
          "name": "_price",
          "type": "uint256"
        }
      ],
      "name": "addTokenToSaleOnTheMarket",
      "outputs": [],
      "stateMutability": "nonpayable",
      "type": "function"
    }
  ],
  "bytecode": "0x6080604052662386f26fc10000600b553480156200001c57600080fd5b506040518060400160405280600e81526020017f4e46544d61726b6574706c6163650000000000000000000000000000000000008152506040518060400160405280600481526020017f4e46544d0000000000000000000000000000000000000000000000000000000081525081600090816200009a919062000370565b508060019081620000ac919062000370565b50505033600a60006101000a81548173ffffffffffffffffffffffffffffffffffffffff021916908373ffffffffffffffffffffffffffffffffffffffff16021790555062000457565b600081519050919050565b7f4e487b7100000000000000000000000000000000000000000000000000000000600052604160045260246000fd5b7f4e487b7100000000000000000000000000000000000000000000000000000000600052602260045260246000fd5b600060028204905060018216806200017857607f821691505b6020821081036200018e576200018d62000130565b5b50919050565b60008190508160005260206000209050919050565b60006020601f8301049050919050565b600082821b905092915050565b600060088302620001f87fffffffffffffffffffffffffffffffffffffffffffffffffffffffffffffffff82620001b9565b620002048683620001b9565b95508019841693508086168417925050509392505050565b6000819050919050565b6000819050919050565b6000620002516200024b62000245846200021c565b62000226565b6200021c565b9050919050565b6000819050919050565b6200026d8362000230565b620002856200027c8262000258565b848454620001c6565b825550505050565b600090565b6200029c6200028d565b620002a981848462000262565b505050565b5b81811015620002d157620002c560008262000292565b600181019050620002af565b5050565b601f8211156200032057620002ea8162000194565b620002f584620001a9565b8101602085101562000305578190505b6200031d6200031485620001a9565b830182620002ae565b50505b505050565b600082821c905092915050565b6000620003456000198460080262000325565b1980831691505092915050565b600062000360838362000332565b9150826002028217905092915050565b6200037b82620000f6565b67ffffffffffffffff81111562000397576200039662000101565b5b620003a382546200015f565b620003b0828285620002d5565b600060209050601f831160018114620003e85760008415620003d3578287015190505b620003df858262000352565b8655506200044f565b601f198416620003f88662000194565b60005b828110156200042257848901518255600182019150602085019450602081019050620003fb565b868310156200044257848901516200043e601f89168262000332565b8355505b6001600288020188555050505b505050505050565b615f6380620004676000396000f3fe6080604052600436106101e35760003560e01c8063886d07e211610102578063b2a9008711610095578063c87b56dd11610064578063c87b56dd1461071c578063d1a88ae514610759578063e985e9c514610784578063ef2d1746146107c1576101e3565b8063b2a900871461066a578063b88d4fde146106a7578063c322579c146106d0578063c4b2f10b146106ec576101e3565b80639d1b7f40116100d15780639d1b7f40146105ab5780639df8b252146105db578063a07e723614610604578063a22cb46514610641576101e3565b8063886d07e2146104fe5780638e2645901461052757806395d89b41146105645780639b1225c41461058f576101e3565b8063506157851161017a5780636352211e116101495780636352211e1461043057806368f1945f1461046d57806369a015b91461049857806370a08231146104c1576101e3565b8063506157851461035a5780635251d91c1461039757806360e8ddb0146103da578063629cb2e414610405576101e3565b806323b872dd116101b657806323b872dd146102b65780632a62b477146102df57806342842e0e146103085780634450e06d14610331576101e3565b806301ffc9a7146101e857806306fdde0314610225578063081812fc14610250578063095ea7b31461028d575b600080fd5b3480156101f457600080fd5b5061020f600480360381019061020a9190614079565b6107ec565b60405161021c91906140c1565b60405180910390f35b34801561023157600080fd5b5061023a61084d565b604051610247919061416c565b60405180910390f35b34801561025c57600080fd5b50610277600480360381019061027291906141c4565b6108df565b6040516102849190614232565b60405180910390f35b34801561029957600080fd5b506102b460048036038101906102af9190614279565b610925565b005b3480156102c257600080fd5b506102dd60048036038101906102d891906142b9565b610a3c565b005b3480156102eb57600080fd5b506103066004803603810190610301919061430c565b610a9c565b005b34801561031457600080fd5b5061032f600480360381019061032a91906142b9565b610cdf565b005b34801561033d57600080fd5b5061035860048036038101906103539190614481565b610cff565b005b34801561036657600080fd5b50610381600480360381019061037c91906141c4565b61115f565b60405161038e9190614691565b60405180910390f35b3480156103a357600080fd5b506103be60048036038101906103b991906146b3565b611431565b6040516103d197969594939291906146ef565b60405180910390f35b3480156103e657600080fd5b506103ef611632565b6040516103fc9190614929565b60405180910390f35b34801561041157600080fd5b5061041a611937565b6040516104279190614691565b60405180910390f35b34801561043c57600080fd5b50610457600480360381019061045291906141c4565b611d1f565b6040516104649190614232565b60405180910390f35b34801561047957600080fd5b50610482611da5565b60405161048f919061494b565b60405180910390f35b3480156104a457600080fd5b506104bf60048036038101906104ba91906146b3565b611daf565b005b3480156104cd57600080fd5b506104e860048036038101906104e391906146b3565b611e0d565b6040516104f5919061494b565b60405180910390f35b34801561050a57600080fd5b50610525600480360381019061052091906146b3565b611ec4565b005b34801561053357600080fd5b5061054e600480360381019061054991906141c4565b611f22565b60405161055b91906149e1565b60405180910390f35b34801561057057600080fd5b50610579612034565b604051610586919061416c565b60405180910390f35b6105a960048036038101906105a491906141c4565b6120c6565b005b6105c560048036038101906105c091906149fc565b61230d565b6040516105d2919061494b565b60405180910390f35b3480156105e757600080fd5b5061060260048036038101906105fd91906141c4565b61234f565b005b34801561061057600080fd5b5061062b600480360381019061062691906141c4565b612522565b6040516106389190614b02565b60405180910390f35b34801561064d57600080fd5b5061066860048036038101906106639190614b50565b612760565b005b34801561067657600080fd5b50610691600480360381019061068c91906146b3565b612776565b60405161069e919061494b565b60405180910390f35b3480156106b357600080fd5b506106ce60048036038101906106c99190614c31565b6127c2565b005b6106ea60048036038101906106e591906141c4565b612824565b005b61070660048036038101906107019190614cb4565b6128be565b604051610713919061494b565b60405180910390f35b34801561072857600080fd5b50610743600480360381019061073e91906141c4565b612900565b604051610750919061416c565b60405180910390f35b34801561076557600080fd5b5061076e612a12565b60405161077b91906149e1565b60405180910390f35b34801561079057600080fd5b506107ab60048036038101906107a69190614d10565b612b31565b6040516107b891906140c1565b60405180910390f35b3480156107cd57600080fd5b506107d6612bc5565b6040516107e3919061494b565b60405180910390f35b6000634906490660e01b7bffffffffffffffffffffffffffffffffffffffffffffffffffffffff1916827bffffffffffffffffffffffffffffffffffffffffffffffffffffffff19161480610846575061084582612bd6565b5b9050919050565b60606000805461085c90614d7f565b80601f016020809104026020016040519081016040528092919081815260200182805461088890614d7f565b80156108d55780601f106108aa576101008083540402835291602001916108d5565b820191906000526020600020905b8154815290600101906020018083116108b857829003601f168201915b5050505050905090565b60006108ea82612cb8565b6004600083815260200190815260200160002060009054906101000a900473ffffffffffffffffffffffffffffffffffffffff169050919050565b600061093082611d1f565b90508073ffffffffffffffffffffffffffffffffffffffff168373ffffffffffffffffffffffffffffffffffffffff16036109a0576040517f08c379a000000000000000000000000000000000000000000000000000000000815260040161099790614e22565b60405180910390fd5b8073ffffffffffffffffffffffffffffffffffffffff166109bf612d03565b73ffffffffffffffffffffffffffffffffffffffff1614806109ee57506109ed816109e8612d03565b612b31565b5b610a2d576040517f08c379a0000000000000000000000000000000000000000000000000000000008152600401610a2490614eb4565b60405180910390fd5b610a378383612d0b565b505050565b610a4d610a47612d03565b82612dc4565b610a8c576040517f08c379a0000000000000000000000000000000000000000000000000000000008152600401610a8390614f46565b60405180910390fd5b610a97838383612e59565b505050565b610aa582613152565b610ae4576040517f08c379a0000000000000000000000000000000000000000000000000000000008152600401610adb90614fb2565b60405180910390fd5b3373ffffffffffffffffffffffffffffffffffffffff16610b0483611d1f565b73ffffffffffffffffffffffffffffffffffffffff1614610b5a576040517f08c379a0000000000000000000000000000000000000000000000000000000008152600401610b5190615044565b60405180910390fd5b60008111610b9d576040517f08c379a0000000000000000000000000000000000000000000000000000000008152600401610b94906150b0565b60405180910390fd5b80600c6000848152602001908152602001600020600401819055506001600c600084815260200190815260200160002060050160006101000a81548160ff02191690831515021790555033600c600084815260200190815260200160002060030160006101000a81548173ffffffffffffffffffffffffffffffffffffffff021916908373ffffffffffffffffffffffffffffffffffffffff16021790555030600c600084815260200190815260200160002060020160006101000a81548173ffffffffffffffffffffffffffffffffffffffff021916908373ffffffffffffffffffffffffffffffffffffffff160217905550610c9c333084612e59565b817f9339409317fd01fabff48b703019016f49159bacc801ae872d2ca637d226e4c03033846001604051610cd394939291906150d0565b60405180910390a25050565b610cfa838383604051806020016040528060008152506127c2565b505050565b600e60003373ffffffffffffffffffffffffffffffffffffffff1673ffffffffffffffffffffffffffffffffffffffff16815260200190815260200160002060040160029054906101000a900460ff1615610d8f576040517f08c379a0000000000000000000000000000000000000000000000000000000008152600401610d8690615161565b60405180910390fd5b82600e60003373ffffffffffffffffffffffffffffffffffffffff1673ffffffffffffffffffffffffffffffffffffffff1681526020019081526020016000206001019081610dde919061532d565b5081600e60003373ffffffffffffffffffffffffffffffffffffffff1673ffffffffffffffffffffffffffffffffffffffff1681526020019081526020016000206002019081610e2e919061532d565b5080600e60003373ffffffffffffffffffffffffffffffffffffffff1673ffffffffffffffffffffffffffffffffffffffff1681526020019081526020016000206003019081610e7e919061532d565b506001600e60003373ffffffffffffffffffffffffffffffffffffffff1673ffffffffffffffffffffffffffffffffffffffff16815260200190815260200160002060040160026101000a81548160ff0219169083151502179055506001600e60003373ffffffffffffffffffffffffffffffffffffffff1673ffffffffffffffffffffffffffffffffffffffff16815260200190815260200160002060040160016101000a81548160ff021916908315150217905550610f3f6009613193565b6000610f4b60096131a9565b905080600e60003373ffffffffffffffffffffffffffffffffffffffff1673ffffffffffffffffffffffffffffffffffffffff16815260200190815260200160002060000181905550600e60003373ffffffffffffffffffffffffffffffffffffffff1673ffffffffffffffffffffffffffffffffffffffff168152602001908152602001600020600d600083815260200190815260200160002060008201548160000155600182018160010190816110049190615415565b50600282018160020190816110199190615415565b506003820181600301908161102e9190615415565b506004820160009054906101000a900460ff168160040160006101000a81548160ff0219169083151502179055506004820160019054906101000a900460ff168160040160016101000a81548160ff0219169083151502179055506004820160029054906101000a900460ff168160040160026101000a81548160ff0219169083151502179055509050506001600e60003373ffffffffffffffffffffffffffffffffffffffff1673ffffffffffffffffffffffffffffffffffffffff16815260200190815260200160002060040160006101000a81548160ff0219169083151502179055507fab12709981e48ee5fca9209ac8edabeebc818458470ec30559dfaa1cc5d3b06d81858585600180600160405161115197969594939291906146ef565b60405180910390a150505050565b6060600061116d60076131a9565b905060008060005b838110156112025785600c600060018461118f919061552c565b8152602001908152602001600020600101541480156111da5750600c60006001836111ba919061552c565b815260200190815260200160002060050160009054906101000a900460ff165b156111ef576001836111ec919061552c565b92505b80806111fa90615560565b915050611175565b5060008267ffffffffffffffff81111561121f5761121e614356565b5b60405190808252806020026020018201604052801561125857816020015b611245613f66565b81526020019060019003908161123d5790505b50905060005b848110156114245786600c6000600184611278919061552c565b8152602001908152602001600020600101541480156112c35750600c60006001836112a3919061552c565b815260200190815260200160002060050160009054906101000a900460ff165b156114115760006001826112d7919061552c565b90506000600c60008381526020019081526020016000209050806040518060c001604052908160008201548152602001600182015481526020016002820160009054906101000a900473ffffffffffffffffffffffffffffffffffffffff1673ffffffffffffffffffffffffffffffffffffffff1673ffffffffffffffffffffffffffffffffffffffff1681526020016003820160009054906101000a900473ffffffffffffffffffffffffffffffffffffffff1673ffffffffffffffffffffffffffffffffffffffff1673ffffffffffffffffffffffffffffffffffffffff168152602001600482015481526020016005820160009054906101000a900460ff1615151515815250508486815181106113f4576113f36155a8565b5b602002602001018190525060018561140c919061552c565b945050505b808061141c90615560565b91505061125e565b5080945050505050919050565b600e60205280600052604060002060009150905080600001549080600101805461145a90614d7f565b80601f016020809104026020016040519081016040528092919081815260200182805461148690614d7f565b80156114d35780601f106114a8576101008083540402835291602001916114d3565b820191906000526020600020905b8154815290600101906020018083116114b657829003601f168201915b5050505050908060020180546114e890614d7f565b80601f016020809104026020016040519081016040528092919081815260200182805461151490614d7f565b80156115615780601f1061153657610100808354040283529160200191611561565b820191906000526020600020905b81548152906001019060200180831161154457829003601f168201915b50505050509080600301805461157690614d7f565b80601f01602080910402602001604051908101604052809291908181526020018280546115a290614d7f565b80156115ef5780601f106115c4576101008083540402835291602001916115ef565b820191906000526020600020905b8154815290600101906020018083116115d257829003601f168201915b5050505050908060040160009054906101000a900460ff16908060040160019054906101000a900460ff16908060040160029054906101000a900460ff16905087565b6060600061164060096131a9565b905060008167ffffffffffffffff81111561165e5761165d614356565b5b60405190808252806020026020018201604052801561169757816020015b611684613fca565b81526020019060019003908161167c5790505b5090506000805b8381101561192d5760006001826116b5919061552c565b90506000600d60008381526020019081526020016000209050806040518060e0016040529081600082015481526020016001820180546116f490614d7f565b80601f016020809104026020016040519081016040528092919081815260200182805461172090614d7f565b801561176d5780601f106117425761010080835404028352916020019161176d565b820191906000526020600020905b81548152906001019060200180831161175057829003601f168201915b5050505050815260200160028201805461178690614d7f565b80601f01602080910402602001604051908101604052809291908181526020018280546117b290614d7f565b80156117ff5780601f106117d4576101008083540402835291602001916117ff565b820191906000526020600020905b8154815290600101906020018083116117e257829003601f168201915b5050505050815260200160038201805461181890614d7f565b80601f016020809104026020016040519081016040528092919081815260200182805461184490614d7f565b80156118915780601f1061186657610100808354040283529160200191611891565b820191906000526020600020905b81548152906001019060200180831161187457829003601f168201915b505050505081526020016004820160009054906101000a900460ff161515151581526020016004820160019054906101000a900460ff161515151581526020016004820160029054906101000a900460ff1615151515815250508585815181106118fe576118fd6155a8565b5b6020026020010181905250600184611916919061552c565b93505050808061192590615560565b91505061169e565b5081935050505090565b6060600061194560076131a9565b905060008060005b83811015611a66573373ffffffffffffffffffffffffffffffffffffffff16600c600060018461197d919061552c565b815260200190815260200160002060020160009054906101000a900473ffffffffffffffffffffffffffffffffffffffff1673ffffffffffffffffffffffffffffffffffffffff161480611a3e57503373ffffffffffffffffffffffffffffffffffffffff16600c60006001846119f4919061552c565b815260200190815260200160002060030160009054906101000a900473ffffffffffffffffffffffffffffffffffffffff1673ffffffffffffffffffffffffffffffffffffffff16145b15611a5357600183611a50919061552c565b92505b8080611a5e90615560565b91505061194d565b5060008267ffffffffffffffff811115611a8357611a82614356565b5b604051908082528060200260200182016040528015611abc57816020015b611aa9613f66565b815260200190600190039081611aa15790505b50905060005b84811015611d14573373ffffffffffffffffffffffffffffffffffffffff16600c6000600184611af2919061552c565b815260200190815260200160002060020160009054906101000a900473ffffffffffffffffffffffffffffffffffffffff1673ffffffffffffffffffffffffffffffffffffffff161480611bb357503373ffffffffffffffffffffffffffffffffffffffff16600c6000600184611b69919061552c565b815260200190815260200160002060030160009054906101000a900473ffffffffffffffffffffffffffffffffffffffff1673ffffffffffffffffffffffffffffffffffffffff16145b15611d01576000600182611bc7919061552c565b90506000600c60008381526020019081526020016000209050806040518060c001604052908160008201548152602001600182015481526020016002820160009054906101000a900473ffffffffffffffffffffffffffffffffffffffff1673ffffffffffffffffffffffffffffffffffffffff1673ffffffffffffffffffffffffffffffffffffffff1681526020016003820160009054906101000a900473ffffffffffffffffffffffffffffffffffffffff1673ffffffffffffffffffffffffffffffffffffffff1673ffffffffffffffffffffffffffffffffffffffff168152602001600482015481526020016005820160009054906101000a900460ff161515151581525050848681518110611ce457611ce36155a8565b5b6020026020010181905250600185611cfc919061552c565b945050505b8080611d0c90615560565b915050611ac2565b508094505050505090565b600080611d2b836131b7565b9050600073ffffffffffffffffffffffffffffffffffffffff168173ffffffffffffffffffffffffffffffffffffffff1603611d9c576040517f08c379a0000000000000000000000000000000000000000000000000000000008152600401611d9390615623565b60405180910390fd5b80915050919050565b6000600b54905090565b6001600e60008373ffffffffffffffffffffffffffffffffffffffff1673ffffffffffffffffffffffffffffffffffffffff16815260200190815260200160002060040160006101000a81548160ff02191690831515021790555050565b60008073ffffffffffffffffffffffffffffffffffffffff168273ffffffffffffffffffffffffffffffffffffffff1603611e7d576040517f08c379a0000000000000000000000000000000000000000000000000000000008152600401611e74906156b5565b60405180910390fd5b600360008373ffffffffffffffffffffffffffffffffffffffff1673ffffffffffffffffffffffffffffffffffffffff168152602001908152602001600020549050919050565b6001600e60008373ffffffffffffffffffffffffffffffffffffffff1673ffffffffffffffffffffffffffffffffffffffff16815260200190815260200160002060040160016101000a81548160ff02191690831515021790555050565b611f2a613f66565b600c60008381526020019081526020016000206040518060c001604052908160008201548152602001600182015481526020016002820160009054906101000a900473ffffffffffffffffffffffffffffffffffffffff1673ffffffffffffffffffffffffffffffffffffffff1673ffffffffffffffffffffffffffffffffffffffff1681526020016003820160009054906101000a900473ffffffffffffffffffffffffffffffffffffffff1673ffffffffffffffffffffffffffffffffffffffff1673ffffffffffffffffffffffffffffffffffffffff168152602001600482015481526020016005820160009054906101000a900460ff1615151515815250509050919050565b60606001805461204390614d7f565b80601f016020809104026020016040519081016040528092919081815260200182805461206f90614d7f565b80156120bc5780601f10612091576101008083540402835291602001916120bc565b820191906000526020600020905b81548152906001019060200180831161209f57829003601f168201915b5050505050905090565b6000600c60008381526020019081526020016000206004015490506000600c600084815260200190815260200160002060030160009054906101000a900473ffffffffffffffffffffffffffffffffffffffff16905081341461215e576040517f08c379a000000000000000000000000000000000000000000000000000000000815260040161215590615747565b60405180910390fd5b6000600c600085815260200190815260200160002060050160006101000a81548160ff02191690831515021790555033600c600085815260200190815260200160002060020160006101000a81548173ffffffffffffffffffffffffffffffffffffffff021916908373ffffffffffffffffffffffffffffffffffffffff16021790555033600c600085815260200190815260200160002060030160006101000a81548173ffffffffffffffffffffffffffffffffffffffff021916908373ffffffffffffffffffffffffffffffffffffffff1602179055506122416008613193565b61224c303385612e59565b6122563084610925565b600a60009054906101000a900473ffffffffffffffffffffffffffffffffffffffff1673ffffffffffffffffffffffffffffffffffffffff166108fc600b549081150290604051600060405180830381858888f193505050501580156122c0573d6000803e3d6000fd5b508073ffffffffffffffffffffffffffffffffffffffff166108fc349081150290604051600060405180830381858888f19350505050158015612307573d6000803e3d6000fd5b50505050565b60006123196007613193565b600061232560076131a9565b905061233133826131f4565b61233b8185613212565b61234581846132b6565b8091505092915050565b61235881613152565b612397576040517f08c379a000000000000000000000000000000000000000000000000000000000815260040161238e90614fb2565b60405180910390fd5b600c600082815260200190815260200160002060030160009054906101000a900473ffffffffffffffffffffffffffffffffffffffff1673ffffffffffffffffffffffffffffffffffffffff163373ffffffffffffffffffffffffffffffffffffffff161461243b576040517f08c379a0000000000000000000000000000000000000000000000000000000008152600401612432906157d9565b60405180910390fd5b33600c600083815260200190815260200160002060020160006101000a81548173ffffffffffffffffffffffffffffffffffffffff021916908373ffffffffffffffffffffffffffffffffffffffff16021790555033600c600083815260200190815260200160002060030160006101000a81548173ffffffffffffffffffffffffffffffffffffffff021916908373ffffffffffffffffffffffffffffffffffffffff1602179055506000600c600083815260200190815260200160002060050160006101000a81548160ff02191690831515021790555061251f303383612e59565b50565b61252a613fca565b600d60008381526020019081526020016000206040518060e00160405290816000820154815260200160018201805461256290614d7f565b80601f016020809104026020016040519081016040528092919081815260200182805461258e90614d7f565b80156125db5780601f106125b0576101008083540402835291602001916125db565b820191906000526020600020905b8154815290600101906020018083116125be57829003601f168201915b505050505081526020016002820180546125f490614d7f565b80601f016020809104026020016040519081016040528092919081815260200182805461262090614d7f565b801561266d5780601f106126425761010080835404028352916020019161266d565b820191906000526020600020905b81548152906001019060200180831161265057829003601f168201915b5050505050815260200160038201805461268690614d7f565b80601f01602080910402602001604051908101604052809291908181526020018280546126b290614d7f565b80156126ff5780601f106126d4576101008083540402835291602001916126ff565b820191906000526020600020905b8154815290600101906020018083116126e257829003601f168201915b505050505081526020016004820160009054906101000a900460ff161515151581526020016004820160019054906101000a900460ff161515151581526020016004820160029054906101000a900460ff1615151515815250509050919050565b61277261276b612d03565b838361344b565b5050565b6000600e60008373ffffffffffffffffffffffffffffffffffffffff1673ffffffffffffffffffffffffffffffffffffffff168152602001908152602001600020600001549050919050565b6127d36127cd612d03565b83612dc4565b612812576040517f08c379a000000000000000000000000000000000000000000000000000000000815260040161280990614f46565b60405180910390fd5b61281e848484846135b7565b50505050565b3373ffffffffffffffffffffffffffffffffffffffff16600a60009054906101000a900473ffffffffffffffffffffffffffffffffffffffff1673ffffffffffffffffffffffffffffffffffffffff16146128b4576040517f08c379a00000000000000000000000000000000000000000000000000000000081526004016128ab9061586b565b60405180910390fd5b80600b8190555050565b60006128ca6007613193565b60006128d660076131a9565b90506128e233826131f4565b6128ec8185613212565b6128f68184613613565b8091505092915050565b606061290b82612cb8565b600060066000848152602001908152602001600020805461292b90614d7f565b80601f016020809104026020016040519081016040528092919081815260200182805461295790614d7f565b80156129a45780601f10612979576101008083540402835291602001916129a4565b820191906000526020600020905b81548152906001019060200180831161298757829003601f168201915b5050505050905060006129b561382e565b905060008151036129ca578192505050612a0d565b6000825111156129ff5780826040516020016129e79291906158c7565b60405160208183030381529060405292505050612a0d565b612a0884613845565b925050505b919050565b612a1a613f66565b6000612a2660076131a9565b9050600c60008281526020019081526020016000206040518060c001604052908160008201548152602001600182015481526020016002820160009054906101000a900473ffffffffffffffffffffffffffffffffffffffff1673ffffffffffffffffffffffffffffffffffffffff1673ffffffffffffffffffffffffffffffffffffffff1681526020016003820160009054906101000a900473ffffffffffffffffffffffffffffffffffffffff1673ffffffffffffffffffffffffffffffffffffffff1673ffffffffffffffffffffffffffffffffffffffff168152602001600482015481526020016005820160009054906101000a900460ff16151515158152505091505090565b6000600560008473ffffffffffffffffffffffffffffffffffffffff1673ffffffffffffffffffffffffffffffffffffffff16815260200190815260200160002060008373ffffffffffffffffffffffffffffffffffffffff1673ffffffffffffffffffffffffffffffffffffffff16815260200190815260200160002060009054906101000a900460ff16905092915050565b6000612bd160076131a9565b905090565b60007f80ac58cd000000000000000000000000000000000000000000000000000000007bffffffffffffffffffffffffffffffffffffffffffffffffffffffff1916827bffffffffffffffffffffffffffffffffffffffffffffffffffffffff19161480612ca157507f5b5e139f000000000000000000000000000000000000000000000000000000007bffffffffffffffffffffffffffffffffffffffffffffffffffffffff1916827bffffffffffffffffffffffffffffffffffffffffffffffffffffffff1916145b80612cb15750612cb0826138ad565b5b9050919050565b612cc181613152565b612d00576040517f08c379a0000000000000000000000000000000000000000000000000000000008152600401612cf790615623565b60405180910390fd5b50565b600033905090565b816004600083815260200190815260200160002060006101000a81548173ffffffffffffffffffffffffffffffffffffffff021916908373ffffffffffffffffffffffffffffffffffffffff160217905550808273ffffffffffffffffffffffffffffffffffffffff16612d7e83611d1f565b73ffffffffffffffffffffffffffffffffffffffff167f8c5be1e5ebec7d5bd14f71427d1e84f3dd0314c0f7b2291e5b200ac8c7c3b92560405160405180910390a45050565b600080612dd083611d1f565b90508073ffffffffffffffffffffffffffffffffffffffff168473ffffffffffffffffffffffffffffffffffffffff161480612e125750612e118185612b31565b5b80612e5057508373ffffffffffffffffffffffffffffffffffffffff16612e38846108df565b73ffffffffffffffffffffffffffffffffffffffff16145b91505092915050565b8273ffffffffffffffffffffffffffffffffffffffff16612e7982611d1f565b73ffffffffffffffffffffffffffffffffffffffff1614612ecf576040517f08c379a0000000000000000000000000000000000000000000000000000000008152600401612ec69061595d565b60405180910390fd5b600073ffffffffffffffffffffffffffffffffffffffff168273ffffffffffffffffffffffffffffffffffffffff1603612f3e576040517f08c379a0000000000000000000000000000000000000000000000000000000008152600401612f35906159ef565b60405180910390fd5b612f4b8383836001613917565b8273ffffffffffffffffffffffffffffffffffffffff16612f6b82611d1f565b73ffffffffffffffffffffffffffffffffffffffff1614612fc1576040517f08c379a0000000000000000000000000000000000000000000000000000000008152600401612fb89061595d565b60405180910390fd5b6004600082815260200190815260200160002060006101000a81549073ffffffffffffffffffffffffffffffffffffffff02191690556001600360008573ffffffffffffffffffffffffffffffffffffffff1673ffffffffffffffffffffffffffffffffffffffff168152602001908152602001600020600082825403925050819055506001600360008473ffffffffffffffffffffffffffffffffffffffff1673ffffffffffffffffffffffffffffffffffffffff16815260200190815260200160002060008282540192505081905550816002600083815260200190815260200160002060006101000a81548173ffffffffffffffffffffffffffffffffffffffff021916908373ffffffffffffffffffffffffffffffffffffffff160217905550808273ffffffffffffffffffffffffffffffffffffffff168473ffffffffffffffffffffffffffffffffffffffff167fddf252ad1be2c89b69c2b068fc378daa952ba7f163c4a11628f55a4df523b3ef60405160405180910390a461314d838383600161391d565b505050565b60008073ffffffffffffffffffffffffffffffffffffffff16613174836131b7565b73ffffffffffffffffffffffffffffffffffffffff1614159050919050565b6001816000016000828254019250508190555050565b600081600001549050919050565b60006002600083815260200190815260200160002060009054906101000a900473ffffffffffffffffffffffffffffffffffffffff169050919050565b61320e828260405180602001604052806000815250613923565b5050565b61321b82613152565b61325a576040517f08c379a000000000000000000000000000000000000000000000000000000000815260040161325190615a81565b60405180910390fd5b8060066000848152602001908152602001600020908161327a919061532d565b507ff8e1a15aba9398e019f0b49df1a4fde98ee17ae345cb5f6b5e2c27f5033e8ce7826040516132aa919061494b565b60405180910390a15050565b6040518060c001604052808381526020016132d033612776565b81526020013073ffffffffffffffffffffffffffffffffffffffff1681526020013373ffffffffffffffffffffffffffffffffffffffff1681526020016000815260200160001515815250600c6000848152602001908152602001600020600082015181600001556020820151816001015560408201518160020160006101000a81548173ffffffffffffffffffffffffffffffffffffffff021916908373ffffffffffffffffffffffffffffffffffffffff16021790555060608201518160030160006101000a81548173ffffffffffffffffffffffffffffffffffffffff021916908373ffffffffffffffffffffffffffffffffffffffff1602179055506080820151816004015560a08201518160050160006101000a81548160ff021916908315150217905550905050613408338284612e59565b817f9339409317fd01fabff48b703019016f49159bacc801ae872d2ca637d226e4c0823360008060405161343f9493929190615adc565b60405180910390a25050565b8173ffffffffffffffffffffffffffffffffffffffff168373ffffffffffffffffffffffffffffffffffffffff16036134b9576040517f08c379a00000000000000000000000000000000000000000000000000000000081526004016134b090615b6d565b60405180910390fd5b80600560008573ffffffffffffffffffffffffffffffffffffffff1673ffffffffffffffffffffffffffffffffffffffff16815260200190815260200160002060008473ffffffffffffffffffffffffffffffffffffffff1673ffffffffffffffffffffffffffffffffffffffff16815260200190815260200160002060006101000a81548160ff0219169083151502179055508173ffffffffffffffffffffffffffffffffffffffff168373ffffffffffffffffffffffffffffffffffffffff167f17307eab39ab6107e8899845ad3d59bd9653f200f220920489ca2b5937696c31836040516135aa91906140c1565b60405180910390a3505050565b6135c2848484612e59565b6135ce8484848461397e565b61360d576040517f08c379a000000000000000000000000000000000000000000000000000000000815260040161360490615bff565b60405180910390fd5b50505050565b600b543414613657576040517f08c379a000000000000000000000000000000000000000000000000000000000815260040161364e90615c91565b60405180910390fd5b6000811161369a576040517f08c379a000000000000000000000000000000000000000000000000000000000815260040161369190615d23565b60405180910390fd5b6040518060c001604052808381526020016136b433612776565b81526020013073ffffffffffffffffffffffffffffffffffffffff1681526020013373ffffffffffffffffffffffffffffffffffffffff16815260200182815260200160011515815250600c6000848152602001908152602001600020600082015181600001556020820151816001015560408201518160020160006101000a81548173ffffffffffffffffffffffffffffffffffffffff021916908373ffffffffffffffffffffffffffffffffffffffff16021790555060608201518160030160006101000a81548173ffffffffffffffffffffffffffffffffffffffff021916908373ffffffffffffffffffffffffffffffffffffffff1602179055506080820151816004015560a08201518160050160006101000a81548160ff0219169083151502179055509050506137eb333084612e59565b817f9339409317fd01fabff48b703019016f49159bacc801ae872d2ca637d226e4c0303384600160405161382294939291906150d0565b60405180910390a25050565b606060405180602001604052806000815250905090565b606061385082612cb8565b600061385a61382e565b9050600081511161387a57604051806020016040528060008152506138a5565b8061388484613b05565b6040516020016138959291906158c7565b6040516020818303038152906040525b915050919050565b60007f01ffc9a7000000000000000000000000000000000000000000000000000000007bffffffffffffffffffffffffffffffffffffffffffffffffffffffff1916827bffffffffffffffffffffffffffffffffffffffffffffffffffffffff1916149050919050565b50505050565b50505050565b61392d8383613bd3565b61393a600084848461397e565b613979576040517f08c379a000000000000000000000000000000000000000000000000000000000815260040161397090615bff565b60405180910390fd5b505050565b600061399f8473ffffffffffffffffffffffffffffffffffffffff16613df0565b15613af8578373ffffffffffffffffffffffffffffffffffffffff1663150b7a026139c8612d03565b8786866040518563ffffffff1660e01b81526004016139ea9493929190615d98565b6020604051808303816000875af1925050508015613a2657506040513d601f19601f82011682018060405250810190613a239190615df9565b60015b613aa8573d8060008114613a56576040519150601f19603f3d011682016040523d82523d6000602084013e613a5b565b606091505b506000815103613aa0576040517f08c379a0000000000000000000000000000000000000000000000000000000008152600401613a9790615bff565b60405180910390fd5b805181602001fd5b63150b7a0260e01b7bffffffffffffffffffffffffffffffffffffffffffffffffffffffff1916817bffffffffffffffffffffffffffffffffffffffffffffffffffffffff191614915050613afd565b600190505b949350505050565b606060006001613b1484613e13565b01905060008167ffffffffffffffff811115613b3357613b32614356565b5b6040519080825280601f01601f191660200182016040528015613b655781602001600182028036833780820191505090505b509050600082602001820190505b600115613bc8578080600190039150507f3031323334353637383961626364656600000000000000000000000000000000600a86061a8153600a8581613bbc57613bbb615e26565b5b04945060008503613b73575b819350505050919050565b600073ffffffffffffffffffffffffffffffffffffffff168273ffffffffffffffffffffffffffffffffffffffff1603613c42576040517f08c379a0000000000000000000000000000000000000000000000000000000008152600401613c3990615ea1565b60405180910390fd5b613c4b81613152565b15613c8b576040517f08c379a0000000000000000000000000000000000000000000000000000000008152600401613c8290615f0d565b60405180910390fd5b613c99600083836001613917565b613ca281613152565b15613ce2576040517f08c379a0000000000000000000000000000000000000000000000000000000008152600401613cd990615f0d565b60405180910390fd5b6001600360008473ffffffffffffffffffffffffffffffffffffffff1673ffffffffffffffffffffffffffffffffffffffff16815260200190815260200160002060008282540192505081905550816002600083815260200190815260200160002060006101000a81548173ffffffffffffffffffffffffffffffffffffffff021916908373ffffffffffffffffffffffffffffffffffffffff160217905550808273ffffffffffffffffffffffffffffffffffffffff16600073ffffffffffffffffffffffffffffffffffffffff167fddf252ad1be2c89b69c2b068fc378daa952ba7f163c4a11628f55a4df523b3ef60405160405180910390a4613dec60008383600161391d565b5050565b6000808273ffffffffffffffffffffffffffffffffffffffff163b119050919050565b600080600090507a184f03e93ff9f4daa797ed6e38ed64bf6a1f0100000000000000008310613e71577a184f03e93ff9f4daa797ed6e38ed64bf6a1f0100000000000000008381613e6757613e66615e26565b5b0492506040810190505b6d04ee2d6d415b85acef81000000008310613eae576d04ee2d6d415b85acef81000000008381613ea457613ea3615e26565b5b0492506020810190505b662386f26fc100008310613edd57662386f26fc100008381613ed357613ed2615e26565b5b0492506010810190505b6305f5e1008310613f06576305f5e1008381613efc57613efb615e26565b5b0492506008810190505b6127108310613f2b576127108381613f2157613f20615e26565b5b0492506004810190505b60648310613f4e5760648381613f4457613f43615e26565b5b0492506002810190505b600a8310613f5d576001810190505b80915050919050565b6040518060c001604052806000815260200160008152602001600073ffffffffffffffffffffffffffffffffffffffff168152602001600073ffffffffffffffffffffffffffffffffffffffff168152602001600081526020016000151581525090565b6040518060e00160405280600081526020016060815260200160608152602001606081526020016000151581526020016000151581526020016000151581525090565b6000604051905090565b600080fd5b600080fd5b60007fffffffff0000000000000000000000000000000000000000000000000000000082169050919050565b61405681614021565b811461406157600080fd5b50565b6000813590506140738161404d565b92915050565b60006020828403121561408f5761408e614017565b5b600061409d84828501614064565b91505092915050565b60008115159050919050565b6140bb816140a6565b82525050565b60006020820190506140d660008301846140b2565b92915050565b600081519050919050565b600082825260208201905092915050565b60005b838110156141165780820151818401526020810190506140fb565b60008484015250505050565b6000601f19601f8301169050919050565b600061413e826140dc565b61414881856140e7565b93506141588185602086016140f8565b61416181614122565b840191505092915050565b600060208201905081810360008301526141868184614133565b905092915050565b6000819050919050565b6141a18161418e565b81146141ac57600080fd5b50565b6000813590506141be81614198565b92915050565b6000602082840312156141da576141d9614017565b5b60006141e8848285016141af565b91505092915050565b600073ffffffffffffffffffffffffffffffffffffffff82169050919050565b600061421c826141f1565b9050919050565b61422c81614211565b82525050565b60006020820190506142476000830184614223565b92915050565b61425681614211565b811461426157600080fd5b50565b6000813590506142738161424d565b92915050565b600080604083850312156142905761428f614017565b5b600061429e85828601614264565b92505060206142af858286016141af565b9150509250929050565b6000806000606084860312156142d2576142d1614017565b5b60006142e086828701614264565b93505060206142f186828701614264565b9250506040614302868287016141af565b9150509250925092565b6000806040838503121561432357614322614017565b5b6000614331858286016141af565b9250506020614342858286016141af565b9150509250929050565b600080fd5b600080fd5b7f4e487b7100000000000000000000000000000000000000000000000000000000600052604160045260246000fd5b61438e82614122565b810181811067ffffffffffffffff821117156143ad576143ac614356565b5b80604052505050565b60006143c061400d565b90506143cc8282614385565b919050565b600067ffffffffffffffff8211156143ec576143eb614356565b5b6143f582614122565b9050602081019050919050565b82818337600083830152505050565b600061442461441f846143d1565b6143b6565b9050828152602081018484840111156144405761443f614351565b5b61444b848285614402565b509392505050565b600082601f8301126144685761446761434c565b5b8135614478848260208601614411565b91505092915050565b60008060006060848603121561449a57614499614017565b5b600084013567ffffffffffffffff8111156144b8576144b761401c565b5b6144c486828701614453565b935050602084013567ffffffffffffffff8111156144e5576144e461401c565b5b6144f186828701614453565b925050604084013567ffffffffffffffff8111156145125761451161401c565b5b61451e86828701614453565b9150509250925092565b600081519050919050565b600082825260208201905092915050565b6000819050602082019050919050565b61455d8161418e565b82525050565b600061456e826141f1565b9050919050565b61457e81614563565b82525050565b61458d816140a6565b82525050565b60c0820160008201516145a96000850182614554565b5060208201516145bc6020850182614554565b5060408201516145cf6040850182614575565b5060608201516145e26060850182614575565b5060808201516145f56080850182614554565b5060a082015161460860a0850182614584565b50505050565b600061461a8383614593565b60c08301905092915050565b6000602082019050919050565b600061463e82614528565b6146488185614533565b935061465383614544565b8060005b8381101561468457815161466b888261460e565b975061467683614626565b925050600181019050614657565b5085935050505092915050565b600060208201905081810360008301526146ab8184614633565b905092915050565b6000602082840312156146c9576146c8614017565b5b60006146d784828501614264565b91505092915050565b6146e98161418e565b82525050565b600060e082019050614704600083018a6146e0565b81810360208301526147168189614133565b9050818103604083015261472a8188614133565b9050818103606083015261473e8187614133565b905061474d60808301866140b2565b61475a60a08301856140b2565b61476760c08301846140b2565b98975050505050505050565b600081519050919050565b600082825260208201905092915050565b6000819050602082019050919050565b600082825260208201905092915050565b60006147bb826140dc565b6147c5818561479f565b93506147d58185602086016140f8565b6147de81614122565b840191505092915050565b600060e0830160008301516148016000860182614554565b506020830151848203602086015261481982826147b0565b9150506040830151848203604086015261483382826147b0565b9150506060830151848203606086015261484d82826147b0565b91505060808301516148626080860182614584565b5060a083015161487560a0860182614584565b5060c083015161488860c0860182614584565b508091505092915050565b600061489f83836147e9565b905092915050565b6000602082019050919050565b60006148bf82614773565b6148c9818561477e565b9350836020820285016148db8561478f565b8060005b8581101561491757848403895281516148f88582614893565b9450614903836148a7565b925060208a019950506001810190506148df565b50829750879550505050505092915050565b6000602082019050818103600083015261494381846148b4565b905092915050565b600060208201905061496060008301846146e0565b92915050565b60c08201600082015161497c6000850182614554565b50602082015161498f6020850182614554565b5060408201516149a26040850182614575565b5060608201516149b56060850182614575565b5060808201516149c86080850182614554565b5060a08201516149db60a0850182614584565b50505050565b600060c0820190506149f66000830184614966565b92915050565b60008060408385031215614a1357614a12614017565b5b600083013567ffffffffffffffff811115614a3157614a3061401c565b5b614a3d85828601614453565b9250506020614a4e85828601614264565b9150509250929050565b600060e083016000830151614a706000860182614554565b5060208301518482036020860152614a8882826147b0565b91505060408301518482036040860152614aa282826147b0565b91505060608301518482036060860152614abc82826147b0565b9150506080830151614ad16080860182614584565b5060a0830151614ae460a0860182614584565b5060c0830151614af760c0860182614584565b508091505092915050565b60006020820190508181036000830152614b1c8184614a58565b905092915050565b614b2d816140a6565b8114614b3857600080fd5b50565b600081359050614b4a81614b24565b92915050565b60008060408385031215614b6757614b66614017565b5b6000614b7585828601614264565b9250506020614b8685828601614b3b565b9150509250929050565b600067ffffffffffffffff821115614bab57614baa614356565b5b614bb482614122565b9050602081019050919050565b6000614bd4614bcf84614b90565b6143b6565b905082815260208101848484011115614bf057614bef614351565b5b614bfb848285614402565b509392505050565b600082601f830112614c1857614c1761434c565b5b8135614c28848260208601614bc1565b91505092915050565b60008060008060808587031215614c4b57614c4a614017565b5b6000614c5987828801614264565b9450506020614c6a87828801614264565b9350506040614c7b878288016141af565b925050606085013567ffffffffffffffff811115614c9c57614c9b61401c565b5b614ca887828801614c03565b91505092959194509250565b60008060408385031215614ccb57614cca614017565b5b600083013567ffffffffffffffff811115614ce957614ce861401c565b5b614cf585828601614453565b9250506020614d06858286016141af565b9150509250929050565b60008060408385031215614d2757614d26614017565b5b6000614d3585828601614264565b9250506020614d4685828601614264565b9150509250929050565b7f4e487b7100000000000000000000000000000000000000000000000000000000600052602260045260246000fd5b60006002820490506001821680614d9757607f821691505b602082108103614daa57614da9614d50565b5b50919050565b7f4552433732313a20617070726f76616c20746f2063757272656e74206f776e6560008201527f7200000000000000000000000000000000000000000000000000000000000000602082015250565b6000614e0c6021836140e7565b9150614e1782614db0565b604082019050919050565b60006020820190508181036000830152614e3b81614dff565b9050919050565b7f4552433732313a20617070726f76652063616c6c6572206973206e6f7420746f60008201527f6b656e206f776e6572206f7220617070726f76656420666f7220616c6c000000602082015250565b6000614e9e603d836140e7565b9150614ea982614e42565b604082019050919050565b60006020820190508181036000830152614ecd81614e91565b9050919050565b7f4552433732313a2063616c6c6572206973206e6f7420746f6b656e206f776e6560008201527f72206f7220617070726f76656400000000000000000000000000000000000000602082015250565b6000614f30602d836140e7565b9150614f3b82614ed4565b604082019050919050565b60006020820190508181036000830152614f5f81614f23565b9050919050565b7f496e76616c696420746f6b656e20494400000000000000000000000000000000600082015250565b6000614f9c6010836140e7565b9150614fa782614f66565b602082019050919050565b60006020820190508181036000830152614fcb81614f8f565b9050919050565b7f596f7520617265206e6f7420746865206f776e6572206f66207468697320746f60008201527f6b656e0000000000000000000000000000000000000000000000000000000000602082015250565b600061502e6023836140e7565b915061503982614fd2565b604082019050919050565b6000602082019050818103600083015261505d81615021565b9050919050565b7f5072696365206d7573742062652067726561746572207468616e207a65726f00600082015250565b600061509a601f836140e7565b91506150a582615064565b602082019050919050565b600060208201905081810360008301526150c98161508d565b9050919050565b60006080820190506150e56000830187614223565b6150f26020830186614223565b6150ff60408301856146e0565b61510c60608301846140b2565b95945050505050565b7f596f7520616c6572616479206861766520616e206163636f756e740000000000600082015250565b600061514b601b836140e7565b915061515682615115565b602082019050919050565b6000602082019050818103600083015261517a8161513e565b9050919050565b60008190508160005260206000209050919050565b60006020601f8301049050919050565b600082821b905092915050565b6000600883026151e37fffffffffffffffffffffffffffffffffffffffffffffffffffffffffffffffff826151a6565b6151ed86836151a6565b95508019841693508086168417925050509392505050565b6000819050919050565b600061522a6152256152208461418e565b615205565b61418e565b9050919050565b6000819050919050565b6152448361520f565b61525861525082615231565b8484546151b3565b825550505050565b600090565b61526d615260565b61527881848461523b565b505050565b5b8181101561529c57615291600082615265565b60018101905061527e565b5050565b601f8211156152e1576152b281615181565b6152bb84615196565b810160208510156152ca578190505b6152de6152d685615196565b83018261527d565b50505b505050565b600082821c905092915050565b6000615304600019846008026152e6565b1980831691505092915050565b600061531d83836152f3565b9150826002028217905092915050565b615336826140dc565b67ffffffffffffffff81111561534f5761534e614356565b5b6153598254614d7f565b6153648282856152a0565b600060209050601f8311600181146153975760008415615385578287015190505b61538f8582615311565b8655506153f7565b601f1984166153a586615181565b60005b828110156153cd578489015182556001820191506020850194506020810190506153a8565b868310156153ea57848901516153e6601f8916826152f3565b8355505b6001600288020188555050505b505050505050565b60008154905061540e81614d7f565b9050919050565b8181036154235750506154fb565b61542c826153ff565b67ffffffffffffffff81111561544557615444614356565b5b61544f8254614d7f565b61545a8282856152a0565b6000601f8311600181146154895760008415615477578287015490505b6154818582615311565b8655506154f4565b601f19841661549787615181565b96506154a286615181565b60005b828110156154ca578489015482556001820191506001850194506020810190506154a5565b868310156154e757848901546154e3601f8916826152f3565b8355505b6001600288020188555050505b5050505050505b565b7f4e487b7100000000000000000000000000000000000000000000000000000000600052601160045260246000fd5b60006155378261418e565b91506155428361418e565b925082820190508082111561555a576155596154fd565b5b92915050565b600061556b8261418e565b91507fffffffffffffffffffffffffffffffffffffffffffffffffffffffffffffffff820361559d5761559c6154fd565b5b600182019050919050565b7f4e487b7100000000000000000000000000000000000000000000000000000000600052603260045260246000fd5b7f4552433732313a20696e76616c696420746f6b656e2049440000000000000000600082015250565b600061560d6018836140e7565b9150615618826155d7565b602082019050919050565b6000602082019050818103600083015261563c81615600565b9050919050565b7f4552433732313a2061646472657373207a65726f206973206e6f74206120766160008201527f6c6964206f776e65720000000000000000000000000000000000000000000000602082015250565b600061569f6029836140e7565b91506156aa82615643565b604082019050919050565b600060208201905081810360008301526156ce81615692565b9050919050565b7f506c65617365207375626d6974207468652061736b696e67207072696365206960008201527f6e206f7264657220746f20636f6d706c65746520746865207075726368617365602082015250565b60006157316040836140e7565b915061573c826156d5565b604082019050919050565b6000602082019050818103600083015261576081615724565b9050919050565b7f594f75206e65656420746f20626520746865206f776e6572206f66207468652060008201527f4e465420746f2073656c6c206974000000000000000000000000000000000000602082015250565b60006157c3602e836140e7565b91506157ce82615767565b604082019050919050565b600060208201905081810360008301526157f2816157b6565b9050919050565b7f4f6e6c79206f776e65722063616e20757064617465206c697374696e6720707260008201527f6963650000000000000000000000000000000000000000000000000000000000602082015250565b60006158556023836140e7565b9150615860826157f9565b604082019050919050565b6000602082019050818103600083015261588481615848565b9050919050565b600081905092915050565b60006158a1826140dc565b6158ab818561588b565b93506158bb8185602086016140f8565b80840191505092915050565b60006158d38285615896565b91506158df8284615896565b91508190509392505050565b7f4552433732313a207472616e736665722066726f6d20696e636f72726563742060008201527f6f776e6572000000000000000000000000000000000000000000000000000000602082015250565b60006159476025836140e7565b9150615952826158eb565b604082019050919050565b600060208201905081810360008301526159768161593a565b9050919050565b7f4552433732313a207472616e7366657220746f20746865207a65726f2061646460008201527f7265737300000000000000000000000000000000000000000000000000000000602082015250565b60006159d96024836140e7565b91506159e48261597d565b604082019050919050565b60006020820190508181036000830152615a08816159cc565b9050919050565b7f45524337323155524953746f726167653a2055524920736574206f66206e6f6e60008201527f6578697374656e7420746f6b656e000000000000000000000000000000000000602082015250565b6000615a6b602e836140e7565b9150615a7682615a0f565b604082019050919050565b60006020820190508181036000830152615a9a81615a5e565b9050919050565b6000819050919050565b6000615ac6615ac1615abc84615aa1565b615205565b61418e565b9050919050565b615ad681615aab565b82525050565b6000608082019050615af16000830187614223565b615afe6020830186614223565b615b0b6040830185615acd565b615b1860608301846140b2565b95945050505050565b7f4552433732313a20617070726f766520746f2063616c6c657200000000000000600082015250565b6000615b576019836140e7565b9150615b6282615b21565b602082019050919050565b60006020820190508181036000830152615b8681615b4a565b9050919050565b7f4552433732313a207472616e7366657220746f206e6f6e20455243373231526560008201527f63656976657220696d706c656d656e7465720000000000000000000000000000602082015250565b6000615be96032836140e7565b9150615bf482615b8d565b604082019050919050565b60006020820190508181036000830152615c1881615bdc565b9050919050565b7f486f706566756c6c792073656e64696e672074686520636f727265637420707260008201527f6963650000000000000000000000000000000000000000000000000000000000602082015250565b6000615c7b6023836140e7565b9150615c8682615c1f565b604082019050919050565b60006020820190508181036000830152615caa81615c6e565b9050919050565b7f4d616b652073757265207468652070726963652069736e2774206e656761746960008201527f7665000000000000000000000000000000000000000000000000000000000000602082015250565b6000615d0d6022836140e7565b9150615d1882615cb1565b604082019050919050565b60006020820190508181036000830152615d3c81615d00565b9050919050565b600081519050919050565b600082825260208201905092915050565b6000615d6a82615d43565b615d748185615d4e565b9350615d848185602086016140f8565b615d8d81614122565b840191505092915050565b6000608082019050615dad6000830187614223565b615dba6020830186614223565b615dc760408301856146e0565b8181036060830152615dd98184615d5f565b905095945050505050565b600081519050615df38161404d565b92915050565b600060208284031215615e0f57615e0e614017565b5b6000615e1d84828501615de4565b91505092915050565b7f4e487b7100000000000000000000000000000000000000000000000000000000600052601260045260246000fd5b7f4552433732313a206d696e7420746f20746865207a65726f2061646472657373600082015250565b6000615e8b6020836140e7565b9150615e9682615e55565b602082019050919050565b60006020820190508181036000830152615eba81615e7e565b9050919050565b7f4552433732313a20746f6b656e20616c7265616479206d696e74656400000000600082015250565b6000615ef7601c836140e7565b9150615f0282615ec1565b602082019050919050565b60006020820190508181036000830152615f2681615eea565b905091905056fea264697066735822122055a206ca68c71f3a5924519cdca7deaf98667299b06082d880534a1a078f8d9864736f6c63430008130033",
  "immutableReferences": {},
  "source": "//SPDX-License-Identifier: Unlicense\npragma solidity ^0.8.19;\n\nimport \"../node_modules/@openzeppelin/contracts/utils/Counters.sol\";\nimport \"../node_modules/@openzeppelin/contracts/token/ERC721/extensions/ERC721URIStorage.sol\";\nimport \"../node_modules/@openzeppelin/contracts/token/ERC721/ERC721.sol\";\n\n\ncontract LoyaltyMarketplace is ERC721URIStorage {\n\n    using Counters for Counters.Counter;\n    //_tokenIds variable has the most recent minted tokenId\n    Counters.Counter private _tokenIds;\n    //Keeps track of the number of items sold on the marketplace\n    Counters.Counter private _itemsSold;\n    \n    //_Brandids variable has the most recent minted tokenId\n    Counters.Counter private _brandsIds;\n    \n    //owner of the contract\n    address payable owner;\n\n    //The fee charged by the marketplace to be allowed to list an NFT\n    uint256 listPrice = 0.01 ether;\n\n    //Information about the brands\n    struct UserAccount {\n        uint brandId;\n        string name;\n        string description;\n        string image;\n        bool isABrand; // set if account is a Brand (or a Client)\n        bool isBrandRegisterOnPlatform; //allow account to mint NFT\n        bool isAddressAlreadyCreatedAccount;\n    }\n\n    //The structure to store info about a listed token\n    struct ListedToken {\n        uint256 tokenId;\n        uint256 brandId;\n        address payable owner;\n        address payable seller;\n        uint256 price;\n        bool currentlyListed;\n    }\n\n  //the event emitted when a token is successfully listed\n    event UserAccountCreated (\n         uint brandId,\n        string name,\n        string description,\n        string image,\n        bool isABrand, \n        bool isBrandRegisterOnPlatform,\n        bool isAddressAlreadyCreatedAccount\n    );\n\n    //the event emitted when a token is successfully listed\n    event TokenListedSuccess (\n        uint256 indexed tokenId,\n        address owner,\n        address seller,\n        uint256 price,\n        bool currentlyListed\n    );\n\n    //This mapping maps tokenId to token info and is helpful when retrieving details about a tokenId\n    mapping(uint256 => ListedToken) private idToListedToken;\n\n    //mapping to store all brands\n    mapping(uint256 => UserAccount) private idToListedBrand;\n\n    //Mapping of brand\n    mapping(address => UserAccount) public userAccounts;\n\n    constructor() ERC721(\"NFTMarketplace\", \"NFTM\") {\n        owner = payable(msg.sender);\n    }\n\n    //set account (brand or customer)\n    function createUserAccount(\n        //address _addr, \n        string memory _name, \n        string memory _description, \n        string memory _image\n        ) public {\n        //ajouter un ownable\n        require(!userAccounts[msg.sender].isAddressAlreadyCreatedAccount, \"You alerady have an account\");\n        userAccounts[msg.sender].name = _name;\n        userAccounts[msg.sender].description = _description;\n        userAccounts[msg.sender].image = _image;\n        userAccounts[msg.sender].isAddressAlreadyCreatedAccount = true;\n\n\n        //a deporter dans les fonctions pour qu'il y ai une validation par l'admin de la plateforme\n         userAccounts[msg.sender].isBrandRegisterOnPlatform = true;\n        \n        //Increment the brandId counter, which is keeping track of the number of brand registered who are allowed to mint\n        _brandsIds.increment();\n        uint256 currentBrandId = _brandsIds.current();\n        userAccounts[msg.sender].brandId = currentBrandId;\n        idToListedBrand[currentBrandId] = userAccounts[msg.sender];\n\n         userAccounts[msg.sender].isABrand = true;\n\n         emit UserAccountCreated(\n                currentBrandId,\n                 _name,\n                 _description,\n                 _image,\n                 true, \n                 true,\n                 true\n         );\n   }\n\n    //set brand account as registered => Allow account to mint NFT\n    function setIsBrandRegisterOnPlatform(address _addr) public{\n        userAccounts[_addr].isBrandRegisterOnPlatform = true;\n        \n        //Increment the brandId counter, which is keeping track of the number of brand registered who are allowed to mint\n       // _brandsIds.increment();\n       // uint256 currentBrandId = _brandsIds.current();\n       // userAccounts[_addr].brandId = currentBrandId;\n       // idToListedBrand[currentBrandId] = userAccounts[_addr];\n\n    }\n\n    //set account as a brand account\n    function setUserIsABrand(address _addr) public{\n        userAccounts[_addr].isABrand = true;\n    }\n\n\n    function updateListPrice(uint256 _listPrice) public payable {\n        require(owner == msg.sender, \"Only owner can update listing price\");\n        listPrice = _listPrice;\n    }\n\n    function getListPrice() public view returns (uint256) {\n        return listPrice;\n    }\n\n    function getLatestIdToListedToken() public view returns (ListedToken memory) {\n        uint256 currentTokenId = _tokenIds.current();\n        return idToListedToken[currentTokenId];\n    }\n\n    function getListedTokenForId(uint256 tokenId) public view returns (ListedToken memory) {\n        return idToListedToken[tokenId];\n    }\n\n    function getCurrentToken() public view returns (uint256) {\n        return _tokenIds.current();\n    }\n\n    //The first time a token is created, it is listed here\n    function createTokenToMarketplace(string memory tokenURI, uint256 price) public payable returns (uint) {\n        //Increment the tokenId counter, which is keeping track of the number of minted NFTs\n        _tokenIds.increment();\n        uint256 newTokenId = _tokenIds.current();\n\n        //Mint the NFT with tokenId newTokenId to the address who called createToken\n        _safeMint(msg.sender, newTokenId);\n\n        //Map the tokenId to the tokenURI (which is an IPFS URL with the NFT metadata)\n        _setTokenURI(newTokenId, tokenURI);\n\n        //Helper function to update Global variables and emit an event\n       createListedToken(newTokenId, price);\n\n        return newTokenId;\n    }\n\n    //The first time a token is created, it is listed here\n    function createTokenToAddress(string memory tokenURI, address _addr) public payable returns (uint) {\n        //Increment the tokenId counter, which is keeping track of the number of minted NFTs\n        _tokenIds.increment();\n        uint256 newTokenId = _tokenIds.current();\n\n        //Mint the NFT with tokenId newTokenId to the address who called createToken\n        _safeMint(msg.sender, newTokenId);\n\n        //Map the tokenId to the tokenURI (which is an IPFS URL with the NFT metadata)\n        _setTokenURI(newTokenId, tokenURI);\n\n        \n       createListedTokenAndSendToAddress(newTokenId, _addr);\n\n        return newTokenId;\n    }\n\n    function getIdBrandFromAddress(address _addr) public view returns (uint _id){\n        return userAccounts[_addr].brandId;\n    }\n\n    function getBrandFromId(uint _idBrand) public view returns (UserAccount memory){\n        return idToListedBrand[_idBrand];\n    }\n\n    //mint NFT and sent to marketplace\n    function createListedToken(uint256 tokenId, uint256 price) private {\n    //require etre sur que le createur a un compte entreprise et qu'il est authoris a minter des nft\n\n        //Make sure the sender sent enough ETH to pay for listing\n        require(msg.value == listPrice, \"Hopefully sending the correct price\");\n        //Just sanity check\n        require(price > 0, \"Make sure the price isn't negative\");\n\n        //Update the mapping of tokenId's to Token details, useful for retrieval functions\n        idToListedToken[tokenId] = ListedToken(\n            tokenId,\n            getIdBrandFromAddress(msg.sender),//brandId -> faire une fonction qui recup l'id de la brand a partir de l'adresse\n            payable(address(this)),\n            payable(msg.sender),\n            price,\n            true\n        );\n\n        _transfer(msg.sender, address(this), tokenId);\n\n        //Emit the event for successful transfer. The frontend parses this message and updates the end user\n        emit TokenListedSuccess(\n            tokenId,\n            address(this),\n            msg.sender,\n            price,\n            true\n        );\n    }\n\n//mint NFT and sent to a customer\nfunction createListedTokenAndSendToAddress(uint256 tokenId, address _addr) private {\n        //Make sure the sender sent enough ETH to pay for listing\n       // require(msg.value == listPrice, \"Hopefully sending the correct price\");\n       \n        //Update the mapping of tokenId's to Token details, useful for retrieval functions\n        idToListedToken[tokenId] = ListedToken(\n            tokenId,\n            getIdBrandFromAddress(msg.sender),//brandId \n            payable(address(this)),\n            payable(msg.sender),\n            0,\n            false\n        );\n\n        _transfer(msg.sender, _addr, tokenId);\n        //Emit the event for successful transfer. The frontend parses this message and updates the end user\n        emit TokenListedSuccess(\n            tokenId,\n            _addr,\n            msg.sender,\n            0,\n            false\n        );\n    }\n\n     //This will return all the Brands currently registered on the marketplace\n    function getAllBrands() public view returns (UserAccount[] memory) {\n        uint brandsCount = _brandsIds.current();\n        UserAccount[] memory brands = new UserAccount[](brandsCount);\n        uint currentIndex = 0;\n\n         for(uint i=0;i<brandsCount;i++)\n        {\n            uint currentId = i + 1;\n            UserAccount storage currentItem = idToListedBrand[currentId];\n            brands[currentIndex] = currentItem;\n            currentIndex += 1;\n        }\n        //the array 'tokens' has the list of all NFTs in the marketplace\n        return brands;\n    }\n    \n    //This will return all the NFTs currently listed to be sold on the marketplace\n    /*\n    function getAllNFTs() public view returns (ListedToken[] memory) {\n        uint nftCount = _tokenIds.current();\n        ListedToken[] memory tokens = new ListedToken[](nftCount);\n        uint currentIndex = 0;\n\n        //at the moment currentlyListed is true for all, if it becomes false in the future we will \n        //filter out currentlyListed == false over here\n        for(uint i=0;i<nftCount;i++)\n        {\n            uint currentId = i + 1;\n            ListedToken storage currentItem = idToListedToken[currentId];\n            tokens[currentIndex] = currentItem;\n            currentIndex += 1;\n        }\n        //the array 'tokens' has the list of all NFTs in the marketplace\n        return tokens;\n    }\n    */\n    \n    //Returns all the NFTs that the current user is owner or seller in\n    function getMyNFTs() public view returns (ListedToken[] memory) {\n        uint totalItemCount = _tokenIds.current();\n        uint itemCount = 0;\n        uint currentIndex = 0;\n        \n        //Important to get a count of all the NFTs that belong to the user before we can make an array for them\n        for(uint i=0; i < totalItemCount; i++)\n        {\n            if(idToListedToken[i+1].owner == msg.sender || idToListedToken[i+1].seller == msg.sender){\n                itemCount += 1;\n            }\n        }\n\n        //Once you have the count of relevant NFTs, create an array then store all the NFTs in it\n        ListedToken[] memory items = new ListedToken[](itemCount);\n        for(uint i=0; i < totalItemCount; i++) {\n            if(idToListedToken[i+1].owner == msg.sender || idToListedToken[i+1].seller == msg.sender) {\n                uint currentId = i+1;\n                ListedToken storage currentItem = idToListedToken[currentId];\n                items[currentIndex] = currentItem;\n                currentIndex += 1;\n            }\n        }\n        return items;\n    }\n\n      //Returns all the NFTs by brand\n    function getNFTsByBrand(uint _idBrand) public view returns (ListedToken[] memory) {\n        uint totalItemCount = _tokenIds.current();\n        uint itemCount = 0;\n        uint currentIndex = 0;\n        \n        //Important to get a count of all the NFTs that belong to the user before we can make an array for them\n        for(uint i=0; i < totalItemCount; i++)\n        {\n            if(idToListedToken[i+1].brandId == _idBrand && idToListedToken[i+1].currentlyListed){\n                itemCount += 1;\n            }\n        }\n\n        //Once you have the count of relevant NFTs, create an array then store all the NFTs in it\n        ListedToken[] memory items = new ListedToken[](itemCount);\n        for(uint i=0; i < totalItemCount; i++) {\n            if(idToListedToken[i+1].brandId == _idBrand && idToListedToken[i+1].currentlyListed) {\n                uint currentId = i+1;\n                ListedToken storage currentItem = idToListedToken[currentId];\n                items[currentIndex] = currentItem;\n                currentIndex += 1;\n            }\n        }\n        return items;\n    }\n\n \n\n    function removeTokenFromMarket(uint _idToken) public{\n        require(_exists(_idToken), \"Invalid token ID\");\n     //  require(idToListedToken[_idToken].seller == msg.sender, \"The token is not listed on the marketplace\");\n\n    \n    //delete idToListedToken[_idToken];\n\n    \n    //_transfer(address(this), msg.sender, _idToken);\n        \n       \n        require(msg.sender == idToListedToken[_idToken].seller, \"YOu need to be the owner of the NFT to sell it\");\n        idToListedToken[_idToken].owner = payable(msg.sender);\n        idToListedToken[_idToken].seller = payable(msg.sender);\n        idToListedToken[_idToken].currentlyListed = false;\n\n        _transfer(address(this), msg.sender, _idToken);\n         \n       // approve(address(this), _idToken);\n        \n    }\n\n    function executeSale(uint256 tokenId) public payable {\n        uint price = idToListedToken[tokenId].price;\n        address seller = idToListedToken[tokenId].seller;\n        require(msg.value == price, \"Please submit the asking price in order to complete the purchase\");\n\n        //update the details of the token\n        idToListedToken[tokenId].currentlyListed = false;\n        idToListedToken[tokenId].owner = payable(msg.sender);\n        idToListedToken[tokenId].seller = payable(msg.sender);\n        _itemsSold.increment();\n\n        //transfer the NFT to the new owner\n        _transfer(address(this), msg.sender, tokenId);\n        //approve the marketplace to sell NFTs for user\n        approve(address(this), tokenId);\n    \n\n        //Transfer the listing fee to the marketplace creator\n        payable(owner).transfer(listPrice);\n        //Transfer the proceeds from the sale to the seller of the NFT\n        payable(seller).transfer(msg.value);\n    }\n\n\n\n       function addTokenToSaleOnTheMarket(uint _idToken, uint _price) public{\n        require(_exists(_idToken), \"Invalid token ID\");\n    require(ownerOf(_idToken) == msg.sender, \"You are not the owner of this token\");\n\n    // Vrifier que le prix n'est pas nul\n    require(_price > 0, \"Price must be greater than zero\");\n\n        \n        //require(msg.sender == idToListedToken[_idToken].seller, \"You need to be the owner of the NFT to sell it\");\n        //require(msg.value == listPrice, \"Hopefully sending the correct price\");\n\n        idToListedToken[_idToken].price = _price;\n        idToListedToken[_idToken].currentlyListed = true;\n\n         idToListedToken[_idToken].seller = payable(msg.sender);\n         idToListedToken[_idToken].owner = payable(address(this));\n\n        _transfer(msg.sender, address(this), _idToken);\n\n         //approve the user to retransfer the NFT to him\n        //approve(msg.sender, _idToken);\n\n       // payable(owner).transfer(listPrice);\n         emit TokenListedSuccess(\n        _idToken,\n        address(this),\n        msg.sender,\n        _price,\n        true\n    );\n       \n    }\n}",
  "sourcePath": "/Users/thibaut/development/alyra/LoyaltyChainv3/backendTruffle/contracts/LoyaltyMarketplace.sol",
  "compiler": {
    "name": "solc",
    "version": "0.8.19+commit.7dd6d404.Emscripten.clang"
  },
  "schemaVersion": "3.4.14",
  "updatedAt": "2023-07-05T07:27:47.647Z",
  "networkType": "ethereum",
  "devdoc": {
    "events": {
      "Approval(address,address,uint256)": {
        "details": "Emitted when `owner` enables `approved` to manage the `tokenId` token."
      },
      "ApprovalForAll(address,address,bool)": {
        "details": "Emitted when `owner` enables or disables (`approved`) `operator` to manage all of its assets."
      },
      "BatchMetadataUpdate(uint256,uint256)": {
        "details": "This event emits when the metadata of a range of tokens is changed. So that the third-party platforms such as NFT market could timely update the images and related attributes of the NFTs."
      },
      "MetadataUpdate(uint256)": {
        "details": "This event emits when the metadata of a token is changed. So that the third-party platforms such as NFT market could timely update the images and related attributes of the NFT."
      },
      "Transfer(address,address,uint256)": {
        "details": "Emitted when `tokenId` token is transferred from `from` to `to`."
      }
    },
    "kind": "dev",
    "methods": {
      "approve(address,uint256)": {
        "details": "See {IERC721-approve}."
      },
      "balanceOf(address)": {
        "details": "See {IERC721-balanceOf}."
      },
      "getApproved(uint256)": {
        "details": "See {IERC721-getApproved}."
      },
      "isApprovedForAll(address,address)": {
        "details": "See {IERC721-isApprovedForAll}."
      },
      "name()": {
        "details": "See {IERC721Metadata-name}."
      },
      "ownerOf(uint256)": {
        "details": "See {IERC721-ownerOf}."
      },
      "safeTransferFrom(address,address,uint256)": {
        "details": "See {IERC721-safeTransferFrom}."
      },
      "safeTransferFrom(address,address,uint256,bytes)": {
        "details": "See {IERC721-safeTransferFrom}."
      },
      "setApprovalForAll(address,bool)": {
        "details": "See {IERC721-setApprovalForAll}."
      },
      "supportsInterface(bytes4)": {
        "details": "See {IERC165-supportsInterface}"
      },
      "symbol()": {
        "details": "See {IERC721Metadata-symbol}."
      },
      "tokenURI(uint256)": {
        "details": "See {IERC721Metadata-tokenURI}."
      },
      "transferFrom(address,address,uint256)": {
        "details": "See {IERC721-transferFrom}."
      }
    },
    "version": 1
  },
  "userdoc": {
    "kind": "user",
    "methods": {},
    "version": 1
  }
}