{
  "contractName": "LTYAccount",
  "abi": [
    {
      "anonymous": false,
      "inputs": [
        {
          "indexed": false,
          "internalType": "address",
          "name": "_addr",
          "type": "address"
        }
      ],
      "name": "EventBrandRegisterOnPlatform",
      "type": "event"
    },
    {
      "anonymous": false,
      "inputs": [
        {
          "indexed": false,
          "internalType": "uint256",
          "name": "brandId",
          "type": "uint256"
        },
        {
          "indexed": false,
          "internalType": "string",
          "name": "name",
          "type": "string"
        },
        {
          "indexed": false,
          "internalType": "string",
          "name": "description",
          "type": "string"
        },
        {
          "indexed": false,
          "internalType": "string",
          "name": "image",
          "type": "string"
        }
      ],
      "name": "EventUserAccountCreated",
      "type": "event"
    },
    {
      "anonymous": false,
      "inputs": [
        {
          "indexed": false,
          "internalType": "address",
          "name": "_addr",
          "type": "address"
        }
      ],
      "name": "EventUserIsABrand",
      "type": "event"
    },
    {
      "anonymous": false,
      "inputs": [
        {
          "indexed": true,
          "internalType": "address",
          "name": "previousOwner",
          "type": "address"
        },
        {
          "indexed": true,
          "internalType": "address",
          "name": "newOwner",
          "type": "address"
        }
      ],
      "name": "OwnershipTransferred",
      "type": "event"
    },
    {
      "inputs": [],
      "name": "owner",
      "outputs": [
        {
          "internalType": "address",
          "name": "",
          "type": "address"
        }
      ],
      "stateMutability": "view",
      "type": "function",
      "constant": true
    },
    {
      "inputs": [],
      "name": "renounceOwnership",
      "outputs": [],
      "stateMutability": "nonpayable",
      "type": "function"
    },
    {
      "inputs": [
        {
          "internalType": "address",
          "name": "newOwner",
          "type": "address"
        }
      ],
      "name": "transferOwnership",
      "outputs": [],
      "stateMutability": "nonpayable",
      "type": "function"
    },
    {
      "inputs": [
        {
          "internalType": "address",
          "name": "",
          "type": "address"
        }
      ],
      "name": "userAccounts",
      "outputs": [
        {
          "internalType": "uint256",
          "name": "brandId",
          "type": "uint256"
        },
        {
          "internalType": "string",
          "name": "name",
          "type": "string"
        },
        {
          "internalType": "string",
          "name": "description",
          "type": "string"
        },
        {
          "internalType": "string",
          "name": "image",
          "type": "string"
        },
        {
          "internalType": "bool",
          "name": "isABrand",
          "type": "bool"
        },
        {
          "internalType": "bool",
          "name": "isBrandRegisterOnPlatform",
          "type": "bool"
        },
        {
          "internalType": "bool",
          "name": "isAddressAlreadyCreatedAccount",
          "type": "bool"
        }
      ],
      "stateMutability": "view",
      "type": "function",
      "constant": true
    },
    {
      "inputs": [
        {
          "internalType": "string",
          "name": "_name",
          "type": "string"
        },
        {
          "internalType": "string",
          "name": "_description",
          "type": "string"
        },
        {
          "internalType": "string",
          "name": "_image",
          "type": "string"
        }
      ],
      "name": "createUserAccount",
      "outputs": [],
      "stateMutability": "nonpayable",
      "type": "function"
    },
    {
      "inputs": [
        {
          "internalType": "address",
          "name": "_addr",
          "type": "address"
        }
      ],
      "name": "setIsBrandRegisterOnPlatform",
      "outputs": [],
      "stateMutability": "nonpayable",
      "type": "function"
    },
    {
      "inputs": [
        {
          "internalType": "address",
          "name": "_addr",
          "type": "address"
        }
      ],
      "name": "setUserIsABrand",
      "outputs": [],
      "stateMutability": "nonpayable",
      "type": "function"
    },
    {
      "inputs": [
        {
          "internalType": "address",
          "name": "_addr",
          "type": "address"
        }
      ],
      "name": "getIdBrandFromAddress",
      "outputs": [
        {
          "internalType": "uint256",
          "name": "_id",
          "type": "uint256"
        }
      ],
      "stateMutability": "view",
      "type": "function",
      "constant": true
    },
    {
      "inputs": [
        {
          "internalType": "uint256",
          "name": "_idBrand",
          "type": "uint256"
        }
      ],
      "name": "getBrandFromId",
      "outputs": [
        {
          "components": [
            {
              "internalType": "uint256",
              "name": "brandId",
              "type": "uint256"
            },
            {
              "internalType": "string",
              "name": "name",
              "type": "string"
            },
            {
              "internalType": "string",
              "name": "description",
              "type": "string"
            },
            {
              "internalType": "string",
              "name": "image",
              "type": "string"
            },
            {
              "internalType": "bool",
              "name": "isABrand",
              "type": "bool"
            },
            {
              "internalType": "bool",
              "name": "isBrandRegisterOnPlatform",
              "type": "bool"
            },
            {
              "internalType": "bool",
              "name": "isAddressAlreadyCreatedAccount",
              "type": "bool"
            }
          ],
          "internalType": "struct LTYAccount.UserAccount",
          "name": "",
          "type": "tuple"
        }
      ],
      "stateMutability": "view",
      "type": "function",
      "constant": true
    },
    {
      "inputs": [],
      "name": "getAllBrands",
      "outputs": [
        {
          "components": [
            {
              "internalType": "uint256",
              "name": "brandId",
              "type": "uint256"
            },
            {
              "internalType": "string",
              "name": "name",
              "type": "string"
            },
            {
              "internalType": "string",
              "name": "description",
              "type": "string"
            },
            {
              "internalType": "string",
              "name": "image",
              "type": "string"
            },
            {
              "internalType": "bool",
              "name": "isABrand",
              "type": "bool"
            },
            {
              "internalType": "bool",
              "name": "isBrandRegisterOnPlatform",
              "type": "bool"
            },
            {
              "internalType": "bool",
              "name": "isAddressAlreadyCreatedAccount",
              "type": "bool"
            }
          ],
          "internalType": "struct LTYAccount.UserAccount[]",
          "name": "",
          "type": "tuple[]"
        }
      ],
      "stateMutability": "view",
      "type": "function",
      "constant": true
    }
  ],
  "bytecode": "0x608060405234801561001057600080fd5b5061002d61002261003260201b60201c565b61003a60201b60201c565b6100fe565b600033905090565b60008060009054906101000a900473ffffffffffffffffffffffffffffffffffffffff169050816000806101000a81548173ffffffffffffffffffffffffffffffffffffffff021916908373ffffffffffffffffffffffffffffffffffffffff1602179055508173ffffffffffffffffffffffffffffffffffffffff168173ffffffffffffffffffffffffffffffffffffffff167f8be0079c531659141344cd1fd0a4f28419497f9722a3daafe3b4186f6b6457e060405160405180910390a35050565b611eb98061010d6000396000f3fe608060405234801561001057600080fd5b506004361061009e5760003560e01c8063886d07e211610066578063886d07e2146101395780638da5cb5b14610155578063a07e723614610173578063b2a90087146101a3578063f2fde38b146101d35761009e565b80634450e06d146100a35780635251d91c146100bf57806360e8ddb0146100f557806369a015b914610113578063715018a61461012f575b600080fd5b6100bd60048036038101906100b89190611240565b6101ef565b005b6100d960048036038101906100d49190611345565b6105a3565b6040516100ec9796959493929190611425565b60405180910390f35b6100fd6107a4565b60405161010a919061167d565b60405180910390f35b61012d60048036038101906101289190611345565b610ac1565b005b610137610b56565b005b610153600480360381019061014e9190611345565b610b6a565b005b61015d610bff565b60405161016a91906116ae565b60405180910390f35b61018d600480360381019061018891906116f5565b610c28565b60405161019a91906117cc565b60405180910390f35b6101bd60048036038101906101b89190611345565b610e66565b6040516101ca91906117ee565b60405180910390f35b6101ed60048036038101906101e89190611345565b610eb2565b005b600360003373ffffffffffffffffffffffffffffffffffffffff1673ffffffffffffffffffffffffffffffffffffffff16815260200190815260200160002060040160029054906101000a900460ff161561027f576040517f08c379a000000000000000000000000000000000000000000000000000000000815260040161027690611855565b60405180910390fd5b82600360003373ffffffffffffffffffffffffffffffffffffffff1673ffffffffffffffffffffffffffffffffffffffff16815260200190815260200160002060010190816102ce9190611a81565b5081600360003373ffffffffffffffffffffffffffffffffffffffff1673ffffffffffffffffffffffffffffffffffffffff168152602001908152602001600020600201908161031e9190611a81565b5080600360003373ffffffffffffffffffffffffffffffffffffffff1673ffffffffffffffffffffffffffffffffffffffff168152602001908152602001600020600301908161036e9190611a81565b506001600360003373ffffffffffffffffffffffffffffffffffffffff1673ffffffffffffffffffffffffffffffffffffffff16815260200190815260200160002060040160026101000a81548160ff0219169083151502179055506103d333610ac1565b6103dc33610b6a565b6103e66001610f35565b60006103f26001610f4b565b905080600360003373ffffffffffffffffffffffffffffffffffffffff1673ffffffffffffffffffffffffffffffffffffffff16815260200190815260200160002060000181905550600360003373ffffffffffffffffffffffffffffffffffffffff1673ffffffffffffffffffffffffffffffffffffffff1681526020019081526020016000206002600083815260200190815260200160002060008201548160000155600182018160010190816104ab9190611b69565b50600282018160020190816104c09190611b69565b50600382018160030190816104d59190611b69565b506004820160009054906101000a900460ff168160040160006101000a81548160ff0219169083151502179055506004820160019054906101000a900460ff168160040160016101000a81548160ff0219169083151502179055506004820160029054906101000a900460ff168160040160026101000a81548160ff0219169083151502179055509050507fe00519c095c5ff5bf8367c25679e5f06b1116d5b6e15c077a4fb7eda610214c1818585856040516105959493929190611c51565b60405180910390a150505050565b60036020528060005260406000206000915090508060000154908060010180546105cc906118a4565b80601f01602080910402602001604051908101604052809291908181526020018280546105f8906118a4565b80156106455780601f1061061a57610100808354040283529160200191610645565b820191906000526020600020905b81548152906001019060200180831161062857829003601f168201915b50505050509080600201805461065a906118a4565b80601f0160208091040260200160405190810160405280929190818152602001828054610686906118a4565b80156106d35780601f106106a8576101008083540402835291602001916106d3565b820191906000526020600020905b8154815290600101906020018083116106b657829003601f168201915b5050505050908060030180546106e8906118a4565b80601f0160208091040260200160405190810160405280929190818152602001828054610714906118a4565b80156107615780601f1061073657610100808354040283529160200191610761565b820191906000526020600020905b81548152906001019060200180831161074457829003601f168201915b5050505050908060040160009054906101000a900460ff16908060040160019054906101000a900460ff16908060040160029054906101000a900460ff16905087565b606060006107b26001610f4b565b905060008167ffffffffffffffff8111156107d0576107cf611115565b5b60405190808252806020026020018201604052801561080957816020015b6107f66110a3565b8152602001906001900390816107ee5790505b5090506000805b83811015610ab75760006001826108279190611cda565b905060006002600083815260200190815260200160002090508060040160019054906101000a900460ff1615610aa257806040518060e00160405290816000820154815260200160018201805461087d906118a4565b80601f01602080910402602001604051908101604052809291908181526020018280546108a9906118a4565b80156108f65780601f106108cb576101008083540402835291602001916108f6565b820191906000526020600020905b8154815290600101906020018083116108d957829003601f168201915b5050505050815260200160028201805461090f906118a4565b80601f016020809104026020016040519081016040528092919081815260200182805461093b906118a4565b80156109885780601f1061095d57610100808354040283529160200191610988565b820191906000526020600020905b81548152906001019060200180831161096b57829003601f168201915b505050505081526020016003820180546109a1906118a4565b80601f01602080910402602001604051908101604052809291908181526020018280546109cd906118a4565b8015610a1a5780601f106109ef57610100808354040283529160200191610a1a565b820191906000526020600020905b8154815290600101906020018083116109fd57829003601f168201915b505050505081526020016004820160009054906101000a900460ff161515151581526020016004820160019054906101000a900460ff161515151581526020016004820160029054906101000a900460ff161515151581525050858581518110610a8757610a86611d0e565b5b6020026020010181905250600184610a9f9190611cda565b93505b50508080610aaf90611d3d565b915050610810565b5081935050505090565b6001600360008373ffffffffffffffffffffffffffffffffffffffff1673ffffffffffffffffffffffffffffffffffffffff16815260200190815260200160002060040160006101000a81548160ff0219169083151502179055507f36ffaad55cc247449809f68d9e11c0e594b038d81969bc8df55b1fc07db8470081604051610b4b91906116ae565b60405180910390a150565b610b5e610f59565b610b686000610fd7565b565b6001600360008373ffffffffffffffffffffffffffffffffffffffff1673ffffffffffffffffffffffffffffffffffffffff16815260200190815260200160002060040160016101000a81548160ff0219169083151502179055507ff3b01f304a6fefd18b9d8bc9829e5d5d38204f8c3227ca5f1b0119f3bb6c940a81604051610bf491906116ae565b60405180910390a150565b60008060009054906101000a900473ffffffffffffffffffffffffffffffffffffffff16905090565b610c306110a3565b600260008381526020019081526020016000206040518060e001604052908160008201548152602001600182018054610c68906118a4565b80601f0160208091040260200160405190810160405280929190818152602001828054610c94906118a4565b8015610ce15780601f10610cb657610100808354040283529160200191610ce1565b820191906000526020600020905b815481529060010190602001808311610cc457829003601f168201915b50505050508152602001600282018054610cfa906118a4565b80601f0160208091040260200160405190810160405280929190818152602001828054610d26906118a4565b8015610d735780601f10610d4857610100808354040283529160200191610d73565b820191906000526020600020905b815481529060010190602001808311610d5657829003601f168201915b50505050508152602001600382018054610d8c906118a4565b80601f0160208091040260200160405190810160405280929190818152602001828054610db8906118a4565b8015610e055780601f10610dda57610100808354040283529160200191610e05565b820191906000526020600020905b815481529060010190602001808311610de857829003601f168201915b505050505081526020016004820160009054906101000a900460ff161515151581526020016004820160019054906101000a900460ff161515151581526020016004820160029054906101000a900460ff1615151515815250509050919050565b6000600360008373ffffffffffffffffffffffffffffffffffffffff1673ffffffffffffffffffffffffffffffffffffffff168152602001908152602001600020600001549050919050565b610eba610f59565b600073ffffffffffffffffffffffffffffffffffffffff168173ffffffffffffffffffffffffffffffffffffffff1603610f29576040517f08c379a0000000000000000000000000000000000000000000000000000000008152600401610f2090611df7565b60405180910390fd5b610f3281610fd7565b50565b6001816000016000828254019250508190555050565b600081600001549050919050565b610f6161109b565b73ffffffffffffffffffffffffffffffffffffffff16610f7f610bff565b73ffffffffffffffffffffffffffffffffffffffff1614610fd5576040517f08c379a0000000000000000000000000000000000000000000000000000000008152600401610fcc90611e63565b60405180910390fd5b565b60008060009054906101000a900473ffffffffffffffffffffffffffffffffffffffff169050816000806101000a81548173ffffffffffffffffffffffffffffffffffffffff021916908373ffffffffffffffffffffffffffffffffffffffff1602179055508173ffffffffffffffffffffffffffffffffffffffff168173ffffffffffffffffffffffffffffffffffffffff167f8be0079c531659141344cd1fd0a4f28419497f9722a3daafe3b4186f6b6457e060405160405180910390a35050565b600033905090565b6040518060e00160405280600081526020016060815260200160608152602001606081526020016000151581526020016000151581526020016000151581525090565b6000604051905090565b600080fd5b600080fd5b600080fd5b600080fd5b6000601f19601f8301169050919050565b7f4e487b7100000000000000000000000000000000000000000000000000000000600052604160045260246000fd5b61114d82611104565b810181811067ffffffffffffffff8211171561116c5761116b611115565b5b80604052505050565b600061117f6110e6565b905061118b8282611144565b919050565b600067ffffffffffffffff8211156111ab576111aa611115565b5b6111b482611104565b9050602081019050919050565b82818337600083830152505050565b60006111e36111de84611190565b611175565b9050828152602081018484840111156111ff576111fe6110ff565b5b61120a8482856111c1565b509392505050565b600082601f830112611227576112266110fa565b5b81356112378482602086016111d0565b91505092915050565b600080600060608486031215611259576112586110f0565b5b600084013567ffffffffffffffff811115611277576112766110f5565b5b61128386828701611212565b935050602084013567ffffffffffffffff8111156112a4576112a36110f5565b5b6112b086828701611212565b925050604084013567ffffffffffffffff8111156112d1576112d06110f5565b5b6112dd86828701611212565b9150509250925092565b600073ffffffffffffffffffffffffffffffffffffffff82169050919050565b6000611312826112e7565b9050919050565b61132281611307565b811461132d57600080fd5b50565b60008135905061133f81611319565b92915050565b60006020828403121561135b5761135a6110f0565b5b600061136984828501611330565b91505092915050565b6000819050919050565b61138581611372565b82525050565b600081519050919050565b600082825260208201905092915050565b60005b838110156113c55780820151818401526020810190506113aa565b60008484015250505050565b60006113dc8261138b565b6113e68185611396565b93506113f68185602086016113a7565b6113ff81611104565b840191505092915050565b60008115159050919050565b61141f8161140a565b82525050565b600060e08201905061143a600083018a61137c565b818103602083015261144c81896113d1565b9050818103604083015261146081886113d1565b9050818103606083015261147481876113d1565b90506114836080830186611416565b61149060a0830185611416565b61149d60c0830184611416565b98975050505050505050565b600081519050919050565b600082825260208201905092915050565b6000819050602082019050919050565b6114de81611372565b82525050565b600082825260208201905092915050565b60006115008261138b565b61150a81856114e4565b935061151a8185602086016113a7565b61152381611104565b840191505092915050565b6115378161140a565b82525050565b600060e08301600083015161155560008601826114d5565b506020830151848203602086015261156d82826114f5565b9150506040830151848203604086015261158782826114f5565b915050606083015184820360608601526115a182826114f5565b91505060808301516115b6608086018261152e565b5060a08301516115c960a086018261152e565b5060c08301516115dc60c086018261152e565b508091505092915050565b60006115f3838361153d565b905092915050565b6000602082019050919050565b6000611613826114a9565b61161d81856114b4565b93508360208202850161162f856114c5565b8060005b8581101561166b578484038952815161164c85826115e7565b9450611657836115fb565b925060208a01995050600181019050611633565b50829750879550505050505092915050565b600060208201905081810360008301526116978184611608565b905092915050565b6116a881611307565b82525050565b60006020820190506116c3600083018461169f565b92915050565b6116d281611372565b81146116dd57600080fd5b50565b6000813590506116ef816116c9565b92915050565b60006020828403121561170b5761170a6110f0565b5b6000611719848285016116e0565b91505092915050565b600060e08301600083015161173a60008601826114d5565b506020830151848203602086015261175282826114f5565b9150506040830151848203604086015261176c82826114f5565b9150506060830151848203606086015261178682826114f5565b915050608083015161179b608086018261152e565b5060a08301516117ae60a086018261152e565b5060c08301516117c160c086018261152e565b508091505092915050565b600060208201905081810360008301526117e68184611722565b905092915050565b6000602082019050611803600083018461137c565b92915050565b7f596f7520616c7265616479206861766520616e206163636f756e740000000000600082015250565b600061183f601b83611396565b915061184a82611809565b602082019050919050565b6000602082019050818103600083015261186e81611832565b9050919050565b7f4e487b7100000000000000000000000000000000000000000000000000000000600052602260045260246000fd5b600060028204905060018216806118bc57607f821691505b6020821081036118cf576118ce611875565b5b50919050565b60008190508160005260206000209050919050565b60006020601f8301049050919050565b600082821b905092915050565b6000600883026119377fffffffffffffffffffffffffffffffffffffffffffffffffffffffffffffffff826118fa565b61194186836118fa565b95508019841693508086168417925050509392505050565b6000819050919050565b600061197e61197961197484611372565b611959565b611372565b9050919050565b6000819050919050565b61199883611963565b6119ac6119a482611985565b848454611907565b825550505050565b600090565b6119c16119b4565b6119cc81848461198f565b505050565b5b818110156119f0576119e56000826119b9565b6001810190506119d2565b5050565b601f821115611a3557611a06816118d5565b611a0f846118ea565b81016020851015611a1e578190505b611a32611a2a856118ea565b8301826119d1565b50505b505050565b600082821c905092915050565b6000611a5860001984600802611a3a565b1980831691505092915050565b6000611a718383611a47565b9150826002028217905092915050565b611a8a8261138b565b67ffffffffffffffff811115611aa357611aa2611115565b5b611aad82546118a4565b611ab88282856119f4565b600060209050601f831160018114611aeb5760008415611ad9578287015190505b611ae38582611a65565b865550611b4b565b601f198416611af9866118d5565b60005b82811015611b2157848901518255600182019150602085019450602081019050611afc565b86831015611b3e5784890151611b3a601f891682611a47565b8355505b6001600288020188555050505b505050505050565b600081549050611b62816118a4565b9050919050565b818103611b77575050611c4f565b611b8082611b53565b67ffffffffffffffff811115611b9957611b98611115565b5b611ba382546118a4565b611bae8282856119f4565b6000601f831160018114611bdd5760008415611bcb578287015490505b611bd58582611a65565b865550611c48565b601f198416611beb876118d5565b9650611bf6866118d5565b60005b82811015611c1e57848901548255600182019150600185019450602081019050611bf9565b86831015611c3b5784890154611c37601f891682611a47565b8355505b6001600288020188555050505b5050505050505b565b6000608082019050611c66600083018761137c565b8181036020830152611c7881866113d1565b90508181036040830152611c8c81856113d1565b90508181036060830152611ca081846113d1565b905095945050505050565b7f4e487b7100000000000000000000000000000000000000000000000000000000600052601160045260246000fd5b6000611ce582611372565b9150611cf083611372565b9250828201905080821115611d0857611d07611cab565b5b92915050565b7f4e487b7100000000000000000000000000000000000000000000000000000000600052603260045260246000fd5b6000611d4882611372565b91507fffffffffffffffffffffffffffffffffffffffffffffffffffffffffffffffff8203611d7a57611d79611cab565b5b600182019050919050565b7f4f776e61626c653a206e6577206f776e657220697320746865207a65726f206160008201527f6464726573730000000000000000000000000000000000000000000000000000602082015250565b6000611de1602683611396565b9150611dec82611d85565b604082019050919050565b60006020820190508181036000830152611e1081611dd4565b9050919050565b7f4f776e61626c653a2063616c6c6572206973206e6f7420746865206f776e6572600082015250565b6000611e4d602083611396565b9150611e5882611e17565b602082019050919050565b60006020820190508181036000830152611e7c81611e40565b905091905056fea2646970667358221220dd72fe7fcb4224cd0e7feed23c0fc5450556e39367c0fdef522dfe4e1f78d86164736f6c63430008130033",
  "immutableReferences": {},
  "source": "//SPDX-License-Identifier: GPL-3.0\npragma solidity ^0.8.19;\n\nimport \"../node_modules/@openzeppelin/contracts/utils/Counters.sol\";\nimport \"../node_modules/@openzeppelin/contracts/access/Ownable.sol\";\n \ncontract LTYAccount is Ownable{\n\n    using Counters for Counters.Counter;\n\n    //_Brandids variable has the most recent minted tokenId\n    Counters.Counter private _brandsIds;\n\n    struct UserAccount {\n        uint brandId;\n        string name;\n        string description;\n        string image;\n        bool isABrand; // set if account is a Brand (or a Client)\n        bool isBrandRegisterOnPlatform; //allow account to mint NFT\n        bool isAddressAlreadyCreatedAccount;\n    }\n\n    //the event emitted when a brand is successfully created\n    event EventUserAccountCreated (\n        uint brandId,\n        string name,\n        string description,\n        string image\n    );\n\n    //the event emitted when a brand is registered\n    event EventBrandRegisterOnPlatform (address _addr);\n\n    //the event emitted when an address is identify as a brand\n    event EventUserIsABrand(address _addr);\n\n    //mapping to store all brands\n    mapping(uint256 => UserAccount) private idToListedBrand;\n\n    //Mapping of brand\n    mapping(address => UserAccount) public userAccounts;\n\n    /// @notice Create Brand account\n    /// @dev add more data in future (brand's category, SIREN, ...)\n    /// @param _name of the brand\n    /// @param _description of the brand\n    /// @param _image (logo) of the brand\n    function createUserAccount(\n\n        string memory _name,\n        string memory _description,\n        string memory _image\n    ) public {\n        require(!userAccounts[msg.sender].isAddressAlreadyCreatedAccount, \"You already have an account\");\n        userAccounts[msg.sender].name = _name;\n        userAccounts[msg.sender].description = _description;\n        userAccounts[msg.sender].image = _image;\n        userAccounts[msg.sender].isAddressAlreadyCreatedAccount = true;\n\n        //PMV : We registered brand as default\n        //Final version : Add admin frontend screen to use this function\n        setUserIsABrand(msg.sender);\n        //userAccounts[msg.sender].isABrand = true;\n\n        //PMV : We registered brand as default\n        //Final version : Add admin frontend screen to use this function\n        // userAccounts[msg.sender].isBrandRegisterOnPlatform = true;\n        setIsBrandRegisterOnPlatform(msg.sender);\n\n        //Increment the brandId counter, which is keeping track of the number of brand registered\n        _brandsIds.increment();\n        uint256 currentBrandId = _brandsIds.current();\n        userAccounts[msg.sender].brandId = currentBrandId;\n        idToListedBrand[currentBrandId] = userAccounts[msg.sender];\n\n        emit EventUserAccountCreated(\n            currentBrandId,    \n            _name,\n            _description,\n            _image\n        );\n    }\n\n \n    /// @notice Set brand account as registered => Functionnaly, it allows account to mint NFT\n    /// @param _addr Address to registered\n    ///TO DO  a mettre Ownable\n    function setIsBrandRegisterOnPlatform(address _addr) public{\n        userAccounts[_addr].isBrandRegisterOnPlatform = true;  \n        emit EventBrandRegisterOnPlatform(_addr);\n    }\n\n    /// @notice Set account as a brand account\n    /// @param _addr Address to registered as a brand\n    ///TO DO  a mettre Ownable\n    function setUserIsABrand(address _addr) public{\n        userAccounts[_addr].isABrand = true;\n        emit EventUserIsABrand(_addr);\n    }\n\n    /// @notice Get id Brand from address\n    /// @param _addr address of the future Owner\n    function getIdBrandFromAddress(address _addr) public view returns (uint _id){ return userAccounts[_addr].brandId; }\n    \n    /// @notice Get Brand from Id\n    /// @param _idBrand if of tha brand\n    /// @return Brand Details\n    function getBrandFromId(uint _idBrand) public view returns (UserAccount memory){ return idToListedBrand[_idBrand]; }\n\n    /// @notice Get all brands registered on the marketplace\n    /// @dev return an array of brand\n    /// @return all brands\n    function getAllBrands() public view returns (UserAccount[] memory) {\n        uint brandsCount = _brandsIds.current();\n        UserAccount[] memory brands = new UserAccount[](brandsCount);\n        uint currentIndex = 0;\n\n        for(uint i=0;i<brandsCount;i++)\n        {\n            uint currentId = i + 1;\n            UserAccount storage currentItem = idToListedBrand[currentId];\n            if(currentItem.isBrandRegisterOnPlatform){ // we get only registered brand in plateform\n                brands[currentIndex] = currentItem;\n                currentIndex += 1;\n            }\n        }\n\n        //the array 'brands' has the list of all brands in the marketplace\n        return brands;\n    }\n\n}",
  "sourcePath": "/Users/thibaut/development/alyra/LoyaltyChainVF/backendTruffle/contracts/LTYAccount.sol",
  "compiler": {
    "name": "solc",
    "version": "0.8.19+commit.7dd6d404.Emscripten.clang"
  },
  "schemaVersion": "3.4.14",
  "updatedAt": "2023-07-14T12:34:43.802Z",
  "networkType": "ethereum",
  "devdoc": {
    "kind": "dev",
    "methods": {
      "createUserAccount(string,string,string)": {
        "details": "add more data in future (brand's category, SIREN, ...)",
        "params": {
          "_description": "of the brand",
          "_image": "(logo) of the brand",
          "_name": "of the brand"
        }
      },
      "getAllBrands()": {
        "details": "return an array of brand",
        "returns": {
          "_0": "all brands"
        }
      },
      "getBrandFromId(uint256)": {
        "params": {
          "_idBrand": "if of tha brand"
        },
        "returns": {
          "_0": "Brand Details"
        }
      },
      "getIdBrandFromAddress(address)": {
        "params": {
          "_addr": "address of the future Owner"
        }
      },
      "owner()": {
        "details": "Returns the address of the current owner."
      },
      "renounceOwnership()": {
        "details": "Leaves the contract without owner. It will not be possible to call `onlyOwner` functions. Can only be called by the current owner. NOTE: Renouncing ownership will leave the contract without an owner, thereby disabling any functionality that is only available to the owner."
      },
      "setIsBrandRegisterOnPlatform(address)": {
        "params": {
          "_addr": "Address to registered TO DO  a mettre Ownable"
        }
      },
      "setUserIsABrand(address)": {
        "params": {
          "_addr": "Address to registered as a brand TO DO  a mettre Ownable"
        }
      },
      "transferOwnership(address)": {
        "details": "Transfers ownership of the contract to a new account (`newOwner`). Can only be called by the current owner."
      }
    },
    "version": 1
  },
  "userdoc": {
    "kind": "user",
    "methods": {
      "createUserAccount(string,string,string)": {
        "notice": "Create Brand account"
      },
      "getAllBrands()": {
        "notice": "Get all brands registered on the marketplace"
      },
      "getBrandFromId(uint256)": {
        "notice": "Get Brand from Id"
      },
      "getIdBrandFromAddress(address)": {
        "notice": "Get id Brand from address"
      },
      "setIsBrandRegisterOnPlatform(address)": {
        "notice": "Set brand account as registered => Functionnaly, it allows account to mint NFT"
      },
      "setUserIsABrand(address)": {
        "notice": "Set account as a brand account"
      }
    },
    "version": 1
  }
}