{
  "contractName": "LTYAccount",
  "abi": [
    {
      "anonymous": false,
      "inputs": [
        {
          "indexed": false,
          "internalType": "address",
          "name": "_addr",
          "type": "address"
        }
      ],
      "name": "EventBrandRegisterOnPlatform",
      "type": "event"
    },
    {
      "anonymous": false,
      "inputs": [
        {
          "indexed": false,
          "internalType": "uint256",
          "name": "brandId",
          "type": "uint256"
        },
        {
          "indexed": false,
          "internalType": "string",
          "name": "name",
          "type": "string"
        },
        {
          "indexed": false,
          "internalType": "string",
          "name": "description",
          "type": "string"
        },
        {
          "indexed": false,
          "internalType": "string",
          "name": "image",
          "type": "string"
        }
      ],
      "name": "EventUserAccountCreated",
      "type": "event"
    },
    {
      "anonymous": false,
      "inputs": [
        {
          "indexed": false,
          "internalType": "address",
          "name": "_addr",
          "type": "address"
        }
      ],
      "name": "EventUserIsABrand",
      "type": "event"
    },
    {
      "inputs": [
        {
          "internalType": "address",
          "name": "",
          "type": "address"
        }
      ],
      "name": "userAccounts",
      "outputs": [
        {
          "internalType": "uint256",
          "name": "brandId",
          "type": "uint256"
        },
        {
          "internalType": "string",
          "name": "name",
          "type": "string"
        },
        {
          "internalType": "string",
          "name": "description",
          "type": "string"
        },
        {
          "internalType": "string",
          "name": "image",
          "type": "string"
        },
        {
          "internalType": "bool",
          "name": "isABrand",
          "type": "bool"
        },
        {
          "internalType": "bool",
          "name": "isBrandRegisterOnPlatform",
          "type": "bool"
        },
        {
          "internalType": "bool",
          "name": "isAddressAlreadyCreatedAccount",
          "type": "bool"
        }
      ],
      "stateMutability": "view",
      "type": "function",
      "constant": true
    },
    {
      "inputs": [
        {
          "internalType": "string",
          "name": "_name",
          "type": "string"
        },
        {
          "internalType": "string",
          "name": "_description",
          "type": "string"
        },
        {
          "internalType": "string",
          "name": "_image",
          "type": "string"
        }
      ],
      "name": "createUserAccount",
      "outputs": [],
      "stateMutability": "nonpayable",
      "type": "function"
    },
    {
      "inputs": [
        {
          "internalType": "address",
          "name": "_addr",
          "type": "address"
        }
      ],
      "name": "setIsBrandRegisterOnPlatform",
      "outputs": [],
      "stateMutability": "nonpayable",
      "type": "function"
    },
    {
      "inputs": [
        {
          "internalType": "address",
          "name": "_addr",
          "type": "address"
        }
      ],
      "name": "setUserIsABrand",
      "outputs": [],
      "stateMutability": "nonpayable",
      "type": "function"
    },
    {
      "inputs": [
        {
          "internalType": "address",
          "name": "_addr",
          "type": "address"
        }
      ],
      "name": "getIdBrandFromAddress",
      "outputs": [
        {
          "internalType": "uint256",
          "name": "_id",
          "type": "uint256"
        }
      ],
      "stateMutability": "view",
      "type": "function",
      "constant": true
    },
    {
      "inputs": [
        {
          "internalType": "uint256",
          "name": "_idBrand",
          "type": "uint256"
        }
      ],
      "name": "getBrandFromId",
      "outputs": [
        {
          "components": [
            {
              "internalType": "uint256",
              "name": "brandId",
              "type": "uint256"
            },
            {
              "internalType": "string",
              "name": "name",
              "type": "string"
            },
            {
              "internalType": "string",
              "name": "description",
              "type": "string"
            },
            {
              "internalType": "string",
              "name": "image",
              "type": "string"
            },
            {
              "internalType": "bool",
              "name": "isABrand",
              "type": "bool"
            },
            {
              "internalType": "bool",
              "name": "isBrandRegisterOnPlatform",
              "type": "bool"
            },
            {
              "internalType": "bool",
              "name": "isAddressAlreadyCreatedAccount",
              "type": "bool"
            }
          ],
          "internalType": "struct LTYAccount.UserAccount",
          "name": "",
          "type": "tuple"
        }
      ],
      "stateMutability": "view",
      "type": "function",
      "constant": true
    },
    {
      "inputs": [],
      "name": "getAllBrands",
      "outputs": [
        {
          "components": [
            {
              "internalType": "uint256",
              "name": "brandId",
              "type": "uint256"
            },
            {
              "internalType": "string",
              "name": "name",
              "type": "string"
            },
            {
              "internalType": "string",
              "name": "description",
              "type": "string"
            },
            {
              "internalType": "string",
              "name": "image",
              "type": "string"
            },
            {
              "internalType": "bool",
              "name": "isABrand",
              "type": "bool"
            },
            {
              "internalType": "bool",
              "name": "isBrandRegisterOnPlatform",
              "type": "bool"
            },
            {
              "internalType": "bool",
              "name": "isAddressAlreadyCreatedAccount",
              "type": "bool"
            }
          ],
          "internalType": "struct LTYAccount.UserAccount[]",
          "name": "",
          "type": "tuple[]"
        }
      ],
      "stateMutability": "view",
      "type": "function",
      "constant": true
    }
  ],
  "bytecode": "0x608060405234801561001057600080fd5b50611b4c806100206000396000f3fe608060405234801561001057600080fd5b506004361061007d5760003560e01c806369a015b91161005b57806369a015b9146100f2578063886d07e21461010e578063a07e72361461012a578063b2a900871461015a5761007d565b80634450e06d146100825780635251d91c1461009e57806360e8ddb0146100d4575b600080fd5b61009c60048036038101906100979190610fd1565b61018a565b005b6100b860048036038101906100b391906110d6565b61053e565b6040516100cb97969594939291906111b6565b60405180910390f35b6100dc61073f565b6040516100e9919061140e565b60405180910390f35b61010c600480360381019061010791906110d6565b610a5c565b005b610128600480360381019061012391906110d6565b610af1565b005b610144600480360381019061013f919061145c565b610b86565b6040516101519190611533565b60405180910390f35b610174600480360381019061016f91906110d6565b610dc4565b6040516101819190611555565b60405180910390f35b600260003373ffffffffffffffffffffffffffffffffffffffff1673ffffffffffffffffffffffffffffffffffffffff16815260200190815260200160002060040160029054906101000a900460ff161561021a576040517f08c379a0000000000000000000000000000000000000000000000000000000008152600401610211906115bc565b60405180910390fd5b82600260003373ffffffffffffffffffffffffffffffffffffffff1673ffffffffffffffffffffffffffffffffffffffff168152602001908152602001600020600101908161026991906117e8565b5081600260003373ffffffffffffffffffffffffffffffffffffffff1673ffffffffffffffffffffffffffffffffffffffff16815260200190815260200160002060020190816102b991906117e8565b5080600260003373ffffffffffffffffffffffffffffffffffffffff1673ffffffffffffffffffffffffffffffffffffffff168152602001908152602001600020600301908161030991906117e8565b506001600260003373ffffffffffffffffffffffffffffffffffffffff1673ffffffffffffffffffffffffffffffffffffffff16815260200190815260200160002060040160026101000a81548160ff02191690831515021790555061036e33610a5c565b61037733610af1565b6103816000610e10565b600061038d6000610e26565b905080600260003373ffffffffffffffffffffffffffffffffffffffff1673ffffffffffffffffffffffffffffffffffffffff16815260200190815260200160002060000181905550600260003373ffffffffffffffffffffffffffffffffffffffff1673ffffffffffffffffffffffffffffffffffffffff16815260200190815260200160002060016000838152602001908152602001600020600082015481600001556001820181600101908161044691906118d0565b506002820181600201908161045b91906118d0565b506003820181600301908161047091906118d0565b506004820160009054906101000a900460ff168160040160006101000a81548160ff0219169083151502179055506004820160019054906101000a900460ff168160040160016101000a81548160ff0219169083151502179055506004820160029054906101000a900460ff168160040160026101000a81548160ff0219169083151502179055509050507fe00519c095c5ff5bf8367c25679e5f06b1116d5b6e15c077a4fb7eda610214c18185858560405161053094939291906119b8565b60405180910390a150505050565b60026020528060005260406000206000915090508060000154908060010180546105679061160b565b80601f01602080910402602001604051908101604052809291908181526020018280546105939061160b565b80156105e05780601f106105b5576101008083540402835291602001916105e0565b820191906000526020600020905b8154815290600101906020018083116105c357829003601f168201915b5050505050908060020180546105f59061160b565b80601f01602080910402602001604051908101604052809291908181526020018280546106219061160b565b801561066e5780601f106106435761010080835404028352916020019161066e565b820191906000526020600020905b81548152906001019060200180831161065157829003601f168201915b5050505050908060030180546106839061160b565b80601f01602080910402602001604051908101604052809291908181526020018280546106af9061160b565b80156106fc5780601f106106d1576101008083540402835291602001916106fc565b820191906000526020600020905b8154815290600101906020018083116106df57829003601f168201915b5050505050908060040160009054906101000a900460ff16908060040160019054906101000a900460ff16908060040160029054906101000a900460ff16905087565b6060600061074d6000610e26565b905060008167ffffffffffffffff81111561076b5761076a610ea6565b5b6040519080825280602002602001820160405280156107a457816020015b610791610e34565b8152602001906001900390816107895790505b5090506000805b83811015610a525760006001826107c29190611a41565b905060006001600083815260200190815260200160002090508060040160019054906101000a900460ff1615610a3d57806040518060e0016040529081600082015481526020016001820180546108189061160b565b80601f01602080910402602001604051908101604052809291908181526020018280546108449061160b565b80156108915780601f1061086657610100808354040283529160200191610891565b820191906000526020600020905b81548152906001019060200180831161087457829003601f168201915b505050505081526020016002820180546108aa9061160b565b80601f01602080910402602001604051908101604052809291908181526020018280546108d69061160b565b80156109235780601f106108f857610100808354040283529160200191610923565b820191906000526020600020905b81548152906001019060200180831161090657829003601f168201915b5050505050815260200160038201805461093c9061160b565b80601f01602080910402602001604051908101604052809291908181526020018280546109689061160b565b80156109b55780601f1061098a576101008083540402835291602001916109b5565b820191906000526020600020905b81548152906001019060200180831161099857829003601f168201915b505050505081526020016004820160009054906101000a900460ff161515151581526020016004820160019054906101000a900460ff161515151581526020016004820160029054906101000a900460ff161515151581525050858581518110610a2257610a21611a75565b5b6020026020010181905250600184610a3a9190611a41565b93505b50508080610a4a90611aa4565b9150506107ab565b5081935050505090565b6001600260008373ffffffffffffffffffffffffffffffffffffffff1673ffffffffffffffffffffffffffffffffffffffff16815260200190815260200160002060040160006101000a81548160ff0219169083151502179055507f36ffaad55cc247449809f68d9e11c0e594b038d81969bc8df55b1fc07db8470081604051610ae69190611afb565b60405180910390a150565b6001600260008373ffffffffffffffffffffffffffffffffffffffff1673ffffffffffffffffffffffffffffffffffffffff16815260200190815260200160002060040160016101000a81548160ff0219169083151502179055507ff3b01f304a6fefd18b9d8bc9829e5d5d38204f8c3227ca5f1b0119f3bb6c940a81604051610b7b9190611afb565b60405180910390a150565b610b8e610e34565b600160008381526020019081526020016000206040518060e001604052908160008201548152602001600182018054610bc69061160b565b80601f0160208091040260200160405190810160405280929190818152602001828054610bf29061160b565b8015610c3f5780601f10610c1457610100808354040283529160200191610c3f565b820191906000526020600020905b815481529060010190602001808311610c2257829003601f168201915b50505050508152602001600282018054610c589061160b565b80601f0160208091040260200160405190810160405280929190818152602001828054610c849061160b565b8015610cd15780601f10610ca657610100808354040283529160200191610cd1565b820191906000526020600020905b815481529060010190602001808311610cb457829003601f168201915b50505050508152602001600382018054610cea9061160b565b80601f0160208091040260200160405190810160405280929190818152602001828054610d169061160b565b8015610d635780601f10610d3857610100808354040283529160200191610d63565b820191906000526020600020905b815481529060010190602001808311610d4657829003601f168201915b505050505081526020016004820160009054906101000a900460ff161515151581526020016004820160019054906101000a900460ff161515151581526020016004820160029054906101000a900460ff1615151515815250509050919050565b6000600260008373ffffffffffffffffffffffffffffffffffffffff1673ffffffffffffffffffffffffffffffffffffffff168152602001908152602001600020600001549050919050565b6001816000016000828254019250508190555050565b600081600001549050919050565b6040518060e00160405280600081526020016060815260200160608152602001606081526020016000151581526020016000151581526020016000151581525090565b6000604051905090565b600080fd5b600080fd5b600080fd5b600080fd5b6000601f19601f8301169050919050565b7f4e487b7100000000000000000000000000000000000000000000000000000000600052604160045260246000fd5b610ede82610e95565b810181811067ffffffffffffffff82111715610efd57610efc610ea6565b5b80604052505050565b6000610f10610e77565b9050610f1c8282610ed5565b919050565b600067ffffffffffffffff821115610f3c57610f3b610ea6565b5b610f4582610e95565b9050602081019050919050565b82818337600083830152505050565b6000610f74610f6f84610f21565b610f06565b905082815260208101848484011115610f9057610f8f610e90565b5b610f9b848285610f52565b509392505050565b600082601f830112610fb857610fb7610e8b565b5b8135610fc8848260208601610f61565b91505092915050565b600080600060608486031215610fea57610fe9610e81565b5b600084013567ffffffffffffffff81111561100857611007610e86565b5b61101486828701610fa3565b935050602084013567ffffffffffffffff81111561103557611034610e86565b5b61104186828701610fa3565b925050604084013567ffffffffffffffff81111561106257611061610e86565b5b61106e86828701610fa3565b9150509250925092565b600073ffffffffffffffffffffffffffffffffffffffff82169050919050565b60006110a382611078565b9050919050565b6110b381611098565b81146110be57600080fd5b50565b6000813590506110d0816110aa565b92915050565b6000602082840312156110ec576110eb610e81565b5b60006110fa848285016110c1565b91505092915050565b6000819050919050565b61111681611103565b82525050565b600081519050919050565b600082825260208201905092915050565b60005b8381101561115657808201518184015260208101905061113b565b60008484015250505050565b600061116d8261111c565b6111778185611127565b9350611187818560208601611138565b61119081610e95565b840191505092915050565b60008115159050919050565b6111b08161119b565b82525050565b600060e0820190506111cb600083018a61110d565b81810360208301526111dd8189611162565b905081810360408301526111f18188611162565b905081810360608301526112058187611162565b905061121460808301866111a7565b61122160a08301856111a7565b61122e60c08301846111a7565b98975050505050505050565b600081519050919050565b600082825260208201905092915050565b6000819050602082019050919050565b61126f81611103565b82525050565b600082825260208201905092915050565b60006112918261111c565b61129b8185611275565b93506112ab818560208601611138565b6112b481610e95565b840191505092915050565b6112c88161119b565b82525050565b600060e0830160008301516112e66000860182611266565b50602083015184820360208601526112fe8282611286565b915050604083015184820360408601526113188282611286565b915050606083015184820360608601526113328282611286565b915050608083015161134760808601826112bf565b5060a083015161135a60a08601826112bf565b5060c083015161136d60c08601826112bf565b508091505092915050565b600061138483836112ce565b905092915050565b6000602082019050919050565b60006113a48261123a565b6113ae8185611245565b9350836020820285016113c085611256565b8060005b858110156113fc57848403895281516113dd8582611378565b94506113e88361138c565b925060208a019950506001810190506113c4565b50829750879550505050505092915050565b600060208201905081810360008301526114288184611399565b905092915050565b61143981611103565b811461144457600080fd5b50565b60008135905061145681611430565b92915050565b60006020828403121561147257611471610e81565b5b600061148084828501611447565b91505092915050565b600060e0830160008301516114a16000860182611266565b50602083015184820360208601526114b98282611286565b915050604083015184820360408601526114d38282611286565b915050606083015184820360608601526114ed8282611286565b915050608083015161150260808601826112bf565b5060a083015161151560a08601826112bf565b5060c083015161152860c08601826112bf565b508091505092915050565b6000602082019050818103600083015261154d8184611489565b905092915050565b600060208201905061156a600083018461110d565b92915050565b7f596f7520616c6572616479206861766520616e206163636f756e740000000000600082015250565b60006115a6601b83611127565b91506115b182611570565b602082019050919050565b600060208201905081810360008301526115d581611599565b9050919050565b7f4e487b7100000000000000000000000000000000000000000000000000000000600052602260045260246000fd5b6000600282049050600182168061162357607f821691505b602082108103611636576116356115dc565b5b50919050565b60008190508160005260206000209050919050565b60006020601f8301049050919050565b600082821b905092915050565b60006008830261169e7fffffffffffffffffffffffffffffffffffffffffffffffffffffffffffffffff82611661565b6116a88683611661565b95508019841693508086168417925050509392505050565b6000819050919050565b60006116e56116e06116db84611103565b6116c0565b611103565b9050919050565b6000819050919050565b6116ff836116ca565b61171361170b826116ec565b84845461166e565b825550505050565b600090565b61172861171b565b6117338184846116f6565b505050565b5b818110156117575761174c600082611720565b600181019050611739565b5050565b601f82111561179c5761176d8161163c565b61177684611651565b81016020851015611785578190505b61179961179185611651565b830182611738565b50505b505050565b600082821c905092915050565b60006117bf600019846008026117a1565b1980831691505092915050565b60006117d883836117ae565b9150826002028217905092915050565b6117f18261111c565b67ffffffffffffffff81111561180a57611809610ea6565b5b611814825461160b565b61181f82828561175b565b600060209050601f8311600181146118525760008415611840578287015190505b61184a85826117cc565b8655506118b2565b601f1984166118608661163c565b60005b8281101561188857848901518255600182019150602085019450602081019050611863565b868310156118a557848901516118a1601f8916826117ae565b8355505b6001600288020188555050505b505050505050565b6000815490506118c98161160b565b9050919050565b8181036118de5750506119b6565b6118e7826118ba565b67ffffffffffffffff811115611900576118ff610ea6565b5b61190a825461160b565b61191582828561175b565b6000601f8311600181146119445760008415611932578287015490505b61193c85826117cc565b8655506119af565b601f1984166119528761163c565b965061195d8661163c565b60005b8281101561198557848901548255600182019150600185019450602081019050611960565b868310156119a2578489015461199e601f8916826117ae565b8355505b6001600288020188555050505b5050505050505b565b60006080820190506119cd600083018761110d565b81810360208301526119df8186611162565b905081810360408301526119f38185611162565b90508181036060830152611a078184611162565b905095945050505050565b7f4e487b7100000000000000000000000000000000000000000000000000000000600052601160045260246000fd5b6000611a4c82611103565b9150611a5783611103565b9250828201905080821115611a6f57611a6e611a12565b5b92915050565b7f4e487b7100000000000000000000000000000000000000000000000000000000600052603260045260246000fd5b6000611aaf82611103565b91507fffffffffffffffffffffffffffffffffffffffffffffffffffffffffffffffff8203611ae157611ae0611a12565b5b600182019050919050565b611af581611098565b82525050565b6000602082019050611b106000830184611aec565b9291505056fea2646970667358221220b094e86b857124dc2e5dc8758880323cbce7e52925c53a37fa041a4d0982454f64736f6c63430008130033",
  "immutableReferences": {},
  "source": "//SPDX-License-Identifier: GPL-3.0\npragma solidity ^0.8.19;\n\nimport \"../node_modules/@openzeppelin/contracts/utils/Counters.sol\";\n \ncontract LTYAccount {\n\n    using Counters for Counters.Counter;\n\n    //_Brandids variable has the most recent minted tokenId\n    Counters.Counter private _brandsIds;\n\n    struct UserAccount {\n        uint brandId;\n        string name;\n        string description;\n        string image;\n        bool isABrand; // set if account is a Brand (or a Client)\n        bool isBrandRegisterOnPlatform; //allow account to mint NFT\n        bool isAddressAlreadyCreatedAccount;\n    }\n\n    //the event emitted when a brand is successfully created\n    event EventUserAccountCreated (\n        uint brandId,\n        string name,\n        string description,\n        string image\n    );\n\n    //the event emitted when a brand is registered\n    event EventBrandRegisterOnPlatform (address _addr);\n\n    //the event emitted when an address is identify as a brand\n    event EventUserIsABrand(address _addr);\n\n    //mapping to store all brands\n    mapping(uint256 => UserAccount) private idToListedBrand;\n\n    //Mapping of brand\n    mapping(address => UserAccount) public userAccounts;\n\n    /// @notice Create Brand account\n    /// @dev add more data in future (brand's category, SIREN, ...)\n    /// @param _name of the brand\n    /// @param _description of the brand\n    /// @param _image (logo) of the brand\n    function createUserAccount(\n\n        string memory _name,\n        string memory _description,\n        string memory _image\n    ) public {\n\n        //ajouter un ownable\n        require(!userAccounts[msg.sender].isAddressAlreadyCreatedAccount, \"You alerady have an account\");\n        userAccounts[msg.sender].name = _name;\n        userAccounts[msg.sender].description = _description;\n        userAccounts[msg.sender].image = _image;\n        userAccounts[msg.sender].isAddressAlreadyCreatedAccount = true;\n\n        //PMV : We registered brand as default\n        //Final version : Add admin frontend screen to use this function\n        setUserIsABrand(msg.sender);\n        //userAccounts[msg.sender].isABrand = true;\n\n        //PMV : We registered brand as default\n        //Final version : Add admin frontend screen to use this function\n        // userAccounts[msg.sender].isBrandRegisterOnPlatform = true;\n        setIsBrandRegisterOnPlatform(msg.sender);\n\n        //Increment the brandId counter, which is keeping track of the number of brand registered\n        _brandsIds.increment();\n        uint256 currentBrandId = _brandsIds.current();\n        userAccounts[msg.sender].brandId = currentBrandId;\n        idToListedBrand[currentBrandId] = userAccounts[msg.sender];\n\n        emit EventUserAccountCreated(\n            currentBrandId,    \n            _name,\n            _description,\n            _image\n        );\n    }\n\n \n    /// @notice Set brand account as registered => Functionnaly, it allows account to mint NFT\n    /// @param _addr Address to registered\n    ///TO DO  a mettre Ownable\n    function setIsBrandRegisterOnPlatform(address _addr) public {\n        userAccounts[_addr].isBrandRegisterOnPlatform = true;  \n        emit EventBrandRegisterOnPlatform(_addr);\n    }\n\n    /// @notice Set account as a brand account\n    /// @param _addr Address to registered as a brand\n    ///TO DO  a mettre Ownable\n    function setUserIsABrand(address _addr) public{\n        userAccounts[_addr].isABrand = true;\n        emit EventUserIsABrand(_addr);\n    }\n\n    /// @notice Get id Brand from address\n    /// @param _addr address of the future Owner\n    function getIdBrandFromAddress(address _addr) public view returns (uint _id){ return userAccounts[_addr].brandId; }\n    \n    /// @notice Get Brand from Id\n    /// @param _idBrand if of tha brand\n    /// @return Brand Details\n    function getBrandFromId(uint _idBrand) public view returns (UserAccount memory){ return idToListedBrand[_idBrand]; }\n\n    /// @notice Get all brands registered on the marketplace\n    /// @dev return an array of brand\n    /// @return all brands\n    function getAllBrands() public view returns (UserAccount[] memory) {\n        uint brandsCount = _brandsIds.current();\n        UserAccount[] memory brands = new UserAccount[](brandsCount);\n        uint currentIndex = 0;\n\n        for(uint i=0;i<brandsCount;i++)\n        {\n            uint currentId = i + 1;\n            UserAccount storage currentItem = idToListedBrand[currentId];\n            if(currentItem.isBrandRegisterOnPlatform){ // we get only registered brand in plateform\n                brands[currentIndex] = currentItem;\n                currentIndex += 1;\n            }\n        }\n\n        //the array 'brands' has the list of all brands in the marketplace\n        return brands;\n    }\n\n}",
  "sourcePath": "/Users/thibaut/development/alyra/LoyaltyChainVF/backendTruffle/contracts/LTYAccount.sol",
  "compiler": {
    "name": "solc",
    "version": "0.8.19+commit.7dd6d404.Emscripten.clang"
  },
  "schemaVersion": "3.4.14",
  "updatedAt": "2023-07-09T21:51:11.812Z",
  "networkType": "ethereum",
  "devdoc": {
    "kind": "dev",
    "methods": {
      "createUserAccount(string,string,string)": {
        "details": "add more data in future (brand's category, SIREN, ...)",
        "params": {
          "_description": "of the brand",
          "_image": "(logo) of the brand",
          "_name": "of the brand"
        }
      },
      "getAllBrands()": {
        "details": "return an array of brand",
        "returns": {
          "_0": "all brands"
        }
      },
      "getBrandFromId(uint256)": {
        "params": {
          "_idBrand": "if of tha brand"
        },
        "returns": {
          "_0": "Brand Details"
        }
      },
      "getIdBrandFromAddress(address)": {
        "params": {
          "_addr": "address of the future Owner"
        }
      },
      "setIsBrandRegisterOnPlatform(address)": {
        "params": {
          "_addr": "Address to registered TO DO  a mettre Ownable"
        }
      },
      "setUserIsABrand(address)": {
        "params": {
          "_addr": "Address to registered as a brand TO DO  a mettre Ownable"
        }
      }
    },
    "version": 1
  },
  "userdoc": {
    "kind": "user",
    "methods": {
      "createUserAccount(string,string,string)": {
        "notice": "Create Brand account"
      },
      "getAllBrands()": {
        "notice": "Get all brands registered on the marketplace"
      },
      "getBrandFromId(uint256)": {
        "notice": "Get Brand from Id"
      },
      "getIdBrandFromAddress(address)": {
        "notice": "Get id Brand from address"
      },
      "setIsBrandRegisterOnPlatform(address)": {
        "notice": "Set brand account as registered => Functionnaly, it allows account to mint NFT"
      },
      "setUserIsABrand(address)": {
        "notice": "Set account as a brand account"
      }
    },
    "version": 1
  }
}