{
  "contractName": "LTYAccount",
  "abi": [
    {
      "anonymous": false,
      "inputs": [
        {
          "indexed": false,
          "internalType": "address",
          "name": "_addr",
          "type": "address"
        }
      ],
      "name": "EventBrandRegisterOnPlatform",
      "type": "event"
    },
    {
      "anonymous": false,
      "inputs": [
        {
          "indexed": false,
          "internalType": "uint256",
          "name": "brandId",
          "type": "uint256"
        },
        {
          "indexed": false,
          "internalType": "string",
          "name": "name",
          "type": "string"
        },
        {
          "indexed": false,
          "internalType": "string",
          "name": "description",
          "type": "string"
        },
        {
          "indexed": false,
          "internalType": "string",
          "name": "image",
          "type": "string"
        }
      ],
      "name": "EventUserAccountCreated",
      "type": "event"
    },
    {
      "anonymous": false,
      "inputs": [
        {
          "indexed": false,
          "internalType": "address",
          "name": "_addr",
          "type": "address"
        }
      ],
      "name": "EventUserIsABrand",
      "type": "event"
    },
    {
      "anonymous": false,
      "inputs": [
        {
          "indexed": true,
          "internalType": "address",
          "name": "previousOwner",
          "type": "address"
        },
        {
          "indexed": true,
          "internalType": "address",
          "name": "newOwner",
          "type": "address"
        }
      ],
      "name": "OwnershipTransferred",
      "type": "event"
    },
    {
      "inputs": [],
      "name": "owner",
      "outputs": [
        {
          "internalType": "address",
          "name": "",
          "type": "address"
        }
      ],
      "stateMutability": "view",
      "type": "function",
      "constant": true
    },
    {
      "inputs": [],
      "name": "renounceOwnership",
      "outputs": [],
      "stateMutability": "nonpayable",
      "type": "function"
    },
    {
      "inputs": [
        {
          "internalType": "address",
          "name": "newOwner",
          "type": "address"
        }
      ],
      "name": "transferOwnership",
      "outputs": [],
      "stateMutability": "nonpayable",
      "type": "function"
    },
    {
      "inputs": [
        {
          "internalType": "address",
          "name": "",
          "type": "address"
        }
      ],
      "name": "userAccounts",
      "outputs": [
        {
          "internalType": "uint256",
          "name": "brandId",
          "type": "uint256"
        },
        {
          "internalType": "string",
          "name": "name",
          "type": "string"
        },
        {
          "internalType": "string",
          "name": "description",
          "type": "string"
        },
        {
          "internalType": "string",
          "name": "image",
          "type": "string"
        },
        {
          "internalType": "bool",
          "name": "isABrand",
          "type": "bool"
        },
        {
          "internalType": "bool",
          "name": "isBrandRegisterOnPlatform",
          "type": "bool"
        },
        {
          "internalType": "bool",
          "name": "isAddressAlreadyCreatedAccount",
          "type": "bool"
        }
      ],
      "stateMutability": "view",
      "type": "function",
      "constant": true
    },
    {
      "inputs": [
        {
          "internalType": "string",
          "name": "_name",
          "type": "string"
        },
        {
          "internalType": "string",
          "name": "_description",
          "type": "string"
        },
        {
          "internalType": "string",
          "name": "_image",
          "type": "string"
        }
      ],
      "name": "createUserAccount",
      "outputs": [],
      "stateMutability": "nonpayable",
      "type": "function"
    },
    {
      "inputs": [
        {
          "internalType": "address",
          "name": "_addr",
          "type": "address"
        }
      ],
      "name": "setIsBrandRegisterOnPlatform",
      "outputs": [],
      "stateMutability": "nonpayable",
      "type": "function"
    },
    {
      "inputs": [
        {
          "internalType": "address",
          "name": "_addr",
          "type": "address"
        }
      ],
      "name": "getIsBrandRegisterOnPlatform",
      "outputs": [
        {
          "internalType": "bool",
          "name": "_isRegistered",
          "type": "bool"
        }
      ],
      "stateMutability": "view",
      "type": "function",
      "constant": true
    },
    {
      "inputs": [
        {
          "internalType": "address",
          "name": "_addr",
          "type": "address"
        }
      ],
      "name": "setUserIsABrand",
      "outputs": [],
      "stateMutability": "nonpayable",
      "type": "function"
    },
    {
      "inputs": [
        {
          "internalType": "address",
          "name": "_addr",
          "type": "address"
        }
      ],
      "name": "getIdBrandFromAddress",
      "outputs": [
        {
          "internalType": "uint256",
          "name": "_id",
          "type": "uint256"
        }
      ],
      "stateMutability": "view",
      "type": "function",
      "constant": true
    },
    {
      "inputs": [
        {
          "internalType": "uint256",
          "name": "_idBrand",
          "type": "uint256"
        }
      ],
      "name": "getBrandFromId",
      "outputs": [
        {
          "components": [
            {
              "internalType": "uint256",
              "name": "brandId",
              "type": "uint256"
            },
            {
              "internalType": "string",
              "name": "name",
              "type": "string"
            },
            {
              "internalType": "string",
              "name": "description",
              "type": "string"
            },
            {
              "internalType": "string",
              "name": "image",
              "type": "string"
            },
            {
              "internalType": "bool",
              "name": "isABrand",
              "type": "bool"
            },
            {
              "internalType": "bool",
              "name": "isBrandRegisterOnPlatform",
              "type": "bool"
            },
            {
              "internalType": "bool",
              "name": "isAddressAlreadyCreatedAccount",
              "type": "bool"
            }
          ],
          "internalType": "struct LTYAccount.UserAccount",
          "name": "",
          "type": "tuple"
        }
      ],
      "stateMutability": "view",
      "type": "function",
      "constant": true
    },
    {
      "inputs": [],
      "name": "getAllBrands",
      "outputs": [
        {
          "components": [
            {
              "internalType": "uint256",
              "name": "brandId",
              "type": "uint256"
            },
            {
              "internalType": "string",
              "name": "name",
              "type": "string"
            },
            {
              "internalType": "string",
              "name": "description",
              "type": "string"
            },
            {
              "internalType": "string",
              "name": "image",
              "type": "string"
            },
            {
              "internalType": "bool",
              "name": "isABrand",
              "type": "bool"
            },
            {
              "internalType": "bool",
              "name": "isBrandRegisterOnPlatform",
              "type": "bool"
            },
            {
              "internalType": "bool",
              "name": "isAddressAlreadyCreatedAccount",
              "type": "bool"
            }
          ],
          "internalType": "struct LTYAccount.UserAccount[]",
          "name": "",
          "type": "tuple[]"
        }
      ],
      "stateMutability": "view",
      "type": "function",
      "constant": true
    }
  ],
  "bytecode": "0x608060405234801561001057600080fd5b5061002d61002261003260201b60201c565b61003a60201b60201c565b6100fe565b600033905090565b60008060009054906101000a900473ffffffffffffffffffffffffffffffffffffffff169050816000806101000a81548173ffffffffffffffffffffffffffffffffffffffff021916908373ffffffffffffffffffffffffffffffffffffffff1602179055508173ffffffffffffffffffffffffffffffffffffffff168173ffffffffffffffffffffffffffffffffffffffff167f8be0079c531659141344cd1fd0a4f28419497f9722a3daafe3b4186f6b6457e060405160405180910390a35050565b611f688061010d6000396000f3fe608060405234801561001057600080fd5b50600436106100a95760003560e01c8063715018a611610071578063715018a61461016a578063886d07e2146101745780638da5cb5b14610190578063a07e7236146101ae578063b2a90087146101de578063f2fde38b1461020e576100a9565b8063107781fd146100ae5780634450e06d146100de5780635251d91c146100fa57806360e8ddb01461013057806369a015b91461014e575b600080fd5b6100c860048036038101906100c391906111ec565b61022a565b6040516100d59190611234565b60405180910390f35b6100f860048036038101906100f39190611395565b610283565b005b610114600480360381019061010f91906111ec565b610637565b60405161012797969594939291906114d4565b60405180910390f35b610138610838565b604051610145919061172c565b60405180910390f35b610168600480360381019061016391906111ec565b610b55565b005b610172610bea565b005b61018e600480360381019061018991906111ec565b610bfe565b005b610198610c93565b6040516101a5919061175d565b60405180910390f35b6101c860048036038101906101c391906117a4565b610cbc565b6040516101d5919061187b565b60405180910390f35b6101f860048036038101906101f391906111ec565b610efa565b604051610205919061189d565b60405180910390f35b610228600480360381019061022391906111ec565b610f46565b005b6000600360008373ffffffffffffffffffffffffffffffffffffffff1673ffffffffffffffffffffffffffffffffffffffff16815260200190815260200160002060040160019054906101000a900460ff169050919050565b600360003373ffffffffffffffffffffffffffffffffffffffff1673ffffffffffffffffffffffffffffffffffffffff16815260200190815260200160002060040160029054906101000a900460ff1615610313576040517f08c379a000000000000000000000000000000000000000000000000000000000815260040161030a90611904565b60405180910390fd5b82600360003373ffffffffffffffffffffffffffffffffffffffff1673ffffffffffffffffffffffffffffffffffffffff16815260200190815260200160002060010190816103629190611b30565b5081600360003373ffffffffffffffffffffffffffffffffffffffff1673ffffffffffffffffffffffffffffffffffffffff16815260200190815260200160002060020190816103b29190611b30565b5080600360003373ffffffffffffffffffffffffffffffffffffffff1673ffffffffffffffffffffffffffffffffffffffff16815260200190815260200160002060030190816104029190611b30565b506001600360003373ffffffffffffffffffffffffffffffffffffffff1673ffffffffffffffffffffffffffffffffffffffff16815260200190815260200160002060040160026101000a81548160ff02191690831515021790555061046733610b55565b61047033610bfe565b61047a6001610fc9565b60006104866001610fdf565b905080600360003373ffffffffffffffffffffffffffffffffffffffff1673ffffffffffffffffffffffffffffffffffffffff16815260200190815260200160002060000181905550600360003373ffffffffffffffffffffffffffffffffffffffff1673ffffffffffffffffffffffffffffffffffffffff16815260200190815260200160002060026000838152602001908152602001600020600082015481600001556001820181600101908161053f9190611c18565b50600282018160020190816105549190611c18565b50600382018160030190816105699190611c18565b506004820160009054906101000a900460ff168160040160006101000a81548160ff0219169083151502179055506004820160019054906101000a900460ff168160040160016101000a81548160ff0219169083151502179055506004820160029054906101000a900460ff168160040160026101000a81548160ff0219169083151502179055509050507fe00519c095c5ff5bf8367c25679e5f06b1116d5b6e15c077a4fb7eda610214c1818585856040516106299493929190611d00565b60405180910390a150505050565b600360205280600052604060002060009150905080600001549080600101805461066090611953565b80601f016020809104026020016040519081016040528092919081815260200182805461068c90611953565b80156106d95780601f106106ae576101008083540402835291602001916106d9565b820191906000526020600020905b8154815290600101906020018083116106bc57829003601f168201915b5050505050908060020180546106ee90611953565b80601f016020809104026020016040519081016040528092919081815260200182805461071a90611953565b80156107675780601f1061073c57610100808354040283529160200191610767565b820191906000526020600020905b81548152906001019060200180831161074a57829003601f168201915b50505050509080600301805461077c90611953565b80601f01602080910402602001604051908101604052809291908181526020018280546107a890611953565b80156107f55780601f106107ca576101008083540402835291602001916107f5565b820191906000526020600020905b8154815290600101906020018083116107d857829003601f168201915b5050505050908060040160009054906101000a900460ff16908060040160019054906101000a900460ff16908060040160029054906101000a900460ff16905087565b606060006108466001610fdf565b905060008167ffffffffffffffff8111156108645761086361126a565b5b60405190808252806020026020018201604052801561089d57816020015b61088a611137565b8152602001906001900390816108825790505b5090506000805b83811015610b4b5760006001826108bb9190611d89565b905060006002600083815260200190815260200160002090508060040160019054906101000a900460ff1615610b3657806040518060e00160405290816000820154815260200160018201805461091190611953565b80601f016020809104026020016040519081016040528092919081815260200182805461093d90611953565b801561098a5780601f1061095f5761010080835404028352916020019161098a565b820191906000526020600020905b81548152906001019060200180831161096d57829003601f168201915b505050505081526020016002820180546109a390611953565b80601f01602080910402602001604051908101604052809291908181526020018280546109cf90611953565b8015610a1c5780601f106109f157610100808354040283529160200191610a1c565b820191906000526020600020905b8154815290600101906020018083116109ff57829003601f168201915b50505050508152602001600382018054610a3590611953565b80601f0160208091040260200160405190810160405280929190818152602001828054610a6190611953565b8015610aae5780601f10610a8357610100808354040283529160200191610aae565b820191906000526020600020905b815481529060010190602001808311610a9157829003601f168201915b505050505081526020016004820160009054906101000a900460ff161515151581526020016004820160019054906101000a900460ff161515151581526020016004820160029054906101000a900460ff161515151581525050858581518110610b1b57610b1a611dbd565b5b6020026020010181905250600184610b339190611d89565b93505b50508080610b4390611dec565b9150506108a4565b5081935050505090565b6001600360008373ffffffffffffffffffffffffffffffffffffffff1673ffffffffffffffffffffffffffffffffffffffff16815260200190815260200160002060040160006101000a81548160ff0219169083151502179055507f36ffaad55cc247449809f68d9e11c0e594b038d81969bc8df55b1fc07db8470081604051610bdf919061175d565b60405180910390a150565b610bf2610fed565b610bfc600061106b565b565b6001600360008373ffffffffffffffffffffffffffffffffffffffff1673ffffffffffffffffffffffffffffffffffffffff16815260200190815260200160002060040160016101000a81548160ff0219169083151502179055507ff3b01f304a6fefd18b9d8bc9829e5d5d38204f8c3227ca5f1b0119f3bb6c940a81604051610c88919061175d565b60405180910390a150565b60008060009054906101000a900473ffffffffffffffffffffffffffffffffffffffff16905090565b610cc4611137565b600260008381526020019081526020016000206040518060e001604052908160008201548152602001600182018054610cfc90611953565b80601f0160208091040260200160405190810160405280929190818152602001828054610d2890611953565b8015610d755780601f10610d4a57610100808354040283529160200191610d75565b820191906000526020600020905b815481529060010190602001808311610d5857829003601f168201915b50505050508152602001600282018054610d8e90611953565b80601f0160208091040260200160405190810160405280929190818152602001828054610dba90611953565b8015610e075780601f10610ddc57610100808354040283529160200191610e07565b820191906000526020600020905b815481529060010190602001808311610dea57829003601f168201915b50505050508152602001600382018054610e2090611953565b80601f0160208091040260200160405190810160405280929190818152602001828054610e4c90611953565b8015610e995780601f10610e6e57610100808354040283529160200191610e99565b820191906000526020600020905b815481529060010190602001808311610e7c57829003601f168201915b505050505081526020016004820160009054906101000a900460ff161515151581526020016004820160019054906101000a900460ff161515151581526020016004820160029054906101000a900460ff1615151515815250509050919050565b6000600360008373ffffffffffffffffffffffffffffffffffffffff1673ffffffffffffffffffffffffffffffffffffffff168152602001908152602001600020600001549050919050565b610f4e610fed565b600073ffffffffffffffffffffffffffffffffffffffff168173ffffffffffffffffffffffffffffffffffffffff1603610fbd576040517f08c379a0000000000000000000000000000000000000000000000000000000008152600401610fb490611ea6565b60405180910390fd5b610fc68161106b565b50565b6001816000016000828254019250508190555050565b600081600001549050919050565b610ff561112f565b73ffffffffffffffffffffffffffffffffffffffff16611013610c93565b73ffffffffffffffffffffffffffffffffffffffff1614611069576040517f08c379a000000000000000000000000000000000000000000000000000000000815260040161106090611f12565b60405180910390fd5b565b60008060009054906101000a900473ffffffffffffffffffffffffffffffffffffffff169050816000806101000a81548173ffffffffffffffffffffffffffffffffffffffff021916908373ffffffffffffffffffffffffffffffffffffffff1602179055508173ffffffffffffffffffffffffffffffffffffffff168173ffffffffffffffffffffffffffffffffffffffff167f8be0079c531659141344cd1fd0a4f28419497f9722a3daafe3b4186f6b6457e060405160405180910390a35050565b600033905090565b6040518060e00160405280600081526020016060815260200160608152602001606081526020016000151581526020016000151581526020016000151581525090565b6000604051905090565b600080fd5b600080fd5b600073ffffffffffffffffffffffffffffffffffffffff82169050919050565b60006111b98261118e565b9050919050565b6111c9816111ae565b81146111d457600080fd5b50565b6000813590506111e6816111c0565b92915050565b60006020828403121561120257611201611184565b5b6000611210848285016111d7565b91505092915050565b60008115159050919050565b61122e81611219565b82525050565b60006020820190506112496000830184611225565b92915050565b600080fd5b600080fd5b6000601f19601f8301169050919050565b7f4e487b7100000000000000000000000000000000000000000000000000000000600052604160045260246000fd5b6112a282611259565b810181811067ffffffffffffffff821117156112c1576112c061126a565b5b80604052505050565b60006112d461117a565b90506112e08282611299565b919050565b600067ffffffffffffffff821115611300576112ff61126a565b5b61130982611259565b9050602081019050919050565b82818337600083830152505050565b6000611338611333846112e5565b6112ca565b90508281526020810184848401111561135457611353611254565b5b61135f848285611316565b509392505050565b600082601f83011261137c5761137b61124f565b5b813561138c848260208601611325565b91505092915050565b6000806000606084860312156113ae576113ad611184565b5b600084013567ffffffffffffffff8111156113cc576113cb611189565b5b6113d886828701611367565b935050602084013567ffffffffffffffff8111156113f9576113f8611189565b5b61140586828701611367565b925050604084013567ffffffffffffffff81111561142657611425611189565b5b61143286828701611367565b9150509250925092565b6000819050919050565b61144f8161143c565b82525050565b600081519050919050565b600082825260208201905092915050565b60005b8381101561148f578082015181840152602081019050611474565b60008484015250505050565b60006114a682611455565b6114b08185611460565b93506114c0818560208601611471565b6114c981611259565b840191505092915050565b600060e0820190506114e9600083018a611446565b81810360208301526114fb818961149b565b9050818103604083015261150f818861149b565b90508181036060830152611523818761149b565b90506115326080830186611225565b61153f60a0830185611225565b61154c60c0830184611225565b98975050505050505050565b600081519050919050565b600082825260208201905092915050565b6000819050602082019050919050565b61158d8161143c565b82525050565b600082825260208201905092915050565b60006115af82611455565b6115b98185611593565b93506115c9818560208601611471565b6115d281611259565b840191505092915050565b6115e681611219565b82525050565b600060e0830160008301516116046000860182611584565b506020830151848203602086015261161c82826115a4565b9150506040830151848203604086015261163682826115a4565b9150506060830151848203606086015261165082826115a4565b915050608083015161166560808601826115dd565b5060a083015161167860a08601826115dd565b5060c083015161168b60c08601826115dd565b508091505092915050565b60006116a283836115ec565b905092915050565b6000602082019050919050565b60006116c282611558565b6116cc8185611563565b9350836020820285016116de85611574565b8060005b8581101561171a57848403895281516116fb8582611696565b9450611706836116aa565b925060208a019950506001810190506116e2565b50829750879550505050505092915050565b6000602082019050818103600083015261174681846116b7565b905092915050565b611757816111ae565b82525050565b6000602082019050611772600083018461174e565b92915050565b6117818161143c565b811461178c57600080fd5b50565b60008135905061179e81611778565b92915050565b6000602082840312156117ba576117b9611184565b5b60006117c88482850161178f565b91505092915050565b600060e0830160008301516117e96000860182611584565b506020830151848203602086015261180182826115a4565b9150506040830151848203604086015261181b82826115a4565b9150506060830151848203606086015261183582826115a4565b915050608083015161184a60808601826115dd565b5060a083015161185d60a08601826115dd565b5060c083015161187060c08601826115dd565b508091505092915050565b6000602082019050818103600083015261189581846117d1565b905092915050565b60006020820190506118b26000830184611446565b92915050565b7f596f7520616c7265616479206861766520616e206163636f756e740000000000600082015250565b60006118ee601b83611460565b91506118f9826118b8565b602082019050919050565b6000602082019050818103600083015261191d816118e1565b9050919050565b7f4e487b7100000000000000000000000000000000000000000000000000000000600052602260045260246000fd5b6000600282049050600182168061196b57607f821691505b60208210810361197e5761197d611924565b5b50919050565b60008190508160005260206000209050919050565b60006020601f8301049050919050565b600082821b905092915050565b6000600883026119e67fffffffffffffffffffffffffffffffffffffffffffffffffffffffffffffffff826119a9565b6119f086836119a9565b95508019841693508086168417925050509392505050565b6000819050919050565b6000611a2d611a28611a238461143c565b611a08565b61143c565b9050919050565b6000819050919050565b611a4783611a12565b611a5b611a5382611a34565b8484546119b6565b825550505050565b600090565b611a70611a63565b611a7b818484611a3e565b505050565b5b81811015611a9f57611a94600082611a68565b600181019050611a81565b5050565b601f821115611ae457611ab581611984565b611abe84611999565b81016020851015611acd578190505b611ae1611ad985611999565b830182611a80565b50505b505050565b600082821c905092915050565b6000611b0760001984600802611ae9565b1980831691505092915050565b6000611b208383611af6565b9150826002028217905092915050565b611b3982611455565b67ffffffffffffffff811115611b5257611b5161126a565b5b611b5c8254611953565b611b67828285611aa3565b600060209050601f831160018114611b9a5760008415611b88578287015190505b611b928582611b14565b865550611bfa565b601f198416611ba886611984565b60005b82811015611bd057848901518255600182019150602085019450602081019050611bab565b86831015611bed5784890151611be9601f891682611af6565b8355505b6001600288020188555050505b505050505050565b600081549050611c1181611953565b9050919050565b818103611c26575050611cfe565b611c2f82611c02565b67ffffffffffffffff811115611c4857611c4761126a565b5b611c528254611953565b611c5d828285611aa3565b6000601f831160018114611c8c5760008415611c7a578287015490505b611c848582611b14565b865550611cf7565b601f198416611c9a87611984565b9650611ca586611984565b60005b82811015611ccd57848901548255600182019150600185019450602081019050611ca8565b86831015611cea5784890154611ce6601f891682611af6565b8355505b6001600288020188555050505b5050505050505b565b6000608082019050611d156000830187611446565b8181036020830152611d27818661149b565b90508181036040830152611d3b818561149b565b90508181036060830152611d4f818461149b565b905095945050505050565b7f4e487b7100000000000000000000000000000000000000000000000000000000600052601160045260246000fd5b6000611d948261143c565b9150611d9f8361143c565b9250828201905080821115611db757611db6611d5a565b5b92915050565b7f4e487b7100000000000000000000000000000000000000000000000000000000600052603260045260246000fd5b6000611df78261143c565b91507fffffffffffffffffffffffffffffffffffffffffffffffffffffffffffffffff8203611e2957611e28611d5a565b5b600182019050919050565b7f4f776e61626c653a206e6577206f776e657220697320746865207a65726f206160008201527f6464726573730000000000000000000000000000000000000000000000000000602082015250565b6000611e90602683611460565b9150611e9b82611e34565b604082019050919050565b60006020820190508181036000830152611ebf81611e83565b9050919050565b7f4f776e61626c653a2063616c6c6572206973206e6f7420746865206f776e6572600082015250565b6000611efc602083611460565b9150611f0782611ec6565b602082019050919050565b60006020820190508181036000830152611f2b81611eef565b905091905056fea2646970667358221220c93c754b1b6d41224b283fdaeaae11f60c4aed5e23eb6bc1614d55cf13e4c25964736f6c63430008130033",
  "immutableReferences": {},
  "source": "//SPDX-License-Identifier: GPL-3.0\npragma solidity ^0.8.19;\n\nimport \"../node_modules/@openzeppelin/contracts/utils/Counters.sol\";\nimport \"../node_modules/@openzeppelin/contracts/access/Ownable.sol\";\n \ncontract LTYAccount is Ownable{\n\n    using Counters for Counters.Counter;\n\n    //_Brandids variable has the most recent minted tokenId\n    Counters.Counter private _brandsIds;\n\n    struct UserAccount {\n        uint brandId;\n        string name;\n        string description;\n        string image;\n        bool isABrand; // set if account is a Brand (or a Client)\n        bool isBrandRegisterOnPlatform; //allow account to mint NFT\n        bool isAddressAlreadyCreatedAccount;\n    }\n\n    //the event emitted when a brand is successfully created\n    event EventUserAccountCreated (\n        uint brandId,\n        string name,\n        string description,\n        string image\n    );\n\n    //the event emitted when a brand is registered\n    event EventBrandRegisterOnPlatform (address _addr);\n\n    //the event emitted when an address is identify as a brand\n    event EventUserIsABrand(address _addr);\n\n    //mapping to store all brands\n    mapping(uint256 => UserAccount) private idToListedBrand;\n\n    //Mapping of brand\n    mapping(address => UserAccount) public userAccounts;\n\n    /// @notice Create Brand account\n    /// @dev add more data in future (brand's category, SIREN, ...)\n    /// @param _name of the brand\n    /// @param _description of the brand\n    /// @param _image (logo) of the brand\n    function createUserAccount(\n\n        string memory _name,\n        string memory _description,\n        string memory _image\n    ) public {\n        require(!userAccounts[msg.sender].isAddressAlreadyCreatedAccount, \"You already have an account\");\n        userAccounts[msg.sender].name = _name;\n        userAccounts[msg.sender].description = _description;\n        userAccounts[msg.sender].image = _image;\n        userAccounts[msg.sender].isAddressAlreadyCreatedAccount = true;\n\n        //PMV : We registered brand as default\n        //Final version : Add admin frontend screen to use this function\n        setUserIsABrand(msg.sender);\n        //userAccounts[msg.sender].isABrand = true;\n\n        //PMV : We registered brand as default\n        //Final version : Add admin frontend screen to use this function\n        // userAccounts[msg.sender].isBrandRegisterOnPlatform = true;\n        setIsBrandRegisterOnPlatform(msg.sender);\n\n        //Increment the brandId counter, which is keeping track of the number of brand registered\n        _brandsIds.increment();\n        uint256 currentBrandId = _brandsIds.current();\n        userAccounts[msg.sender].brandId = currentBrandId;\n        idToListedBrand[currentBrandId] = userAccounts[msg.sender];\n\n        emit EventUserAccountCreated(\n            currentBrandId,    \n            _name,\n            _description,\n            _image\n        );\n    }\n\n \n    /// @notice Set brand account as registered => Functionnaly, it allows account to mint NFT\n    /// @param _addr Address to registered\n    ///TO DO  a mettre Ownable\n    function setIsBrandRegisterOnPlatform(address _addr) public{\n        userAccounts[_addr].isBrandRegisterOnPlatform = true;  \n        emit EventBrandRegisterOnPlatform(_addr);\n    }\n\n    /// @notice get true if brand account is registered \n    /// @param _addr Address to check\n    function getIsBrandRegisterOnPlatform(address _addr) public view returns(bool _isRegistered){\n       return userAccounts[_addr].isBrandRegisterOnPlatform;\n    }\n\n    /// @notice Set account as a brand account\n    /// @param _addr Address to registered as a brand\n    ///TO DO  a mettre Ownable\n    function setUserIsABrand(address _addr) public{\n        userAccounts[_addr].isABrand = true;\n        emit EventUserIsABrand(_addr);\n    }\n\n    /// @notice Get id Brand from address\n    /// @param _addr address of the future Owner\n    function getIdBrandFromAddress(address _addr) public view returns (uint _id){ return userAccounts[_addr].brandId; }\n    \n    /// @notice Get Brand from Id\n    /// @param _idBrand if of tha brand\n    /// @return Brand Details\n    function getBrandFromId(uint _idBrand) public view returns (UserAccount memory){ return idToListedBrand[_idBrand]; }\n\n    /// @notice Get all brands registered on the marketplace\n    /// @dev return an array of brand\n    /// @return all brands\n    function getAllBrands() public view returns (UserAccount[] memory) {\n        uint brandsCount = _brandsIds.current();\n        UserAccount[] memory brands = new UserAccount[](brandsCount);\n        uint currentIndex = 0;\n\n        for(uint i=0;i<brandsCount;i++)\n        {\n            uint currentId = i + 1;\n            UserAccount storage currentItem = idToListedBrand[currentId];\n            if(currentItem.isBrandRegisterOnPlatform){ // we get only registered brand in plateform\n                brands[currentIndex] = currentItem;\n                currentIndex += 1;\n            }\n        }\n\n        //the array 'brands' has the list of all brands in the marketplace\n        return brands;\n    }\n\n}",
  "sourcePath": "/Users/thibaut/development/alyra/LoyaltyChainVF/backendTruffle/contracts/LTYAccount.sol",
  "compiler": {
    "name": "solc",
    "version": "0.8.19+commit.7dd6d404.Emscripten.clang"
  },
  "schemaVersion": "3.4.14",
  "updatedAt": "2023-07-16T12:01:16.144Z",
  "networkType": "ethereum",
  "devdoc": {
    "kind": "dev",
    "methods": {
      "createUserAccount(string,string,string)": {
        "details": "add more data in future (brand's category, SIREN, ...)",
        "params": {
          "_description": "of the brand",
          "_image": "(logo) of the brand",
          "_name": "of the brand"
        }
      },
      "getAllBrands()": {
        "details": "return an array of brand",
        "returns": {
          "_0": "all brands"
        }
      },
      "getBrandFromId(uint256)": {
        "params": {
          "_idBrand": "if of tha brand"
        },
        "returns": {
          "_0": "Brand Details"
        }
      },
      "getIdBrandFromAddress(address)": {
        "params": {
          "_addr": "address of the future Owner"
        }
      },
      "getIsBrandRegisterOnPlatform(address)": {
        "params": {
          "_addr": "Address to check"
        }
      },
      "owner()": {
        "details": "Returns the address of the current owner."
      },
      "renounceOwnership()": {
        "details": "Leaves the contract without owner. It will not be possible to call `onlyOwner` functions. Can only be called by the current owner. NOTE: Renouncing ownership will leave the contract without an owner, thereby disabling any functionality that is only available to the owner."
      },
      "setIsBrandRegisterOnPlatform(address)": {
        "params": {
          "_addr": "Address to registered TO DO  a mettre Ownable"
        }
      },
      "setUserIsABrand(address)": {
        "params": {
          "_addr": "Address to registered as a brand TO DO  a mettre Ownable"
        }
      },
      "transferOwnership(address)": {
        "details": "Transfers ownership of the contract to a new account (`newOwner`). Can only be called by the current owner."
      }
    },
    "version": 1
  },
  "userdoc": {
    "kind": "user",
    "methods": {
      "createUserAccount(string,string,string)": {
        "notice": "Create Brand account"
      },
      "getAllBrands()": {
        "notice": "Get all brands registered on the marketplace"
      },
      "getBrandFromId(uint256)": {
        "notice": "Get Brand from Id"
      },
      "getIdBrandFromAddress(address)": {
        "notice": "Get id Brand from address"
      },
      "getIsBrandRegisterOnPlatform(address)": {
        "notice": "get true if brand account is registered "
      },
      "setIsBrandRegisterOnPlatform(address)": {
        "notice": "Set brand account as registered => Functionnaly, it allows account to mint NFT"
      },
      "setUserIsABrand(address)": {
        "notice": "Set account as a brand account"
      }
    },
    "version": 1
  }
}