{
  "contractName": "LTYAccount",
  "abi": [
    {
      "anonymous": false,
      "inputs": [
        {
          "indexed": false,
          "internalType": "address",
          "name": "_addr",
          "type": "address"
        }
      ],
      "name": "EventBrandRegisterOnPlatform",
      "type": "event"
    },
    {
      "anonymous": false,
      "inputs": [
        {
          "indexed": false,
          "internalType": "uint256",
          "name": "brandId",
          "type": "uint256"
        },
        {
          "indexed": false,
          "internalType": "string",
          "name": "name",
          "type": "string"
        },
        {
          "indexed": false,
          "internalType": "string",
          "name": "description",
          "type": "string"
        },
        {
          "indexed": false,
          "internalType": "string",
          "name": "image",
          "type": "string"
        }
      ],
      "name": "EventUserAccountCreated",
      "type": "event"
    },
    {
      "anonymous": false,
      "inputs": [
        {
          "indexed": false,
          "internalType": "address",
          "name": "_addr",
          "type": "address"
        }
      ],
      "name": "EventUserIsABrand",
      "type": "event"
    },
    {
      "anonymous": false,
      "inputs": [
        {
          "indexed": true,
          "internalType": "address",
          "name": "previousOwner",
          "type": "address"
        },
        {
          "indexed": true,
          "internalType": "address",
          "name": "newOwner",
          "type": "address"
        }
      ],
      "name": "OwnershipTransferred",
      "type": "event"
    },
    {
      "inputs": [
        {
          "internalType": "uint256",
          "name": "",
          "type": "uint256"
        }
      ],
      "name": "idToListedBrand",
      "outputs": [
        {
          "internalType": "uint256",
          "name": "brandId",
          "type": "uint256"
        },
        {
          "internalType": "string",
          "name": "name",
          "type": "string"
        },
        {
          "internalType": "string",
          "name": "description",
          "type": "string"
        },
        {
          "internalType": "string",
          "name": "image",
          "type": "string"
        },
        {
          "internalType": "bool",
          "name": "isABrand",
          "type": "bool"
        },
        {
          "internalType": "bool",
          "name": "isBrandRegisterOnPlatform",
          "type": "bool"
        },
        {
          "internalType": "bool",
          "name": "isAddressAlreadyCreatedAccount",
          "type": "bool"
        }
      ],
      "stateMutability": "view",
      "type": "function",
      "constant": true
    },
    {
      "inputs": [],
      "name": "owner",
      "outputs": [
        {
          "internalType": "address",
          "name": "",
          "type": "address"
        }
      ],
      "stateMutability": "view",
      "type": "function",
      "constant": true
    },
    {
      "inputs": [],
      "name": "renounceOwnership",
      "outputs": [],
      "stateMutability": "nonpayable",
      "type": "function"
    },
    {
      "inputs": [
        {
          "internalType": "address",
          "name": "newOwner",
          "type": "address"
        }
      ],
      "name": "transferOwnership",
      "outputs": [],
      "stateMutability": "nonpayable",
      "type": "function"
    },
    {
      "inputs": [
        {
          "internalType": "address",
          "name": "",
          "type": "address"
        }
      ],
      "name": "userAccounts",
      "outputs": [
        {
          "internalType": "uint256",
          "name": "brandId",
          "type": "uint256"
        },
        {
          "internalType": "string",
          "name": "name",
          "type": "string"
        },
        {
          "internalType": "string",
          "name": "description",
          "type": "string"
        },
        {
          "internalType": "string",
          "name": "image",
          "type": "string"
        },
        {
          "internalType": "bool",
          "name": "isABrand",
          "type": "bool"
        },
        {
          "internalType": "bool",
          "name": "isBrandRegisterOnPlatform",
          "type": "bool"
        },
        {
          "internalType": "bool",
          "name": "isAddressAlreadyCreatedAccount",
          "type": "bool"
        }
      ],
      "stateMutability": "view",
      "type": "function",
      "constant": true
    },
    {
      "inputs": [
        {
          "internalType": "string",
          "name": "_name",
          "type": "string"
        },
        {
          "internalType": "string",
          "name": "_description",
          "type": "string"
        },
        {
          "internalType": "string",
          "name": "_image",
          "type": "string"
        }
      ],
      "name": "createUserAccount",
      "outputs": [],
      "stateMutability": "nonpayable",
      "type": "function"
    },
    {
      "inputs": [
        {
          "internalType": "address",
          "name": "_addr",
          "type": "address"
        }
      ],
      "name": "setIsBrandRegisterOnPlatform",
      "outputs": [],
      "stateMutability": "nonpayable",
      "type": "function"
    },
    {
      "inputs": [
        {
          "internalType": "address",
          "name": "_addr",
          "type": "address"
        }
      ],
      "name": "getIsBrandRegisterOnPlatform",
      "outputs": [
        {
          "internalType": "bool",
          "name": "_isRegistered",
          "type": "bool"
        }
      ],
      "stateMutability": "view",
      "type": "function",
      "constant": true
    },
    {
      "inputs": [
        {
          "internalType": "address",
          "name": "_addr",
          "type": "address"
        }
      ],
      "name": "setUserIsABrand",
      "outputs": [],
      "stateMutability": "nonpayable",
      "type": "function"
    },
    {
      "inputs": [
        {
          "internalType": "address",
          "name": "_addr",
          "type": "address"
        }
      ],
      "name": "getIdBrandFromAddress",
      "outputs": [
        {
          "internalType": "uint256",
          "name": "_id",
          "type": "uint256"
        }
      ],
      "stateMutability": "view",
      "type": "function",
      "constant": true
    },
    {
      "inputs": [
        {
          "internalType": "uint256",
          "name": "_idBrand",
          "type": "uint256"
        }
      ],
      "name": "getBrandFromId",
      "outputs": [
        {
          "components": [
            {
              "internalType": "uint256",
              "name": "brandId",
              "type": "uint256"
            },
            {
              "internalType": "string",
              "name": "name",
              "type": "string"
            },
            {
              "internalType": "string",
              "name": "description",
              "type": "string"
            },
            {
              "internalType": "string",
              "name": "image",
              "type": "string"
            },
            {
              "internalType": "bool",
              "name": "isABrand",
              "type": "bool"
            },
            {
              "internalType": "bool",
              "name": "isBrandRegisterOnPlatform",
              "type": "bool"
            },
            {
              "internalType": "bool",
              "name": "isAddressAlreadyCreatedAccount",
              "type": "bool"
            }
          ],
          "internalType": "struct LTYAccount.UserAccount",
          "name": "",
          "type": "tuple"
        }
      ],
      "stateMutability": "view",
      "type": "function",
      "constant": true
    },
    {
      "inputs": [],
      "name": "getAllBrands",
      "outputs": [
        {
          "components": [
            {
              "internalType": "uint256",
              "name": "brandId",
              "type": "uint256"
            },
            {
              "internalType": "string",
              "name": "name",
              "type": "string"
            },
            {
              "internalType": "string",
              "name": "description",
              "type": "string"
            },
            {
              "internalType": "string",
              "name": "image",
              "type": "string"
            },
            {
              "internalType": "bool",
              "name": "isABrand",
              "type": "bool"
            },
            {
              "internalType": "bool",
              "name": "isBrandRegisterOnPlatform",
              "type": "bool"
            },
            {
              "internalType": "bool",
              "name": "isAddressAlreadyCreatedAccount",
              "type": "bool"
            }
          ],
          "internalType": "struct LTYAccount.UserAccount[]",
          "name": "",
          "type": "tuple[]"
        }
      ],
      "stateMutability": "view",
      "type": "function",
      "constant": true
    }
  ],
  "bytecode": "0x608060405234801561001057600080fd5b5061002d61002261003260201b60201c565b61003a60201b60201c565b6100fe565b600033905090565b60008060009054906101000a900473ffffffffffffffffffffffffffffffffffffffff169050816000806101000a81548173ffffffffffffffffffffffffffffffffffffffff021916908373ffffffffffffffffffffffffffffffffffffffff1602179055508173ffffffffffffffffffffffffffffffffffffffff168173ffffffffffffffffffffffffffffffffffffffff167f8be0079c531659141344cd1fd0a4f28419497f9722a3daafe3b4186f6b6457e060405160405180910390a35050565b6121aa806200010e6000396000f3fe608060405234801561001057600080fd5b50600436106100b45760003560e01c8063715018a611610071578063715018a6146101ab578063886d07e2146101b55780638da5cb5b146101d1578063a07e7236146101ef578063b2a900871461021f578063f2fde38b1461024f576100b4565b8063107781fd146100b95780634450e06d146100e95780635251d91c1461010557806352e694e91461013b57806360e8ddb01461017157806369a015b91461018f575b600080fd5b6100d360048036038101906100ce919061142e565b61026b565b6040516100e09190611476565b60405180910390f35b61010360048036038101906100fe91906115d7565b6102c4565b005b61011f600480360381019061011a919061142e565b610678565b6040516101329796959493929190611716565b60405180910390f35b610155600480360381019061015091906117c6565b610879565b6040516101689796959493929190611716565b60405180910390f35b610179610a7a565b60405161018691906119c7565b60405180910390f35b6101a960048036038101906101a4919061142e565b610d97565b005b6101b3610e2c565b005b6101cf60048036038101906101ca919061142e565b610e40565b005b6101d9610ed5565b6040516101e691906119f8565b60405180910390f35b610209600480360381019061020491906117c6565b610efe565b6040516102169190611abd565b60405180910390f35b6102396004803603810190610234919061142e565b61113c565b6040516102469190611adf565b60405180910390f35b6102696004803603810190610264919061142e565b611188565b005b6000600360008373ffffffffffffffffffffffffffffffffffffffff1673ffffffffffffffffffffffffffffffffffffffff16815260200190815260200160002060040160019054906101000a900460ff169050919050565b600360003373ffffffffffffffffffffffffffffffffffffffff1673ffffffffffffffffffffffffffffffffffffffff16815260200190815260200160002060040160029054906101000a900460ff1615610354576040517f08c379a000000000000000000000000000000000000000000000000000000000815260040161034b90611b46565b60405180910390fd5b82600360003373ffffffffffffffffffffffffffffffffffffffff1673ffffffffffffffffffffffffffffffffffffffff16815260200190815260200160002060010190816103a39190611d72565b5081600360003373ffffffffffffffffffffffffffffffffffffffff1673ffffffffffffffffffffffffffffffffffffffff16815260200190815260200160002060020190816103f39190611d72565b5080600360003373ffffffffffffffffffffffffffffffffffffffff1673ffffffffffffffffffffffffffffffffffffffff16815260200190815260200160002060030190816104439190611d72565b506001600360003373ffffffffffffffffffffffffffffffffffffffff1673ffffffffffffffffffffffffffffffffffffffff16815260200190815260200160002060040160026101000a81548160ff0219169083151502179055506104a833610d97565b6104b133610e40565b6104bb600161120b565b60006104c76001611221565b905080600360003373ffffffffffffffffffffffffffffffffffffffff1673ffffffffffffffffffffffffffffffffffffffff16815260200190815260200160002060000181905550600360003373ffffffffffffffffffffffffffffffffffffffff1673ffffffffffffffffffffffffffffffffffffffff1681526020019081526020016000206002600083815260200190815260200160002060008201548160000155600182018160010190816105809190611e5a565b50600282018160020190816105959190611e5a565b50600382018160030190816105aa9190611e5a565b506004820160009054906101000a900460ff168160040160006101000a81548160ff0219169083151502179055506004820160019054906101000a900460ff168160040160016101000a81548160ff0219169083151502179055506004820160029054906101000a900460ff168160040160026101000a81548160ff0219169083151502179055509050507fe00519c095c5ff5bf8367c25679e5f06b1116d5b6e15c077a4fb7eda610214c18185858560405161066a9493929190611f42565b60405180910390a150505050565b60036020528060005260406000206000915090508060000154908060010180546106a190611b95565b80601f01602080910402602001604051908101604052809291908181526020018280546106cd90611b95565b801561071a5780601f106106ef5761010080835404028352916020019161071a565b820191906000526020600020905b8154815290600101906020018083116106fd57829003601f168201915b50505050509080600201805461072f90611b95565b80601f016020809104026020016040519081016040528092919081815260200182805461075b90611b95565b80156107a85780601f1061077d576101008083540402835291602001916107a8565b820191906000526020600020905b81548152906001019060200180831161078b57829003601f168201915b5050505050908060030180546107bd90611b95565b80601f01602080910402602001604051908101604052809291908181526020018280546107e990611b95565b80156108365780601f1061080b57610100808354040283529160200191610836565b820191906000526020600020905b81548152906001019060200180831161081957829003601f168201915b5050505050908060040160009054906101000a900460ff16908060040160019054906101000a900460ff16908060040160029054906101000a900460ff16905087565b60026020528060005260406000206000915090508060000154908060010180546108a290611b95565b80601f01602080910402602001604051908101604052809291908181526020018280546108ce90611b95565b801561091b5780601f106108f05761010080835404028352916020019161091b565b820191906000526020600020905b8154815290600101906020018083116108fe57829003601f168201915b50505050509080600201805461093090611b95565b80601f016020809104026020016040519081016040528092919081815260200182805461095c90611b95565b80156109a95780601f1061097e576101008083540402835291602001916109a9565b820191906000526020600020905b81548152906001019060200180831161098c57829003601f168201915b5050505050908060030180546109be90611b95565b80601f01602080910402602001604051908101604052809291908181526020018280546109ea90611b95565b8015610a375780601f10610a0c57610100808354040283529160200191610a37565b820191906000526020600020905b815481529060010190602001808311610a1a57829003601f168201915b5050505050908060040160009054906101000a900460ff16908060040160019054906101000a900460ff16908060040160029054906101000a900460ff16905087565b60606000610a886001611221565b905060008167ffffffffffffffff811115610aa657610aa56114ac565b5b604051908082528060200260200182016040528015610adf57816020015b610acc611379565b815260200190600190039081610ac45790505b5090506000805b83811015610d8d576000600182610afd9190611fcb565b905060006002600083815260200190815260200160002090508060040160019054906101000a900460ff1615610d7857806040518060e001604052908160008201548152602001600182018054610b5390611b95565b80601f0160208091040260200160405190810160405280929190818152602001828054610b7f90611b95565b8015610bcc5780601f10610ba157610100808354040283529160200191610bcc565b820191906000526020600020905b815481529060010190602001808311610baf57829003601f168201915b50505050508152602001600282018054610be590611b95565b80601f0160208091040260200160405190810160405280929190818152602001828054610c1190611b95565b8015610c5e5780601f10610c3357610100808354040283529160200191610c5e565b820191906000526020600020905b815481529060010190602001808311610c4157829003601f168201915b50505050508152602001600382018054610c7790611b95565b80601f0160208091040260200160405190810160405280929190818152602001828054610ca390611b95565b8015610cf05780601f10610cc557610100808354040283529160200191610cf0565b820191906000526020600020905b815481529060010190602001808311610cd357829003601f168201915b505050505081526020016004820160009054906101000a900460ff161515151581526020016004820160019054906101000a900460ff161515151581526020016004820160029054906101000a900460ff161515151581525050858581518110610d5d57610d5c611fff565b5b6020026020010181905250600184610d759190611fcb565b93505b50508080610d859061202e565b915050610ae6565b5081935050505090565b6001600360008373ffffffffffffffffffffffffffffffffffffffff1673ffffffffffffffffffffffffffffffffffffffff16815260200190815260200160002060040160006101000a81548160ff0219169083151502179055507f36ffaad55cc247449809f68d9e11c0e594b038d81969bc8df55b1fc07db8470081604051610e2191906119f8565b60405180910390a150565b610e3461122f565b610e3e60006112ad565b565b6001600360008373ffffffffffffffffffffffffffffffffffffffff1673ffffffffffffffffffffffffffffffffffffffff16815260200190815260200160002060040160016101000a81548160ff0219169083151502179055507ff3b01f304a6fefd18b9d8bc9829e5d5d38204f8c3227ca5f1b0119f3bb6c940a81604051610eca91906119f8565b60405180910390a150565b60008060009054906101000a900473ffffffffffffffffffffffffffffffffffffffff16905090565b610f06611379565b600260008381526020019081526020016000206040518060e001604052908160008201548152602001600182018054610f3e90611b95565b80601f0160208091040260200160405190810160405280929190818152602001828054610f6a90611b95565b8015610fb75780601f10610f8c57610100808354040283529160200191610fb7565b820191906000526020600020905b815481529060010190602001808311610f9a57829003601f168201915b50505050508152602001600282018054610fd090611b95565b80601f0160208091040260200160405190810160405280929190818152602001828054610ffc90611b95565b80156110495780601f1061101e57610100808354040283529160200191611049565b820191906000526020600020905b81548152906001019060200180831161102c57829003601f168201915b5050505050815260200160038201805461106290611b95565b80601f016020809104026020016040519081016040528092919081815260200182805461108e90611b95565b80156110db5780601f106110b0576101008083540402835291602001916110db565b820191906000526020600020905b8154815290600101906020018083116110be57829003601f168201915b505050505081526020016004820160009054906101000a900460ff161515151581526020016004820160019054906101000a900460ff161515151581526020016004820160029054906101000a900460ff1615151515815250509050919050565b6000600360008373ffffffffffffffffffffffffffffffffffffffff1673ffffffffffffffffffffffffffffffffffffffff168152602001908152602001600020600001549050919050565b61119061122f565b600073ffffffffffffffffffffffffffffffffffffffff168173ffffffffffffffffffffffffffffffffffffffff16036111ff576040517f08c379a00000000000000000000000000000000000000000000000000000000081526004016111f6906120e8565b60405180910390fd5b611208816112ad565b50565b6001816000016000828254019250508190555050565b600081600001549050919050565b611237611371565b73ffffffffffffffffffffffffffffffffffffffff16611255610ed5565b73ffffffffffffffffffffffffffffffffffffffff16146112ab576040517f08c379a00000000000000000000000000000000000000000000000000000000081526004016112a290612154565b60405180910390fd5b565b60008060009054906101000a900473ffffffffffffffffffffffffffffffffffffffff169050816000806101000a81548173ffffffffffffffffffffffffffffffffffffffff021916908373ffffffffffffffffffffffffffffffffffffffff1602179055508173ffffffffffffffffffffffffffffffffffffffff168173ffffffffffffffffffffffffffffffffffffffff167f8be0079c531659141344cd1fd0a4f28419497f9722a3daafe3b4186f6b6457e060405160405180910390a35050565b600033905090565b6040518060e00160405280600081526020016060815260200160608152602001606081526020016000151581526020016000151581526020016000151581525090565b6000604051905090565b600080fd5b600080fd5b600073ffffffffffffffffffffffffffffffffffffffff82169050919050565b60006113fb826113d0565b9050919050565b61140b816113f0565b811461141657600080fd5b50565b60008135905061142881611402565b92915050565b600060208284031215611444576114436113c6565b5b600061145284828501611419565b91505092915050565b60008115159050919050565b6114708161145b565b82525050565b600060208201905061148b6000830184611467565b92915050565b600080fd5b600080fd5b6000601f19601f8301169050919050565b7f4e487b7100000000000000000000000000000000000000000000000000000000600052604160045260246000fd5b6114e48261149b565b810181811067ffffffffffffffff82111715611503576115026114ac565b5b80604052505050565b60006115166113bc565b905061152282826114db565b919050565b600067ffffffffffffffff821115611542576115416114ac565b5b61154b8261149b565b9050602081019050919050565b82818337600083830152505050565b600061157a61157584611527565b61150c565b90508281526020810184848401111561159657611595611496565b5b6115a1848285611558565b509392505050565b600082601f8301126115be576115bd611491565b5b81356115ce848260208601611567565b91505092915050565b6000806000606084860312156115f0576115ef6113c6565b5b600084013567ffffffffffffffff81111561160e5761160d6113cb565b5b61161a868287016115a9565b935050602084013567ffffffffffffffff81111561163b5761163a6113cb565b5b611647868287016115a9565b925050604084013567ffffffffffffffff811115611668576116676113cb565b5b611674868287016115a9565b9150509250925092565b6000819050919050565b6116918161167e565b82525050565b600081519050919050565b600082825260208201905092915050565b60005b838110156116d15780820151818401526020810190506116b6565b60008484015250505050565b60006116e882611697565b6116f281856116a2565b93506117028185602086016116b3565b61170b8161149b565b840191505092915050565b600060e08201905061172b600083018a611688565b818103602083015261173d81896116dd565b9050818103604083015261175181886116dd565b9050818103606083015261176581876116dd565b90506117746080830186611467565b61178160a0830185611467565b61178e60c0830184611467565b98975050505050505050565b6117a38161167e565b81146117ae57600080fd5b50565b6000813590506117c08161179a565b92915050565b6000602082840312156117dc576117db6113c6565b5b60006117ea848285016117b1565b91505092915050565b600081519050919050565b600082825260208201905092915050565b6000819050602082019050919050565b6118288161167e565b82525050565b600082825260208201905092915050565b600061184a82611697565b611854818561182e565b93506118648185602086016116b3565b61186d8161149b565b840191505092915050565b6118818161145b565b82525050565b600060e08301600083015161189f600086018261181f565b50602083015184820360208601526118b7828261183f565b915050604083015184820360408601526118d1828261183f565b915050606083015184820360608601526118eb828261183f565b91505060808301516119006080860182611878565b5060a083015161191360a0860182611878565b5060c083015161192660c0860182611878565b508091505092915050565b600061193d8383611887565b905092915050565b6000602082019050919050565b600061195d826117f3565b61196781856117fe565b9350836020820285016119798561180f565b8060005b858110156119b557848403895281516119968582611931565b94506119a183611945565b925060208a0199505060018101905061197d565b50829750879550505050505092915050565b600060208201905081810360008301526119e18184611952565b905092915050565b6119f2816113f0565b82525050565b6000602082019050611a0d60008301846119e9565b92915050565b600060e083016000830151611a2b600086018261181f565b5060208301518482036020860152611a43828261183f565b91505060408301518482036040860152611a5d828261183f565b91505060608301518482036060860152611a77828261183f565b9150506080830151611a8c6080860182611878565b5060a0830151611a9f60a0860182611878565b5060c0830151611ab260c0860182611878565b508091505092915050565b60006020820190508181036000830152611ad78184611a13565b905092915050565b6000602082019050611af46000830184611688565b92915050565b7f596f7520616c7265616479206861766520616e206163636f756e740000000000600082015250565b6000611b30601b836116a2565b9150611b3b82611afa565b602082019050919050565b60006020820190508181036000830152611b5f81611b23565b9050919050565b7f4e487b7100000000000000000000000000000000000000000000000000000000600052602260045260246000fd5b60006002820490506001821680611bad57607f821691505b602082108103611bc057611bbf611b66565b5b50919050565b60008190508160005260206000209050919050565b60006020601f8301049050919050565b600082821b905092915050565b600060088302611c287fffffffffffffffffffffffffffffffffffffffffffffffffffffffffffffffff82611beb565b611c328683611beb565b95508019841693508086168417925050509392505050565b6000819050919050565b6000611c6f611c6a611c658461167e565b611c4a565b61167e565b9050919050565b6000819050919050565b611c8983611c54565b611c9d611c9582611c76565b848454611bf8565b825550505050565b600090565b611cb2611ca5565b611cbd818484611c80565b505050565b5b81811015611ce157611cd6600082611caa565b600181019050611cc3565b5050565b601f821115611d2657611cf781611bc6565b611d0084611bdb565b81016020851015611d0f578190505b611d23611d1b85611bdb565b830182611cc2565b50505b505050565b600082821c905092915050565b6000611d4960001984600802611d2b565b1980831691505092915050565b6000611d628383611d38565b9150826002028217905092915050565b611d7b82611697565b67ffffffffffffffff811115611d9457611d936114ac565b5b611d9e8254611b95565b611da9828285611ce5565b600060209050601f831160018114611ddc5760008415611dca578287015190505b611dd48582611d56565b865550611e3c565b601f198416611dea86611bc6565b60005b82811015611e1257848901518255600182019150602085019450602081019050611ded565b86831015611e2f5784890151611e2b601f891682611d38565b8355505b6001600288020188555050505b505050505050565b600081549050611e5381611b95565b9050919050565b818103611e68575050611f40565b611e7182611e44565b67ffffffffffffffff811115611e8a57611e896114ac565b5b611e948254611b95565b611e9f828285611ce5565b6000601f831160018114611ece5760008415611ebc578287015490505b611ec68582611d56565b865550611f39565b601f198416611edc87611bc6565b9650611ee786611bc6565b60005b82811015611f0f57848901548255600182019150600185019450602081019050611eea565b86831015611f2c5784890154611f28601f891682611d38565b8355505b6001600288020188555050505b5050505050505b565b6000608082019050611f576000830187611688565b8181036020830152611f6981866116dd565b90508181036040830152611f7d81856116dd565b90508181036060830152611f9181846116dd565b905095945050505050565b7f4e487b7100000000000000000000000000000000000000000000000000000000600052601160045260246000fd5b6000611fd68261167e565b9150611fe18361167e565b9250828201905080821115611ff957611ff8611f9c565b5b92915050565b7f4e487b7100000000000000000000000000000000000000000000000000000000600052603260045260246000fd5b60006120398261167e565b91507fffffffffffffffffffffffffffffffffffffffffffffffffffffffffffffffff820361206b5761206a611f9c565b5b600182019050919050565b7f4f776e61626c653a206e6577206f776e657220697320746865207a65726f206160008201527f6464726573730000000000000000000000000000000000000000000000000000602082015250565b60006120d26026836116a2565b91506120dd82612076565b604082019050919050565b60006020820190508181036000830152612101816120c5565b9050919050565b7f4f776e61626c653a2063616c6c6572206973206e6f7420746865206f776e6572600082015250565b600061213e6020836116a2565b915061214982612108565b602082019050919050565b6000602082019050818103600083015261216d81612131565b905091905056fea26469706673582212203b748d9ab29b5eb351b72bce8a59e735ae7c9fcb60709bbeed12b9fb1a0eeaf264736f6c63430008130033",
  "immutableReferences": {},
  "source": "//SPDX-License-Identifier: GPL-3.0\npragma solidity ^0.8.19;\n\nimport \"../node_modules/@openzeppelin/contracts/utils/Counters.sol\";\nimport \"../node_modules/@openzeppelin/contracts/access/Ownable.sol\";\n \ncontract LTYAccount is Ownable{\n\n    using Counters for Counters.Counter;\n\n    //_Brandids variable has the most recent minted tokenId\n    Counters.Counter private _brandsIds;\n\n    struct UserAccount {\n        uint brandId;\n        string name;\n        string description;\n        string image;\n        bool isABrand; // set if account is a Brand (or a Client)\n        bool isBrandRegisterOnPlatform; //allow account to mint NFT\n        bool isAddressAlreadyCreatedAccount;\n    }\n\n    //the event emitted when a brand is successfully created\n    event EventUserAccountCreated (\n        uint brandId,\n        string name,\n        string description,\n        string image\n    );\n\n    //the event emitted when a brand is registered\n    event EventBrandRegisterOnPlatform (address _addr);\n\n    //the event emitted when an address is identify as a brand\n    event EventUserIsABrand(address _addr);\n\n    //mapping to store all brands\n    mapping(uint256 => UserAccount) public idToListedBrand;\n\n    //Mapping of brand\n    mapping(address => UserAccount) public userAccounts;\n\n    /// @notice Create Brand account\n    /// @dev add more data in future (brand's category, SIREN, ...)\n    /// @param _name of the brand\n    /// @param _description of the brand\n    /// @param _image (logo) of the brand\n    function createUserAccount(\n\n        string memory _name,\n        string memory _description,\n        string memory _image\n    ) public {\n        require(!userAccounts[msg.sender].isAddressAlreadyCreatedAccount, \"You already have an account\");\n        userAccounts[msg.sender].name = _name;\n        userAccounts[msg.sender].description = _description;\n        userAccounts[msg.sender].image = _image;\n        userAccounts[msg.sender].isAddressAlreadyCreatedAccount = true;\n\n        //PMV : We registered brand as default\n        //Final version : Add admin frontend screen to use this function\n        setUserIsABrand(msg.sender);\n        //userAccounts[msg.sender].isABrand = true;\n\n        //PMV : We registered brand as default\n        //Final version : Add admin frontend screen to use this function\n        // userAccounts[msg.sender].isBrandRegisterOnPlatform = true;\n        setIsBrandRegisterOnPlatform(msg.sender);\n\n        //Increment the brandId counter, which is keeping track of the number of brand registered\n        _brandsIds.increment();\n        uint256 currentBrandId = _brandsIds.current();\n        userAccounts[msg.sender].brandId = currentBrandId;\n        idToListedBrand[currentBrandId] = userAccounts[msg.sender];\n\n        emit EventUserAccountCreated(\n            currentBrandId,    \n            _name,\n            _description,\n            _image\n        );\n    }\n\n \n    /// @notice Set brand account as registered => Functionnaly, it allows account to mint NFT\n    /// @param _addr Address to registered\n    ///TO DO  a mettre Ownable\n    function setIsBrandRegisterOnPlatform(address _addr) public{\n        userAccounts[_addr].isBrandRegisterOnPlatform = true;  \n        emit EventBrandRegisterOnPlatform(_addr);\n    }\n\n    /// @notice get true if brand account is registered \n    /// @param _addr Address to check\n    function getIsBrandRegisterOnPlatform(address _addr) public view returns(bool _isRegistered){\n       return userAccounts[_addr].isBrandRegisterOnPlatform;\n    }\n\n    /// @notice Set account as a brand account\n    /// @param _addr Address to registered as a brand\n    ///TO DO  a mettre Ownable\n    function setUserIsABrand(address _addr) public{\n        userAccounts[_addr].isABrand = true;\n        emit EventUserIsABrand(_addr);\n    }\n\n    /// @notice Get id Brand from address\n    /// @param _addr address of the future Owner\n    function getIdBrandFromAddress(address _addr) public view returns (uint _id){ return userAccounts[_addr].brandId; }\n    \n    /// @notice Get Brand from Id\n    /// @param _idBrand if of tha brand\n    /// @return Brand Details\n    function getBrandFromId(uint _idBrand) public view returns (UserAccount memory){ return idToListedBrand[_idBrand]; }\n\n    /// @notice Get all brands registered on the marketplace\n    /// @dev return an array of brand\n    /// @return all brands\n    function getAllBrands() public view returns (UserAccount[] memory) {\n        uint brandsCount = _brandsIds.current();\n        UserAccount[] memory brands = new UserAccount[](brandsCount);\n        uint currentIndex = 0;\n\n        for(uint i=0;i<brandsCount;i++)\n        {\n            uint currentId = i + 1;\n            UserAccount storage currentItem = idToListedBrand[currentId];\n            if(currentItem.isBrandRegisterOnPlatform){ // we get only registered brand in plateform\n                brands[currentIndex] = currentItem;\n                currentIndex += 1;\n            }\n        }\n\n        //the array 'brands' has the list of all brands in the marketplace\n        return brands;\n    }\n\n}",
  "sourcePath": "/Users/thibaut/development/alyra/LoyaltyChainVF/backendTruffle/contracts/LTYAccountold.sol",
  "compiler": {
    "name": "solc",
    "version": "0.8.19+commit.7dd6d404.Emscripten.clang"
  },
  "schemaVersion": "3.4.14",
  "updatedAt": "2023-07-19T09:45:00.019Z",
  "networkType": "ethereum",
  "devdoc": {
    "kind": "dev",
    "methods": {
      "createUserAccount(string,string,string)": {
        "details": "add more data in future (brand's category, SIREN, ...)",
        "params": {
          "_description": "of the brand",
          "_image": "(logo) of the brand",
          "_name": "of the brand"
        }
      },
      "getAllBrands()": {
        "details": "return an array of brand",
        "returns": {
          "_0": "all brands"
        }
      },
      "getBrandFromId(uint256)": {
        "params": {
          "_idBrand": "if of tha brand"
        },
        "returns": {
          "_0": "Brand Details"
        }
      },
      "getIdBrandFromAddress(address)": {
        "params": {
          "_addr": "address of the future Owner"
        }
      },
      "getIsBrandRegisterOnPlatform(address)": {
        "params": {
          "_addr": "Address to check"
        }
      },
      "owner()": {
        "details": "Returns the address of the current owner."
      },
      "renounceOwnership()": {
        "details": "Leaves the contract without owner. It will not be possible to call `onlyOwner` functions. Can only be called by the current owner. NOTE: Renouncing ownership will leave the contract without an owner, thereby disabling any functionality that is only available to the owner."
      },
      "setIsBrandRegisterOnPlatform(address)": {
        "params": {
          "_addr": "Address to registered TO DO  a mettre Ownable"
        }
      },
      "setUserIsABrand(address)": {
        "params": {
          "_addr": "Address to registered as a brand TO DO  a mettre Ownable"
        }
      },
      "transferOwnership(address)": {
        "details": "Transfers ownership of the contract to a new account (`newOwner`). Can only be called by the current owner."
      }
    },
    "version": 1
  },
  "userdoc": {
    "kind": "user",
    "methods": {
      "createUserAccount(string,string,string)": {
        "notice": "Create Brand account"
      },
      "getAllBrands()": {
        "notice": "Get all brands registered on the marketplace"
      },
      "getBrandFromId(uint256)": {
        "notice": "Get Brand from Id"
      },
      "getIdBrandFromAddress(address)": {
        "notice": "Get id Brand from address"
      },
      "getIsBrandRegisterOnPlatform(address)": {
        "notice": "get true if brand account is registered "
      },
      "setIsBrandRegisterOnPlatform(address)": {
        "notice": "Set brand account as registered => Functionnaly, it allows account to mint NFT"
      },
      "setUserIsABrand(address)": {
        "notice": "Set account as a brand account"
      }
    },
    "version": 1
  }
}