{
  "contractName": "LTYAccount",
  "abi": [
    {
      "anonymous": false,
      "inputs": [
        {
          "indexed": false,
          "internalType": "address",
          "name": "_addr",
          "type": "address"
        }
      ],
      "name": "EventBrandRegisterOnPlatform",
      "type": "event"
    },
    {
      "anonymous": false,
      "inputs": [
        {
          "indexed": false,
          "internalType": "uint256",
          "name": "brandId",
          "type": "uint256"
        },
        {
          "indexed": false,
          "internalType": "string",
          "name": "name",
          "type": "string"
        },
        {
          "indexed": false,
          "internalType": "string",
          "name": "description",
          "type": "string"
        },
        {
          "indexed": false,
          "internalType": "string",
          "name": "image",
          "type": "string"
        }
      ],
      "name": "EventUserAccountCreated",
      "type": "event"
    },
    {
      "anonymous": false,
      "inputs": [
        {
          "indexed": false,
          "internalType": "address",
          "name": "_addr",
          "type": "address"
        }
      ],
      "name": "EventUserIsABrand",
      "type": "event"
    },
    {
      "anonymous": false,
      "inputs": [
        {
          "indexed": true,
          "internalType": "address",
          "name": "previousOwner",
          "type": "address"
        },
        {
          "indexed": true,
          "internalType": "address",
          "name": "newOwner",
          "type": "address"
        }
      ],
      "name": "OwnershipTransferred",
      "type": "event"
    },
    {
      "inputs": [
        {
          "internalType": "uint256",
          "name": "",
          "type": "uint256"
        }
      ],
      "name": "idToListedBrand",
      "outputs": [
        {
          "internalType": "uint256",
          "name": "brandId",
          "type": "uint256"
        },
        {
          "internalType": "string",
          "name": "name",
          "type": "string"
        },
        {
          "internalType": "string",
          "name": "description",
          "type": "string"
        },
        {
          "internalType": "string",
          "name": "image",
          "type": "string"
        },
        {
          "internalType": "bool",
          "name": "isABrand",
          "type": "bool"
        },
        {
          "internalType": "bool",
          "name": "isBrandRegisterOnPlatform",
          "type": "bool"
        },
        {
          "internalType": "bool",
          "name": "isAddressAlreadyCreatedAccount",
          "type": "bool"
        }
      ],
      "stateMutability": "view",
      "type": "function",
      "constant": true
    },
    {
      "inputs": [],
      "name": "owner",
      "outputs": [
        {
          "internalType": "address",
          "name": "",
          "type": "address"
        }
      ],
      "stateMutability": "view",
      "type": "function",
      "constant": true
    },
    {
      "inputs": [],
      "name": "renounceOwnership",
      "outputs": [],
      "stateMutability": "nonpayable",
      "type": "function"
    },
    {
      "inputs": [
        {
          "internalType": "address",
          "name": "newOwner",
          "type": "address"
        }
      ],
      "name": "transferOwnership",
      "outputs": [],
      "stateMutability": "nonpayable",
      "type": "function"
    },
    {
      "inputs": [
        {
          "internalType": "address",
          "name": "",
          "type": "address"
        }
      ],
      "name": "userAccounts",
      "outputs": [
        {
          "internalType": "uint256",
          "name": "brandId",
          "type": "uint256"
        },
        {
          "internalType": "string",
          "name": "name",
          "type": "string"
        },
        {
          "internalType": "string",
          "name": "description",
          "type": "string"
        },
        {
          "internalType": "string",
          "name": "image",
          "type": "string"
        },
        {
          "internalType": "bool",
          "name": "isABrand",
          "type": "bool"
        },
        {
          "internalType": "bool",
          "name": "isBrandRegisterOnPlatform",
          "type": "bool"
        },
        {
          "internalType": "bool",
          "name": "isAddressAlreadyCreatedAccount",
          "type": "bool"
        }
      ],
      "stateMutability": "view",
      "type": "function",
      "constant": true
    },
    {
      "inputs": [
        {
          "internalType": "string",
          "name": "_name",
          "type": "string"
        },
        {
          "internalType": "string",
          "name": "_description",
          "type": "string"
        },
        {
          "internalType": "string",
          "name": "_image",
          "type": "string"
        }
      ],
      "name": "createUserAccount",
      "outputs": [],
      "stateMutability": "nonpayable",
      "type": "function"
    },
    {
      "inputs": [
        {
          "internalType": "address",
          "name": "_addr",
          "type": "address"
        }
      ],
      "name": "setIsBrandRegisterOnPlatform",
      "outputs": [],
      "stateMutability": "nonpayable",
      "type": "function"
    },
    {
      "inputs": [
        {
          "internalType": "address",
          "name": "_addr",
          "type": "address"
        }
      ],
      "name": "getIsBrandRegisterOnPlatform",
      "outputs": [
        {
          "internalType": "bool",
          "name": "_isRegistered",
          "type": "bool"
        }
      ],
      "stateMutability": "view",
      "type": "function",
      "constant": true
    },
    {
      "inputs": [
        {
          "internalType": "address",
          "name": "_addr",
          "type": "address"
        }
      ],
      "name": "setUserIsABrand",
      "outputs": [],
      "stateMutability": "nonpayable",
      "type": "function"
    },
    {
      "inputs": [
        {
          "internalType": "address",
          "name": "_addr",
          "type": "address"
        }
      ],
      "name": "getIdBrandFromAddress",
      "outputs": [
        {
          "internalType": "uint256",
          "name": "_id",
          "type": "uint256"
        }
      ],
      "stateMutability": "view",
      "type": "function",
      "constant": true
    },
    {
      "inputs": [
        {
          "internalType": "uint256",
          "name": "_idBrand",
          "type": "uint256"
        }
      ],
      "name": "getBrandFromId",
      "outputs": [
        {
          "components": [
            {
              "internalType": "uint256",
              "name": "brandId",
              "type": "uint256"
            },
            {
              "internalType": "string",
              "name": "name",
              "type": "string"
            },
            {
              "internalType": "string",
              "name": "description",
              "type": "string"
            },
            {
              "internalType": "string",
              "name": "image",
              "type": "string"
            },
            {
              "internalType": "bool",
              "name": "isABrand",
              "type": "bool"
            },
            {
              "internalType": "bool",
              "name": "isBrandRegisterOnPlatform",
              "type": "bool"
            },
            {
              "internalType": "bool",
              "name": "isAddressAlreadyCreatedAccount",
              "type": "bool"
            }
          ],
          "internalType": "struct LTYAccount.UserAccount",
          "name": "",
          "type": "tuple"
        }
      ],
      "stateMutability": "view",
      "type": "function",
      "constant": true
    },
    {
      "inputs": [],
      "name": "getAllBrands",
      "outputs": [
        {
          "components": [
            {
              "internalType": "uint256",
              "name": "brandId",
              "type": "uint256"
            },
            {
              "internalType": "string",
              "name": "name",
              "type": "string"
            },
            {
              "internalType": "string",
              "name": "description",
              "type": "string"
            },
            {
              "internalType": "string",
              "name": "image",
              "type": "string"
            },
            {
              "internalType": "bool",
              "name": "isABrand",
              "type": "bool"
            },
            {
              "internalType": "bool",
              "name": "isBrandRegisterOnPlatform",
              "type": "bool"
            },
            {
              "internalType": "bool",
              "name": "isAddressAlreadyCreatedAccount",
              "type": "bool"
            }
          ],
          "internalType": "struct LTYAccount.UserAccount[]",
          "name": "",
          "type": "tuple[]"
        }
      ],
      "stateMutability": "view",
      "type": "function",
      "constant": true
    }
  ],
  "bytecode": "0x608060405234801561001057600080fd5b5061002d61002261003260201b60201c565b61003a60201b60201c565b6100fe565b600033905090565b60008060009054906101000a900473ffffffffffffffffffffffffffffffffffffffff169050816000806101000a81548173ffffffffffffffffffffffffffffffffffffffff021916908373ffffffffffffffffffffffffffffffffffffffff1602179055508173ffffffffffffffffffffffffffffffffffffffff168173ffffffffffffffffffffffffffffffffffffffff167f8be0079c531659141344cd1fd0a4f28419497f9722a3daafe3b4186f6b6457e060405160405180910390a35050565b612218806200010e6000396000f3fe608060405234801561001057600080fd5b50600436106100b45760003560e01c8063715018a611610071578063715018a6146101ab578063886d07e2146101b55780638da5cb5b146101d1578063a07e7236146101ef578063b2a900871461021f578063f2fde38b1461024f576100b4565b8063107781fd146100b95780634450e06d146100e95780635251d91c1461010557806352e694e91461013b57806360e8ddb01461017157806369a015b91461018f575b600080fd5b6100d360048036038101906100ce919061149c565b61026b565b6040516100e091906114e4565b60405180910390f35b61010360048036038101906100fe9190611645565b6102c4565b005b61011f600480360381019061011a919061149c565b610678565b6040516101329796959493929190611784565b60405180910390f35b61015560048036038101906101509190611834565b610879565b6040516101689796959493929190611784565b60405180910390f35b610179610a7a565b6040516101869190611a35565b60405180910390f35b6101a960048036038101906101a4919061149c565b610d97565b005b6101b3610e63565b005b6101cf60048036038101906101ca919061149c565b610e77565b005b6101d9610f43565b6040516101e69190611a66565b60405180910390f35b61020960048036038101906102049190611834565b610f6c565b6040516102169190611b2b565b60405180910390f35b6102396004803603810190610234919061149c565b6111aa565b6040516102469190611b4d565b60405180910390f35b6102696004803603810190610264919061149c565b6111f6565b005b6000600360008373ffffffffffffffffffffffffffffffffffffffff1673ffffffffffffffffffffffffffffffffffffffff16815260200190815260200160002060040160019054906101000a900460ff169050919050565b600360003373ffffffffffffffffffffffffffffffffffffffff1673ffffffffffffffffffffffffffffffffffffffff16815260200190815260200160002060040160029054906101000a900460ff1615610354576040517f08c379a000000000000000000000000000000000000000000000000000000000815260040161034b90611bb4565b60405180910390fd5b82600360003373ffffffffffffffffffffffffffffffffffffffff1673ffffffffffffffffffffffffffffffffffffffff16815260200190815260200160002060010190816103a39190611de0565b5081600360003373ffffffffffffffffffffffffffffffffffffffff1673ffffffffffffffffffffffffffffffffffffffff16815260200190815260200160002060020190816103f39190611de0565b5080600360003373ffffffffffffffffffffffffffffffffffffffff1673ffffffffffffffffffffffffffffffffffffffff16815260200190815260200160002060030190816104439190611de0565b506001600360003373ffffffffffffffffffffffffffffffffffffffff1673ffffffffffffffffffffffffffffffffffffffff16815260200190815260200160002060040160026101000a81548160ff0219169083151502179055506104a833610d97565b6104b133610e77565b6104bb6001611279565b60006104c7600161128f565b905080600360003373ffffffffffffffffffffffffffffffffffffffff1673ffffffffffffffffffffffffffffffffffffffff16815260200190815260200160002060000181905550600360003373ffffffffffffffffffffffffffffffffffffffff1673ffffffffffffffffffffffffffffffffffffffff1681526020019081526020016000206002600083815260200190815260200160002060008201548160000155600182018160010190816105809190611ec8565b50600282018160020190816105959190611ec8565b50600382018160030190816105aa9190611ec8565b506004820160009054906101000a900460ff168160040160006101000a81548160ff0219169083151502179055506004820160019054906101000a900460ff168160040160016101000a81548160ff0219169083151502179055506004820160029054906101000a900460ff168160040160026101000a81548160ff0219169083151502179055509050507fe00519c095c5ff5bf8367c25679e5f06b1116d5b6e15c077a4fb7eda610214c18185858560405161066a9493929190611fb0565b60405180910390a150505050565b60036020528060005260406000206000915090508060000154908060010180546106a190611c03565b80601f01602080910402602001604051908101604052809291908181526020018280546106cd90611c03565b801561071a5780601f106106ef5761010080835404028352916020019161071a565b820191906000526020600020905b8154815290600101906020018083116106fd57829003601f168201915b50505050509080600201805461072f90611c03565b80601f016020809104026020016040519081016040528092919081815260200182805461075b90611c03565b80156107a85780601f1061077d576101008083540402835291602001916107a8565b820191906000526020600020905b81548152906001019060200180831161078b57829003601f168201915b5050505050908060030180546107bd90611c03565b80601f01602080910402602001604051908101604052809291908181526020018280546107e990611c03565b80156108365780601f1061080b57610100808354040283529160200191610836565b820191906000526020600020905b81548152906001019060200180831161081957829003601f168201915b5050505050908060040160009054906101000a900460ff16908060040160019054906101000a900460ff16908060040160029054906101000a900460ff16905087565b60026020528060005260406000206000915090508060000154908060010180546108a290611c03565b80601f01602080910402602001604051908101604052809291908181526020018280546108ce90611c03565b801561091b5780601f106108f05761010080835404028352916020019161091b565b820191906000526020600020905b8154815290600101906020018083116108fe57829003601f168201915b50505050509080600201805461093090611c03565b80601f016020809104026020016040519081016040528092919081815260200182805461095c90611c03565b80156109a95780601f1061097e576101008083540402835291602001916109a9565b820191906000526020600020905b81548152906001019060200180831161098c57829003601f168201915b5050505050908060030180546109be90611c03565b80601f01602080910402602001604051908101604052809291908181526020018280546109ea90611c03565b8015610a375780601f10610a0c57610100808354040283529160200191610a37565b820191906000526020600020905b815481529060010190602001808311610a1a57829003601f168201915b5050505050908060040160009054906101000a900460ff16908060040160019054906101000a900460ff16908060040160029054906101000a900460ff16905087565b60606000610a88600161128f565b905060008167ffffffffffffffff811115610aa657610aa561151a565b5b604051908082528060200260200182016040528015610adf57816020015b610acc6113e7565b815260200190600190039081610ac45790505b5090506000805b83811015610d8d576000600182610afd9190612039565b905060006002600083815260200190815260200160002090508060040160019054906101000a900460ff1615610d7857806040518060e001604052908160008201548152602001600182018054610b5390611c03565b80601f0160208091040260200160405190810160405280929190818152602001828054610b7f90611c03565b8015610bcc5780601f10610ba157610100808354040283529160200191610bcc565b820191906000526020600020905b815481529060010190602001808311610baf57829003601f168201915b50505050508152602001600282018054610be590611c03565b80601f0160208091040260200160405190810160405280929190818152602001828054610c1190611c03565b8015610c5e5780601f10610c3357610100808354040283529160200191610c5e565b820191906000526020600020905b815481529060010190602001808311610c4157829003601f168201915b50505050508152602001600382018054610c7790611c03565b80601f0160208091040260200160405190810160405280929190818152602001828054610ca390611c03565b8015610cf05780601f10610cc557610100808354040283529160200191610cf0565b820191906000526020600020905b815481529060010190602001808311610cd357829003601f168201915b505050505081526020016004820160009054906101000a900460ff161515151581526020016004820160019054906101000a900460ff161515151581526020016004820160029054906101000a900460ff161515151581525050858581518110610d5d57610d5c61206d565b5b6020026020010181905250600184610d759190612039565b93505b50508080610d859061209c565b915050610ae6565b5081935050505090565b6001600360008373ffffffffffffffffffffffffffffffffffffffff1673ffffffffffffffffffffffffffffffffffffffff16815260200190815260200160002060040160006101000a81548160ff021916908315150217905550600160026000610e01846111aa565b815260200190815260200160002060040160006101000a81548160ff0219169083151502179055507f36ffaad55cc247449809f68d9e11c0e594b038d81969bc8df55b1fc07db8470081604051610e589190611a66565b60405180910390a150565b610e6b61129d565b610e75600061131b565b565b6001600360008373ffffffffffffffffffffffffffffffffffffffff1673ffffffffffffffffffffffffffffffffffffffff16815260200190815260200160002060040160016101000a81548160ff021916908315150217905550600160026000610ee1846111aa565b815260200190815260200160002060040160016101000a81548160ff0219169083151502179055507ff3b01f304a6fefd18b9d8bc9829e5d5d38204f8c3227ca5f1b0119f3bb6c940a81604051610f389190611a66565b60405180910390a150565b60008060009054906101000a900473ffffffffffffffffffffffffffffffffffffffff16905090565b610f746113e7565b600260008381526020019081526020016000206040518060e001604052908160008201548152602001600182018054610fac90611c03565b80601f0160208091040260200160405190810160405280929190818152602001828054610fd890611c03565b80156110255780601f10610ffa57610100808354040283529160200191611025565b820191906000526020600020905b81548152906001019060200180831161100857829003601f168201915b5050505050815260200160028201805461103e90611c03565b80601f016020809104026020016040519081016040528092919081815260200182805461106a90611c03565b80156110b75780601f1061108c576101008083540402835291602001916110b7565b820191906000526020600020905b81548152906001019060200180831161109a57829003601f168201915b505050505081526020016003820180546110d090611c03565b80601f01602080910402602001604051908101604052809291908181526020018280546110fc90611c03565b80156111495780601f1061111e57610100808354040283529160200191611149565b820191906000526020600020905b81548152906001019060200180831161112c57829003601f168201915b505050505081526020016004820160009054906101000a900460ff161515151581526020016004820160019054906101000a900460ff161515151581526020016004820160029054906101000a900460ff1615151515815250509050919050565b6000600360008373ffffffffffffffffffffffffffffffffffffffff1673ffffffffffffffffffffffffffffffffffffffff168152602001908152602001600020600001549050919050565b6111fe61129d565b600073ffffffffffffffffffffffffffffffffffffffff168173ffffffffffffffffffffffffffffffffffffffff160361126d576040517f08c379a000000000000000000000000000000000000000000000000000000000815260040161126490612156565b60405180910390fd5b6112768161131b565b50565b6001816000016000828254019250508190555050565b600081600001549050919050565b6112a56113df565b73ffffffffffffffffffffffffffffffffffffffff166112c3610f43565b73ffffffffffffffffffffffffffffffffffffffff1614611319576040517f08c379a0000000000000000000000000000000000000000000000000000000008152600401611310906121c2565b60405180910390fd5b565b60008060009054906101000a900473ffffffffffffffffffffffffffffffffffffffff169050816000806101000a81548173ffffffffffffffffffffffffffffffffffffffff021916908373ffffffffffffffffffffffffffffffffffffffff1602179055508173ffffffffffffffffffffffffffffffffffffffff168173ffffffffffffffffffffffffffffffffffffffff167f8be0079c531659141344cd1fd0a4f28419497f9722a3daafe3b4186f6b6457e060405160405180910390a35050565b600033905090565b6040518060e00160405280600081526020016060815260200160608152602001606081526020016000151581526020016000151581526020016000151581525090565b6000604051905090565b600080fd5b600080fd5b600073ffffffffffffffffffffffffffffffffffffffff82169050919050565b60006114698261143e565b9050919050565b6114798161145e565b811461148457600080fd5b50565b60008135905061149681611470565b92915050565b6000602082840312156114b2576114b1611434565b5b60006114c084828501611487565b91505092915050565b60008115159050919050565b6114de816114c9565b82525050565b60006020820190506114f960008301846114d5565b92915050565b600080fd5b600080fd5b6000601f19601f8301169050919050565b7f4e487b7100000000000000000000000000000000000000000000000000000000600052604160045260246000fd5b61155282611509565b810181811067ffffffffffffffff821117156115715761157061151a565b5b80604052505050565b600061158461142a565b90506115908282611549565b919050565b600067ffffffffffffffff8211156115b0576115af61151a565b5b6115b982611509565b9050602081019050919050565b82818337600083830152505050565b60006115e86115e384611595565b61157a565b90508281526020810184848401111561160457611603611504565b5b61160f8482856115c6565b509392505050565b600082601f83011261162c5761162b6114ff565b5b813561163c8482602086016115d5565b91505092915050565b60008060006060848603121561165e5761165d611434565b5b600084013567ffffffffffffffff81111561167c5761167b611439565b5b61168886828701611617565b935050602084013567ffffffffffffffff8111156116a9576116a8611439565b5b6116b586828701611617565b925050604084013567ffffffffffffffff8111156116d6576116d5611439565b5b6116e286828701611617565b9150509250925092565b6000819050919050565b6116ff816116ec565b82525050565b600081519050919050565b600082825260208201905092915050565b60005b8381101561173f578082015181840152602081019050611724565b60008484015250505050565b600061175682611705565b6117608185611710565b9350611770818560208601611721565b61177981611509565b840191505092915050565b600060e082019050611799600083018a6116f6565b81810360208301526117ab818961174b565b905081810360408301526117bf818861174b565b905081810360608301526117d3818761174b565b90506117e260808301866114d5565b6117ef60a08301856114d5565b6117fc60c08301846114d5565b98975050505050505050565b611811816116ec565b811461181c57600080fd5b50565b60008135905061182e81611808565b92915050565b60006020828403121561184a57611849611434565b5b60006118588482850161181f565b91505092915050565b600081519050919050565b600082825260208201905092915050565b6000819050602082019050919050565b611896816116ec565b82525050565b600082825260208201905092915050565b60006118b882611705565b6118c2818561189c565b93506118d2818560208601611721565b6118db81611509565b840191505092915050565b6118ef816114c9565b82525050565b600060e08301600083015161190d600086018261188d565b506020830151848203602086015261192582826118ad565b9150506040830151848203604086015261193f82826118ad565b9150506060830151848203606086015261195982826118ad565b915050608083015161196e60808601826118e6565b5060a083015161198160a08601826118e6565b5060c083015161199460c08601826118e6565b508091505092915050565b60006119ab83836118f5565b905092915050565b6000602082019050919050565b60006119cb82611861565b6119d5818561186c565b9350836020820285016119e78561187d565b8060005b85811015611a235784840389528151611a04858261199f565b9450611a0f836119b3565b925060208a019950506001810190506119eb565b50829750879550505050505092915050565b60006020820190508181036000830152611a4f81846119c0565b905092915050565b611a608161145e565b82525050565b6000602082019050611a7b6000830184611a57565b92915050565b600060e083016000830151611a99600086018261188d565b5060208301518482036020860152611ab182826118ad565b91505060408301518482036040860152611acb82826118ad565b91505060608301518482036060860152611ae582826118ad565b9150506080830151611afa60808601826118e6565b5060a0830151611b0d60a08601826118e6565b5060c0830151611b2060c08601826118e6565b508091505092915050565b60006020820190508181036000830152611b458184611a81565b905092915050565b6000602082019050611b6260008301846116f6565b92915050565b7f596f7520616c7265616479206861766520616e206163636f756e740000000000600082015250565b6000611b9e601b83611710565b9150611ba982611b68565b602082019050919050565b60006020820190508181036000830152611bcd81611b91565b9050919050565b7f4e487b7100000000000000000000000000000000000000000000000000000000600052602260045260246000fd5b60006002820490506001821680611c1b57607f821691505b602082108103611c2e57611c2d611bd4565b5b50919050565b60008190508160005260206000209050919050565b60006020601f8301049050919050565b600082821b905092915050565b600060088302611c967fffffffffffffffffffffffffffffffffffffffffffffffffffffffffffffffff82611c59565b611ca08683611c59565b95508019841693508086168417925050509392505050565b6000819050919050565b6000611cdd611cd8611cd3846116ec565b611cb8565b6116ec565b9050919050565b6000819050919050565b611cf783611cc2565b611d0b611d0382611ce4565b848454611c66565b825550505050565b600090565b611d20611d13565b611d2b818484611cee565b505050565b5b81811015611d4f57611d44600082611d18565b600181019050611d31565b5050565b601f821115611d9457611d6581611c34565b611d6e84611c49565b81016020851015611d7d578190505b611d91611d8985611c49565b830182611d30565b50505b505050565b600082821c905092915050565b6000611db760001984600802611d99565b1980831691505092915050565b6000611dd08383611da6565b9150826002028217905092915050565b611de982611705565b67ffffffffffffffff811115611e0257611e0161151a565b5b611e0c8254611c03565b611e17828285611d53565b600060209050601f831160018114611e4a5760008415611e38578287015190505b611e428582611dc4565b865550611eaa565b601f198416611e5886611c34565b60005b82811015611e8057848901518255600182019150602085019450602081019050611e5b565b86831015611e9d5784890151611e99601f891682611da6565b8355505b6001600288020188555050505b505050505050565b600081549050611ec181611c03565b9050919050565b818103611ed6575050611fae565b611edf82611eb2565b67ffffffffffffffff811115611ef857611ef761151a565b5b611f028254611c03565b611f0d828285611d53565b6000601f831160018114611f3c5760008415611f2a578287015490505b611f348582611dc4565b865550611fa7565b601f198416611f4a87611c34565b9650611f5586611c34565b60005b82811015611f7d57848901548255600182019150600185019450602081019050611f58565b86831015611f9a5784890154611f96601f891682611da6565b8355505b6001600288020188555050505b5050505050505b565b6000608082019050611fc560008301876116f6565b8181036020830152611fd7818661174b565b90508181036040830152611feb818561174b565b90508181036060830152611fff818461174b565b905095945050505050565b7f4e487b7100000000000000000000000000000000000000000000000000000000600052601160045260246000fd5b6000612044826116ec565b915061204f836116ec565b92508282019050808211156120675761206661200a565b5b92915050565b7f4e487b7100000000000000000000000000000000000000000000000000000000600052603260045260246000fd5b60006120a7826116ec565b91507fffffffffffffffffffffffffffffffffffffffffffffffffffffffffffffffff82036120d9576120d861200a565b5b600182019050919050565b7f4f776e61626c653a206e6577206f776e657220697320746865207a65726f206160008201527f6464726573730000000000000000000000000000000000000000000000000000602082015250565b6000612140602683611710565b915061214b826120e4565b604082019050919050565b6000602082019050818103600083015261216f81612133565b9050919050565b7f4f776e61626c653a2063616c6c6572206973206e6f7420746865206f776e6572600082015250565b60006121ac602083611710565b91506121b782612176565b602082019050919050565b600060208201905081810360008301526121db8161219f565b905091905056fea2646970667358221220876fdc2859315d59ab6f601f7dae852767ad0d9990d6cad407e3cc3a1f5ee7dc64736f6c63430008130033",
  "immutableReferences": {},
  "source": "//SPDX-License-Identifier: GPL-3.0\npragma solidity ^0.8.19;\n\nimport \"../node_modules/@openzeppelin/contracts/utils/Counters.sol\";\nimport \"../node_modules/@openzeppelin/contracts/access/Ownable.sol\";\n \n/// @title LTYAccount\n/// @author Thibaut Pauget\n/// @notice Loyalty NFT Marketplace : Contract to deal with Account (Brand)\n/// @dev This is a PMV non usable in production environment\ncontract LTYAccount is Ownable{ \n\n    using Counters for Counters.Counter;\n\n    //_Brandids variable has the most recent minted tokenId\n    Counters.Counter private _brandsIds;\n\n    //struct of an account\n    struct UserAccount {\n        uint brandId;\n        string name;\n        string description;\n        string image;\n        bool isABrand; // set if account is a Brand (or a Client)\n        bool isBrandRegisterOnPlatform; //allow account to mint NFT\n        bool isAddressAlreadyCreatedAccount;\n    }\n\n    //the event emitted when a brand is successfully created\n    event EventUserAccountCreated (\n        uint brandId,\n        string name,\n        string description,\n        string image\n    );\n\n    //the event emitted when a brand is registered\n    event EventBrandRegisterOnPlatform (address _addr);\n\n    //the event emitted when an address is identify as a brand\n    event EventUserIsABrand(address _addr);\n\n    //mapping to store all brands\n    mapping(uint256 => UserAccount) public idToListedBrand;\n\n    //Mapping of brand\n    mapping(address => UserAccount) public userAccounts;\n\n    /// @notice Create Brand account\n    /// @dev add more data in future (brand's category, SIREN, ...)\n    /// @param _name of the brand\n    /// @param _description of the brand\n    /// @param _image (logo) of the brand\n    function createUserAccount( \n        string memory _name,\n        string memory _description,\n        string memory _image\n    ) public {\n        require(!userAccounts[msg.sender].isAddressAlreadyCreatedAccount, \"You already have an account\");\n        userAccounts[msg.sender].name = _name;\n        userAccounts[msg.sender].description = _description;\n        userAccounts[msg.sender].image = _image;\n        userAccounts[msg.sender].isAddressAlreadyCreatedAccount = true;\n\n        //PMV : We registered brand as default\n        //Final version : Add admin frontend screen to use this function\n        setUserIsABrand(msg.sender);\n        //userAccounts[msg.sender].isABrand = true;\n\n        //PMV : We registered brand as default\n        //Final version : Add admin frontend screen to use this function\n        // userAccounts[msg.sender].isBrandRegisterOnPlatform = true;\n        setIsBrandRegisterOnPlatform(msg.sender);\n\n        //Increment the brandId counter, which is keeping track of the number of brand registered\n        _brandsIds.increment();\n        uint256 currentBrandId = _brandsIds.current();\n        userAccounts[msg.sender].brandId = currentBrandId;\n        idToListedBrand[currentBrandId] = userAccounts[msg.sender];\n\n        emit EventUserAccountCreated(\n            currentBrandId,    \n            _name,\n            _description,\n            _image\n        );\n    }\n\n \n    /// @notice Set brand account as registered => Functionnaly, it allows account to mint NFT\n    /// @param _addr Address to registered\n    ///TO DO  a mettre Ownable\n    function setIsBrandRegisterOnPlatform(address _addr) public{\n        userAccounts[_addr].isBrandRegisterOnPlatform = true;  \n\n        idToListedBrand[getIdBrandFromAddress(_addr)].isBrandRegisterOnPlatform = true;\n        emit EventBrandRegisterOnPlatform(_addr);\n    }\n\n    /// @notice get true if brand account is registered \n    /// @param _addr Address to check\n    function getIsBrandRegisterOnPlatform(address _addr) public view returns(bool _isRegistered){\n       return userAccounts[_addr].isBrandRegisterOnPlatform;\n    }\n\n    /// @notice Set account as a brand account\n    /// @param _addr Address to registered as a brand\n    ///TO DO  a mettre Ownable\n    function setUserIsABrand(address _addr) public{\n        userAccounts[_addr].isABrand = true;\n        idToListedBrand[getIdBrandFromAddress(_addr)].isABrand = true;\n        emit EventUserIsABrand(_addr);\n    }\n\n    /// @notice Get id Brand from address\n    /// @param _addr address of the future Owner\n    function getIdBrandFromAddress(address _addr) public view returns (uint _id){ return userAccounts[_addr].brandId; }\n    \n    /// @notice Get Brand from Id\n    /// @param _idBrand if of tha brand\n    /// @return Brand Details\n    function getBrandFromId(uint _idBrand) public view returns (UserAccount memory){ return idToListedBrand[_idBrand]; }\n\n    /// @notice Get all brands registered on the marketplace\n    /// @dev return an array of brand\n    /// @return all brands\n    function getAllBrands() public view returns (UserAccount[] memory) {\n        uint brandsCount = _brandsIds.current();\n        UserAccount[] memory brands = new UserAccount[](brandsCount);\n        uint currentIndex = 0;\n\n        for(uint i=0;i<brandsCount;i++)\n        {\n            uint currentId = i + 1;\n            UserAccount storage currentItem = idToListedBrand[currentId];\n            if(currentItem.isBrandRegisterOnPlatform){ // we get only registered brand in plateform\n                brands[currentIndex] = currentItem;\n                currentIndex += 1;\n            }\n        }\n\n        //the array 'brands' has the list of all brands in the marketplace\n        return brands;\n    }\n\n}",
  "sourcePath": "/Users/thibaut/development/alyra/LoyaltyChainVF/backendTruffle/contracts/LTYAccount.sol",
  "compiler": {
    "name": "solc",
    "version": "0.8.19+commit.7dd6d404.Emscripten.clang"
  },
  "schemaVersion": "3.4.14",
  "updatedAt": "2023-07-19T12:47:42.607Z",
  "networkType": "ethereum",
  "devdoc": {
    "author": "Thibaut Pauget",
    "details": "This is a PMV non usable in production environment",
    "kind": "dev",
    "methods": {
      "createUserAccount(string,string,string)": {
        "details": "add more data in future (brand's category, SIREN, ...)",
        "params": {
          "_description": "of the brand",
          "_image": "(logo) of the brand",
          "_name": "of the brand"
        }
      },
      "getAllBrands()": {
        "details": "return an array of brand",
        "returns": {
          "_0": "all brands"
        }
      },
      "getBrandFromId(uint256)": {
        "params": {
          "_idBrand": "if of tha brand"
        },
        "returns": {
          "_0": "Brand Details"
        }
      },
      "getIdBrandFromAddress(address)": {
        "params": {
          "_addr": "address of the future Owner"
        }
      },
      "getIsBrandRegisterOnPlatform(address)": {
        "params": {
          "_addr": "Address to check"
        }
      },
      "owner()": {
        "details": "Returns the address of the current owner."
      },
      "renounceOwnership()": {
        "details": "Leaves the contract without owner. It will not be possible to call `onlyOwner` functions. Can only be called by the current owner. NOTE: Renouncing ownership will leave the contract without an owner, thereby disabling any functionality that is only available to the owner."
      },
      "setIsBrandRegisterOnPlatform(address)": {
        "params": {
          "_addr": "Address to registered TO DO  a mettre Ownable"
        }
      },
      "setUserIsABrand(address)": {
        "params": {
          "_addr": "Address to registered as a brand TO DO  a mettre Ownable"
        }
      },
      "transferOwnership(address)": {
        "details": "Transfers ownership of the contract to a new account (`newOwner`). Can only be called by the current owner."
      }
    },
    "title": "LTYAccount",
    "version": 1
  },
  "userdoc": {
    "kind": "user",
    "methods": {
      "createUserAccount(string,string,string)": {
        "notice": "Create Brand account"
      },
      "getAllBrands()": {
        "notice": "Get all brands registered on the marketplace"
      },
      "getBrandFromId(uint256)": {
        "notice": "Get Brand from Id"
      },
      "getIdBrandFromAddress(address)": {
        "notice": "Get id Brand from address"
      },
      "getIsBrandRegisterOnPlatform(address)": {
        "notice": "get true if brand account is registered "
      },
      "setIsBrandRegisterOnPlatform(address)": {
        "notice": "Set brand account as registered => Functionnaly, it allows account to mint NFT"
      },
      "setUserIsABrand(address)": {
        "notice": "Set account as a brand account"
      }
    },
    "notice": "Loyalty NFT Marketplace : Contract to deal with Account (Brand)",
    "version": 1
  }
}