{
  "contractName": "LTYMarketplace",
  "abi": [
    {
      "inputs": [
        {
          "internalType": "address",
          "name": "_LTYAccountContractAddress",
          "type": "address"
        }
      ],
      "stateMutability": "nonpayable",
      "type": "constructor"
    },
    {
      "anonymous": false,
      "inputs": [
        {
          "indexed": true,
          "internalType": "address",
          "name": "owner",
          "type": "address"
        },
        {
          "indexed": true,
          "internalType": "address",
          "name": "approved",
          "type": "address"
        },
        {
          "indexed": true,
          "internalType": "uint256",
          "name": "tokenId",
          "type": "uint256"
        }
      ],
      "name": "Approval",
      "type": "event"
    },
    {
      "anonymous": false,
      "inputs": [
        {
          "indexed": true,
          "internalType": "address",
          "name": "owner",
          "type": "address"
        },
        {
          "indexed": true,
          "internalType": "address",
          "name": "operator",
          "type": "address"
        },
        {
          "indexed": false,
          "internalType": "bool",
          "name": "approved",
          "type": "bool"
        }
      ],
      "name": "ApprovalForAll",
      "type": "event"
    },
    {
      "anonymous": false,
      "inputs": [
        {
          "indexed": false,
          "internalType": "uint256",
          "name": "_fromTokenId",
          "type": "uint256"
        },
        {
          "indexed": false,
          "internalType": "uint256",
          "name": "_toTokenId",
          "type": "uint256"
        }
      ],
      "name": "BatchMetadataUpdate",
      "type": "event"
    },
    {
      "anonymous": false,
      "inputs": [
        {
          "indexed": true,
          "internalType": "uint256",
          "name": "tokenId",
          "type": "uint256"
        },
        {
          "indexed": false,
          "internalType": "address",
          "name": "owner",
          "type": "address"
        },
        {
          "indexed": false,
          "internalType": "address",
          "name": "seller",
          "type": "address"
        },
        {
          "indexed": false,
          "internalType": "uint256",
          "name": "price",
          "type": "uint256"
        },
        {
          "indexed": false,
          "internalType": "bool",
          "name": "currentlyListed",
          "type": "bool"
        }
      ],
      "name": "EventTokenListedSuccess",
      "type": "event"
    },
    {
      "anonymous": false,
      "inputs": [
        {
          "indexed": true,
          "internalType": "uint256",
          "name": "tokenId",
          "type": "uint256"
        },
        {
          "indexed": false,
          "internalType": "address",
          "name": "ownerFrom",
          "type": "address"
        },
        {
          "indexed": false,
          "internalType": "address",
          "name": "ownerTo",
          "type": "address"
        },
        {
          "indexed": false,
          "internalType": "address",
          "name": "sellerFrom",
          "type": "address"
        },
        {
          "indexed": false,
          "internalType": "address",
          "name": "sellerTo",
          "type": "address"
        },
        {
          "indexed": false,
          "internalType": "uint256",
          "name": "price",
          "type": "uint256"
        },
        {
          "indexed": false,
          "internalType": "string",
          "name": "transactionType",
          "type": "string"
        }
      ],
      "name": "EventTokenTransaction",
      "type": "event"
    },
    {
      "anonymous": false,
      "inputs": [
        {
          "indexed": false,
          "internalType": "uint256",
          "name": "price",
          "type": "uint256"
        }
      ],
      "name": "EventUpdateListPrice",
      "type": "event"
    },
    {
      "anonymous": false,
      "inputs": [
        {
          "indexed": false,
          "internalType": "uint256",
          "name": "_tokenId",
          "type": "uint256"
        }
      ],
      "name": "MetadataUpdate",
      "type": "event"
    },
    {
      "anonymous": false,
      "inputs": [
        {
          "indexed": true,
          "internalType": "address",
          "name": "from",
          "type": "address"
        },
        {
          "indexed": true,
          "internalType": "address",
          "name": "to",
          "type": "address"
        },
        {
          "indexed": true,
          "internalType": "uint256",
          "name": "tokenId",
          "type": "uint256"
        }
      ],
      "name": "Transfer",
      "type": "event"
    },
    {
      "inputs": [],
      "name": "LTYAccountContract",
      "outputs": [
        {
          "internalType": "contract LTYAccount",
          "name": "",
          "type": "address"
        }
      ],
      "stateMutability": "view",
      "type": "function",
      "constant": true
    },
    {
      "inputs": [
        {
          "internalType": "address",
          "name": "to",
          "type": "address"
        },
        {
          "internalType": "uint256",
          "name": "tokenId",
          "type": "uint256"
        }
      ],
      "name": "approve",
      "outputs": [],
      "stateMutability": "nonpayable",
      "type": "function"
    },
    {
      "inputs": [
        {
          "internalType": "address",
          "name": "owner",
          "type": "address"
        }
      ],
      "name": "balanceOf",
      "outputs": [
        {
          "internalType": "uint256",
          "name": "",
          "type": "uint256"
        }
      ],
      "stateMutability": "view",
      "type": "function",
      "constant": true
    },
    {
      "inputs": [
        {
          "internalType": "uint256",
          "name": "tokenId",
          "type": "uint256"
        }
      ],
      "name": "getApproved",
      "outputs": [
        {
          "internalType": "address",
          "name": "",
          "type": "address"
        }
      ],
      "stateMutability": "view",
      "type": "function",
      "constant": true
    },
    {
      "inputs": [
        {
          "internalType": "uint256",
          "name": "",
          "type": "uint256"
        }
      ],
      "name": "idToListedToken",
      "outputs": [
        {
          "internalType": "uint256",
          "name": "tokenId",
          "type": "uint256"
        },
        {
          "internalType": "uint256",
          "name": "brandId",
          "type": "uint256"
        },
        {
          "internalType": "address payable",
          "name": "owner",
          "type": "address"
        },
        {
          "internalType": "address payable",
          "name": "seller",
          "type": "address"
        },
        {
          "internalType": "uint256",
          "name": "price",
          "type": "uint256"
        },
        {
          "internalType": "bool",
          "name": "currentlyListed",
          "type": "bool"
        }
      ],
      "stateMutability": "view",
      "type": "function",
      "constant": true
    },
    {
      "inputs": [
        {
          "internalType": "address",
          "name": "owner",
          "type": "address"
        },
        {
          "internalType": "address",
          "name": "operator",
          "type": "address"
        }
      ],
      "name": "isApprovedForAll",
      "outputs": [
        {
          "internalType": "bool",
          "name": "",
          "type": "bool"
        }
      ],
      "stateMutability": "view",
      "type": "function",
      "constant": true
    },
    {
      "inputs": [],
      "name": "listPrice",
      "outputs": [
        {
          "internalType": "uint256",
          "name": "",
          "type": "uint256"
        }
      ],
      "stateMutability": "view",
      "type": "function",
      "constant": true
    },
    {
      "inputs": [],
      "name": "name",
      "outputs": [
        {
          "internalType": "string",
          "name": "",
          "type": "string"
        }
      ],
      "stateMutability": "view",
      "type": "function",
      "constant": true
    },
    {
      "inputs": [],
      "name": "owner",
      "outputs": [
        {
          "internalType": "address payable",
          "name": "",
          "type": "address"
        }
      ],
      "stateMutability": "view",
      "type": "function",
      "constant": true
    },
    {
      "inputs": [
        {
          "internalType": "uint256",
          "name": "tokenId",
          "type": "uint256"
        }
      ],
      "name": "ownerOf",
      "outputs": [
        {
          "internalType": "address",
          "name": "",
          "type": "address"
        }
      ],
      "stateMutability": "view",
      "type": "function",
      "constant": true
    },
    {
      "inputs": [
        {
          "internalType": "address",
          "name": "from",
          "type": "address"
        },
        {
          "internalType": "address",
          "name": "to",
          "type": "address"
        },
        {
          "internalType": "uint256",
          "name": "tokenId",
          "type": "uint256"
        }
      ],
      "name": "safeTransferFrom",
      "outputs": [],
      "stateMutability": "nonpayable",
      "type": "function"
    },
    {
      "inputs": [
        {
          "internalType": "address",
          "name": "from",
          "type": "address"
        },
        {
          "internalType": "address",
          "name": "to",
          "type": "address"
        },
        {
          "internalType": "uint256",
          "name": "tokenId",
          "type": "uint256"
        },
        {
          "internalType": "bytes",
          "name": "data",
          "type": "bytes"
        }
      ],
      "name": "safeTransferFrom",
      "outputs": [],
      "stateMutability": "nonpayable",
      "type": "function"
    },
    {
      "inputs": [
        {
          "internalType": "address",
          "name": "operator",
          "type": "address"
        },
        {
          "internalType": "bool",
          "name": "approved",
          "type": "bool"
        }
      ],
      "name": "setApprovalForAll",
      "outputs": [],
      "stateMutability": "nonpayable",
      "type": "function"
    },
    {
      "inputs": [
        {
          "internalType": "bytes4",
          "name": "interfaceId",
          "type": "bytes4"
        }
      ],
      "name": "supportsInterface",
      "outputs": [
        {
          "internalType": "bool",
          "name": "",
          "type": "bool"
        }
      ],
      "stateMutability": "view",
      "type": "function",
      "constant": true
    },
    {
      "inputs": [],
      "name": "symbol",
      "outputs": [
        {
          "internalType": "string",
          "name": "",
          "type": "string"
        }
      ],
      "stateMutability": "view",
      "type": "function",
      "constant": true
    },
    {
      "inputs": [
        {
          "internalType": "uint256",
          "name": "tokenId",
          "type": "uint256"
        }
      ],
      "name": "tokenURI",
      "outputs": [
        {
          "internalType": "string",
          "name": "",
          "type": "string"
        }
      ],
      "stateMutability": "view",
      "type": "function",
      "constant": true
    },
    {
      "inputs": [
        {
          "internalType": "address",
          "name": "from",
          "type": "address"
        },
        {
          "internalType": "address",
          "name": "to",
          "type": "address"
        },
        {
          "internalType": "uint256",
          "name": "tokenId",
          "type": "uint256"
        }
      ],
      "name": "transferFrom",
      "outputs": [],
      "stateMutability": "nonpayable",
      "type": "function"
    },
    {
      "inputs": [
        {
          "internalType": "uint256",
          "name": "_listPrice",
          "type": "uint256"
        }
      ],
      "name": "updateListPrice",
      "outputs": [],
      "stateMutability": "payable",
      "type": "function",
      "payable": true
    },
    {
      "inputs": [
        {
          "internalType": "uint256",
          "name": "_tokenId",
          "type": "uint256"
        }
      ],
      "name": "getListedTokenForId",
      "outputs": [
        {
          "components": [
            {
              "internalType": "uint256",
              "name": "tokenId",
              "type": "uint256"
            },
            {
              "internalType": "uint256",
              "name": "brandId",
              "type": "uint256"
            },
            {
              "internalType": "address payable",
              "name": "owner",
              "type": "address"
            },
            {
              "internalType": "address payable",
              "name": "seller",
              "type": "address"
            },
            {
              "internalType": "uint256",
              "name": "price",
              "type": "uint256"
            },
            {
              "internalType": "bool",
              "name": "currentlyListed",
              "type": "bool"
            }
          ],
          "internalType": "struct LTYMarketplace.ListedToken",
          "name": "",
          "type": "tuple"
        }
      ],
      "stateMutability": "view",
      "type": "function",
      "constant": true
    },
    {
      "inputs": [],
      "name": "getCurrentToken",
      "outputs": [
        {
          "internalType": "uint256",
          "name": "",
          "type": "uint256"
        }
      ],
      "stateMutability": "view",
      "type": "function",
      "constant": true
    },
    {
      "inputs": [
        {
          "internalType": "string",
          "name": "_tokenURI",
          "type": "string"
        },
        {
          "internalType": "uint256",
          "name": "_price",
          "type": "uint256"
        }
      ],
      "name": "createTokenToMarketplace",
      "outputs": [
        {
          "internalType": "uint256",
          "name": "",
          "type": "uint256"
        }
      ],
      "stateMutability": "payable",
      "type": "function",
      "payable": true
    },
    {
      "inputs": [
        {
          "internalType": "string",
          "name": "_tokenURI",
          "type": "string"
        },
        {
          "internalType": "address",
          "name": "_addr",
          "type": "address"
        }
      ],
      "name": "createTokenToAddress",
      "outputs": [
        {
          "internalType": "uint256",
          "name": "",
          "type": "uint256"
        }
      ],
      "stateMutability": "payable",
      "type": "function",
      "payable": true
    },
    {
      "inputs": [],
      "name": "getListPrice",
      "outputs": [
        {
          "internalType": "uint256",
          "name": "",
          "type": "uint256"
        }
      ],
      "stateMutability": "view",
      "type": "function",
      "constant": true
    },
    {
      "inputs": [],
      "name": "getMyNFTs",
      "outputs": [
        {
          "components": [
            {
              "internalType": "uint256",
              "name": "tokenId",
              "type": "uint256"
            },
            {
              "internalType": "uint256",
              "name": "brandId",
              "type": "uint256"
            },
            {
              "internalType": "address payable",
              "name": "owner",
              "type": "address"
            },
            {
              "internalType": "address payable",
              "name": "seller",
              "type": "address"
            },
            {
              "internalType": "uint256",
              "name": "price",
              "type": "uint256"
            },
            {
              "internalType": "bool",
              "name": "currentlyListed",
              "type": "bool"
            }
          ],
          "internalType": "struct LTYMarketplace.ListedToken[]",
          "name": "",
          "type": "tuple[]"
        }
      ],
      "stateMutability": "view",
      "type": "function",
      "constant": true
    },
    {
      "inputs": [
        {
          "internalType": "uint256",
          "name": "_idBrand",
          "type": "uint256"
        }
      ],
      "name": "getNFTsByBrand",
      "outputs": [
        {
          "components": [
            {
              "internalType": "uint256",
              "name": "tokenId",
              "type": "uint256"
            },
            {
              "internalType": "uint256",
              "name": "brandId",
              "type": "uint256"
            },
            {
              "internalType": "address payable",
              "name": "owner",
              "type": "address"
            },
            {
              "internalType": "address payable",
              "name": "seller",
              "type": "address"
            },
            {
              "internalType": "uint256",
              "name": "price",
              "type": "uint256"
            },
            {
              "internalType": "bool",
              "name": "currentlyListed",
              "type": "bool"
            }
          ],
          "internalType": "struct LTYMarketplace.ListedToken[]",
          "name": "",
          "type": "tuple[]"
        }
      ],
      "stateMutability": "view",
      "type": "function",
      "constant": true
    },
    {
      "inputs": [
        {
          "internalType": "uint256",
          "name": "_idToken",
          "type": "uint256"
        }
      ],
      "name": "removeTokenFromMarket",
      "outputs": [],
      "stateMutability": "nonpayable",
      "type": "function"
    },
    {
      "inputs": [
        {
          "internalType": "uint256",
          "name": "_tokenId",
          "type": "uint256"
        }
      ],
      "name": "executeSale",
      "outputs": [],
      "stateMutability": "payable",
      "type": "function",
      "payable": true
    },
    {
      "inputs": [
        {
          "internalType": "uint256",
          "name": "_idToken",
          "type": "uint256"
        },
        {
          "internalType": "uint256",
          "name": "_price",
          "type": "uint256"
        }
      ],
      "name": "addTokenToSaleOnTheMarket",
      "outputs": [],
      "stateMutability": "nonpayable",
      "type": "function"
    }
  ],
  "bytecode": "0x6080604052662386f26fc10000600c553480156200001c57600080fd5b5060405162005c4038038062005c408339818101604052810190620000429190620001c7565b6040518060400160405280600c81526020017f4c6f79616c7479436861696e00000000000000000000000000000000000000008152506040518060400160405280600381526020017f4c545900000000000000000000000000000000000000000000000000000000008152508160009081620000bf919062000473565b508060019081620000d1919062000473565b50505033600b60006101000a81548173ffffffffffffffffffffffffffffffffffffffff021916908373ffffffffffffffffffffffffffffffffffffffff16021790555080600760006101000a81548173ffffffffffffffffffffffffffffffffffffffff021916908373ffffffffffffffffffffffffffffffffffffffff160217905550506200055a565b600080fd5b600073ffffffffffffffffffffffffffffffffffffffff82169050919050565b60006200018f8262000162565b9050919050565b620001a18162000182565b8114620001ad57600080fd5b50565b600081519050620001c18162000196565b92915050565b600060208284031215620001e057620001df6200015d565b5b6000620001f084828501620001b0565b91505092915050565b600081519050919050565b7f4e487b7100000000000000000000000000000000000000000000000000000000600052604160045260246000fd5b7f4e487b7100000000000000000000000000000000000000000000000000000000600052602260045260246000fd5b600060028204905060018216806200027b57607f821691505b60208210810362000291576200029062000233565b5b50919050565b60008190508160005260206000209050919050565b60006020601f8301049050919050565b600082821b905092915050565b600060088302620002fb7fffffffffffffffffffffffffffffffffffffffffffffffffffffffffffffffff82620002bc565b620003078683620002bc565b95508019841693508086168417925050509392505050565b6000819050919050565b6000819050919050565b6000620003546200034e62000348846200031f565b62000329565b6200031f565b9050919050565b6000819050919050565b620003708362000333565b620003886200037f826200035b565b848454620002c9565b825550505050565b600090565b6200039f62000390565b620003ac81848462000365565b505050565b5b81811015620003d457620003c860008262000395565b600181019050620003b2565b5050565b601f8211156200042357620003ed8162000297565b620003f884620002ac565b8101602085101562000408578190505b620004206200041785620002ac565b830182620003b1565b50505b505050565b600082821c905092915050565b6000620004486000198460080262000428565b1980831691505092915050565b600062000463838362000435565b9150826002028217905092915050565b6200047e82620001f9565b67ffffffffffffffff8111156200049a576200049962000204565b5b620004a6825462000262565b620004b3828285620003d8565b600060209050601f831160018114620004eb5760008415620004d6578287015190505b620004e2858262000455565b86555062000552565b601f198416620004fb8662000297565b60005b828110156200052557848901518255600182019150602085019450602081019050620004fe565b8683101562000545578489015162000541601f89168262000435565b8355505b6001600288020188555050505b505050505050565b6156d6806200056a6000396000f3fe6080604052600436106101b75760003560e01c80638e264590116100ec578063c322579c1161008a578063e57a497a11610064578063e57a497a14610620578063e8f48c3d14610662578063e985e9c51461068d578063ef2d1746146106ca576101b7565b8063c322579c14610597578063c4b2f10b146105b3578063c87b56dd146105e3576101b7565b80639d1b7f40116100c65780639d1b7f40146104ec5780639df8b2521461051c578063a22cb46514610545578063b88d4fde1461056e576101b7565b80638e2645901461046857806395d89b41146104a55780639b1225c4146104d0576101b7565b8063506157851161015957806368f1945f1161013357806368f1945f146103aa5780636eb588d9146103d557806370a08231146104005780638da5cb5b1461043d576101b7565b80635061578514610305578063629cb2e4146103425780636352211e1461036d576101b7565b8063095ea7b311610195578063095ea7b31461026157806323b872dd1461028a5780632a62b477146102b357806342842e0e146102dc576101b7565b806301ffc9a7146101bc57806306fdde03146101f9578063081812fc14610224575b600080fd5b3480156101c857600080fd5b506101e360048036038101906101de91906137a0565b6106f5565b6040516101f091906137e8565b60405180910390f35b34801561020557600080fd5b5061020e610756565b60405161021b9190613893565b60405180910390f35b34801561023057600080fd5b5061024b600480360381019061024691906138eb565b6107e8565b6040516102589190613959565b60405180910390f35b34801561026d57600080fd5b50610288600480360381019061028391906139a0565b61082e565b005b34801561029657600080fd5b506102b160048036038101906102ac91906139e0565b610945565b005b3480156102bf57600080fd5b506102da60048036038101906102d59190613a33565b6109a5565b005b3480156102e857600080fd5b5061030360048036038101906102fe91906139e0565b610c28565b005b34801561031157600080fd5b5061032c600480360381019061032791906138eb565b610c48565b6040516103399190613bdc565b60405180910390f35b34801561034e57600080fd5b50610357610f1a565b6040516103649190613bdc565b60405180910390f35b34801561037957600080fd5b50610394600480360381019061038f91906138eb565b611302565b6040516103a19190613959565b60405180910390f35b3480156103b657600080fd5b506103bf611388565b6040516103cc9190613c0d565b60405180910390f35b3480156103e157600080fd5b506103ea611392565b6040516103f79190613c0d565b60405180910390f35b34801561040c57600080fd5b5061042760048036038101906104229190613c28565b611398565b6040516104349190613c0d565b60405180910390f35b34801561044957600080fd5b5061045261144f565b60405161045f9190613c64565b60405180910390f35b34801561047457600080fd5b5061048f600480360381019061048a91906138eb565b611475565b60405161049c9190613cfa565b60405180910390f35b3480156104b157600080fd5b506104ba611587565b6040516104c79190613893565b60405180910390f35b6104ea60048036038101906104e591906138eb565b611619565b005b61050660048036038101906105019190613e4a565b611835565b6040516105139190613c0d565b60405180910390f35b34801561052857600080fd5b50610543600480360381019061053e91906138eb565b61199a565b005b34801561055157600080fd5b5061056c60048036038101906105679190613ed2565b611bed565b005b34801561057a57600080fd5b5061059560048036038101906105909190613fb3565b611c03565b005b6105b160048036038101906105ac91906138eb565b611c65565b005b6105cd60048036038101906105c89190614036565b611d36565b6040516105da9190613c0d565b60405180910390f35b3480156105ef57600080fd5b5061060a600480360381019061060591906138eb565b611e9b565b6040516106179190613893565b60405180910390f35b34801561062c57600080fd5b50610647600480360381019061064291906138eb565b611fad565b60405161065996959493929190614092565b60405180910390f35b34801561066e57600080fd5b50610677612036565b6040516106849190614152565b60405180910390f35b34801561069957600080fd5b506106b460048036038101906106af919061416d565b61205c565b6040516106c191906137e8565b60405180910390f35b3480156106d657600080fd5b506106df6120f0565b6040516106ec9190613c0d565b60405180910390f35b6000634906490660e01b7bffffffffffffffffffffffffffffffffffffffffffffffffffffffff1916827bffffffffffffffffffffffffffffffffffffffffffffffffffffffff1916148061074f575061074e82612101565b5b9050919050565b606060008054610765906141dc565b80601f0160208091040260200160405190810160405280929190818152602001828054610791906141dc565b80156107de5780601f106107b3576101008083540402835291602001916107de565b820191906000526020600020905b8154815290600101906020018083116107c157829003601f168201915b5050505050905090565b60006107f3826121e3565b6004600083815260200190815260200160002060009054906101000a900473ffffffffffffffffffffffffffffffffffffffff169050919050565b600061083982611302565b90508073ffffffffffffffffffffffffffffffffffffffff168373ffffffffffffffffffffffffffffffffffffffff16036108a9576040517f08c379a00000000000000000000000000000000000000000000000000000000081526004016108a09061427f565b60405180910390fd5b8073ffffffffffffffffffffffffffffffffffffffff166108c861222e565b73ffffffffffffffffffffffffffffffffffffffff1614806108f757506108f6816108f161222e565b61205c565b5b610936576040517f08c379a000000000000000000000000000000000000000000000000000000000815260040161092d90614311565b60405180910390fd5b6109408383612236565b505050565b61095661095061222e565b826122ef565b610995576040517f08c379a000000000000000000000000000000000000000000000000000000000815260040161098c906143a3565b60405180910390fd5b6109a0838383612384565b505050565b6109ae8261267d565b6109ed576040517f08c379a00000000000000000000000000000000000000000000000000000000081526004016109e49061440f565b60405180910390fd5b3373ffffffffffffffffffffffffffffffffffffffff16610a0d83611302565b73ffffffffffffffffffffffffffffffffffffffff1614610a63576040517f08c379a0000000000000000000000000000000000000000000000000000000008152600401610a5a906144a1565b60405180910390fd5b60008111610aa6576040517f08c379a0000000000000000000000000000000000000000000000000000000008152600401610a9d9061450d565b60405180910390fd5b80600d6000848152602001908152602001600020600401819055506001600d600084815260200190815260200160002060050160006101000a81548160ff02191690831515021790555033600d600084815260200190815260200160002060030160006101000a81548173ffffffffffffffffffffffffffffffffffffffff021916908373ffffffffffffffffffffffffffffffffffffffff16021790555030600d600084815260200190815260200160002060020160006101000a81548173ffffffffffffffffffffffffffffffffffffffff021916908373ffffffffffffffffffffffffffffffffffffffff160217905550610ba5333084612384565b817f231c208b7b1769d9c4323b37c99fd1115e1e0651124347c214424dae3204c3723330333386604051610bdd959493929190614579565b60405180910390a2817fdada05a1f900236fecce70d9c27fe4dd10a4089072be9b164d20a133cfe9d7b23033846001604051610c1c94939291906145df565b60405180910390a25050565b610c4383838360405180602001604052806000815250611c03565b505050565b60606000610c5660086126be565b905060008060005b83811015610ceb5785600d6000600184610c789190614653565b815260200190815260200160002060010154148015610cc35750600d6000600183610ca39190614653565b815260200190815260200160002060050160009054906101000a900460ff165b15610cd857600183610cd59190614653565b92505b8080610ce390614687565b915050610c5e565b5060008267ffffffffffffffff811115610d0857610d07613d1f565b5b604051908082528060200260200182016040528015610d4157816020015b610d2e6136d0565b815260200190600190039081610d265790505b50905060005b84811015610f0d5786600d6000600184610d619190614653565b815260200190815260200160002060010154148015610dac5750600d6000600183610d8c9190614653565b815260200190815260200160002060050160009054906101000a900460ff165b15610efa576000600182610dc09190614653565b90506000600d60008381526020019081526020016000209050806040518060c001604052908160008201548152602001600182015481526020016002820160009054906101000a900473ffffffffffffffffffffffffffffffffffffffff1673ffffffffffffffffffffffffffffffffffffffff1673ffffffffffffffffffffffffffffffffffffffff1681526020016003820160009054906101000a900473ffffffffffffffffffffffffffffffffffffffff1673ffffffffffffffffffffffffffffffffffffffff1673ffffffffffffffffffffffffffffffffffffffff168152602001600482015481526020016005820160009054906101000a900460ff161515151581525050848681518110610edd57610edc6146cf565b5b6020026020010181905250600185610ef59190614653565b945050505b8080610f0590614687565b915050610d47565b5080945050505050919050565b60606000610f2860086126be565b905060008060005b83811015611049573373ffffffffffffffffffffffffffffffffffffffff16600d6000600184610f609190614653565b815260200190815260200160002060020160009054906101000a900473ffffffffffffffffffffffffffffffffffffffff1673ffffffffffffffffffffffffffffffffffffffff16148061102157503373ffffffffffffffffffffffffffffffffffffffff16600d6000600184610fd79190614653565b815260200190815260200160002060030160009054906101000a900473ffffffffffffffffffffffffffffffffffffffff1673ffffffffffffffffffffffffffffffffffffffff16145b15611036576001836110339190614653565b92505b808061104190614687565b915050610f30565b5060008267ffffffffffffffff81111561106657611065613d1f565b5b60405190808252806020026020018201604052801561109f57816020015b61108c6136d0565b8152602001906001900390816110845790505b50905060005b848110156112f7573373ffffffffffffffffffffffffffffffffffffffff16600d60006001846110d59190614653565b815260200190815260200160002060020160009054906101000a900473ffffffffffffffffffffffffffffffffffffffff1673ffffffffffffffffffffffffffffffffffffffff16148061119657503373ffffffffffffffffffffffffffffffffffffffff16600d600060018461114c9190614653565b815260200190815260200160002060030160009054906101000a900473ffffffffffffffffffffffffffffffffffffffff1673ffffffffffffffffffffffffffffffffffffffff16145b156112e45760006001826111aa9190614653565b90506000600d60008381526020019081526020016000209050806040518060c001604052908160008201548152602001600182015481526020016002820160009054906101000a900473ffffffffffffffffffffffffffffffffffffffff1673ffffffffffffffffffffffffffffffffffffffff1673ffffffffffffffffffffffffffffffffffffffff1681526020016003820160009054906101000a900473ffffffffffffffffffffffffffffffffffffffff1673ffffffffffffffffffffffffffffffffffffffff1673ffffffffffffffffffffffffffffffffffffffff168152602001600482015481526020016005820160009054906101000a900460ff1615151515815250508486815181106112c7576112c66146cf565b5b60200260200101819052506001856112df9190614653565b945050505b80806112ef90614687565b9150506110a5565b508094505050505090565b60008061130e836126cc565b9050600073ffffffffffffffffffffffffffffffffffffffff168173ffffffffffffffffffffffffffffffffffffffff160361137f576040517f08c379a00000000000000000000000000000000000000000000000000000000081526004016113769061474a565b60405180910390fd5b80915050919050565b6000600c54905090565b600c5481565b60008073ffffffffffffffffffffffffffffffffffffffff168273ffffffffffffffffffffffffffffffffffffffff1603611408576040517f08c379a00000000000000000000000000000000000000000000000000000000081526004016113ff906147dc565b60405180910390fd5b600360008373ffffffffffffffffffffffffffffffffffffffff1673ffffffffffffffffffffffffffffffffffffffff168152602001908152602001600020549050919050565b600b60009054906101000a900473ffffffffffffffffffffffffffffffffffffffff1681565b61147d6136d0565b600d60008381526020019081526020016000206040518060c001604052908160008201548152602001600182015481526020016002820160009054906101000a900473ffffffffffffffffffffffffffffffffffffffff1673ffffffffffffffffffffffffffffffffffffffff1673ffffffffffffffffffffffffffffffffffffffff1681526020016003820160009054906101000a900473ffffffffffffffffffffffffffffffffffffffff1673ffffffffffffffffffffffffffffffffffffffff1673ffffffffffffffffffffffffffffffffffffffff168152602001600482015481526020016005820160009054906101000a900460ff1615151515815250509050919050565b606060018054611596906141dc565b80601f01602080910402602001604051908101604052809291908181526020018280546115c2906141dc565b801561160f5780601f106115e45761010080835404028352916020019161160f565b820191906000526020600020905b8154815290600101906020018083116115f257829003601f168201915b5050505050905090565b6000600d60008381526020019081526020016000206004015490506000600d600084815260200190815260200160002060030160009054906101000a900473ffffffffffffffffffffffffffffffffffffffff1690508134146116b1576040517f08c379a00000000000000000000000000000000000000000000000000000000081526004016116a89061486e565b60405180910390fd5b6000600d600085815260200190815260200160002060050160006101000a81548160ff02191690831515021790555033600d600085815260200190815260200160002060020160006101000a81548173ffffffffffffffffffffffffffffffffffffffff021916908373ffffffffffffffffffffffffffffffffffffffff16021790555033600d600085815260200190815260200160002060030160006101000a81548173ffffffffffffffffffffffffffffffffffffffff021916908373ffffffffffffffffffffffffffffffffffffffff1602179055506117946009612709565b61179f303385612384565b6117a9308461082e565b8073ffffffffffffffffffffffffffffffffffffffff166108fc349081150290604051600060405180830381858888f193505050501580156117ef573d6000803e3d6000fd5b50827f231c208b7b1769d9c4323b37c99fd1115e1e0651124347c214424dae3204c37230338433876040516118289594939291906148da565b60405180910390a2505050565b600060011515600760009054906101000a900473ffffffffffffffffffffffffffffffffffffffff1673ffffffffffffffffffffffffffffffffffffffff1663107781fd336040518263ffffffff1660e01b81526004016118969190613959565b602060405180830381865afa1580156118b3573d6000803e3d6000fd5b505050506040513d601f19601f820116820180604052508101906118d79190614955565b151514611919576040517f08c379a0000000000000000000000000000000000000000000000000000000008152600401611910906149f4565b60405180910390fd5b6119236008612709565b600061192f60086126be565b905061193b338261271f565b611945818561273d565b807f231c208b7b1769d9c4323b37c99fd1115e1e0651124347c214424dae3204c37233333333600060405161197e959493929190614a9b565b60405180910390a261199081846127e1565b8091505092915050565b6119a38161267d565b6119e2576040517f08c379a00000000000000000000000000000000000000000000000000000000081526004016119d99061440f565b60405180910390fd5b600d600082815260200190815260200160002060030160009054906101000a900473ffffffffffffffffffffffffffffffffffffffff1673ffffffffffffffffffffffffffffffffffffffff163373ffffffffffffffffffffffffffffffffffffffff1614611a86576040517f08c379a0000000000000000000000000000000000000000000000000000000008152600401611a7d90614b73565b60405180910390fd5b33600d600083815260200190815260200160002060020160006101000a81548173ffffffffffffffffffffffffffffffffffffffff021916908373ffffffffffffffffffffffffffffffffffffffff16021790555033600d600083815260200190815260200160002060030160006101000a81548173ffffffffffffffffffffffffffffffffffffffff021916908373ffffffffffffffffffffffffffffffffffffffff1602179055506000600d600083815260200190815260200160002060050160006101000a81548160ff021916908315150217905550611b6a303383612384565b807f231c208b7b1769d9c4323b37c99fd1115e1e0651124347c214424dae3204c372303333336000604051611ba3959493929190614bdf565b60405180910390a2807fdada05a1f900236fecce70d9c27fe4dd10a4089072be9b164d20a133cfe9d7b23333600080604051611be29493929190614c45565b60405180910390a250565b611bff611bf861222e565b8383612a4a565b5050565b611c14611c0e61222e565b836122ef565b611c53576040517f08c379a0000000000000000000000000000000000000000000000000000000008152600401611c4a906143a3565b60405180910390fd5b611c5f84848484612bb6565b50505050565b3373ffffffffffffffffffffffffffffffffffffffff16600b60009054906101000a900473ffffffffffffffffffffffffffffffffffffffff1673ffffffffffffffffffffffffffffffffffffffff1614611cf5576040517f08c379a0000000000000000000000000000000000000000000000000000000008152600401611cec90614cfc565b60405180910390fd5b80600c819055507f7754986478703638ef214ea6058ac9abbe6ec21fc01b567fb085946e9f7186fb81604051611d2b9190613c0d565b60405180910390a150565b600060011515600760009054906101000a900473ffffffffffffffffffffffffffffffffffffffff1673ffffffffffffffffffffffffffffffffffffffff1663107781fd336040518263ffffffff1660e01b8152600401611d979190613959565b602060405180830381865afa158015611db4573d6000803e3d6000fd5b505050506040513d601f19601f82011682018060405250810190611dd89190614955565b151514611e1a576040517f08c379a0000000000000000000000000000000000000000000000000000000008152600401611e11906149f4565b60405180910390fd5b611e246008612709565b6000611e3060086126be565b9050611e3c338261271f565b611e46818561273d565b807f231c208b7b1769d9c4323b37c99fd1115e1e0651124347c214424dae3204c372333333336000604051611e7f959493929190614a9b565b60405180910390a2611e918184612c12565b8091505092915050565b6060611ea6826121e3565b6000600660008481526020019081526020016000208054611ec6906141dc565b80601f0160208091040260200160405190810160405280929190818152602001828054611ef2906141dc565b8015611f3f5780601f10611f1457610100808354040283529160200191611f3f565b820191906000526020600020905b815481529060010190602001808311611f2257829003601f168201915b505050505090506000611f50612f98565b90506000815103611f65578192505050611fa8565b600082511115611f9a578082604051602001611f82929190614d58565b60405160208183030381529060405292505050611fa8565b611fa384612faf565b925050505b919050565b600d6020528060005260406000206000915090508060000154908060010154908060020160009054906101000a900473ffffffffffffffffffffffffffffffffffffffff16908060030160009054906101000a900473ffffffffffffffffffffffffffffffffffffffff16908060040154908060050160009054906101000a900460ff16905086565b600760009054906101000a900473ffffffffffffffffffffffffffffffffffffffff1681565b6000600560008473ffffffffffffffffffffffffffffffffffffffff1673ffffffffffffffffffffffffffffffffffffffff16815260200190815260200160002060008373ffffffffffffffffffffffffffffffffffffffff1673ffffffffffffffffffffffffffffffffffffffff16815260200190815260200160002060009054906101000a900460ff16905092915050565b60006120fc60086126be565b905090565b60007f80ac58cd000000000000000000000000000000000000000000000000000000007bffffffffffffffffffffffffffffffffffffffffffffffffffffffff1916827bffffffffffffffffffffffffffffffffffffffffffffffffffffffff191614806121cc57507f5b5e139f000000000000000000000000000000000000000000000000000000007bffffffffffffffffffffffffffffffffffffffffffffffffffffffff1916827bffffffffffffffffffffffffffffffffffffffffffffffffffffffff1916145b806121dc57506121db82613017565b5b9050919050565b6121ec8161267d565b61222b576040517f08c379a00000000000000000000000000000000000000000000000000000000081526004016122229061474a565b60405180910390fd5b50565b600033905090565b816004600083815260200190815260200160002060006101000a81548173ffffffffffffffffffffffffffffffffffffffff021916908373ffffffffffffffffffffffffffffffffffffffff160217905550808273ffffffffffffffffffffffffffffffffffffffff166122a983611302565b73ffffffffffffffffffffffffffffffffffffffff167f8c5be1e5ebec7d5bd14f71427d1e84f3dd0314c0f7b2291e5b200ac8c7c3b92560405160405180910390a45050565b6000806122fb83611302565b90508073ffffffffffffffffffffffffffffffffffffffff168473ffffffffffffffffffffffffffffffffffffffff16148061233d575061233c818561205c565b5b8061237b57508373ffffffffffffffffffffffffffffffffffffffff16612363846107e8565b73ffffffffffffffffffffffffffffffffffffffff16145b91505092915050565b8273ffffffffffffffffffffffffffffffffffffffff166123a482611302565b73ffffffffffffffffffffffffffffffffffffffff16146123fa576040517f08c379a00000000000000000000000000000000000000000000000000000000081526004016123f190614dee565b60405180910390fd5b600073ffffffffffffffffffffffffffffffffffffffff168273ffffffffffffffffffffffffffffffffffffffff1603612469576040517f08c379a000000000000000000000000000000000000000000000000000000000815260040161246090614e80565b60405180910390fd5b6124768383836001613081565b8273ffffffffffffffffffffffffffffffffffffffff1661249682611302565b73ffffffffffffffffffffffffffffffffffffffff16146124ec576040517f08c379a00000000000000000000000000000000000000000000000000000000081526004016124e390614dee565b60405180910390fd5b6004600082815260200190815260200160002060006101000a81549073ffffffffffffffffffffffffffffffffffffffff02191690556001600360008573ffffffffffffffffffffffffffffffffffffffff1673ffffffffffffffffffffffffffffffffffffffff168152602001908152602001600020600082825403925050819055506001600360008473ffffffffffffffffffffffffffffffffffffffff1673ffffffffffffffffffffffffffffffffffffffff16815260200190815260200160002060008282540192505081905550816002600083815260200190815260200160002060006101000a81548173ffffffffffffffffffffffffffffffffffffffff021916908373ffffffffffffffffffffffffffffffffffffffff160217905550808273ffffffffffffffffffffffffffffffffffffffff168473ffffffffffffffffffffffffffffffffffffffff167fddf252ad1be2c89b69c2b068fc378daa952ba7f163c4a11628f55a4df523b3ef60405160405180910390a46126788383836001613087565b505050565b60008073ffffffffffffffffffffffffffffffffffffffff1661269f836126cc565b73ffffffffffffffffffffffffffffffffffffffff1614159050919050565b600081600001549050919050565b60006002600083815260200190815260200160002060009054906101000a900473ffffffffffffffffffffffffffffffffffffffff169050919050565b6001816000016000828254019250508190555050565b61273982826040518060200160405280600081525061308d565b5050565b6127468261267d565b612785576040517f08c379a000000000000000000000000000000000000000000000000000000000815260040161277c90614f12565b60405180910390fd5b806006600084815260200190815260200160002090816127a591906150d4565b507ff8e1a15aba9398e019f0b49df1a4fde98ee17ae345cb5f6b5e2c27f5033e8ce7826040516127d59190613c0d565b60405180910390a15050565b6040518060c00160405280838152602001600760009054906101000a900473ffffffffffffffffffffffffffffffffffffffff1673ffffffffffffffffffffffffffffffffffffffff1663b2a90087336040518263ffffffff1660e01b815260040161284d9190613959565b602060405180830381865afa15801561286a573d6000803e3d6000fd5b505050506040513d601f19601f8201168201806040525081019061288e91906151bb565b81526020018273ffffffffffffffffffffffffffffffffffffffff1681526020018273ffffffffffffffffffffffffffffffffffffffff1681526020016000815260200160001515815250600d6000848152602001908152602001600020600082015181600001556020820151816001015560408201518160020160006101000a81548173ffffffffffffffffffffffffffffffffffffffff021916908373ffffffffffffffffffffffffffffffffffffffff16021790555060608201518160030160006101000a81548173ffffffffffffffffffffffffffffffffffffffff021916908373ffffffffffffffffffffffffffffffffffffffff1602179055506080820151816004015560a08201518160050160006101000a81548160ff0219169083151502179055509050506129c6338284612384565b817f231c208b7b1769d9c4323b37c99fd1115e1e0651124347c214424dae3204c3723083308560006040516129ff959493929190615234565b60405180910390a2817fdada05a1f900236fecce70d9c27fe4dd10a4089072be9b164d20a133cfe9d7b28283600080604051612a3e9493929190614c45565b60405180910390a25050565b8173ffffffffffffffffffffffffffffffffffffffff168373ffffffffffffffffffffffffffffffffffffffff1603612ab8576040517f08c379a0000000000000000000000000000000000000000000000000000000008152600401612aaf906152e6565b60405180910390fd5b80600560008573ffffffffffffffffffffffffffffffffffffffff1673ffffffffffffffffffffffffffffffffffffffff16815260200190815260200160002060008473ffffffffffffffffffffffffffffffffffffffff1673ffffffffffffffffffffffffffffffffffffffff16815260200190815260200160002060006101000a81548160ff0219169083151502179055508173ffffffffffffffffffffffffffffffffffffffff168373ffffffffffffffffffffffffffffffffffffffff167f17307eab39ab6107e8899845ad3d59bd9653f200f220920489ca2b5937696c3183604051612ba991906137e8565b60405180910390a3505050565b612bc1848484612384565b612bcd848484846130e8565b612c0c576040517f08c379a0000000000000000000000000000000000000000000000000000000008152600401612c0390615378565b60405180910390fd5b50505050565b600760009054906101000a900473ffffffffffffffffffffffffffffffffffffffff1673ffffffffffffffffffffffffffffffffffffffff1663107781fd336040518263ffffffff1660e01b8152600401612c6d9190613959565b602060405180830381865afa158015612c8a573d6000803e3d6000fd5b505050506040513d601f19601f82011682018060405250810190612cae9190614955565b612ced576040517f08c379a0000000000000000000000000000000000000000000000000000000008152600401612ce4906149f4565b60405180910390fd5b6000811015612d31576040517f08c379a0000000000000000000000000000000000000000000000000000000008152600401612d28906153e4565b60405180910390fd5b6040518060c00160405280838152602001600760009054906101000a900473ffffffffffffffffffffffffffffffffffffffff1673ffffffffffffffffffffffffffffffffffffffff1663b2a90087336040518263ffffffff1660e01b8152600401612d9d9190613959565b602060405180830381865afa158015612dba573d6000803e3d6000fd5b505050506040513d601f19601f82011682018060405250810190612dde91906151bb565b81526020013073ffffffffffffffffffffffffffffffffffffffff1681526020013373ffffffffffffffffffffffffffffffffffffffff16815260200182815260200160011515815250600d6000848152602001908152602001600020600082015181600001556020820151816001015560408201518160020160006101000a81548173ffffffffffffffffffffffffffffffffffffffff021916908373ffffffffffffffffffffffffffffffffffffffff16021790555060608201518160030160006101000a81548173ffffffffffffffffffffffffffffffffffffffff021916908373ffffffffffffffffffffffffffffffffffffffff1602179055506080820151816004015560a08201518160050160006101000a81548160ff021916908315150217905550905050612f15333084612384565b817f231c208b7b1769d9c4323b37c99fd1115e1e0651124347c214424dae3204c3723030333386604051612f4d959493929190615450565b60405180910390a2817fdada05a1f900236fecce70d9c27fe4dd10a4089072be9b164d20a133cfe9d7b23033846001604051612f8c94939291906145df565b60405180910390a25050565b606060405180602001604052806000815250905090565b6060612fba826121e3565b6000612fc4612f98565b90506000815111612fe4576040518060200160405280600081525061300f565b80612fee8461326f565b604051602001612fff929190614d58565b6040516020818303038152906040525b915050919050565b60007f01ffc9a7000000000000000000000000000000000000000000000000000000007bffffffffffffffffffffffffffffffffffffffffffffffffffffffff1916827bffffffffffffffffffffffffffffffffffffffffffffffffffffffff1916149050919050565b50505050565b50505050565b613097838361333d565b6130a460008484846130e8565b6130e3576040517f08c379a00000000000000000000000000000000000000000000000000000000081526004016130da90615378565b60405180910390fd5b505050565b60006131098473ffffffffffffffffffffffffffffffffffffffff1661355a565b15613262578373ffffffffffffffffffffffffffffffffffffffff1663150b7a0261313261222e565b8786866040518563ffffffff1660e01b8152600401613154949392919061550b565b6020604051808303816000875af192505050801561319057506040513d601f19601f8201168201806040525081019061318d919061556c565b60015b613212573d80600081146131c0576040519150601f19603f3d011682016040523d82523d6000602084013e6131c5565b606091505b50600081510361320a576040517f08c379a000000000000000000000000000000000000000000000000000000000815260040161320190615378565b60405180910390fd5b805181602001fd5b63150b7a0260e01b7bffffffffffffffffffffffffffffffffffffffffffffffffffffffff1916817bffffffffffffffffffffffffffffffffffffffffffffffffffffffff191614915050613267565b600190505b949350505050565b60606000600161327e8461357d565b01905060008167ffffffffffffffff81111561329d5761329c613d1f565b5b6040519080825280601f01601f1916602001820160405280156132cf5781602001600182028036833780820191505090505b509050600082602001820190505b600115613332578080600190039150507f3031323334353637383961626364656600000000000000000000000000000000600a86061a8153600a858161332657613325615599565b5b049450600085036132dd575b819350505050919050565b600073ffffffffffffffffffffffffffffffffffffffff168273ffffffffffffffffffffffffffffffffffffffff16036133ac576040517f08c379a00000000000000000000000000000000000000000000000000000000081526004016133a390615614565b60405180910390fd5b6133b58161267d565b156133f5576040517f08c379a00000000000000000000000000000000000000000000000000000000081526004016133ec90615680565b60405180910390fd5b613403600083836001613081565b61340c8161267d565b1561344c576040517f08c379a000000000000000000000000000000000000000000000000000000000815260040161344390615680565b60405180910390fd5b6001600360008473ffffffffffffffffffffffffffffffffffffffff1673ffffffffffffffffffffffffffffffffffffffff16815260200190815260200160002060008282540192505081905550816002600083815260200190815260200160002060006101000a81548173ffffffffffffffffffffffffffffffffffffffff021916908373ffffffffffffffffffffffffffffffffffffffff160217905550808273ffffffffffffffffffffffffffffffffffffffff16600073ffffffffffffffffffffffffffffffffffffffff167fddf252ad1be2c89b69c2b068fc378daa952ba7f163c4a11628f55a4df523b3ef60405160405180910390a4613556600083836001613087565b5050565b6000808273ffffffffffffffffffffffffffffffffffffffff163b119050919050565b600080600090507a184f03e93ff9f4daa797ed6e38ed64bf6a1f01000000000000000083106135db577a184f03e93ff9f4daa797ed6e38ed64bf6a1f01000000000000000083816135d1576135d0615599565b5b0492506040810190505b6d04ee2d6d415b85acef81000000008310613618576d04ee2d6d415b85acef8100000000838161360e5761360d615599565b5b0492506020810190505b662386f26fc10000831061364757662386f26fc10000838161363d5761363c615599565b5b0492506010810190505b6305f5e1008310613670576305f5e100838161366657613665615599565b5b0492506008810190505b612710831061369557612710838161368b5761368a615599565b5b0492506004810190505b606483106136b857606483816136ae576136ad615599565b5b0492506002810190505b600a83106136c7576001810190505b80915050919050565b6040518060c001604052806000815260200160008152602001600073ffffffffffffffffffffffffffffffffffffffff168152602001600073ffffffffffffffffffffffffffffffffffffffff168152602001600081526020016000151581525090565b6000604051905090565b600080fd5b600080fd5b60007fffffffff0000000000000000000000000000000000000000000000000000000082169050919050565b61377d81613748565b811461378857600080fd5b50565b60008135905061379a81613774565b92915050565b6000602082840312156137b6576137b561373e565b5b60006137c48482850161378b565b91505092915050565b60008115159050919050565b6137e2816137cd565b82525050565b60006020820190506137fd60008301846137d9565b92915050565b600081519050919050565b600082825260208201905092915050565b60005b8381101561383d578082015181840152602081019050613822565b60008484015250505050565b6000601f19601f8301169050919050565b600061386582613803565b61386f818561380e565b935061387f81856020860161381f565b61388881613849565b840191505092915050565b600060208201905081810360008301526138ad818461385a565b905092915050565b6000819050919050565b6138c8816138b5565b81146138d357600080fd5b50565b6000813590506138e5816138bf565b92915050565b6000602082840312156139015761390061373e565b5b600061390f848285016138d6565b91505092915050565b600073ffffffffffffffffffffffffffffffffffffffff82169050919050565b600061394382613918565b9050919050565b61395381613938565b82525050565b600060208201905061396e600083018461394a565b92915050565b61397d81613938565b811461398857600080fd5b50565b60008135905061399a81613974565b92915050565b600080604083850312156139b7576139b661373e565b5b60006139c58582860161398b565b92505060206139d6858286016138d6565b9150509250929050565b6000806000606084860312156139f9576139f861373e565b5b6000613a078682870161398b565b9350506020613a188682870161398b565b9250506040613a29868287016138d6565b9150509250925092565b60008060408385031215613a4a57613a4961373e565b5b6000613a58858286016138d6565b9250506020613a69858286016138d6565b9150509250929050565b600081519050919050565b600082825260208201905092915050565b6000819050602082019050919050565b613aa8816138b5565b82525050565b6000613ab982613918565b9050919050565b613ac981613aae565b82525050565b613ad8816137cd565b82525050565b60c082016000820151613af46000850182613a9f565b506020820151613b076020850182613a9f565b506040820151613b1a6040850182613ac0565b506060820151613b2d6060850182613ac0565b506080820151613b406080850182613a9f565b5060a0820151613b5360a0850182613acf565b50505050565b6000613b658383613ade565b60c08301905092915050565b6000602082019050919050565b6000613b8982613a73565b613b938185613a7e565b9350613b9e83613a8f565b8060005b83811015613bcf578151613bb68882613b59565b9750613bc183613b71565b925050600181019050613ba2565b5085935050505092915050565b60006020820190508181036000830152613bf68184613b7e565b905092915050565b613c07816138b5565b82525050565b6000602082019050613c226000830184613bfe565b92915050565b600060208284031215613c3e57613c3d61373e565b5b6000613c4c8482850161398b565b91505092915050565b613c5e81613aae565b82525050565b6000602082019050613c796000830184613c55565b92915050565b60c082016000820151613c956000850182613a9f565b506020820151613ca86020850182613a9f565b506040820151613cbb6040850182613ac0565b506060820151613cce6060850182613ac0565b506080820151613ce16080850182613a9f565b5060a0820151613cf460a0850182613acf565b50505050565b600060c082019050613d0f6000830184613c7f565b92915050565b600080fd5b600080fd5b7f4e487b7100000000000000000000000000000000000000000000000000000000600052604160045260246000fd5b613d5782613849565b810181811067ffffffffffffffff82111715613d7657613d75613d1f565b5b80604052505050565b6000613d89613734565b9050613d958282613d4e565b919050565b600067ffffffffffffffff821115613db557613db4613d1f565b5b613dbe82613849565b9050602081019050919050565b82818337600083830152505050565b6000613ded613de884613d9a565b613d7f565b905082815260208101848484011115613e0957613e08613d1a565b5b613e14848285613dcb565b509392505050565b600082601f830112613e3157613e30613d15565b5b8135613e41848260208601613dda565b91505092915050565b60008060408385031215613e6157613e6061373e565b5b600083013567ffffffffffffffff811115613e7f57613e7e613743565b5b613e8b85828601613e1c565b9250506020613e9c8582860161398b565b9150509250929050565b613eaf816137cd565b8114613eba57600080fd5b50565b600081359050613ecc81613ea6565b92915050565b60008060408385031215613ee957613ee861373e565b5b6000613ef78582860161398b565b9250506020613f0885828601613ebd565b9150509250929050565b600067ffffffffffffffff821115613f2d57613f2c613d1f565b5b613f3682613849565b9050602081019050919050565b6000613f56613f5184613f12565b613d7f565b905082815260208101848484011115613f7257613f71613d1a565b5b613f7d848285613dcb565b509392505050565b600082601f830112613f9a57613f99613d15565b5b8135613faa848260208601613f43565b91505092915050565b60008060008060808587031215613fcd57613fcc61373e565b5b6000613fdb8782880161398b565b9450506020613fec8782880161398b565b9350506040613ffd878288016138d6565b925050606085013567ffffffffffffffff81111561401e5761401d613743565b5b61402a87828801613f85565b91505092959194509250565b6000806040838503121561404d5761404c61373e565b5b600083013567ffffffffffffffff81111561406b5761406a613743565b5b61407785828601613e1c565b9250506020614088858286016138d6565b9150509250929050565b600060c0820190506140a76000830189613bfe565b6140b46020830188613bfe565b6140c16040830187613c55565b6140ce6060830186613c55565b6140db6080830185613bfe565b6140e860a08301846137d9565b979650505050505050565b6000819050919050565b600061411861411361410e84613918565b6140f3565b613918565b9050919050565b600061412a826140fd565b9050919050565b600061413c8261411f565b9050919050565b61414c81614131565b82525050565b60006020820190506141676000830184614143565b92915050565b600080604083850312156141845761418361373e565b5b60006141928582860161398b565b92505060206141a38582860161398b565b9150509250929050565b7f4e487b7100000000000000000000000000000000000000000000000000000000600052602260045260246000fd5b600060028204905060018216806141f457607f821691505b602082108103614207576142066141ad565b5b50919050565b7f4552433732313a20617070726f76616c20746f2063757272656e74206f776e6560008201527f7200000000000000000000000000000000000000000000000000000000000000602082015250565b600061426960218361380e565b91506142748261420d565b604082019050919050565b600060208201905081810360008301526142988161425c565b9050919050565b7f4552433732313a20617070726f76652063616c6c6572206973206e6f7420746f60008201527f6b656e206f776e6572206f7220617070726f76656420666f7220616c6c000000602082015250565b60006142fb603d8361380e565b91506143068261429f565b604082019050919050565b6000602082019050818103600083015261432a816142ee565b9050919050565b7f4552433732313a2063616c6c6572206973206e6f7420746f6b656e206f776e6560008201527f72206f7220617070726f76656400000000000000000000000000000000000000602082015250565b600061438d602d8361380e565b915061439882614331565b604082019050919050565b600060208201905081810360008301526143bc81614380565b9050919050565b7f496e76616c696420746f6b656e20494400000000000000000000000000000000600082015250565b60006143f960108361380e565b9150614404826143c3565b602082019050919050565b60006020820190508181036000830152614428816143ec565b9050919050565b7f596f7520617265206e6f7420746865206f776e6572206f66207468697320746f60008201527f6b656e0000000000000000000000000000000000000000000000000000000000602082015250565b600061448b60238361380e565b91506144968261442f565b604082019050919050565b600060208201905081810360008301526144ba8161447e565b9050919050565b7f5072696365206d7573742062652067726561746572207468616e207a65726f00600082015250565b60006144f7601f8361380e565b9150614502826144c1565b602082019050919050565b60006020820190508181036000830152614526816144ea565b9050919050565b7f4c697374206f6e204d61726b6574706c61636500000000000000000000000000600082015250565b600061456360138361380e565b915061456e8261452d565b602082019050919050565b600060c08201905061458e600083018861394a565b61459b602083018761394a565b6145a8604083018661394a565b6145b5606083018561394a565b6145c26080830184613bfe565b81810360a08301526145d381614556565b90509695505050505050565b60006080820190506145f4600083018761394a565b614601602083018661394a565b61460e6040830185613bfe565b61461b60608301846137d9565b95945050505050565b7f4e487b7100000000000000000000000000000000000000000000000000000000600052601160045260246000fd5b600061465e826138b5565b9150614669836138b5565b925082820190508082111561468157614680614624565b5b92915050565b6000614692826138b5565b91507fffffffffffffffffffffffffffffffffffffffffffffffffffffffffffffffff82036146c4576146c3614624565b5b600182019050919050565b7f4e487b7100000000000000000000000000000000000000000000000000000000600052603260045260246000fd5b7f4552433732313a20696e76616c696420746f6b656e2049440000000000000000600082015250565b600061473460188361380e565b915061473f826146fe565b602082019050919050565b6000602082019050818103600083015261476381614727565b9050919050565b7f4552433732313a2061646472657373207a65726f206973206e6f74206120766160008201527f6c6964206f776e65720000000000000000000000000000000000000000000000602082015250565b60006147c660298361380e565b91506147d18261476a565b604082019050919050565b600060208201905081810360008301526147f5816147b9565b9050919050565b7f596f75206e65656420746f20736574207468652061736b696e6720707269636560008201527f20696e206f7264657220746f2070757263686173650000000000000000000000602082015250565b600061485860358361380e565b9150614863826147fc565b604082019050919050565b600060208201905081810360008301526148878161484b565b9050919050565b7f427579204e465400000000000000000000000000000000000000000000000000600082015250565b60006148c460078361380e565b91506148cf8261488e565b602082019050919050565b600060c0820190506148ef600083018861394a565b6148fc602083018761394a565b614909604083018661394a565b614916606083018561394a565b6149236080830184613bfe565b81810360a0830152614934816148b7565b90509695505050505050565b60008151905061494f81613ea6565b92915050565b60006020828403121561496b5761496a61373e565b5b600061497984828501614940565b91505092915050565b7f596f75206e65656420746f206265206120726567697374726564206272616e6460008201527f20746f206d696e74204e46540000000000000000000000000000000000000000602082015250565b60006149de602c8361380e565b91506149e982614982565b604082019050919050565b60006020820190508181036000830152614a0d816149d1565b9050919050565b6000819050919050565b6000614a39614a34614a2f84614a14565b6140f3565b6138b5565b9050919050565b614a4981614a1e565b82525050565b7f6d696e7400000000000000000000000000000000000000000000000000000000600082015250565b6000614a8560048361380e565b9150614a9082614a4f565b602082019050919050565b600060c082019050614ab0600083018861394a565b614abd602083018761394a565b614aca604083018661394a565b614ad7606083018561394a565b614ae46080830184614a40565b81810360a0830152614af581614a78565b90509695505050505050565b7f594f75206e65656420746f206265207468652073656c6c6572206f662074686560008201527f204e465420746f2073656c6c2069740000000000000000000000000000000000602082015250565b6000614b5d602f8361380e565b9150614b6882614b01565b604082019050919050565b60006020820190508181036000830152614b8c81614b50565b9050919050565b7f52656d6f76652066726f6d206d61726b6574706c616365000000000000000000600082015250565b6000614bc960178361380e565b9150614bd482614b93565b602082019050919050565b600060c082019050614bf4600083018861394a565b614c01602083018761394a565b614c0e604083018661394a565b614c1b606083018561394a565b614c286080830184614a40565b81810360a0830152614c3981614bbc565b90509695505050505050565b6000608082019050614c5a600083018761394a565b614c67602083018661394a565b614c746040830185614a40565b614c8160608301846137d9565b95945050505050565b7f4f6e6c79206f776e65722063616e20757064617465206c697374696e6720707260008201527f6963650000000000000000000000000000000000000000000000000000000000602082015250565b6000614ce660238361380e565b9150614cf182614c8a565b604082019050919050565b60006020820190508181036000830152614d1581614cd9565b9050919050565b600081905092915050565b6000614d3282613803565b614d3c8185614d1c565b9350614d4c81856020860161381f565b80840191505092915050565b6000614d648285614d27565b9150614d708284614d27565b91508190509392505050565b7f4552433732313a207472616e736665722066726f6d20696e636f72726563742060008201527f6f776e6572000000000000000000000000000000000000000000000000000000602082015250565b6000614dd860258361380e565b9150614de382614d7c565b604082019050919050565b60006020820190508181036000830152614e0781614dcb565b9050919050565b7f4552433732313a207472616e7366657220746f20746865207a65726f2061646460008201527f7265737300000000000000000000000000000000000000000000000000000000602082015250565b6000614e6a60248361380e565b9150614e7582614e0e565b604082019050919050565b60006020820190508181036000830152614e9981614e5d565b9050919050565b7f45524337323155524953746f726167653a2055524920736574206f66206e6f6e60008201527f6578697374656e7420746f6b656e000000000000000000000000000000000000602082015250565b6000614efc602e8361380e565b9150614f0782614ea0565b604082019050919050565b60006020820190508181036000830152614f2b81614eef565b9050919050565b60008190508160005260206000209050919050565b60006020601f8301049050919050565b600082821b905092915050565b600060088302614f947fffffffffffffffffffffffffffffffffffffffffffffffffffffffffffffffff82614f57565b614f9e8683614f57565b95508019841693508086168417925050509392505050565b6000614fd1614fcc614fc7846138b5565b6140f3565b6138b5565b9050919050565b6000819050919050565b614feb83614fb6565b614fff614ff782614fd8565b848454614f64565b825550505050565b600090565b615014615007565b61501f818484614fe2565b505050565b5b818110156150435761503860008261500c565b600181019050615025565b5050565b601f8211156150885761505981614f32565b61506284614f47565b81016020851015615071578190505b61508561507d85614f47565b830182615024565b50505b505050565b600082821c905092915050565b60006150ab6000198460080261508d565b1980831691505092915050565b60006150c4838361509a565b9150826002028217905092915050565b6150dd82613803565b67ffffffffffffffff8111156150f6576150f5613d1f565b5b61510082546141dc565b61510b828285615047565b600060209050601f83116001811461513e576000841561512c578287015190505b61513685826150b8565b86555061519e565b601f19841661514c86614f32565b60005b828110156151745784890151825560018201915060208501945060208101905061514f565b86831015615191578489015161518d601f89168261509a565b8355505b6001600288020188555050505b505050505050565b6000815190506151b5816138bf565b92915050565b6000602082840312156151d1576151d061373e565b5b60006151df848285016151a6565b91505092915050565b7f53656e6420746f20637573746f6d657200000000000000000000000000000000600082015250565b600061521e60108361380e565b9150615229826151e8565b602082019050919050565b600060c082019050615249600083018861394a565b615256602083018761394a565b615263604083018661394a565b615270606083018561394a565b61527d6080830184614a40565b81810360a083015261528e81615211565b90509695505050505050565b7f4552433732313a20617070726f766520746f2063616c6c657200000000000000600082015250565b60006152d060198361380e565b91506152db8261529a565b602082019050919050565b600060208201905081810360008301526152ff816152c3565b9050919050565b7f4552433732313a207472616e7366657220746f206e6f6e20455243373231526560008201527f63656976657220696d706c656d656e7465720000000000000000000000000000602082015250565b600061536260328361380e565b915061536d82615306565b604082019050919050565b6000602082019050818103600083015261539181615355565b9050919050565b7f5072696365206e65656420746f20626520706f73697469766500000000000000600082015250565b60006153ce60198361380e565b91506153d982615398565b602082019050919050565b600060208201905081810360008301526153fd816153c1565b9050919050565b7f53656e6420746f206d61726b6574706c61636500000000000000000000000000600082015250565b600061543a60138361380e565b915061544582615404565b602082019050919050565b600060c082019050615465600083018861394a565b615472602083018761394a565b61547f604083018661394a565b61548c606083018561394a565b6154996080830184613bfe565b81810360a08301526154aa8161542d565b90509695505050505050565b600081519050919050565b600082825260208201905092915050565b60006154dd826154b6565b6154e781856154c1565b93506154f781856020860161381f565b61550081613849565b840191505092915050565b6000608082019050615520600083018761394a565b61552d602083018661394a565b61553a6040830185613bfe565b818103606083015261554c81846154d2565b905095945050505050565b60008151905061556681613774565b92915050565b6000602082840312156155825761558161373e565b5b600061559084828501615557565b91505092915050565b7f4e487b7100000000000000000000000000000000000000000000000000000000600052601260045260246000fd5b7f4552433732313a206d696e7420746f20746865207a65726f2061646472657373600082015250565b60006155fe60208361380e565b9150615609826155c8565b602082019050919050565b6000602082019050818103600083015261562d816155f1565b9050919050565b7f4552433732313a20746f6b656e20616c7265616479206d696e74656400000000600082015250565b600061566a601c8361380e565b915061567582615634565b602082019050919050565b600060208201905081810360008301526156998161565d565b905091905056fea2646970667358221220398c7728736868abd03811fbca94d2892ee8a8bd2e1550379702fbdba55c223e64736f6c63430008130033",
  "immutableReferences": {},
  "source": "//SPDX-License-Identifier: GPL-3.0\npragma solidity ^0.8.19;\n\nimport \"../node_modules/@openzeppelin/contracts/utils/Counters.sol\";\nimport \"../node_modules/@openzeppelin/contracts/token/ERC721/extensions/ERC721URIStorage.sol\";\nimport \"../node_modules/@openzeppelin/contracts/token/ERC721/ERC721.sol\";\n\n\nimport \"./LTYAccount.sol\";\n\n/// @title Loyalty Marketplace\n/// @author Thibaut Pauget\n/// @notice Loyalty NFT Marketplace : Mint, Send, Buy, Sell NFT\n/// @dev This is a PMV non usable in production environment\ncontract LTYMarketplace is ERC721URIStorage {\n    using Counters for Counters.Counter;\n\n    LTYAccount public LTYAccountContract;\n\n   // address LTYAccountAddress;\n    //_tokenIds variable has the most recent minted tokenId\n    Counters.Counter private _tokenIds;\n\n    //Keeps track of the number of items sold on the marketplace\n    Counters.Counter private _itemsSold;\n\n    //_Brandids variable has the most recent minted tokenId\n    Counters.Counter private _brandsIds;\n\n    //owner of the contract\n    address payable public owner;\n\n    //The fee charged by the marketplace to be allowed to list an NFT\n    uint256 public listPrice = 0.01 ether; //not use in this version - Economic Model in construction\n    \n    //Structure to store info about an NFT\n    struct ListedToken {\n        uint256 tokenId;\n        uint256 brandId;\n        address payable owner;\n        address payable seller;\n        uint256 price;\n        bool currentlyListed;\n    }\n\n    //the event emitted when a NFT is successfully listed\n    event EventTokenListedSuccess(\n        uint256 indexed tokenId,\n        address owner,\n        address seller,\n        uint256 price,\n        bool currentlyListed\n    );\n\n    //the event emit when an action is set on NFT (mint, list, delist ...)\n    event EventTokenTransaction(\n        uint256 indexed tokenId,\n        address ownerFrom,\n        address ownerTo,\n        address sellerFrom,\n        address sellerTo,\n        uint256 price,\n        string transactionType\n    );\n\n    //the event emit when listing price is updated\n    event EventUpdateListPrice(\n        uint256 price\n    );\n\n    //This mapping maps tokenId to token info and is helpful when retrieving details about a tokenId\n    mapping(uint256 => ListedToken) public idToListedToken;\n\n    //mapping to store all brands\n    //mapping(uint256 => UserAccount) private idToListedBrand;\n\n    //Mapping of brand\n    //mapping(address => UserAccount) public userAccounts;\n\n    constructor(address _LTYAccountContractAddress) ERC721(\"LoyaltyChain\", \"LTY\") {\n        owner = payable(msg.sender);\n        LTYAccountContract = LTYAccount(_LTYAccountContractAddress);\n    }\n\n    /// @notice Update listing price fees\n    /// @param _listPrice Price of the listing fees\n    ///TO DO  a mettre Ownable\n    function updateListPrice(uint256 _listPrice) public payable {\n        require(owner == msg.sender, \"Only owner can update listing price\");\n        listPrice = _listPrice;\n\n        emit EventUpdateListPrice(_listPrice);\n    }\n\n    /// @notice Get detail of NFT Token from Id\n    /// @param _tokenId of the brand\n    /// @return ListedToken\n    function getListedTokenForId(uint256 _tokenId)\n        public\n        view\n        returns (ListedToken memory)\n    {\n        return idToListedToken[_tokenId];\n    }\n\n    /// @notice Get current NFT Id\n    /// @return current Id\n    function getCurrentToken() public view returns (uint256) {\n        return _tokenIds.current();\n    }\n\n    /// @notice Mint and list NFT on marketplace\n    /// @dev Mint (and list NFT on marketplace with createListedToken)\n    /// @param _tokenURI of th NFT (IPFS URL with the NFT metadata)\n    /// @param _price initial listing price\n    /// @return newTokenId\n    function createTokenToMarketplace(string memory _tokenURI, uint256 _price)\n        public\n        payable\n        returns (uint256)\n    {\n        //Check if the minter is a authorized to mint NFT\n       require(\n           // LTYAccountContract.userAccounts[msg.sender].isBrandRegisterOnPlatform == true,\n            LTYAccountContract.getIsBrandRegisterOnPlatform(msg.sender) == true,\n            \"You need to be a registred brand to mint NFT\"\n        );\n        \n        //Increment the tokenId counter, which is keeping track of the number of minted NFTs\n        _tokenIds.increment();\n        uint256 newTokenId = _tokenIds.current();\n\n        //Mint the NFT with newTokenId to the address who called createTokenToMarketplace\n        _safeMint(msg.sender, newTokenId);\n\n        //Map the tokenId with the tokenURI\n        _setTokenURI(newTokenId, _tokenURI);\n\n        emit EventTokenTransaction(\n            newTokenId,\n            msg.sender,\n            msg.sender,\n            msg.sender,\n            msg.sender,\n            0,\n            \"mint\"\n        );\n\n        //update Global variables, list NFT on marketplace,  and emit an event\n        createListedToken(newTokenId, _price);\n        return newTokenId;\n    }\n\n    /// @notice Mint and send NFT to an address\n    /// @dev Mint (and send NFT to an address with createListedTokenAndSendToAddress)\n    /// @param _tokenURI of th NFT (IPFS URL with the NFT metadata)\n    /// @param _addr address of the future Owner\n    /// @return newTokenId\n\n    function createTokenToAddress(string memory _tokenURI, address _addr)\n        public\n        payable\n        returns (uint256)\n    {\n        \n        //Check if the minter is a authorized to mint NFT\n        require(\n             LTYAccountContract.getIsBrandRegisterOnPlatform(msg.sender) == true,\n            \"You need to be a registred brand to mint NFT\"\n        );\n        //Increment the tokenId counter, which is keeping track of the number of minted NFTs\n        _tokenIds.increment();\n        uint256 newTokenId = _tokenIds.current();\n\n        //Mint the NFT with tokenId newTokenId to the address who called createToken\n        _safeMint(msg.sender, newTokenId);\n\n        //Map the tokenId to the tokenURI (which is an IPFS URL with the NFT metadata)\n        _setTokenURI(newTokenId, _tokenURI);\n\n        emit EventTokenTransaction(\n            newTokenId,\n            msg.sender,\n            msg.sender,\n            msg.sender,\n            msg.sender,\n            0,\n            \"mint\"\n        );\n\n        //update Global variables, send NFT to his new Owner,  and emit an event\n        createListedTokenAndSendToAddress(newTokenId, _addr);\n        return newTokenId;\n    }\n\n   \n    /// @notice Send NFT to marketplace\n    /// @dev Update Global Variable, Send NFT to marketplace and emit event\n    /// @param _tokenId of the NFT to list on marketplace\n    /// @param _price of the listed NFT\n    function createListedToken(uint256 _tokenId, uint256 _price) private {\n        //Check if the minter is a authorized to mint NFT\n        require(\n              LTYAccountContract.getIsBrandRegisterOnPlatform(msg.sender),\n            \"You need to be a registred brand to mint NFT\"\n        );\n        \n        //Make sure the sender sent enough ETH to pay for listing\n       // require(msg.value == listPrice, \"You need to send the listing fee\");\n        require(_price >= 0, \"Price need to be positive\");\n        \n        //Update the mapping of tokenId to Token details\n        idToListedToken[_tokenId] = ListedToken(\n            _tokenId,\n            LTYAccountContract.getIdBrandFromAddress(msg.sender), //brandId -> faire une fonction qui recup l'id de la brand a partir de l'adresse\n            payable(address(this)),\n            payable(msg.sender),\n            _price,\n            true\n        );\n\n        //Transfer NFT to the marketplace\n        _transfer(msg.sender, address(this), _tokenId);\n\n        emit EventTokenTransaction(\n            _tokenId,\n            address(this),\n            address(this),\n            msg.sender,\n            msg.sender,\n            _price,\n            \"Send to marketplace\"\n        );\n\n        //Emit the event for successful transfer. The frontend listen to this message\n        emit EventTokenListedSuccess(\n            _tokenId,\n            address(this),\n            msg.sender,\n            _price,\n            true\n        );\n    }\n\n    /// @notice get Listing price\n    /// @return listPrice\n     function getListPrice() public view returns (uint256) {\n        return listPrice;\n    }\n\n    /// @notice Send NFT to a customer\n    /// @dev Update Global Variable, Send NFT to a customer and emit event\n    /// @param _tokenId of the NFT to list on marketplace\n    /// @param _addr of the listed NFT\n    function createListedTokenAndSendToAddress(uint256 _tokenId, address _addr)\n        private\n    {\n        //Check if the minter is a authorized to mint NFT\n        /*\n        require(\n            LTYAccountContract.userAccounts[msg.sender].isBrandRegisterOnPlatform == true,\n            \"You need to be a registred brand to mint NFT\"\n        );\n        */\n        //Update the mapping of tokenId to Token details\n        idToListedToken[_tokenId] = ListedToken(\n            _tokenId,\n            LTYAccountContract.getIdBrandFromAddress(msg.sender), //brandId\n            payable(_addr),\n            payable(_addr),\n            0,\n            false\n        );\n\n        //Transfer NFT to the new Owner (= the customer)\n        _transfer(msg.sender, _addr, _tokenId);\n\n        emit EventTokenTransaction(\n            _tokenId,\n            address(this),\n            _addr,\n            address(this),\n            _addr,\n            0,\n            \"Send to customer\"\n        );\n\n        //Emit the event for successful transfer. The frontend listen to this message\n        emit EventTokenListedSuccess(_tokenId, _addr, _addr, 0, false);\n    }\n\n    /// @notice Get all the NFTs that the current user is owner or seller in\n    /// @dev return an array of NFT\n    /// @return all NFT where the current user is owner or seller\n    function getMyNFTs() public view returns (ListedToken[] memory) {\n        uint256 totalItemCount = _tokenIds.current();\n        uint256 itemCount = 0;\n        uint256 currentIndex = 0;\n        \n        //we count NFT of the user to create an array of the good size => Gaz optimisation\n        for (uint256 i = 0; i < totalItemCount; i++) {\n            if (\n                idToListedToken[i + 1].owner == msg.sender ||\n                idToListedToken[i + 1].seller == msg.sender\n            ) {\n                itemCount += 1;\n            }\n        }\n\n        //We store the Owner/seller NFT in an array\n        ListedToken[] memory items = new ListedToken[](itemCount);\n\n        for (uint256 i = 0; i < totalItemCount; i++) {\n            if (\n                idToListedToken[i + 1].owner == msg.sender ||\n                idToListedToken[i + 1].seller == msg.sender\n            ) {\n                uint256 currentId = i + 1;\n\n                ListedToken storage currentItem = idToListedToken[currentId];\n\n                items[currentIndex] = currentItem;\n\n                currentIndex += 1;\n            }\n        }\n        return items;\n    }\n\n    /// @notice Get all the NFTs associated with a brand\n    /// @dev return an array of NFT\n    /// @param _idBrand to get the NFT from\n    /// @return all NFT associated with a brand\n    function getNFTsByBrand(uint256 _idBrand)\n        public\n        view\n        returns (ListedToken[] memory)\n    {\n        uint256 totalItemCount = _tokenIds.current();\n        uint256 itemCount = 0;\n        uint256 currentIndex = 0;\n        \n        //we count NFT of the brand to create an array of the good size => Gaz optimisation\n        for (uint256 i = 0; i < totalItemCount; i++) {\n            if (\n                idToListedToken[i + 1].brandId == _idBrand &&\n                idToListedToken[i + 1].currentlyListed\n            ) {\n                itemCount += 1;\n            }\n        }\n\n        //We store the Brand NFT in an array\n        ListedToken[] memory items = new ListedToken[](itemCount);\n\n        for (uint256 i = 0; i < totalItemCount; i++) {\n            if (\n                idToListedToken[i + 1].brandId == _idBrand &&\n                idToListedToken[i + 1].currentlyListed\n            ) {\n                uint256 currentId = i + 1;\n\n                ListedToken storage currentItem = idToListedToken[currentId];\n                items[currentIndex] = currentItem;\n                currentIndex += 1;\n            }\n        }\n        return items;\n    }\n\n    /// @notice remove listed NFT from marketplace and transfer back to the owner\n    ///  @param _idToken of the NFT to remove from marketplace\n    function removeTokenFromMarket(uint256 _idToken) public {\n        require(_exists(_idToken), \"Invalid token ID\");\n\n        require(\n            msg.sender == idToListedToken[_idToken].seller,\n            \"YOu need to be the seller of the NFT to sell it\"\n        );\n\n        idToListedToken[_idToken].owner = payable(msg.sender);\n        idToListedToken[_idToken].seller = payable(msg.sender);\n        idToListedToken[_idToken].currentlyListed = false;\n        _transfer(address(this), msg.sender, _idToken);\n\n        emit EventTokenTransaction(\n            _idToken,\n            address(this),\n            msg.sender,\n            msg.sender,\n            msg.sender,\n            0,\n            \"Remove from marketplace\"\n        );\n\n        //Emit the event for successful transfer. The frontend listen to this message\n        emit EventTokenListedSuccess(\n            _idToken,\n            msg.sender,\n            msg.sender,\n            0,\n            false\n        );\n    }\n\n    /// @notice Buy an NFT on the marketplace\n    /// @param _tokenId of the NFT to buy on the marketplace\n    function executeSale(uint256 _tokenId) public payable {\n        uint256 price = idToListedToken[_tokenId].price;\n        address seller = idToListedToken[_tokenId].seller;\n\n\n        require(\n            msg.value == price,\n            \"You need to set the asking price in order to purchase\"\n        );\n\n        //update the details of the token\n        idToListedToken[_tokenId].currentlyListed = false;\n        idToListedToken[_tokenId].owner = payable(msg.sender);\n        idToListedToken[_tokenId].seller = payable(msg.sender);\n        _itemsSold.increment();\n\n        //transfer the NFT to the new owner\n        _transfer(address(this), msg.sender, _tokenId);\n        //approve the marketplace to sell NFTs for user\n        approve(address(this), _tokenId); \n        //Transfer the listing fee to the marketplace\n        //payable(owner).transfer(listPrice);\n        //Transfer the buying price to the seller of the NFT\n        payable(seller).transfer(msg.value);\n\n        emit EventTokenTransaction(\n            _tokenId,\n            address(this),\n            msg.sender,\n            seller,\n            msg.sender,\n            price,\n            \"Buy NFT\"\n        );\n    }\n\n    /// @notice List an NFT onthe marketplace at a given price\n    /// @param _idToken of the NFT to sell on the marketplace\n    /// @param _price of the NFT to sell on the marketplace\n    /// TO DO manque l'envoi des fees\n    function addTokenToSaleOnTheMarket(uint256 _idToken, uint256 _price)\n        public\n    {\n        require(_exists(_idToken), \"Invalid token ID\");\n\n        require(\n            ownerOf(_idToken) == msg.sender,\n            \"You are not the owner of this token\"\n        );\n\n        require(_price > 0, \"Price must be greater than zero\");\n\n        idToListedToken[_idToken].price = _price;\n        idToListedToken[_idToken].currentlyListed = true;\n        idToListedToken[_idToken].seller = payable(msg.sender);\n        idToListedToken[_idToken].owner = payable(address(this));\n        _transfer(msg.sender, address(this), _idToken);\n\n        emit EventTokenTransaction(\n            _idToken,\n            msg.sender,\n            address(this),\n            msg.sender,\n            msg.sender,\n            _price,\n            \"List on Marketplace\"\n        );\n\n        emit EventTokenListedSuccess(\n            _idToken,\n            address(this),\n            msg.sender,\n            _price,\n            true\n        );\n    }\n}\n",
  "sourcePath": "/Users/thibaut/development/alyra/LoyaltyChainVF/backendTruffle/contracts/LTYMarketplace.sol",
  "compiler": {
    "name": "solc",
    "version": "0.8.19+commit.7dd6d404.Emscripten.clang"
  },
  "schemaVersion": "3.4.14",
  "updatedAt": "2023-07-19T11:27:46.544Z",
  "networkType": "ethereum",
  "devdoc": {
    "author": "Thibaut Pauget",
    "details": "This is a PMV non usable in production environment",
    "events": {
      "Approval(address,address,uint256)": {
        "details": "Emitted when `owner` enables `approved` to manage the `tokenId` token."
      },
      "ApprovalForAll(address,address,bool)": {
        "details": "Emitted when `owner` enables or disables (`approved`) `operator` to manage all of its assets."
      },
      "BatchMetadataUpdate(uint256,uint256)": {
        "details": "This event emits when the metadata of a range of tokens is changed. So that the third-party platforms such as NFT market could timely update the images and related attributes of the NFTs."
      },
      "MetadataUpdate(uint256)": {
        "details": "This event emits when the metadata of a token is changed. So that the third-party platforms such as NFT market could timely update the images and related attributes of the NFT."
      },
      "Transfer(address,address,uint256)": {
        "details": "Emitted when `tokenId` token is transferred from `from` to `to`."
      }
    },
    "kind": "dev",
    "methods": {
      "addTokenToSaleOnTheMarket(uint256,uint256)": {
        "params": {
          "_idToken": "of the NFT to sell on the marketplace",
          "_price": "of the NFT to sell on the marketplace TO DO manque l'envoi des fees"
        }
      },
      "approve(address,uint256)": {
        "details": "See {IERC721-approve}."
      },
      "balanceOf(address)": {
        "details": "See {IERC721-balanceOf}."
      },
      "createTokenToAddress(string,address)": {
        "details": "Mint (and send NFT to an address with createListedTokenAndSendToAddress)",
        "params": {
          "_addr": "address of the future Owner",
          "_tokenURI": "of th NFT (IPFS URL with the NFT metadata)"
        },
        "returns": {
          "_0": "newTokenId"
        }
      },
      "createTokenToMarketplace(string,uint256)": {
        "details": "Mint (and list NFT on marketplace with createListedToken)",
        "params": {
          "_price": "initial listing price",
          "_tokenURI": "of th NFT (IPFS URL with the NFT metadata)"
        },
        "returns": {
          "_0": "newTokenId"
        }
      },
      "executeSale(uint256)": {
        "params": {
          "_tokenId": "of the NFT to buy on the marketplace"
        }
      },
      "getApproved(uint256)": {
        "details": "See {IERC721-getApproved}."
      },
      "getCurrentToken()": {
        "returns": {
          "_0": "current Id"
        }
      },
      "getListPrice()": {
        "returns": {
          "_0": "listPrice"
        }
      },
      "getListedTokenForId(uint256)": {
        "params": {
          "_tokenId": "of the brand"
        },
        "returns": {
          "_0": "ListedToken"
        }
      },
      "getMyNFTs()": {
        "details": "return an array of NFT",
        "returns": {
          "_0": "all NFT where the current user is owner or seller"
        }
      },
      "getNFTsByBrand(uint256)": {
        "details": "return an array of NFT",
        "params": {
          "_idBrand": "to get the NFT from"
        },
        "returns": {
          "_0": "all NFT associated with a brand"
        }
      },
      "isApprovedForAll(address,address)": {
        "details": "See {IERC721-isApprovedForAll}."
      },
      "name()": {
        "details": "See {IERC721Metadata-name}."
      },
      "ownerOf(uint256)": {
        "details": "See {IERC721-ownerOf}."
      },
      "removeTokenFromMarket(uint256)": {
        "params": {
          "_idToken": "of the NFT to remove from marketplace"
        }
      },
      "safeTransferFrom(address,address,uint256)": {
        "details": "See {IERC721-safeTransferFrom}."
      },
      "safeTransferFrom(address,address,uint256,bytes)": {
        "details": "See {IERC721-safeTransferFrom}."
      },
      "setApprovalForAll(address,bool)": {
        "details": "See {IERC721-setApprovalForAll}."
      },
      "supportsInterface(bytes4)": {
        "details": "See {IERC165-supportsInterface}"
      },
      "symbol()": {
        "details": "See {IERC721Metadata-symbol}."
      },
      "tokenURI(uint256)": {
        "details": "See {IERC721Metadata-tokenURI}."
      },
      "transferFrom(address,address,uint256)": {
        "details": "See {IERC721-transferFrom}."
      },
      "updateListPrice(uint256)": {
        "params": {
          "_listPrice": "Price of the listing fees TO DO  a mettre Ownable"
        }
      }
    },
    "title": "Loyalty Marketplace",
    "version": 1
  },
  "userdoc": {
    "kind": "user",
    "methods": {
      "addTokenToSaleOnTheMarket(uint256,uint256)": {
        "notice": "List an NFT onthe marketplace at a given price"
      },
      "createTokenToAddress(string,address)": {
        "notice": "Mint and send NFT to an address"
      },
      "createTokenToMarketplace(string,uint256)": {
        "notice": "Mint and list NFT on marketplace"
      },
      "executeSale(uint256)": {
        "notice": "Buy an NFT on the marketplace"
      },
      "getCurrentToken()": {
        "notice": "Get current NFT Id"
      },
      "getListPrice()": {
        "notice": "get Listing price"
      },
      "getListedTokenForId(uint256)": {
        "notice": "Get detail of NFT Token from Id"
      },
      "getMyNFTs()": {
        "notice": "Get all the NFTs that the current user is owner or seller in"
      },
      "getNFTsByBrand(uint256)": {
        "notice": "Get all the NFTs associated with a brand"
      },
      "removeTokenFromMarket(uint256)": {
        "notice": "remove listed NFT from marketplace and transfer back to the owner"
      },
      "updateListPrice(uint256)": {
        "notice": "Update listing price fees"
      }
    },
    "notice": "Loyalty NFT Marketplace : Mint, Send, Buy, Sell NFT",
    "version": 1
  }
}