{
  "contractName": "LTYMarketplace",
  "abi": [
    {
      "inputs": [
        {
          "internalType": "address",
          "name": "_LTYAccountContractAddress",
          "type": "address"
        }
      ],
      "stateMutability": "nonpayable",
      "type": "constructor"
    },
    {
      "anonymous": false,
      "inputs": [
        {
          "indexed": true,
          "internalType": "address",
          "name": "owner",
          "type": "address"
        },
        {
          "indexed": true,
          "internalType": "address",
          "name": "approved",
          "type": "address"
        },
        {
          "indexed": true,
          "internalType": "uint256",
          "name": "tokenId",
          "type": "uint256"
        }
      ],
      "name": "Approval",
      "type": "event"
    },
    {
      "anonymous": false,
      "inputs": [
        {
          "indexed": true,
          "internalType": "address",
          "name": "owner",
          "type": "address"
        },
        {
          "indexed": true,
          "internalType": "address",
          "name": "operator",
          "type": "address"
        },
        {
          "indexed": false,
          "internalType": "bool",
          "name": "approved",
          "type": "bool"
        }
      ],
      "name": "ApprovalForAll",
      "type": "event"
    },
    {
      "anonymous": false,
      "inputs": [
        {
          "indexed": false,
          "internalType": "uint256",
          "name": "_fromTokenId",
          "type": "uint256"
        },
        {
          "indexed": false,
          "internalType": "uint256",
          "name": "_toTokenId",
          "type": "uint256"
        }
      ],
      "name": "BatchMetadataUpdate",
      "type": "event"
    },
    {
      "anonymous": false,
      "inputs": [
        {
          "indexed": true,
          "internalType": "uint256",
          "name": "tokenId",
          "type": "uint256"
        },
        {
          "indexed": false,
          "internalType": "address",
          "name": "owner",
          "type": "address"
        },
        {
          "indexed": false,
          "internalType": "address",
          "name": "seller",
          "type": "address"
        },
        {
          "indexed": false,
          "internalType": "uint256",
          "name": "price",
          "type": "uint256"
        },
        {
          "indexed": false,
          "internalType": "bool",
          "name": "currentlyListed",
          "type": "bool"
        }
      ],
      "name": "EventTokenListedSuccess",
      "type": "event"
    },
    {
      "anonymous": false,
      "inputs": [
        {
          "indexed": true,
          "internalType": "uint256",
          "name": "tokenId",
          "type": "uint256"
        },
        {
          "indexed": false,
          "internalType": "address",
          "name": "ownerFrom",
          "type": "address"
        },
        {
          "indexed": false,
          "internalType": "address",
          "name": "ownerTo",
          "type": "address"
        },
        {
          "indexed": false,
          "internalType": "address",
          "name": "sellerFrom",
          "type": "address"
        },
        {
          "indexed": false,
          "internalType": "address",
          "name": "sellerTo",
          "type": "address"
        },
        {
          "indexed": false,
          "internalType": "uint256",
          "name": "price",
          "type": "uint256"
        },
        {
          "indexed": false,
          "internalType": "string",
          "name": "transactionType",
          "type": "string"
        }
      ],
      "name": "EventTokenTransaction",
      "type": "event"
    },
    {
      "anonymous": false,
      "inputs": [
        {
          "indexed": false,
          "internalType": "uint256",
          "name": "price",
          "type": "uint256"
        }
      ],
      "name": "EventUpdateListPrice",
      "type": "event"
    },
    {
      "anonymous": false,
      "inputs": [
        {
          "indexed": false,
          "internalType": "uint256",
          "name": "_tokenId",
          "type": "uint256"
        }
      ],
      "name": "MetadataUpdate",
      "type": "event"
    },
    {
      "anonymous": false,
      "inputs": [
        {
          "indexed": true,
          "internalType": "address",
          "name": "from",
          "type": "address"
        },
        {
          "indexed": true,
          "internalType": "address",
          "name": "to",
          "type": "address"
        },
        {
          "indexed": true,
          "internalType": "uint256",
          "name": "tokenId",
          "type": "uint256"
        }
      ],
      "name": "Transfer",
      "type": "event"
    },
    {
      "inputs": [],
      "name": "LTYAccountContract",
      "outputs": [
        {
          "internalType": "contract LTYAccount",
          "name": "",
          "type": "address"
        }
      ],
      "stateMutability": "view",
      "type": "function",
      "constant": true
    },
    {
      "inputs": [
        {
          "internalType": "address",
          "name": "to",
          "type": "address"
        },
        {
          "internalType": "uint256",
          "name": "tokenId",
          "type": "uint256"
        }
      ],
      "name": "approve",
      "outputs": [],
      "stateMutability": "nonpayable",
      "type": "function"
    },
    {
      "inputs": [
        {
          "internalType": "address",
          "name": "owner",
          "type": "address"
        }
      ],
      "name": "balanceOf",
      "outputs": [
        {
          "internalType": "uint256",
          "name": "",
          "type": "uint256"
        }
      ],
      "stateMutability": "view",
      "type": "function",
      "constant": true
    },
    {
      "inputs": [
        {
          "internalType": "uint256",
          "name": "tokenId",
          "type": "uint256"
        }
      ],
      "name": "getApproved",
      "outputs": [
        {
          "internalType": "address",
          "name": "",
          "type": "address"
        }
      ],
      "stateMutability": "view",
      "type": "function",
      "constant": true
    },
    {
      "inputs": [
        {
          "internalType": "uint256",
          "name": "",
          "type": "uint256"
        }
      ],
      "name": "idToListedToken",
      "outputs": [
        {
          "internalType": "uint256",
          "name": "tokenId",
          "type": "uint256"
        },
        {
          "internalType": "uint256",
          "name": "brandId",
          "type": "uint256"
        },
        {
          "internalType": "address payable",
          "name": "owner",
          "type": "address"
        },
        {
          "internalType": "address payable",
          "name": "seller",
          "type": "address"
        },
        {
          "internalType": "uint256",
          "name": "price",
          "type": "uint256"
        },
        {
          "internalType": "bool",
          "name": "currentlyListed",
          "type": "bool"
        }
      ],
      "stateMutability": "view",
      "type": "function",
      "constant": true
    },
    {
      "inputs": [
        {
          "internalType": "address",
          "name": "owner",
          "type": "address"
        },
        {
          "internalType": "address",
          "name": "operator",
          "type": "address"
        }
      ],
      "name": "isApprovedForAll",
      "outputs": [
        {
          "internalType": "bool",
          "name": "",
          "type": "bool"
        }
      ],
      "stateMutability": "view",
      "type": "function",
      "constant": true
    },
    {
      "inputs": [],
      "name": "listPrice",
      "outputs": [
        {
          "internalType": "uint256",
          "name": "",
          "type": "uint256"
        }
      ],
      "stateMutability": "view",
      "type": "function",
      "constant": true
    },
    {
      "inputs": [],
      "name": "name",
      "outputs": [
        {
          "internalType": "string",
          "name": "",
          "type": "string"
        }
      ],
      "stateMutability": "view",
      "type": "function",
      "constant": true
    },
    {
      "inputs": [],
      "name": "owner",
      "outputs": [
        {
          "internalType": "address payable",
          "name": "",
          "type": "address"
        }
      ],
      "stateMutability": "view",
      "type": "function",
      "constant": true
    },
    {
      "inputs": [
        {
          "internalType": "uint256",
          "name": "tokenId",
          "type": "uint256"
        }
      ],
      "name": "ownerOf",
      "outputs": [
        {
          "internalType": "address",
          "name": "",
          "type": "address"
        }
      ],
      "stateMutability": "view",
      "type": "function",
      "constant": true
    },
    {
      "inputs": [
        {
          "internalType": "address",
          "name": "from",
          "type": "address"
        },
        {
          "internalType": "address",
          "name": "to",
          "type": "address"
        },
        {
          "internalType": "uint256",
          "name": "tokenId",
          "type": "uint256"
        }
      ],
      "name": "safeTransferFrom",
      "outputs": [],
      "stateMutability": "nonpayable",
      "type": "function"
    },
    {
      "inputs": [
        {
          "internalType": "address",
          "name": "from",
          "type": "address"
        },
        {
          "internalType": "address",
          "name": "to",
          "type": "address"
        },
        {
          "internalType": "uint256",
          "name": "tokenId",
          "type": "uint256"
        },
        {
          "internalType": "bytes",
          "name": "data",
          "type": "bytes"
        }
      ],
      "name": "safeTransferFrom",
      "outputs": [],
      "stateMutability": "nonpayable",
      "type": "function"
    },
    {
      "inputs": [
        {
          "internalType": "address",
          "name": "operator",
          "type": "address"
        },
        {
          "internalType": "bool",
          "name": "approved",
          "type": "bool"
        }
      ],
      "name": "setApprovalForAll",
      "outputs": [],
      "stateMutability": "nonpayable",
      "type": "function"
    },
    {
      "inputs": [
        {
          "internalType": "bytes4",
          "name": "interfaceId",
          "type": "bytes4"
        }
      ],
      "name": "supportsInterface",
      "outputs": [
        {
          "internalType": "bool",
          "name": "",
          "type": "bool"
        }
      ],
      "stateMutability": "view",
      "type": "function",
      "constant": true
    },
    {
      "inputs": [],
      "name": "symbol",
      "outputs": [
        {
          "internalType": "string",
          "name": "",
          "type": "string"
        }
      ],
      "stateMutability": "view",
      "type": "function",
      "constant": true
    },
    {
      "inputs": [
        {
          "internalType": "uint256",
          "name": "tokenId",
          "type": "uint256"
        }
      ],
      "name": "tokenURI",
      "outputs": [
        {
          "internalType": "string",
          "name": "",
          "type": "string"
        }
      ],
      "stateMutability": "view",
      "type": "function",
      "constant": true
    },
    {
      "inputs": [
        {
          "internalType": "address",
          "name": "from",
          "type": "address"
        },
        {
          "internalType": "address",
          "name": "to",
          "type": "address"
        },
        {
          "internalType": "uint256",
          "name": "tokenId",
          "type": "uint256"
        }
      ],
      "name": "transferFrom",
      "outputs": [],
      "stateMutability": "nonpayable",
      "type": "function"
    },
    {
      "inputs": [
        {
          "internalType": "uint256",
          "name": "_listPrice",
          "type": "uint256"
        }
      ],
      "name": "updateListPrice",
      "outputs": [],
      "stateMutability": "payable",
      "type": "function",
      "payable": true
    },
    {
      "inputs": [
        {
          "internalType": "uint256",
          "name": "_tokenId",
          "type": "uint256"
        }
      ],
      "name": "getListedTokenForId",
      "outputs": [
        {
          "components": [
            {
              "internalType": "uint256",
              "name": "tokenId",
              "type": "uint256"
            },
            {
              "internalType": "uint256",
              "name": "brandId",
              "type": "uint256"
            },
            {
              "internalType": "address payable",
              "name": "owner",
              "type": "address"
            },
            {
              "internalType": "address payable",
              "name": "seller",
              "type": "address"
            },
            {
              "internalType": "uint256",
              "name": "price",
              "type": "uint256"
            },
            {
              "internalType": "bool",
              "name": "currentlyListed",
              "type": "bool"
            }
          ],
          "internalType": "struct LTYMarketplace.ListedToken",
          "name": "",
          "type": "tuple"
        }
      ],
      "stateMutability": "view",
      "type": "function",
      "constant": true
    },
    {
      "inputs": [],
      "name": "getCurrentToken",
      "outputs": [
        {
          "internalType": "uint256",
          "name": "",
          "type": "uint256"
        }
      ],
      "stateMutability": "view",
      "type": "function",
      "constant": true
    },
    {
      "inputs": [
        {
          "internalType": "string",
          "name": "_tokenURI",
          "type": "string"
        },
        {
          "internalType": "uint256",
          "name": "_price",
          "type": "uint256"
        }
      ],
      "name": "createTokenToMarketplace",
      "outputs": [
        {
          "internalType": "uint256",
          "name": "",
          "type": "uint256"
        }
      ],
      "stateMutability": "payable",
      "type": "function",
      "payable": true
    },
    {
      "inputs": [
        {
          "internalType": "string",
          "name": "_tokenURI",
          "type": "string"
        },
        {
          "internalType": "address",
          "name": "_addr",
          "type": "address"
        }
      ],
      "name": "createTokenToAddress",
      "outputs": [
        {
          "internalType": "uint256",
          "name": "",
          "type": "uint256"
        }
      ],
      "stateMutability": "payable",
      "type": "function",
      "payable": true
    },
    {
      "inputs": [],
      "name": "getListPrice",
      "outputs": [
        {
          "internalType": "uint256",
          "name": "",
          "type": "uint256"
        }
      ],
      "stateMutability": "view",
      "type": "function",
      "constant": true
    },
    {
      "inputs": [],
      "name": "getMyNFTs",
      "outputs": [
        {
          "components": [
            {
              "internalType": "uint256",
              "name": "tokenId",
              "type": "uint256"
            },
            {
              "internalType": "uint256",
              "name": "brandId",
              "type": "uint256"
            },
            {
              "internalType": "address payable",
              "name": "owner",
              "type": "address"
            },
            {
              "internalType": "address payable",
              "name": "seller",
              "type": "address"
            },
            {
              "internalType": "uint256",
              "name": "price",
              "type": "uint256"
            },
            {
              "internalType": "bool",
              "name": "currentlyListed",
              "type": "bool"
            }
          ],
          "internalType": "struct LTYMarketplace.ListedToken[]",
          "name": "",
          "type": "tuple[]"
        }
      ],
      "stateMutability": "view",
      "type": "function",
      "constant": true
    },
    {
      "inputs": [
        {
          "internalType": "uint256",
          "name": "_idBrand",
          "type": "uint256"
        }
      ],
      "name": "getNFTsByBrand",
      "outputs": [
        {
          "components": [
            {
              "internalType": "uint256",
              "name": "tokenId",
              "type": "uint256"
            },
            {
              "internalType": "uint256",
              "name": "brandId",
              "type": "uint256"
            },
            {
              "internalType": "address payable",
              "name": "owner",
              "type": "address"
            },
            {
              "internalType": "address payable",
              "name": "seller",
              "type": "address"
            },
            {
              "internalType": "uint256",
              "name": "price",
              "type": "uint256"
            },
            {
              "internalType": "bool",
              "name": "currentlyListed",
              "type": "bool"
            }
          ],
          "internalType": "struct LTYMarketplace.ListedToken[]",
          "name": "",
          "type": "tuple[]"
        }
      ],
      "stateMutability": "view",
      "type": "function",
      "constant": true
    },
    {
      "inputs": [
        {
          "internalType": "uint256",
          "name": "_idToken",
          "type": "uint256"
        }
      ],
      "name": "removeTokenFromMarket",
      "outputs": [],
      "stateMutability": "nonpayable",
      "type": "function"
    },
    {
      "inputs": [
        {
          "internalType": "uint256",
          "name": "_tokenId",
          "type": "uint256"
        }
      ],
      "name": "executeSale",
      "outputs": [],
      "stateMutability": "payable",
      "type": "function",
      "payable": true
    },
    {
      "inputs": [
        {
          "internalType": "uint256",
          "name": "_idToken",
          "type": "uint256"
        },
        {
          "internalType": "uint256",
          "name": "_price",
          "type": "uint256"
        }
      ],
      "name": "addTokenToSaleOnTheMarket",
      "outputs": [],
      "stateMutability": "nonpayable",
      "type": "function"
    }
  ],
  "bytecode": "0x6080604052662386f26fc10000600c553480156200001c57600080fd5b5060405162005cab38038062005cab8339818101604052810190620000429190620001c7565b6040518060400160405280600c81526020017f4c6f79616c7479436861696e00000000000000000000000000000000000000008152506040518060400160405280600381526020017f4c545900000000000000000000000000000000000000000000000000000000008152508160009081620000bf919062000473565b508060019081620000d1919062000473565b50505033600b60006101000a81548173ffffffffffffffffffffffffffffffffffffffff021916908373ffffffffffffffffffffffffffffffffffffffff16021790555080600760006101000a81548173ffffffffffffffffffffffffffffffffffffffff021916908373ffffffffffffffffffffffffffffffffffffffff160217905550506200055a565b600080fd5b600073ffffffffffffffffffffffffffffffffffffffff82169050919050565b60006200018f8262000162565b9050919050565b620001a18162000182565b8114620001ad57600080fd5b50565b600081519050620001c18162000196565b92915050565b600060208284031215620001e057620001df6200015d565b5b6000620001f084828501620001b0565b91505092915050565b600081519050919050565b7f4e487b7100000000000000000000000000000000000000000000000000000000600052604160045260246000fd5b7f4e487b7100000000000000000000000000000000000000000000000000000000600052602260045260246000fd5b600060028204905060018216806200027b57607f821691505b60208210810362000291576200029062000233565b5b50919050565b60008190508160005260206000209050919050565b60006020601f8301049050919050565b600082821b905092915050565b600060088302620002fb7fffffffffffffffffffffffffffffffffffffffffffffffffffffffffffffffff82620002bc565b620003078683620002bc565b95508019841693508086168417925050509392505050565b6000819050919050565b6000819050919050565b6000620003546200034e62000348846200031f565b62000329565b6200031f565b9050919050565b6000819050919050565b620003708362000333565b620003886200037f826200035b565b848454620002c9565b825550505050565b600090565b6200039f62000390565b620003ac81848462000365565b505050565b5b81811015620003d457620003c860008262000395565b600181019050620003b2565b5050565b601f8211156200042357620003ed8162000297565b620003f884620002ac565b8101602085101562000408578190505b620004206200041785620002ac565b830182620003b1565b50505b505050565b600082821c905092915050565b6000620004486000198460080262000428565b1980831691505092915050565b600062000463838362000435565b9150826002028217905092915050565b6200047e82620001f9565b67ffffffffffffffff8111156200049a576200049962000204565b5b620004a6825462000262565b620004b3828285620003d8565b600060209050601f831160018114620004eb5760008415620004d6578287015190505b620004e2858262000455565b86555062000552565b601f198416620004fb8662000297565b60005b828110156200052557848901518255600182019150602085019450602081019050620004fe565b8683101562000545578489015162000541601f89168262000435565b8355505b6001600288020188555050505b505050505050565b615741806200056a6000396000f3fe6080604052600436106101b75760003560e01c80638e264590116100ec578063c322579c1161008a578063e57a497a11610064578063e57a497a14610620578063e8f48c3d14610662578063e985e9c51461068d578063ef2d1746146106ca576101b7565b8063c322579c14610597578063c4b2f10b146105b3578063c87b56dd146105e3576101b7565b80639d1b7f40116100c65780639d1b7f40146104ec5780639df8b2521461051c578063a22cb46514610545578063b88d4fde1461056e576101b7565b80638e2645901461046857806395d89b41146104a55780639b1225c4146104d0576101b7565b8063506157851161015957806368f1945f1161013357806368f1945f146103aa5780636eb588d9146103d557806370a08231146104005780638da5cb5b1461043d576101b7565b80635061578514610305578063629cb2e4146103425780636352211e1461036d576101b7565b8063095ea7b311610195578063095ea7b31461026157806323b872dd1461028a5780632a62b477146102b357806342842e0e146102dc576101b7565b806301ffc9a7146101bc57806306fdde03146101f9578063081812fc14610224575b600080fd5b3480156101c857600080fd5b506101e360048036038101906101de919061380b565b6106f5565b6040516101f09190613853565b60405180910390f35b34801561020557600080fd5b5061020e610756565b60405161021b91906138fe565b60405180910390f35b34801561023057600080fd5b5061024b60048036038101906102469190613956565b6107e8565b60405161025891906139c4565b60405180910390f35b34801561026d57600080fd5b5061028860048036038101906102839190613a0b565b61082e565b005b34801561029657600080fd5b506102b160048036038101906102ac9190613a4b565b610945565b005b3480156102bf57600080fd5b506102da60048036038101906102d59190613a9e565b6109a5565b005b3480156102e857600080fd5b5061030360048036038101906102fe9190613a4b565b610c28565b005b34801561031157600080fd5b5061032c60048036038101906103279190613956565b610c48565b6040516103399190613c47565b60405180910390f35b34801561034e57600080fd5b50610357610f1a565b6040516103649190613c47565b60405180910390f35b34801561037957600080fd5b50610394600480360381019061038f9190613956565b611302565b6040516103a191906139c4565b60405180910390f35b3480156103b657600080fd5b506103bf611388565b6040516103cc9190613c78565b60405180910390f35b3480156103e157600080fd5b506103ea611392565b6040516103f79190613c78565b60405180910390f35b34801561040c57600080fd5b5061042760048036038101906104229190613c93565b611398565b6040516104349190613c78565b60405180910390f35b34801561044957600080fd5b5061045261144f565b60405161045f9190613ccf565b60405180910390f35b34801561047457600080fd5b5061048f600480360381019061048a9190613956565b611475565b60405161049c9190613d65565b60405180910390f35b3480156104b157600080fd5b506104ba611587565b6040516104c791906138fe565b60405180910390f35b6104ea60048036038101906104e59190613956565b611619565b005b61050660048036038101906105019190613eb5565b6118a0565b6040516105139190613c78565b60405180910390f35b34801561052857600080fd5b50610543600480360381019061053e9190613956565b611a05565b005b34801561055157600080fd5b5061056c60048036038101906105679190613f3d565b611c58565b005b34801561057a57600080fd5b506105956004803603810190610590919061401e565b611c6e565b005b6105b160048036038101906105ac9190613956565b611cd0565b005b6105cd60048036038101906105c891906140a1565b611da1565b6040516105da9190613c78565b60405180910390f35b3480156105ef57600080fd5b5061060a60048036038101906106059190613956565b611f06565b60405161061791906138fe565b60405180910390f35b34801561062c57600080fd5b5061064760048036038101906106429190613956565b612018565b604051610659969594939291906140fd565b60405180910390f35b34801561066e57600080fd5b506106776120a1565b60405161068491906141bd565b60405180910390f35b34801561069957600080fd5b506106b460048036038101906106af91906141d8565b6120c7565b6040516106c19190613853565b60405180910390f35b3480156106d657600080fd5b506106df61215b565b6040516106ec9190613c78565b60405180910390f35b6000634906490660e01b7bffffffffffffffffffffffffffffffffffffffffffffffffffffffff1916827bffffffffffffffffffffffffffffffffffffffffffffffffffffffff1916148061074f575061074e8261216c565b5b9050919050565b60606000805461076590614247565b80601f016020809104026020016040519081016040528092919081815260200182805461079190614247565b80156107de5780601f106107b3576101008083540402835291602001916107de565b820191906000526020600020905b8154815290600101906020018083116107c157829003601f168201915b5050505050905090565b60006107f38261224e565b6004600083815260200190815260200160002060009054906101000a900473ffffffffffffffffffffffffffffffffffffffff169050919050565b600061083982611302565b90508073ffffffffffffffffffffffffffffffffffffffff168373ffffffffffffffffffffffffffffffffffffffff16036108a9576040517f08c379a00000000000000000000000000000000000000000000000000000000081526004016108a0906142ea565b60405180910390fd5b8073ffffffffffffffffffffffffffffffffffffffff166108c8612299565b73ffffffffffffffffffffffffffffffffffffffff1614806108f757506108f6816108f1612299565b6120c7565b5b610936576040517f08c379a000000000000000000000000000000000000000000000000000000000815260040161092d9061437c565b60405180910390fd5b61094083836122a1565b505050565b610956610950612299565b8261235a565b610995576040517f08c379a000000000000000000000000000000000000000000000000000000000815260040161098c9061440e565b60405180910390fd5b6109a08383836123ef565b505050565b6109ae826126e8565b6109ed576040517f08c379a00000000000000000000000000000000000000000000000000000000081526004016109e49061447a565b60405180910390fd5b3373ffffffffffffffffffffffffffffffffffffffff16610a0d83611302565b73ffffffffffffffffffffffffffffffffffffffff1614610a63576040517f08c379a0000000000000000000000000000000000000000000000000000000008152600401610a5a9061450c565b60405180910390fd5b60008111610aa6576040517f08c379a0000000000000000000000000000000000000000000000000000000008152600401610a9d90614578565b60405180910390fd5b80600d6000848152602001908152602001600020600401819055506001600d600084815260200190815260200160002060050160006101000a81548160ff02191690831515021790555033600d600084815260200190815260200160002060030160006101000a81548173ffffffffffffffffffffffffffffffffffffffff021916908373ffffffffffffffffffffffffffffffffffffffff16021790555030600d600084815260200190815260200160002060020160006101000a81548173ffffffffffffffffffffffffffffffffffffffff021916908373ffffffffffffffffffffffffffffffffffffffff160217905550610ba53330846123ef565b817f231c208b7b1769d9c4323b37c99fd1115e1e0651124347c214424dae3204c3723330333386604051610bdd9594939291906145e4565b60405180910390a2817fdada05a1f900236fecce70d9c27fe4dd10a4089072be9b164d20a133cfe9d7b23033846001604051610c1c949392919061464a565b60405180910390a25050565b610c4383838360405180602001604052806000815250611c6e565b505050565b60606000610c566008612729565b905060008060005b83811015610ceb5785600d6000600184610c7891906146be565b815260200190815260200160002060010154148015610cc35750600d6000600183610ca391906146be565b815260200190815260200160002060050160009054906101000a900460ff165b15610cd857600183610cd591906146be565b92505b8080610ce3906146f2565b915050610c5e565b5060008267ffffffffffffffff811115610d0857610d07613d8a565b5b604051908082528060200260200182016040528015610d4157816020015b610d2e61373b565b815260200190600190039081610d265790505b50905060005b84811015610f0d5786600d6000600184610d6191906146be565b815260200190815260200160002060010154148015610dac5750600d6000600183610d8c91906146be565b815260200190815260200160002060050160009054906101000a900460ff165b15610efa576000600182610dc091906146be565b90506000600d60008381526020019081526020016000209050806040518060c001604052908160008201548152602001600182015481526020016002820160009054906101000a900473ffffffffffffffffffffffffffffffffffffffff1673ffffffffffffffffffffffffffffffffffffffff1673ffffffffffffffffffffffffffffffffffffffff1681526020016003820160009054906101000a900473ffffffffffffffffffffffffffffffffffffffff1673ffffffffffffffffffffffffffffffffffffffff1673ffffffffffffffffffffffffffffffffffffffff168152602001600482015481526020016005820160009054906101000a900460ff161515151581525050848681518110610edd57610edc61473a565b5b6020026020010181905250600185610ef591906146be565b945050505b8080610f05906146f2565b915050610d47565b5080945050505050919050565b60606000610f286008612729565b905060008060005b83811015611049573373ffffffffffffffffffffffffffffffffffffffff16600d6000600184610f6091906146be565b815260200190815260200160002060020160009054906101000a900473ffffffffffffffffffffffffffffffffffffffff1673ffffffffffffffffffffffffffffffffffffffff16148061102157503373ffffffffffffffffffffffffffffffffffffffff16600d6000600184610fd791906146be565b815260200190815260200160002060030160009054906101000a900473ffffffffffffffffffffffffffffffffffffffff1673ffffffffffffffffffffffffffffffffffffffff16145b156110365760018361103391906146be565b92505b8080611041906146f2565b915050610f30565b5060008267ffffffffffffffff81111561106657611065613d8a565b5b60405190808252806020026020018201604052801561109f57816020015b61108c61373b565b8152602001906001900390816110845790505b50905060005b848110156112f7573373ffffffffffffffffffffffffffffffffffffffff16600d60006001846110d591906146be565b815260200190815260200160002060020160009054906101000a900473ffffffffffffffffffffffffffffffffffffffff1673ffffffffffffffffffffffffffffffffffffffff16148061119657503373ffffffffffffffffffffffffffffffffffffffff16600d600060018461114c91906146be565b815260200190815260200160002060030160009054906101000a900473ffffffffffffffffffffffffffffffffffffffff1673ffffffffffffffffffffffffffffffffffffffff16145b156112e45760006001826111aa91906146be565b90506000600d60008381526020019081526020016000209050806040518060c001604052908160008201548152602001600182015481526020016002820160009054906101000a900473ffffffffffffffffffffffffffffffffffffffff1673ffffffffffffffffffffffffffffffffffffffff1673ffffffffffffffffffffffffffffffffffffffff1681526020016003820160009054906101000a900473ffffffffffffffffffffffffffffffffffffffff1673ffffffffffffffffffffffffffffffffffffffff1673ffffffffffffffffffffffffffffffffffffffff168152602001600482015481526020016005820160009054906101000a900460ff1615151515815250508486815181106112c7576112c661473a565b5b60200260200101819052506001856112df91906146be565b945050505b80806112ef906146f2565b9150506110a5565b508094505050505090565b60008061130e83612737565b9050600073ffffffffffffffffffffffffffffffffffffffff168173ffffffffffffffffffffffffffffffffffffffff160361137f576040517f08c379a0000000000000000000000000000000000000000000000000000000008152600401611376906147b5565b60405180910390fd5b80915050919050565b6000600c54905090565b600c5481565b60008073ffffffffffffffffffffffffffffffffffffffff168273ffffffffffffffffffffffffffffffffffffffff1603611408576040517f08c379a00000000000000000000000000000000000000000000000000000000081526004016113ff90614847565b60405180910390fd5b600360008373ffffffffffffffffffffffffffffffffffffffff1673ffffffffffffffffffffffffffffffffffffffff168152602001908152602001600020549050919050565b600b60009054906101000a900473ffffffffffffffffffffffffffffffffffffffff1681565b61147d61373b565b600d60008381526020019081526020016000206040518060c001604052908160008201548152602001600182015481526020016002820160009054906101000a900473ffffffffffffffffffffffffffffffffffffffff1673ffffffffffffffffffffffffffffffffffffffff1673ffffffffffffffffffffffffffffffffffffffff1681526020016003820160009054906101000a900473ffffffffffffffffffffffffffffffffffffffff1673ffffffffffffffffffffffffffffffffffffffff1673ffffffffffffffffffffffffffffffffffffffff168152602001600482015481526020016005820160009054906101000a900460ff1615151515815250509050919050565b60606001805461159690614247565b80601f01602080910402602001604051908101604052809291908181526020018280546115c290614247565b801561160f5780601f106115e45761010080835404028352916020019161160f565b820191906000526020600020905b8154815290600101906020018083116115f257829003601f168201915b5050505050905090565b6000600d60008381526020019081526020016000206004015490506000600d600084815260200190815260200160002060030160009054906101000a900473ffffffffffffffffffffffffffffffffffffffff1690508134146116b1576040517f08c379a00000000000000000000000000000000000000000000000000000000081526004016116a8906148d9565b60405180910390fd5b6000600d600085815260200190815260200160002060050160006101000a81548160ff02191690831515021790555033600d600085815260200190815260200160002060020160006101000a81548173ffffffffffffffffffffffffffffffffffffffff021916908373ffffffffffffffffffffffffffffffffffffffff16021790555033600d600085815260200190815260200160002060030160006101000a81548173ffffffffffffffffffffffffffffffffffffffff021916908373ffffffffffffffffffffffffffffffffffffffff1602179055506117946009612774565b61179f3033856123ef565b6117a9308461082e565b600b60009054906101000a900473ffffffffffffffffffffffffffffffffffffffff1673ffffffffffffffffffffffffffffffffffffffff166108fc600c549081150290604051600060405180830381858888f19350505050158015611813573d6000803e3d6000fd5b508073ffffffffffffffffffffffffffffffffffffffff166108fc349081150290604051600060405180830381858888f1935050505015801561185a573d6000803e3d6000fd5b50827f231c208b7b1769d9c4323b37c99fd1115e1e0651124347c214424dae3204c3723033843387604051611893959493929190614945565b60405180910390a2505050565b600060011515600760009054906101000a900473ffffffffffffffffffffffffffffffffffffffff1673ffffffffffffffffffffffffffffffffffffffff1663107781fd336040518263ffffffff1660e01b815260040161190191906139c4565b602060405180830381865afa15801561191e573d6000803e3d6000fd5b505050506040513d601f19601f8201168201806040525081019061194291906149c0565b151514611984576040517f08c379a000000000000000000000000000000000000000000000000000000000815260040161197b90614a5f565b60405180910390fd5b61198e6008612774565b600061199a6008612729565b90506119a6338261278a565b6119b081856127a8565b807f231c208b7b1769d9c4323b37c99fd1115e1e0651124347c214424dae3204c3723333333360006040516119e9959493929190614b06565b60405180910390a26119fb818461284c565b8091505092915050565b611a0e816126e8565b611a4d576040517f08c379a0000000000000000000000000000000000000000000000000000000008152600401611a449061447a565b60405180910390fd5b600d600082815260200190815260200160002060030160009054906101000a900473ffffffffffffffffffffffffffffffffffffffff1673ffffffffffffffffffffffffffffffffffffffff163373ffffffffffffffffffffffffffffffffffffffff1614611af1576040517f08c379a0000000000000000000000000000000000000000000000000000000008152600401611ae890614bde565b60405180910390fd5b33600d600083815260200190815260200160002060020160006101000a81548173ffffffffffffffffffffffffffffffffffffffff021916908373ffffffffffffffffffffffffffffffffffffffff16021790555033600d600083815260200190815260200160002060030160006101000a81548173ffffffffffffffffffffffffffffffffffffffff021916908373ffffffffffffffffffffffffffffffffffffffff1602179055506000600d600083815260200190815260200160002060050160006101000a81548160ff021916908315150217905550611bd53033836123ef565b807f231c208b7b1769d9c4323b37c99fd1115e1e0651124347c214424dae3204c372303333336000604051611c0e959493929190614c4a565b60405180910390a2807fdada05a1f900236fecce70d9c27fe4dd10a4089072be9b164d20a133cfe9d7b23333600080604051611c4d9493929190614cb0565b60405180910390a250565b611c6a611c63612299565b8383612ab5565b5050565b611c7f611c79612299565b8361235a565b611cbe576040517f08c379a0000000000000000000000000000000000000000000000000000000008152600401611cb59061440e565b60405180910390fd5b611cca84848484612c21565b50505050565b3373ffffffffffffffffffffffffffffffffffffffff16600b60009054906101000a900473ffffffffffffffffffffffffffffffffffffffff1673ffffffffffffffffffffffffffffffffffffffff1614611d60576040517f08c379a0000000000000000000000000000000000000000000000000000000008152600401611d5790614d67565b60405180910390fd5b80600c819055507f7754986478703638ef214ea6058ac9abbe6ec21fc01b567fb085946e9f7186fb81604051611d969190613c78565b60405180910390a150565b600060011515600760009054906101000a900473ffffffffffffffffffffffffffffffffffffffff1673ffffffffffffffffffffffffffffffffffffffff1663107781fd336040518263ffffffff1660e01b8152600401611e0291906139c4565b602060405180830381865afa158015611e1f573d6000803e3d6000fd5b505050506040513d601f19601f82011682018060405250810190611e4391906149c0565b151514611e85576040517f08c379a0000000000000000000000000000000000000000000000000000000008152600401611e7c90614a5f565b60405180910390fd5b611e8f6008612774565b6000611e9b6008612729565b9050611ea7338261278a565b611eb181856127a8565b807f231c208b7b1769d9c4323b37c99fd1115e1e0651124347c214424dae3204c372333333336000604051611eea959493929190614b06565b60405180910390a2611efc8184612c7d565b8091505092915050565b6060611f118261224e565b6000600660008481526020019081526020016000208054611f3190614247565b80601f0160208091040260200160405190810160405280929190818152602001828054611f5d90614247565b8015611faa5780601f10611f7f57610100808354040283529160200191611faa565b820191906000526020600020905b815481529060010190602001808311611f8d57829003601f168201915b505050505090506000611fbb613003565b90506000815103611fd0578192505050612013565b600082511115612005578082604051602001611fed929190614dc3565b60405160208183030381529060405292505050612013565b61200e8461301a565b925050505b919050565b600d6020528060005260406000206000915090508060000154908060010154908060020160009054906101000a900473ffffffffffffffffffffffffffffffffffffffff16908060030160009054906101000a900473ffffffffffffffffffffffffffffffffffffffff16908060040154908060050160009054906101000a900460ff16905086565b600760009054906101000a900473ffffffffffffffffffffffffffffffffffffffff1681565b6000600560008473ffffffffffffffffffffffffffffffffffffffff1673ffffffffffffffffffffffffffffffffffffffff16815260200190815260200160002060008373ffffffffffffffffffffffffffffffffffffffff1673ffffffffffffffffffffffffffffffffffffffff16815260200190815260200160002060009054906101000a900460ff16905092915050565b60006121676008612729565b905090565b60007f80ac58cd000000000000000000000000000000000000000000000000000000007bffffffffffffffffffffffffffffffffffffffffffffffffffffffff1916827bffffffffffffffffffffffffffffffffffffffffffffffffffffffff1916148061223757507f5b5e139f000000000000000000000000000000000000000000000000000000007bffffffffffffffffffffffffffffffffffffffffffffffffffffffff1916827bffffffffffffffffffffffffffffffffffffffffffffffffffffffff1916145b80612247575061224682613082565b5b9050919050565b612257816126e8565b612296576040517f08c379a000000000000000000000000000000000000000000000000000000000815260040161228d906147b5565b60405180910390fd5b50565b600033905090565b816004600083815260200190815260200160002060006101000a81548173ffffffffffffffffffffffffffffffffffffffff021916908373ffffffffffffffffffffffffffffffffffffffff160217905550808273ffffffffffffffffffffffffffffffffffffffff1661231483611302565b73ffffffffffffffffffffffffffffffffffffffff167f8c5be1e5ebec7d5bd14f71427d1e84f3dd0314c0f7b2291e5b200ac8c7c3b92560405160405180910390a45050565b60008061236683611302565b90508073ffffffffffffffffffffffffffffffffffffffff168473ffffffffffffffffffffffffffffffffffffffff1614806123a857506123a781856120c7565b5b806123e657508373ffffffffffffffffffffffffffffffffffffffff166123ce846107e8565b73ffffffffffffffffffffffffffffffffffffffff16145b91505092915050565b8273ffffffffffffffffffffffffffffffffffffffff1661240f82611302565b73ffffffffffffffffffffffffffffffffffffffff1614612465576040517f08c379a000000000000000000000000000000000000000000000000000000000815260040161245c90614e59565b60405180910390fd5b600073ffffffffffffffffffffffffffffffffffffffff168273ffffffffffffffffffffffffffffffffffffffff16036124d4576040517f08c379a00000000000000000000000000000000000000000000000000000000081526004016124cb90614eeb565b60405180910390fd5b6124e183838360016130ec565b8273ffffffffffffffffffffffffffffffffffffffff1661250182611302565b73ffffffffffffffffffffffffffffffffffffffff1614612557576040517f08c379a000000000000000000000000000000000000000000000000000000000815260040161254e90614e59565b60405180910390fd5b6004600082815260200190815260200160002060006101000a81549073ffffffffffffffffffffffffffffffffffffffff02191690556001600360008573ffffffffffffffffffffffffffffffffffffffff1673ffffffffffffffffffffffffffffffffffffffff168152602001908152602001600020600082825403925050819055506001600360008473ffffffffffffffffffffffffffffffffffffffff1673ffffffffffffffffffffffffffffffffffffffff16815260200190815260200160002060008282540192505081905550816002600083815260200190815260200160002060006101000a81548173ffffffffffffffffffffffffffffffffffffffff021916908373ffffffffffffffffffffffffffffffffffffffff160217905550808273ffffffffffffffffffffffffffffffffffffffff168473ffffffffffffffffffffffffffffffffffffffff167fddf252ad1be2c89b69c2b068fc378daa952ba7f163c4a11628f55a4df523b3ef60405160405180910390a46126e383838360016130f2565b505050565b60008073ffffffffffffffffffffffffffffffffffffffff1661270a83612737565b73ffffffffffffffffffffffffffffffffffffffff1614159050919050565b600081600001549050919050565b60006002600083815260200190815260200160002060009054906101000a900473ffffffffffffffffffffffffffffffffffffffff169050919050565b6001816000016000828254019250508190555050565b6127a48282604051806020016040528060008152506130f8565b5050565b6127b1826126e8565b6127f0576040517f08c379a00000000000000000000000000000000000000000000000000000000081526004016127e790614f7d565b60405180910390fd5b80600660008481526020019081526020016000209081612810919061513f565b507ff8e1a15aba9398e019f0b49df1a4fde98ee17ae345cb5f6b5e2c27f5033e8ce7826040516128409190613c78565b60405180910390a15050565b6040518060c00160405280838152602001600760009054906101000a900473ffffffffffffffffffffffffffffffffffffffff1673ffffffffffffffffffffffffffffffffffffffff1663b2a90087336040518263ffffffff1660e01b81526004016128b891906139c4565b602060405180830381865afa1580156128d5573d6000803e3d6000fd5b505050506040513d601f19601f820116820180604052508101906128f99190615226565b81526020018273ffffffffffffffffffffffffffffffffffffffff1681526020018273ffffffffffffffffffffffffffffffffffffffff1681526020016000815260200160001515815250600d6000848152602001908152602001600020600082015181600001556020820151816001015560408201518160020160006101000a81548173ffffffffffffffffffffffffffffffffffffffff021916908373ffffffffffffffffffffffffffffffffffffffff16021790555060608201518160030160006101000a81548173ffffffffffffffffffffffffffffffffffffffff021916908373ffffffffffffffffffffffffffffffffffffffff1602179055506080820151816004015560a08201518160050160006101000a81548160ff021916908315150217905550905050612a313382846123ef565b817f231c208b7b1769d9c4323b37c99fd1115e1e0651124347c214424dae3204c372308330856000604051612a6a95949392919061529f565b60405180910390a2817fdada05a1f900236fecce70d9c27fe4dd10a4089072be9b164d20a133cfe9d7b28283600080604051612aa99493929190614cb0565b60405180910390a25050565b8173ffffffffffffffffffffffffffffffffffffffff168373ffffffffffffffffffffffffffffffffffffffff1603612b23576040517f08c379a0000000000000000000000000000000000000000000000000000000008152600401612b1a90615351565b60405180910390fd5b80600560008573ffffffffffffffffffffffffffffffffffffffff1673ffffffffffffffffffffffffffffffffffffffff16815260200190815260200160002060008473ffffffffffffffffffffffffffffffffffffffff1673ffffffffffffffffffffffffffffffffffffffff16815260200190815260200160002060006101000a81548160ff0219169083151502179055508173ffffffffffffffffffffffffffffffffffffffff168373ffffffffffffffffffffffffffffffffffffffff167f17307eab39ab6107e8899845ad3d59bd9653f200f220920489ca2b5937696c3183604051612c149190613853565b60405180910390a3505050565b612c2c8484846123ef565b612c3884848484613153565b612c77576040517f08c379a0000000000000000000000000000000000000000000000000000000008152600401612c6e906153e3565b60405180910390fd5b50505050565b600760009054906101000a900473ffffffffffffffffffffffffffffffffffffffff1673ffffffffffffffffffffffffffffffffffffffff1663107781fd336040518263ffffffff1660e01b8152600401612cd891906139c4565b602060405180830381865afa158015612cf5573d6000803e3d6000fd5b505050506040513d601f19601f82011682018060405250810190612d1991906149c0565b612d58576040517f08c379a0000000000000000000000000000000000000000000000000000000008152600401612d4f90614a5f565b60405180910390fd5b6000811015612d9c576040517f08c379a0000000000000000000000000000000000000000000000000000000008152600401612d939061544f565b60405180910390fd5b6040518060c00160405280838152602001600760009054906101000a900473ffffffffffffffffffffffffffffffffffffffff1673ffffffffffffffffffffffffffffffffffffffff1663b2a90087336040518263ffffffff1660e01b8152600401612e0891906139c4565b602060405180830381865afa158015612e25573d6000803e3d6000fd5b505050506040513d601f19601f82011682018060405250810190612e499190615226565b81526020013073ffffffffffffffffffffffffffffffffffffffff1681526020013373ffffffffffffffffffffffffffffffffffffffff16815260200182815260200160011515815250600d6000848152602001908152602001600020600082015181600001556020820151816001015560408201518160020160006101000a81548173ffffffffffffffffffffffffffffffffffffffff021916908373ffffffffffffffffffffffffffffffffffffffff16021790555060608201518160030160006101000a81548173ffffffffffffffffffffffffffffffffffffffff021916908373ffffffffffffffffffffffffffffffffffffffff1602179055506080820151816004015560a08201518160050160006101000a81548160ff021916908315150217905550905050612f803330846123ef565b817f231c208b7b1769d9c4323b37c99fd1115e1e0651124347c214424dae3204c3723030333386604051612fb89594939291906154bb565b60405180910390a2817fdada05a1f900236fecce70d9c27fe4dd10a4089072be9b164d20a133cfe9d7b23033846001604051612ff7949392919061464a565b60405180910390a25050565b606060405180602001604052806000815250905090565b60606130258261224e565b600061302f613003565b9050600081511161304f576040518060200160405280600081525061307a565b80613059846132da565b60405160200161306a929190614dc3565b6040516020818303038152906040525b915050919050565b60007f01ffc9a7000000000000000000000000000000000000000000000000000000007bffffffffffffffffffffffffffffffffffffffffffffffffffffffff1916827bffffffffffffffffffffffffffffffffffffffffffffffffffffffff1916149050919050565b50505050565b50505050565b61310283836133a8565b61310f6000848484613153565b61314e576040517f08c379a0000000000000000000000000000000000000000000000000000000008152600401613145906153e3565b60405180910390fd5b505050565b60006131748473ffffffffffffffffffffffffffffffffffffffff166135c5565b156132cd578373ffffffffffffffffffffffffffffffffffffffff1663150b7a0261319d612299565b8786866040518563ffffffff1660e01b81526004016131bf9493929190615576565b6020604051808303816000875af19250505080156131fb57506040513d601f19601f820116820180604052508101906131f891906155d7565b60015b61327d573d806000811461322b576040519150601f19603f3d011682016040523d82523d6000602084013e613230565b606091505b506000815103613275576040517f08c379a000000000000000000000000000000000000000000000000000000000815260040161326c906153e3565b60405180910390fd5b805181602001fd5b63150b7a0260e01b7bffffffffffffffffffffffffffffffffffffffffffffffffffffffff1916817bffffffffffffffffffffffffffffffffffffffffffffffffffffffff1916149150506132d2565b600190505b949350505050565b6060600060016132e9846135e8565b01905060008167ffffffffffffffff81111561330857613307613d8a565b5b6040519080825280601f01601f19166020018201604052801561333a5781602001600182028036833780820191505090505b509050600082602001820190505b60011561339d578080600190039150507f3031323334353637383961626364656600000000000000000000000000000000600a86061a8153600a858161339157613390615604565b5b04945060008503613348575b819350505050919050565b600073ffffffffffffffffffffffffffffffffffffffff168273ffffffffffffffffffffffffffffffffffffffff1603613417576040517f08c379a000000000000000000000000000000000000000000000000000000000815260040161340e9061567f565b60405180910390fd5b613420816126e8565b15613460576040517f08c379a0000000000000000000000000000000000000000000000000000000008152600401613457906156eb565b60405180910390fd5b61346e6000838360016130ec565b613477816126e8565b156134b7576040517f08c379a00000000000000000000000000000000000000000000000000000000081526004016134ae906156eb565b60405180910390fd5b6001600360008473ffffffffffffffffffffffffffffffffffffffff1673ffffffffffffffffffffffffffffffffffffffff16815260200190815260200160002060008282540192505081905550816002600083815260200190815260200160002060006101000a81548173ffffffffffffffffffffffffffffffffffffffff021916908373ffffffffffffffffffffffffffffffffffffffff160217905550808273ffffffffffffffffffffffffffffffffffffffff16600073ffffffffffffffffffffffffffffffffffffffff167fddf252ad1be2c89b69c2b068fc378daa952ba7f163c4a11628f55a4df523b3ef60405160405180910390a46135c16000838360016130f2565b5050565b6000808273ffffffffffffffffffffffffffffffffffffffff163b119050919050565b600080600090507a184f03e93ff9f4daa797ed6e38ed64bf6a1f0100000000000000008310613646577a184f03e93ff9f4daa797ed6e38ed64bf6a1f010000000000000000838161363c5761363b615604565b5b0492506040810190505b6d04ee2d6d415b85acef81000000008310613683576d04ee2d6d415b85acef8100000000838161367957613678615604565b5b0492506020810190505b662386f26fc1000083106136b257662386f26fc1000083816136a8576136a7615604565b5b0492506010810190505b6305f5e10083106136db576305f5e10083816136d1576136d0615604565b5b0492506008810190505b61271083106137005761271083816136f6576136f5615604565b5b0492506004810190505b60648310613723576064838161371957613718615604565b5b0492506002810190505b600a8310613732576001810190505b80915050919050565b6040518060c001604052806000815260200160008152602001600073ffffffffffffffffffffffffffffffffffffffff168152602001600073ffffffffffffffffffffffffffffffffffffffff168152602001600081526020016000151581525090565b6000604051905090565b600080fd5b600080fd5b60007fffffffff0000000000000000000000000000000000000000000000000000000082169050919050565b6137e8816137b3565b81146137f357600080fd5b50565b600081359050613805816137df565b92915050565b600060208284031215613821576138206137a9565b5b600061382f848285016137f6565b91505092915050565b60008115159050919050565b61384d81613838565b82525050565b60006020820190506138686000830184613844565b92915050565b600081519050919050565b600082825260208201905092915050565b60005b838110156138a857808201518184015260208101905061388d565b60008484015250505050565b6000601f19601f8301169050919050565b60006138d08261386e565b6138da8185613879565b93506138ea81856020860161388a565b6138f3816138b4565b840191505092915050565b6000602082019050818103600083015261391881846138c5565b905092915050565b6000819050919050565b61393381613920565b811461393e57600080fd5b50565b6000813590506139508161392a565b92915050565b60006020828403121561396c5761396b6137a9565b5b600061397a84828501613941565b91505092915050565b600073ffffffffffffffffffffffffffffffffffffffff82169050919050565b60006139ae82613983565b9050919050565b6139be816139a3565b82525050565b60006020820190506139d960008301846139b5565b92915050565b6139e8816139a3565b81146139f357600080fd5b50565b600081359050613a05816139df565b92915050565b60008060408385031215613a2257613a216137a9565b5b6000613a30858286016139f6565b9250506020613a4185828601613941565b9150509250929050565b600080600060608486031215613a6457613a636137a9565b5b6000613a72868287016139f6565b9350506020613a83868287016139f6565b9250506040613a9486828701613941565b9150509250925092565b60008060408385031215613ab557613ab46137a9565b5b6000613ac385828601613941565b9250506020613ad485828601613941565b9150509250929050565b600081519050919050565b600082825260208201905092915050565b6000819050602082019050919050565b613b1381613920565b82525050565b6000613b2482613983565b9050919050565b613b3481613b19565b82525050565b613b4381613838565b82525050565b60c082016000820151613b5f6000850182613b0a565b506020820151613b726020850182613b0a565b506040820151613b856040850182613b2b565b506060820151613b986060850182613b2b565b506080820151613bab6080850182613b0a565b5060a0820151613bbe60a0850182613b3a565b50505050565b6000613bd08383613b49565b60c08301905092915050565b6000602082019050919050565b6000613bf482613ade565b613bfe8185613ae9565b9350613c0983613afa565b8060005b83811015613c3a578151613c218882613bc4565b9750613c2c83613bdc565b925050600181019050613c0d565b5085935050505092915050565b60006020820190508181036000830152613c618184613be9565b905092915050565b613c7281613920565b82525050565b6000602082019050613c8d6000830184613c69565b92915050565b600060208284031215613ca957613ca86137a9565b5b6000613cb7848285016139f6565b91505092915050565b613cc981613b19565b82525050565b6000602082019050613ce46000830184613cc0565b92915050565b60c082016000820151613d006000850182613b0a565b506020820151613d136020850182613b0a565b506040820151613d266040850182613b2b565b506060820151613d396060850182613b2b565b506080820151613d4c6080850182613b0a565b5060a0820151613d5f60a0850182613b3a565b50505050565b600060c082019050613d7a6000830184613cea565b92915050565b600080fd5b600080fd5b7f4e487b7100000000000000000000000000000000000000000000000000000000600052604160045260246000fd5b613dc2826138b4565b810181811067ffffffffffffffff82111715613de157613de0613d8a565b5b80604052505050565b6000613df461379f565b9050613e008282613db9565b919050565b600067ffffffffffffffff821115613e2057613e1f613d8a565b5b613e29826138b4565b9050602081019050919050565b82818337600083830152505050565b6000613e58613e5384613e05565b613dea565b905082815260208101848484011115613e7457613e73613d85565b5b613e7f848285613e36565b509392505050565b600082601f830112613e9c57613e9b613d80565b5b8135613eac848260208601613e45565b91505092915050565b60008060408385031215613ecc57613ecb6137a9565b5b600083013567ffffffffffffffff811115613eea57613ee96137ae565b5b613ef685828601613e87565b9250506020613f07858286016139f6565b9150509250929050565b613f1a81613838565b8114613f2557600080fd5b50565b600081359050613f3781613f11565b92915050565b60008060408385031215613f5457613f536137a9565b5b6000613f62858286016139f6565b9250506020613f7385828601613f28565b9150509250929050565b600067ffffffffffffffff821115613f9857613f97613d8a565b5b613fa1826138b4565b9050602081019050919050565b6000613fc1613fbc84613f7d565b613dea565b905082815260208101848484011115613fdd57613fdc613d85565b5b613fe8848285613e36565b509392505050565b600082601f83011261400557614004613d80565b5b8135614015848260208601613fae565b91505092915050565b60008060008060808587031215614038576140376137a9565b5b6000614046878288016139f6565b9450506020614057878288016139f6565b935050604061406887828801613941565b925050606085013567ffffffffffffffff811115614089576140886137ae565b5b61409587828801613ff0565b91505092959194509250565b600080604083850312156140b8576140b76137a9565b5b600083013567ffffffffffffffff8111156140d6576140d56137ae565b5b6140e285828601613e87565b92505060206140f385828601613941565b9150509250929050565b600060c0820190506141126000830189613c69565b61411f6020830188613c69565b61412c6040830187613cc0565b6141396060830186613cc0565b6141466080830185613c69565b61415360a0830184613844565b979650505050505050565b6000819050919050565b600061418361417e61417984613983565b61415e565b613983565b9050919050565b600061419582614168565b9050919050565b60006141a78261418a565b9050919050565b6141b78161419c565b82525050565b60006020820190506141d260008301846141ae565b92915050565b600080604083850312156141ef576141ee6137a9565b5b60006141fd858286016139f6565b925050602061420e858286016139f6565b9150509250929050565b7f4e487b7100000000000000000000000000000000000000000000000000000000600052602260045260246000fd5b6000600282049050600182168061425f57607f821691505b60208210810361427257614271614218565b5b50919050565b7f4552433732313a20617070726f76616c20746f2063757272656e74206f776e6560008201527f7200000000000000000000000000000000000000000000000000000000000000602082015250565b60006142d4602183613879565b91506142df82614278565b604082019050919050565b60006020820190508181036000830152614303816142c7565b9050919050565b7f4552433732313a20617070726f76652063616c6c6572206973206e6f7420746f60008201527f6b656e206f776e6572206f7220617070726f76656420666f7220616c6c000000602082015250565b6000614366603d83613879565b91506143718261430a565b604082019050919050565b6000602082019050818103600083015261439581614359565b9050919050565b7f4552433732313a2063616c6c6572206973206e6f7420746f6b656e206f776e6560008201527f72206f7220617070726f76656400000000000000000000000000000000000000602082015250565b60006143f8602d83613879565b91506144038261439c565b604082019050919050565b60006020820190508181036000830152614427816143eb565b9050919050565b7f496e76616c696420746f6b656e20494400000000000000000000000000000000600082015250565b6000614464601083613879565b915061446f8261442e565b602082019050919050565b6000602082019050818103600083015261449381614457565b9050919050565b7f596f7520617265206e6f7420746865206f776e6572206f66207468697320746f60008201527f6b656e0000000000000000000000000000000000000000000000000000000000602082015250565b60006144f6602383613879565b91506145018261449a565b604082019050919050565b60006020820190508181036000830152614525816144e9565b9050919050565b7f5072696365206d7573742062652067726561746572207468616e207a65726f00600082015250565b6000614562601f83613879565b915061456d8261452c565b602082019050919050565b6000602082019050818103600083015261459181614555565b9050919050565b7f4c697374206f6e204d61726b6574706c61636500000000000000000000000000600082015250565b60006145ce601383613879565b91506145d982614598565b602082019050919050565b600060c0820190506145f960008301886139b5565b61460660208301876139b5565b61461360408301866139b5565b61462060608301856139b5565b61462d6080830184613c69565b81810360a083015261463e816145c1565b90509695505050505050565b600060808201905061465f60008301876139b5565b61466c60208301866139b5565b6146796040830185613c69565b6146866060830184613844565b95945050505050565b7f4e487b7100000000000000000000000000000000000000000000000000000000600052601160045260246000fd5b60006146c982613920565b91506146d483613920565b92508282019050808211156146ec576146eb61468f565b5b92915050565b60006146fd82613920565b91507fffffffffffffffffffffffffffffffffffffffffffffffffffffffffffffffff820361472f5761472e61468f565b5b600182019050919050565b7f4e487b7100000000000000000000000000000000000000000000000000000000600052603260045260246000fd5b7f4552433732313a20696e76616c696420746f6b656e2049440000000000000000600082015250565b600061479f601883613879565b91506147aa82614769565b602082019050919050565b600060208201905081810360008301526147ce81614792565b9050919050565b7f4552433732313a2061646472657373207a65726f206973206e6f74206120766160008201527f6c6964206f776e65720000000000000000000000000000000000000000000000602082015250565b6000614831602983613879565b915061483c826147d5565b604082019050919050565b6000602082019050818103600083015261486081614824565b9050919050565b7f596f75206e65656420746f20736574207468652061736b696e6720707269636560008201527f20696e206f7264657220746f2070757263686173650000000000000000000000602082015250565b60006148c3603583613879565b91506148ce82614867565b604082019050919050565b600060208201905081810360008301526148f2816148b6565b9050919050565b7f427579204e465400000000000000000000000000000000000000000000000000600082015250565b600061492f600783613879565b915061493a826148f9565b602082019050919050565b600060c08201905061495a60008301886139b5565b61496760208301876139b5565b61497460408301866139b5565b61498160608301856139b5565b61498e6080830184613c69565b81810360a083015261499f81614922565b90509695505050505050565b6000815190506149ba81613f11565b92915050565b6000602082840312156149d6576149d56137a9565b5b60006149e4848285016149ab565b91505092915050565b7f596f75206e65656420746f206265206120726567697374726564206272616e6460008201527f20746f206d696e74204e46540000000000000000000000000000000000000000602082015250565b6000614a49602c83613879565b9150614a54826149ed565b604082019050919050565b60006020820190508181036000830152614a7881614a3c565b9050919050565b6000819050919050565b6000614aa4614a9f614a9a84614a7f565b61415e565b613920565b9050919050565b614ab481614a89565b82525050565b7f6d696e7400000000000000000000000000000000000000000000000000000000600082015250565b6000614af0600483613879565b9150614afb82614aba565b602082019050919050565b600060c082019050614b1b60008301886139b5565b614b2860208301876139b5565b614b3560408301866139b5565b614b4260608301856139b5565b614b4f6080830184614aab565b81810360a0830152614b6081614ae3565b90509695505050505050565b7f594f75206e65656420746f206265207468652073656c6c6572206f662074686560008201527f204e465420746f2073656c6c2069740000000000000000000000000000000000602082015250565b6000614bc8602f83613879565b9150614bd382614b6c565b604082019050919050565b60006020820190508181036000830152614bf781614bbb565b9050919050565b7f52656d6f76652066726f6d206d61726b6574706c616365000000000000000000600082015250565b6000614c34601783613879565b9150614c3f82614bfe565b602082019050919050565b600060c082019050614c5f60008301886139b5565b614c6c60208301876139b5565b614c7960408301866139b5565b614c8660608301856139b5565b614c936080830184614aab565b81810360a0830152614ca481614c27565b90509695505050505050565b6000608082019050614cc560008301876139b5565b614cd260208301866139b5565b614cdf6040830185614aab565b614cec6060830184613844565b95945050505050565b7f4f6e6c79206f776e65722063616e20757064617465206c697374696e6720707260008201527f6963650000000000000000000000000000000000000000000000000000000000602082015250565b6000614d51602383613879565b9150614d5c82614cf5565b604082019050919050565b60006020820190508181036000830152614d8081614d44565b9050919050565b600081905092915050565b6000614d9d8261386e565b614da78185614d87565b9350614db781856020860161388a565b80840191505092915050565b6000614dcf8285614d92565b9150614ddb8284614d92565b91508190509392505050565b7f4552433732313a207472616e736665722066726f6d20696e636f72726563742060008201527f6f776e6572000000000000000000000000000000000000000000000000000000602082015250565b6000614e43602583613879565b9150614e4e82614de7565b604082019050919050565b60006020820190508181036000830152614e7281614e36565b9050919050565b7f4552433732313a207472616e7366657220746f20746865207a65726f2061646460008201527f7265737300000000000000000000000000000000000000000000000000000000602082015250565b6000614ed5602483613879565b9150614ee082614e79565b604082019050919050565b60006020820190508181036000830152614f0481614ec8565b9050919050565b7f45524337323155524953746f726167653a2055524920736574206f66206e6f6e60008201527f6578697374656e7420746f6b656e000000000000000000000000000000000000602082015250565b6000614f67602e83613879565b9150614f7282614f0b565b604082019050919050565b60006020820190508181036000830152614f9681614f5a565b9050919050565b60008190508160005260206000209050919050565b60006020601f8301049050919050565b600082821b905092915050565b600060088302614fff7fffffffffffffffffffffffffffffffffffffffffffffffffffffffffffffffff82614fc2565b6150098683614fc2565b95508019841693508086168417925050509392505050565b600061503c61503761503284613920565b61415e565b613920565b9050919050565b6000819050919050565b61505683615021565b61506a61506282615043565b848454614fcf565b825550505050565b600090565b61507f615072565b61508a81848461504d565b505050565b5b818110156150ae576150a3600082615077565b600181019050615090565b5050565b601f8211156150f3576150c481614f9d565b6150cd84614fb2565b810160208510156150dc578190505b6150f06150e885614fb2565b83018261508f565b50505b505050565b600082821c905092915050565b6000615116600019846008026150f8565b1980831691505092915050565b600061512f8383615105565b9150826002028217905092915050565b6151488261386e565b67ffffffffffffffff81111561516157615160613d8a565b5b61516b8254614247565b6151768282856150b2565b600060209050601f8311600181146151a95760008415615197578287015190505b6151a18582615123565b865550615209565b601f1984166151b786614f9d565b60005b828110156151df578489015182556001820191506020850194506020810190506151ba565b868310156151fc57848901516151f8601f891682615105565b8355505b6001600288020188555050505b505050505050565b6000815190506152208161392a565b92915050565b60006020828403121561523c5761523b6137a9565b5b600061524a84828501615211565b91505092915050565b7f53656e6420746f20637573746f6d657200000000000000000000000000000000600082015250565b6000615289601083613879565b915061529482615253565b602082019050919050565b600060c0820190506152b460008301886139b5565b6152c160208301876139b5565b6152ce60408301866139b5565b6152db60608301856139b5565b6152e86080830184614aab565b81810360a08301526152f98161527c565b90509695505050505050565b7f4552433732313a20617070726f766520746f2063616c6c657200000000000000600082015250565b600061533b601983613879565b915061534682615305565b602082019050919050565b6000602082019050818103600083015261536a8161532e565b9050919050565b7f4552433732313a207472616e7366657220746f206e6f6e20455243373231526560008201527f63656976657220696d706c656d656e7465720000000000000000000000000000602082015250565b60006153cd603283613879565b91506153d882615371565b604082019050919050565b600060208201905081810360008301526153fc816153c0565b9050919050565b7f5072696365206e65656420746f20626520706f73697469766500000000000000600082015250565b6000615439601983613879565b915061544482615403565b602082019050919050565b600060208201905081810360008301526154688161542c565b9050919050565b7f53656e6420746f206d61726b6574706c61636500000000000000000000000000600082015250565b60006154a5601383613879565b91506154b08261546f565b602082019050919050565b600060c0820190506154d060008301886139b5565b6154dd60208301876139b5565b6154ea60408301866139b5565b6154f760608301856139b5565b6155046080830184613c69565b81810360a083015261551581615498565b90509695505050505050565b600081519050919050565b600082825260208201905092915050565b600061554882615521565b615552818561552c565b935061556281856020860161388a565b61556b816138b4565b840191505092915050565b600060808201905061558b60008301876139b5565b61559860208301866139b5565b6155a56040830185613c69565b81810360608301526155b7818461553d565b905095945050505050565b6000815190506155d1816137df565b92915050565b6000602082840312156155ed576155ec6137a9565b5b60006155fb848285016155c2565b91505092915050565b7f4e487b7100000000000000000000000000000000000000000000000000000000600052601260045260246000fd5b7f4552433732313a206d696e7420746f20746865207a65726f2061646472657373600082015250565b6000615669602083613879565b915061567482615633565b602082019050919050565b600060208201905081810360008301526156988161565c565b9050919050565b7f4552433732313a20746f6b656e20616c7265616479206d696e74656400000000600082015250565b60006156d5601c83613879565b91506156e08261569f565b602082019050919050565b60006020820190508181036000830152615704816156c8565b905091905056fea2646970667358221220d442a01faf1690c5342e29c9222f6d634c99bd4d427161a656645054d36af4e364736f6c63430008130033",
  "immutableReferences": {},
  "source": "//SPDX-License-Identifier: GPL-3.0\npragma solidity ^0.8.19;\n\nimport \"../node_modules/@openzeppelin/contracts/utils/Counters.sol\";\nimport \"../node_modules/@openzeppelin/contracts/token/ERC721/extensions/ERC721URIStorage.sol\";\nimport \"../node_modules/@openzeppelin/contracts/token/ERC721/ERC721.sol\";\n\n\nimport \"./LTYAccount.sol\";\n\n/// @title Loyalty Marketplace\n/// @author Thibaut Pauget\n/// @notice Loyalty NFT Marketplace : Mint, Send, Buy, Sell NFT\n/// @dev This is a PMV non usable in production environment\ncontract LTYMarketplace is ERC721URIStorage {\n    using Counters for Counters.Counter;\n\n    LTYAccount public LTYAccountContract;\n\n   // address LTYAccountAddress;\n    //_tokenIds variable has the most recent minted tokenId\n    Counters.Counter private _tokenIds;\n\n    //Keeps track of the number of items sold on the marketplace\n    Counters.Counter private _itemsSold;\n\n    //_Brandids variable has the most recent minted tokenId\n    Counters.Counter private _brandsIds;\n\n    //owner of the contract\n    address payable public owner;\n\n    //The fee charged by the marketplace to be allowed to list an NFT\n    uint256 public listPrice = 0.01 ether;\n    \n    //Structure to store info about an NFT\n    struct ListedToken {\n        uint256 tokenId;\n        uint256 brandId;\n        address payable owner;\n        address payable seller;\n        uint256 price;\n        bool currentlyListed;\n    }\n\n    //the event emitted when a NFT is successfully listed\n    event EventTokenListedSuccess(\n        uint256 indexed tokenId,\n        address owner,\n        address seller,\n        uint256 price,\n        bool currentlyListed\n    );\n\n    //the event emit when an action is set on NFT (mint, list, delist ...)\n    event EventTokenTransaction(\n        uint256 indexed tokenId,\n        address ownerFrom,\n        address ownerTo,\n        address sellerFrom,\n        address sellerTo,\n        uint256 price,\n        string transactionType\n    );\n\n    //the event emit when listing price is updated\n    event EventUpdateListPrice(\n        uint256 price\n    );\n\n    //This mapping maps tokenId to token info and is helpful when retrieving details about a tokenId\n    mapping(uint256 => ListedToken) public idToListedToken;\n\n    //mapping to store all brands\n    //mapping(uint256 => UserAccount) private idToListedBrand;\n\n    //Mapping of brand\n    //mapping(address => UserAccount) public userAccounts;\n\n    constructor(address _LTYAccountContractAddress) ERC721(\"LoyaltyChain\", \"LTY\") {\n        owner = payable(msg.sender);\n        LTYAccountContract = LTYAccount(_LTYAccountContractAddress);\n    }\n\n    /// @notice Update listing price fees\n    /// @param _listPrice Price of the listing fees\n    ///TO DO  a mettre Ownable\n    function updateListPrice(uint256 _listPrice) public payable {\n        require(owner == msg.sender, \"Only owner can update listing price\");\n        listPrice = _listPrice;\n\n        emit EventUpdateListPrice(_listPrice);\n    }\n\n    /// @notice Get detail of NFT Token from Id\n    /// @param _tokenId of the brand\n    /// @return ListedToken\n    function getListedTokenForId(uint256 _tokenId)\n        public\n        view\n        returns (ListedToken memory)\n    {\n        return idToListedToken[_tokenId];\n    }\n\n    /// @notice Get current NFT Id\n    /// @return current Id\n    function getCurrentToken() public view returns (uint256) {\n        return _tokenIds.current();\n    }\n\n    /// @notice Mint and list NFT on marketplace\n    /// @dev Mint (and list NFT on marketplace with createListedToken)\n    /// @param _tokenURI of th NFT (IPFS URL with the NFT metadata)\n    /// @param _price initial listing price\n    /// @return newTokenId\n    function createTokenToMarketplace(string memory _tokenURI, uint256 _price)\n        public\n        payable\n        returns (uint256)\n    {\n        //Check if the minter is a authorized to mint NFT\n       require(\n           // LTYAccountContract.userAccounts[msg.sender].isBrandRegisterOnPlatform == true,\n            LTYAccountContract.getIsBrandRegisterOnPlatform(msg.sender) == true,\n            \"You need to be a registred brand to mint NFT\"\n        );\n        \n        //Increment the tokenId counter, which is keeping track of the number of minted NFTs\n        _tokenIds.increment();\n        uint256 newTokenId = _tokenIds.current();\n\n        //Mint the NFT with newTokenId to the address who called createTokenToMarketplace\n        _safeMint(msg.sender, newTokenId);\n\n        //Map the tokenId with the tokenURI\n        _setTokenURI(newTokenId, _tokenURI);\n\n        emit EventTokenTransaction(\n            newTokenId,\n            msg.sender,\n            msg.sender,\n            msg.sender,\n            msg.sender,\n            0,\n            \"mint\"\n        );\n\n        //update Global variables, list NFT on marketplace,  and emit an event\n        createListedToken(newTokenId, _price);\n        return newTokenId;\n    }\n\n    /// @notice Mint and send NFT to an address\n    /// @dev Mint (and send NFT to an address with createListedTokenAndSendToAddress)\n    /// @param _tokenURI of th NFT (IPFS URL with the NFT metadata)\n    /// @param _addr address of the future Owner\n    /// @return newTokenId\n\n    function createTokenToAddress(string memory _tokenURI, address _addr)\n        public\n        payable\n        returns (uint256)\n    {\n        \n        //Check if the minter is a authorized to mint NFT\n        require(\n             LTYAccountContract.getIsBrandRegisterOnPlatform(msg.sender) == true,\n            \"You need to be a registred brand to mint NFT\"\n        );\n        //Increment the tokenId counter, which is keeping track of the number of minted NFTs\n        _tokenIds.increment();\n        uint256 newTokenId = _tokenIds.current();\n\n        //Mint the NFT with tokenId newTokenId to the address who called createToken\n        _safeMint(msg.sender, newTokenId);\n\n        //Map the tokenId to the tokenURI (which is an IPFS URL with the NFT metadata)\n        _setTokenURI(newTokenId, _tokenURI);\n\n        emit EventTokenTransaction(\n            newTokenId,\n            msg.sender,\n            msg.sender,\n            msg.sender,\n            msg.sender,\n            0,\n            \"mint\"\n        );\n\n        //update Global variables, send NFT to his new Owner,  and emit an event\n        createListedTokenAndSendToAddress(newTokenId, _addr);\n        return newTokenId;\n    }\n\n   \n    /// @notice Send NFT to marketplace\n    /// @dev Update Global Variable, Send NFT to marketplace and emit event\n    /// @param _tokenId of the NFT to list on marketplace\n    /// @param _price of the listed NFT\n    function createListedToken(uint256 _tokenId, uint256 _price) private {\n        //Check if the minter is a authorized to mint NFT\n        require(\n              LTYAccountContract.getIsBrandRegisterOnPlatform(msg.sender),\n            \"You need to be a registred brand to mint NFT\"\n        );\n        \n        //Make sure the sender sent enough ETH to pay for listing\n       // require(msg.value == listPrice, \"You need to send the listing fee\");\n        require(_price >= 0, \"Price need to be positive\");\n        \n        //Update the mapping of tokenId to Token details\n        idToListedToken[_tokenId] = ListedToken(\n            _tokenId,\n            LTYAccountContract.getIdBrandFromAddress(msg.sender), //brandId -> faire une fonction qui recup l'id de la brand a partir de l'adresse\n            payable(address(this)),\n            payable(msg.sender),\n            _price,\n            true\n        );\n\n        //Transfer NFT to the marketplace\n        _transfer(msg.sender, address(this), _tokenId);\n\n        emit EventTokenTransaction(\n            _tokenId,\n            address(this),\n            address(this),\n            msg.sender,\n            msg.sender,\n            _price,\n            \"Send to marketplace\"\n        );\n\n        //Emit the event for successful transfer. The frontend listen to this message\n        emit EventTokenListedSuccess(\n            _tokenId,\n            address(this),\n            msg.sender,\n            _price,\n            true\n        );\n    }\n\n    /// @notice get Listing price\n    /// @return listPrice\n     function getListPrice() public view returns (uint256) {\n        return listPrice;\n    }\n\n    /// @notice Send NFT to a customer\n    /// @dev Update Global Variable, Send NFT to a customer and emit event\n    /// @param _tokenId of the NFT to list on marketplace\n    /// @param _addr of the listed NFT\n    function createListedTokenAndSendToAddress(uint256 _tokenId, address _addr)\n        private\n    {\n        //Check if the minter is a authorized to mint NFT\n        /*\n        require(\n            LTYAccountContract.userAccounts[msg.sender].isBrandRegisterOnPlatform == true,\n            \"You need to be a registred brand to mint NFT\"\n        );\n        */\n        //Update the mapping of tokenId to Token details\n        idToListedToken[_tokenId] = ListedToken(\n            _tokenId,\n            LTYAccountContract.getIdBrandFromAddress(msg.sender), //brandId\n            payable(_addr),\n            payable(_addr),\n            0,\n            false\n        );\n\n        //Transfer NFT to the new Owner (= the customer)\n        _transfer(msg.sender, _addr, _tokenId);\n\n        emit EventTokenTransaction(\n            _tokenId,\n            address(this),\n            _addr,\n            address(this),\n            _addr,\n            0,\n            \"Send to customer\"\n        );\n\n        //Emit the event for successful transfer. The frontend listen to this message\n        emit EventTokenListedSuccess(_tokenId, _addr, _addr, 0, false);\n    }\n\n    /// @notice Get all the NFTs that the current user is owner or seller in\n    /// @dev return an array of NFT\n    /// @return all NFT where the current user is owner or seller\n    function getMyNFTs() public view returns (ListedToken[] memory) {\n        uint256 totalItemCount = _tokenIds.current();\n        uint256 itemCount = 0;\n        uint256 currentIndex = 0;\n        \n        //we count NFT of the user to create an array of the good size => Gaz optimisation\n        for (uint256 i = 0; i < totalItemCount; i++) {\n            if (\n                idToListedToken[i + 1].owner == msg.sender ||\n                idToListedToken[i + 1].seller == msg.sender\n            ) {\n                itemCount += 1;\n            }\n        }\n\n        //We store the Owner/seller NFT in an array\n        ListedToken[] memory items = new ListedToken[](itemCount);\n\n        for (uint256 i = 0; i < totalItemCount; i++) {\n            if (\n                idToListedToken[i + 1].owner == msg.sender ||\n                idToListedToken[i + 1].seller == msg.sender\n            ) {\n                uint256 currentId = i + 1;\n\n                ListedToken storage currentItem = idToListedToken[currentId];\n\n                items[currentIndex] = currentItem;\n\n                currentIndex += 1;\n            }\n        }\n        return items;\n    }\n\n    /// @notice Get all the NFTs associated with a brand\n    /// @dev return an array of NFT\n    /// @param _idBrand to get the NFT from\n    /// @return all NFT associated with a brand\n    function getNFTsByBrand(uint256 _idBrand)\n        public\n        view\n        returns (ListedToken[] memory)\n    {\n        uint256 totalItemCount = _tokenIds.current();\n        uint256 itemCount = 0;\n        uint256 currentIndex = 0;\n        \n        //we count NFT of the brand to create an array of the good size => Gaz optimisation\n        for (uint256 i = 0; i < totalItemCount; i++) {\n            if (\n                idToListedToken[i + 1].brandId == _idBrand &&\n                idToListedToken[i + 1].currentlyListed\n            ) {\n                itemCount += 1;\n            }\n        }\n\n        //We store the Brand NFT in an array\n        ListedToken[] memory items = new ListedToken[](itemCount);\n\n        for (uint256 i = 0; i < totalItemCount; i++) {\n            if (\n                idToListedToken[i + 1].brandId == _idBrand &&\n                idToListedToken[i + 1].currentlyListed\n            ) {\n                uint256 currentId = i + 1;\n\n                ListedToken storage currentItem = idToListedToken[currentId];\n                items[currentIndex] = currentItem;\n                currentIndex += 1;\n            }\n        }\n        return items;\n    }\n\n    /// @notice remove listed NFT from marketplace and transfer back to the owner\n    ///  @param _idToken of the NFT to remove from marketplace\n    function removeTokenFromMarket(uint256 _idToken) public {\n        require(_exists(_idToken), \"Invalid token ID\");\n\n        require(\n            msg.sender == idToListedToken[_idToken].seller,\n            \"YOu need to be the seller of the NFT to sell it\"\n        );\n\n        idToListedToken[_idToken].owner = payable(msg.sender);\n        idToListedToken[_idToken].seller = payable(msg.sender);\n        idToListedToken[_idToken].currentlyListed = false;\n        _transfer(address(this), msg.sender, _idToken);\n\n        emit EventTokenTransaction(\n            _idToken,\n            address(this),\n            msg.sender,\n            msg.sender,\n            msg.sender,\n            0,\n            \"Remove from marketplace\"\n        );\n\n        //Emit the event for successful transfer. The frontend listen to this message\n        emit EventTokenListedSuccess(\n            _idToken,\n            msg.sender,\n            msg.sender,\n            0,\n            false\n        );\n    }\n\n    /// @notice Buy an NFT on the marketplace\n    /// @param _tokenId of the NFT to buy on the marketplace\n    function executeSale(uint256 _tokenId) public payable {\n        uint256 price = idToListedToken[_tokenId].price;\n        address seller = idToListedToken[_tokenId].seller;\n\n        require(\n            msg.value == price,\n            \"You need to set the asking price in order to purchase\"\n        );\n\n        //update the details of the token\n        idToListedToken[_tokenId].currentlyListed = false;\n        idToListedToken[_tokenId].owner = payable(msg.sender);\n        idToListedToken[_tokenId].seller = payable(msg.sender);\n        _itemsSold.increment();\n\n        //transfer the NFT to the new owner\n        _transfer(address(this), msg.sender, _tokenId);\n        //approve the marketplace to sell NFTs for user\n        approve(address(this), _tokenId); // a verif l'utilit\n        //Transfer the listing fee to the marketplace\n        payable(owner).transfer(listPrice);\n        //Transfer the buying price to the seller of the NFT\n        payable(seller).transfer(msg.value);\n\n        emit EventTokenTransaction(\n            _tokenId,\n            address(this),\n            msg.sender,\n            seller,\n            msg.sender,\n            price,\n            \"Buy NFT\"\n        );\n    }\n\n    /// @notice List an NFT onthe marketplace at a given price\n    /// @param _idToken of the NFT to sell on the marketplace\n    /// @param _price of the NFT to sell on the marketplace\n    /// TO DO manque l'envoi des fees\n    function addTokenToSaleOnTheMarket(uint256 _idToken, uint256 _price)\n        public\n    {\n        require(_exists(_idToken), \"Invalid token ID\");\n\n        require(\n            ownerOf(_idToken) == msg.sender,\n            \"You are not the owner of this token\"\n        );\n\n        require(_price > 0, \"Price must be greater than zero\");\n\n        idToListedToken[_idToken].price = _price;\n        idToListedToken[_idToken].currentlyListed = true;\n        idToListedToken[_idToken].seller = payable(msg.sender);\n        idToListedToken[_idToken].owner = payable(address(this));\n        _transfer(msg.sender, address(this), _idToken);\n\n        emit EventTokenTransaction(\n            _idToken,\n            msg.sender,\n            address(this),\n            msg.sender,\n            msg.sender,\n            _price,\n            \"List on Marketplace\"\n        );\n\n        emit EventTokenListedSuccess(\n            _idToken,\n            address(this),\n            msg.sender,\n            _price,\n            true\n        );\n    }\n}\n",
  "sourcePath": "/Users/thibaut/development/alyra/LoyaltyChainVF/backendTruffle/contracts/LTYMarketplace.sol",
  "compiler": {
    "name": "solc",
    "version": "0.8.19+commit.7dd6d404.Emscripten.clang"
  },
  "schemaVersion": "3.4.14",
  "updatedAt": "2023-07-17T22:25:02.580Z",
  "networkType": "ethereum",
  "devdoc": {
    "author": "Thibaut Pauget",
    "details": "This is a PMV non usable in production environment",
    "events": {
      "Approval(address,address,uint256)": {
        "details": "Emitted when `owner` enables `approved` to manage the `tokenId` token."
      },
      "ApprovalForAll(address,address,bool)": {
        "details": "Emitted when `owner` enables or disables (`approved`) `operator` to manage all of its assets."
      },
      "BatchMetadataUpdate(uint256,uint256)": {
        "details": "This event emits when the metadata of a range of tokens is changed. So that the third-party platforms such as NFT market could timely update the images and related attributes of the NFTs."
      },
      "MetadataUpdate(uint256)": {
        "details": "This event emits when the metadata of a token is changed. So that the third-party platforms such as NFT market could timely update the images and related attributes of the NFT."
      },
      "Transfer(address,address,uint256)": {
        "details": "Emitted when `tokenId` token is transferred from `from` to `to`."
      }
    },
    "kind": "dev",
    "methods": {
      "addTokenToSaleOnTheMarket(uint256,uint256)": {
        "params": {
          "_idToken": "of the NFT to sell on the marketplace",
          "_price": "of the NFT to sell on the marketplace TO DO manque l'envoi des fees"
        }
      },
      "approve(address,uint256)": {
        "details": "See {IERC721-approve}."
      },
      "balanceOf(address)": {
        "details": "See {IERC721-balanceOf}."
      },
      "createTokenToAddress(string,address)": {
        "details": "Mint (and send NFT to an address with createListedTokenAndSendToAddress)",
        "params": {
          "_addr": "address of the future Owner",
          "_tokenURI": "of th NFT (IPFS URL with the NFT metadata)"
        },
        "returns": {
          "_0": "newTokenId"
        }
      },
      "createTokenToMarketplace(string,uint256)": {
        "details": "Mint (and list NFT on marketplace with createListedToken)",
        "params": {
          "_price": "initial listing price",
          "_tokenURI": "of th NFT (IPFS URL with the NFT metadata)"
        },
        "returns": {
          "_0": "newTokenId"
        }
      },
      "executeSale(uint256)": {
        "params": {
          "_tokenId": "of the NFT to buy on the marketplace"
        }
      },
      "getApproved(uint256)": {
        "details": "See {IERC721-getApproved}."
      },
      "getCurrentToken()": {
        "returns": {
          "_0": "current Id"
        }
      },
      "getListPrice()": {
        "returns": {
          "_0": "listPrice"
        }
      },
      "getListedTokenForId(uint256)": {
        "params": {
          "_tokenId": "of the brand"
        },
        "returns": {
          "_0": "ListedToken"
        }
      },
      "getMyNFTs()": {
        "details": "return an array of NFT",
        "returns": {
          "_0": "all NFT where the current user is owner or seller"
        }
      },
      "getNFTsByBrand(uint256)": {
        "details": "return an array of NFT",
        "params": {
          "_idBrand": "to get the NFT from"
        },
        "returns": {
          "_0": "all NFT associated with a brand"
        }
      },
      "isApprovedForAll(address,address)": {
        "details": "See {IERC721-isApprovedForAll}."
      },
      "name()": {
        "details": "See {IERC721Metadata-name}."
      },
      "ownerOf(uint256)": {
        "details": "See {IERC721-ownerOf}."
      },
      "removeTokenFromMarket(uint256)": {
        "params": {
          "_idToken": "of the NFT to remove from marketplace"
        }
      },
      "safeTransferFrom(address,address,uint256)": {
        "details": "See {IERC721-safeTransferFrom}."
      },
      "safeTransferFrom(address,address,uint256,bytes)": {
        "details": "See {IERC721-safeTransferFrom}."
      },
      "setApprovalForAll(address,bool)": {
        "details": "See {IERC721-setApprovalForAll}."
      },
      "supportsInterface(bytes4)": {
        "details": "See {IERC165-supportsInterface}"
      },
      "symbol()": {
        "details": "See {IERC721Metadata-symbol}."
      },
      "tokenURI(uint256)": {
        "details": "See {IERC721Metadata-tokenURI}."
      },
      "transferFrom(address,address,uint256)": {
        "details": "See {IERC721-transferFrom}."
      },
      "updateListPrice(uint256)": {
        "params": {
          "_listPrice": "Price of the listing fees TO DO  a mettre Ownable"
        }
      }
    },
    "title": "Loyalty Marketplace",
    "version": 1
  },
  "userdoc": {
    "kind": "user",
    "methods": {
      "addTokenToSaleOnTheMarket(uint256,uint256)": {
        "notice": "List an NFT onthe marketplace at a given price"
      },
      "createTokenToAddress(string,address)": {
        "notice": "Mint and send NFT to an address"
      },
      "createTokenToMarketplace(string,uint256)": {
        "notice": "Mint and list NFT on marketplace"
      },
      "executeSale(uint256)": {
        "notice": "Buy an NFT on the marketplace"
      },
      "getCurrentToken()": {
        "notice": "Get current NFT Id"
      },
      "getListPrice()": {
        "notice": "get Listing price"
      },
      "getListedTokenForId(uint256)": {
        "notice": "Get detail of NFT Token from Id"
      },
      "getMyNFTs()": {
        "notice": "Get all the NFTs that the current user is owner or seller in"
      },
      "getNFTsByBrand(uint256)": {
        "notice": "Get all the NFTs associated with a brand"
      },
      "removeTokenFromMarket(uint256)": {
        "notice": "remove listed NFT from marketplace and transfer back to the owner"
      },
      "updateListPrice(uint256)": {
        "notice": "Update listing price fees"
      }
    },
    "notice": "Loyalty NFT Marketplace : Mint, Send, Buy, Sell NFT",
    "version": 1
  }
}