{
  "contractName": "LTYMarketplace",
  "abi": [
    {
      "inputs": [
        {
          "internalType": "address",
          "name": "_LTYAccountContractAddress",
          "type": "address"
        }
      ],
      "stateMutability": "nonpayable",
      "type": "constructor"
    },
    {
      "anonymous": false,
      "inputs": [
        {
          "indexed": true,
          "internalType": "address",
          "name": "owner",
          "type": "address"
        },
        {
          "indexed": true,
          "internalType": "address",
          "name": "approved",
          "type": "address"
        },
        {
          "indexed": true,
          "internalType": "uint256",
          "name": "tokenId",
          "type": "uint256"
        }
      ],
      "name": "Approval",
      "type": "event"
    },
    {
      "anonymous": false,
      "inputs": [
        {
          "indexed": true,
          "internalType": "address",
          "name": "owner",
          "type": "address"
        },
        {
          "indexed": true,
          "internalType": "address",
          "name": "operator",
          "type": "address"
        },
        {
          "indexed": false,
          "internalType": "bool",
          "name": "approved",
          "type": "bool"
        }
      ],
      "name": "ApprovalForAll",
      "type": "event"
    },
    {
      "anonymous": false,
      "inputs": [
        {
          "indexed": false,
          "internalType": "uint256",
          "name": "_fromTokenId",
          "type": "uint256"
        },
        {
          "indexed": false,
          "internalType": "uint256",
          "name": "_toTokenId",
          "type": "uint256"
        }
      ],
      "name": "BatchMetadataUpdate",
      "type": "event"
    },
    {
      "anonymous": false,
      "inputs": [
        {
          "indexed": true,
          "internalType": "uint256",
          "name": "tokenId",
          "type": "uint256"
        },
        {
          "indexed": false,
          "internalType": "address",
          "name": "owner",
          "type": "address"
        },
        {
          "indexed": false,
          "internalType": "address",
          "name": "seller",
          "type": "address"
        },
        {
          "indexed": false,
          "internalType": "uint256",
          "name": "price",
          "type": "uint256"
        },
        {
          "indexed": false,
          "internalType": "bool",
          "name": "currentlyListed",
          "type": "bool"
        }
      ],
      "name": "EventTokenListedSuccess",
      "type": "event"
    },
    {
      "anonymous": false,
      "inputs": [
        {
          "indexed": true,
          "internalType": "uint256",
          "name": "tokenId",
          "type": "uint256"
        },
        {
          "indexed": false,
          "internalType": "address",
          "name": "ownerFrom",
          "type": "address"
        },
        {
          "indexed": false,
          "internalType": "address",
          "name": "ownerTo",
          "type": "address"
        },
        {
          "indexed": false,
          "internalType": "address",
          "name": "sellerFrom",
          "type": "address"
        },
        {
          "indexed": false,
          "internalType": "address",
          "name": "sellerTo",
          "type": "address"
        },
        {
          "indexed": false,
          "internalType": "uint256",
          "name": "price",
          "type": "uint256"
        },
        {
          "indexed": false,
          "internalType": "string",
          "name": "transactionType",
          "type": "string"
        }
      ],
      "name": "EventTokenTransaction",
      "type": "event"
    },
    {
      "anonymous": false,
      "inputs": [
        {
          "indexed": false,
          "internalType": "uint256",
          "name": "_tokenId",
          "type": "uint256"
        }
      ],
      "name": "MetadataUpdate",
      "type": "event"
    },
    {
      "anonymous": false,
      "inputs": [
        {
          "indexed": true,
          "internalType": "address",
          "name": "from",
          "type": "address"
        },
        {
          "indexed": true,
          "internalType": "address",
          "name": "to",
          "type": "address"
        },
        {
          "indexed": true,
          "internalType": "uint256",
          "name": "tokenId",
          "type": "uint256"
        }
      ],
      "name": "Transfer",
      "type": "event"
    },
    {
      "inputs": [],
      "name": "LTYAccountContract",
      "outputs": [
        {
          "internalType": "contract LTYAccount",
          "name": "",
          "type": "address"
        }
      ],
      "stateMutability": "view",
      "type": "function",
      "constant": true
    },
    {
      "inputs": [
        {
          "internalType": "address",
          "name": "to",
          "type": "address"
        },
        {
          "internalType": "uint256",
          "name": "tokenId",
          "type": "uint256"
        }
      ],
      "name": "approve",
      "outputs": [],
      "stateMutability": "nonpayable",
      "type": "function"
    },
    {
      "inputs": [
        {
          "internalType": "address",
          "name": "owner",
          "type": "address"
        }
      ],
      "name": "balanceOf",
      "outputs": [
        {
          "internalType": "uint256",
          "name": "",
          "type": "uint256"
        }
      ],
      "stateMutability": "view",
      "type": "function",
      "constant": true
    },
    {
      "inputs": [
        {
          "internalType": "uint256",
          "name": "tokenId",
          "type": "uint256"
        }
      ],
      "name": "getApproved",
      "outputs": [
        {
          "internalType": "address",
          "name": "",
          "type": "address"
        }
      ],
      "stateMutability": "view",
      "type": "function",
      "constant": true
    },
    {
      "inputs": [
        {
          "internalType": "address",
          "name": "owner",
          "type": "address"
        },
        {
          "internalType": "address",
          "name": "operator",
          "type": "address"
        }
      ],
      "name": "isApprovedForAll",
      "outputs": [
        {
          "internalType": "bool",
          "name": "",
          "type": "bool"
        }
      ],
      "stateMutability": "view",
      "type": "function",
      "constant": true
    },
    {
      "inputs": [],
      "name": "name",
      "outputs": [
        {
          "internalType": "string",
          "name": "",
          "type": "string"
        }
      ],
      "stateMutability": "view",
      "type": "function",
      "constant": true
    },
    {
      "inputs": [
        {
          "internalType": "uint256",
          "name": "tokenId",
          "type": "uint256"
        }
      ],
      "name": "ownerOf",
      "outputs": [
        {
          "internalType": "address",
          "name": "",
          "type": "address"
        }
      ],
      "stateMutability": "view",
      "type": "function",
      "constant": true
    },
    {
      "inputs": [
        {
          "internalType": "address",
          "name": "from",
          "type": "address"
        },
        {
          "internalType": "address",
          "name": "to",
          "type": "address"
        },
        {
          "internalType": "uint256",
          "name": "tokenId",
          "type": "uint256"
        }
      ],
      "name": "safeTransferFrom",
      "outputs": [],
      "stateMutability": "nonpayable",
      "type": "function"
    },
    {
      "inputs": [
        {
          "internalType": "address",
          "name": "from",
          "type": "address"
        },
        {
          "internalType": "address",
          "name": "to",
          "type": "address"
        },
        {
          "internalType": "uint256",
          "name": "tokenId",
          "type": "uint256"
        },
        {
          "internalType": "bytes",
          "name": "data",
          "type": "bytes"
        }
      ],
      "name": "safeTransferFrom",
      "outputs": [],
      "stateMutability": "nonpayable",
      "type": "function"
    },
    {
      "inputs": [
        {
          "internalType": "address",
          "name": "operator",
          "type": "address"
        },
        {
          "internalType": "bool",
          "name": "approved",
          "type": "bool"
        }
      ],
      "name": "setApprovalForAll",
      "outputs": [],
      "stateMutability": "nonpayable",
      "type": "function"
    },
    {
      "inputs": [
        {
          "internalType": "bytes4",
          "name": "interfaceId",
          "type": "bytes4"
        }
      ],
      "name": "supportsInterface",
      "outputs": [
        {
          "internalType": "bool",
          "name": "",
          "type": "bool"
        }
      ],
      "stateMutability": "view",
      "type": "function",
      "constant": true
    },
    {
      "inputs": [],
      "name": "symbol",
      "outputs": [
        {
          "internalType": "string",
          "name": "",
          "type": "string"
        }
      ],
      "stateMutability": "view",
      "type": "function",
      "constant": true
    },
    {
      "inputs": [
        {
          "internalType": "uint256",
          "name": "tokenId",
          "type": "uint256"
        }
      ],
      "name": "tokenURI",
      "outputs": [
        {
          "internalType": "string",
          "name": "",
          "type": "string"
        }
      ],
      "stateMutability": "view",
      "type": "function",
      "constant": true
    },
    {
      "inputs": [
        {
          "internalType": "address",
          "name": "from",
          "type": "address"
        },
        {
          "internalType": "address",
          "name": "to",
          "type": "address"
        },
        {
          "internalType": "uint256",
          "name": "tokenId",
          "type": "uint256"
        }
      ],
      "name": "transferFrom",
      "outputs": [],
      "stateMutability": "nonpayable",
      "type": "function"
    },
    {
      "inputs": [
        {
          "internalType": "uint256",
          "name": "_listPrice",
          "type": "uint256"
        }
      ],
      "name": "updateListPrice",
      "outputs": [],
      "stateMutability": "payable",
      "type": "function",
      "payable": true
    },
    {
      "inputs": [
        {
          "internalType": "uint256",
          "name": "_tokenId",
          "type": "uint256"
        }
      ],
      "name": "getListedTokenForId",
      "outputs": [
        {
          "components": [
            {
              "internalType": "uint256",
              "name": "tokenId",
              "type": "uint256"
            },
            {
              "internalType": "uint256",
              "name": "brandId",
              "type": "uint256"
            },
            {
              "internalType": "address payable",
              "name": "owner",
              "type": "address"
            },
            {
              "internalType": "address payable",
              "name": "seller",
              "type": "address"
            },
            {
              "internalType": "uint256",
              "name": "price",
              "type": "uint256"
            },
            {
              "internalType": "bool",
              "name": "currentlyListed",
              "type": "bool"
            }
          ],
          "internalType": "struct LTYMarketplace.ListedToken",
          "name": "",
          "type": "tuple"
        }
      ],
      "stateMutability": "view",
      "type": "function",
      "constant": true
    },
    {
      "inputs": [],
      "name": "getCurrentToken",
      "outputs": [
        {
          "internalType": "uint256",
          "name": "",
          "type": "uint256"
        }
      ],
      "stateMutability": "view",
      "type": "function",
      "constant": true
    },
    {
      "inputs": [
        {
          "internalType": "string",
          "name": "_tokenURI",
          "type": "string"
        },
        {
          "internalType": "uint256",
          "name": "_price",
          "type": "uint256"
        }
      ],
      "name": "createTokenToMarketplace",
      "outputs": [
        {
          "internalType": "uint256",
          "name": "",
          "type": "uint256"
        }
      ],
      "stateMutability": "payable",
      "type": "function",
      "payable": true
    },
    {
      "inputs": [
        {
          "internalType": "string",
          "name": "_tokenURI",
          "type": "string"
        },
        {
          "internalType": "address",
          "name": "_addr",
          "type": "address"
        }
      ],
      "name": "createTokenToAddress",
      "outputs": [
        {
          "internalType": "uint256",
          "name": "",
          "type": "uint256"
        }
      ],
      "stateMutability": "payable",
      "type": "function",
      "payable": true
    },
    {
      "inputs": [],
      "name": "getListPrice",
      "outputs": [
        {
          "internalType": "uint256",
          "name": "",
          "type": "uint256"
        }
      ],
      "stateMutability": "view",
      "type": "function",
      "constant": true
    },
    {
      "inputs": [],
      "name": "getMyNFTs",
      "outputs": [
        {
          "components": [
            {
              "internalType": "uint256",
              "name": "tokenId",
              "type": "uint256"
            },
            {
              "internalType": "uint256",
              "name": "brandId",
              "type": "uint256"
            },
            {
              "internalType": "address payable",
              "name": "owner",
              "type": "address"
            },
            {
              "internalType": "address payable",
              "name": "seller",
              "type": "address"
            },
            {
              "internalType": "uint256",
              "name": "price",
              "type": "uint256"
            },
            {
              "internalType": "bool",
              "name": "currentlyListed",
              "type": "bool"
            }
          ],
          "internalType": "struct LTYMarketplace.ListedToken[]",
          "name": "",
          "type": "tuple[]"
        }
      ],
      "stateMutability": "view",
      "type": "function",
      "constant": true
    },
    {
      "inputs": [
        {
          "internalType": "uint256",
          "name": "_idBrand",
          "type": "uint256"
        }
      ],
      "name": "getNFTsByBrand",
      "outputs": [
        {
          "components": [
            {
              "internalType": "uint256",
              "name": "tokenId",
              "type": "uint256"
            },
            {
              "internalType": "uint256",
              "name": "brandId",
              "type": "uint256"
            },
            {
              "internalType": "address payable",
              "name": "owner",
              "type": "address"
            },
            {
              "internalType": "address payable",
              "name": "seller",
              "type": "address"
            },
            {
              "internalType": "uint256",
              "name": "price",
              "type": "uint256"
            },
            {
              "internalType": "bool",
              "name": "currentlyListed",
              "type": "bool"
            }
          ],
          "internalType": "struct LTYMarketplace.ListedToken[]",
          "name": "",
          "type": "tuple[]"
        }
      ],
      "stateMutability": "view",
      "type": "function",
      "constant": true
    },
    {
      "inputs": [
        {
          "internalType": "uint256",
          "name": "_idToken",
          "type": "uint256"
        }
      ],
      "name": "removeTokenFromMarket",
      "outputs": [],
      "stateMutability": "nonpayable",
      "type": "function"
    },
    {
      "inputs": [
        {
          "internalType": "uint256",
          "name": "_tokenId",
          "type": "uint256"
        }
      ],
      "name": "executeSale",
      "outputs": [],
      "stateMutability": "payable",
      "type": "function",
      "payable": true
    },
    {
      "inputs": [
        {
          "internalType": "uint256",
          "name": "_idToken",
          "type": "uint256"
        },
        {
          "internalType": "uint256",
          "name": "_price",
          "type": "uint256"
        }
      ],
      "name": "addTokenToSaleOnTheMarket",
      "outputs": [],
      "stateMutability": "nonpayable",
      "type": "function"
    }
  ],
  "bytecode": "0x6080604052662386f26fc10000600c553480156200001c57600080fd5b50604051620057ad380380620057ad8339818101604052810190620000429190620001c7565b6040518060400160405280600c81526020017f4c6f79616c7479436861696e00000000000000000000000000000000000000008152506040518060400160405280600381526020017f4c545900000000000000000000000000000000000000000000000000000000008152508160009081620000bf919062000473565b508060019081620000d1919062000473565b50505033600b60006101000a81548173ffffffffffffffffffffffffffffffffffffffff021916908373ffffffffffffffffffffffffffffffffffffffff16021790555080600760006101000a81548173ffffffffffffffffffffffffffffffffffffffff021916908373ffffffffffffffffffffffffffffffffffffffff160217905550506200055a565b600080fd5b600073ffffffffffffffffffffffffffffffffffffffff82169050919050565b60006200018f8262000162565b9050919050565b620001a18162000182565b8114620001ad57600080fd5b50565b600081519050620001c18162000196565b92915050565b600060208284031215620001e057620001df6200015d565b5b6000620001f084828501620001b0565b91505092915050565b600081519050919050565b7f4e487b7100000000000000000000000000000000000000000000000000000000600052604160045260246000fd5b7f4e487b7100000000000000000000000000000000000000000000000000000000600052602260045260246000fd5b600060028204905060018216806200027b57607f821691505b60208210810362000291576200029062000233565b5b50919050565b60008190508160005260206000209050919050565b60006020601f8301049050919050565b600082821b905092915050565b600060088302620002fb7fffffffffffffffffffffffffffffffffffffffffffffffffffffffffffffffff82620002bc565b620003078683620002bc565b95508019841693508086168417925050509392505050565b6000819050919050565b6000819050919050565b6000620003546200034e62000348846200031f565b62000329565b6200031f565b9050919050565b6000819050919050565b620003708362000333565b620003886200037f826200035b565b848454620002c9565b825550505050565b600090565b6200039f62000390565b620003ac81848462000365565b505050565b5b81811015620003d457620003c860008262000395565b600181019050620003b2565b5050565b601f8211156200042357620003ed8162000297565b620003f884620002ac565b8101602085101562000408578190505b620004206200041785620002ac565b830182620003b1565b50505b505050565b600082821c905092915050565b6000620004486000198460080262000428565b1980831691505092915050565b600062000463838362000435565b9150826002028217905092915050565b6200047e82620001f9565b67ffffffffffffffff8111156200049a576200049962000204565b5b620004a6825462000262565b620004b3828285620003d8565b600060209050601f831160018114620004eb5760008415620004d6578287015190505b620004e2858262000455565b86555062000552565b601f198416620004fb8662000297565b60005b828110156200052557848901518255600182019150602085019450602081019050620004fe565b8683101562000545578489015162000541601f89168262000435565b8355505b6001600288020188555050505b505050505050565b615243806200056a6000396000f3fe6080604052600436106101665760003560e01c80638e264590116100d1578063b88d4fde1161008a578063c87b56dd11610064578063c87b56dd1461053c578063e8f48c3d14610579578063e985e9c5146105a4578063ef2d1746146105e157610166565b8063b88d4fde146104c7578063c322579c146104f0578063c4b2f10b1461050c57610166565b80638e264590146103c157806395d89b41146103fe5780639b1225c4146104295780639d1b7f40146104455780639df8b25214610475578063a22cb4651461049e57610166565b806342842e0e1161012357806342842e0e1461028b57806350615785146102b4578063629cb2e4146102f15780636352211e1461031c57806368f1945f1461035957806370a082311461038457610166565b806301ffc9a71461016b57806306fdde03146101a8578063081812fc146101d3578063095ea7b31461021057806323b872dd146102395780632a62b47714610262575b600080fd5b34801561017757600080fd5b50610192600480360381019061018d91906133da565b61060c565b60405161019f9190613422565b60405180910390f35b3480156101b457600080fd5b506101bd61066d565b6040516101ca91906134cd565b60405180910390f35b3480156101df57600080fd5b506101fa60048036038101906101f59190613525565b6106ff565b6040516102079190613593565b60405180910390f35b34801561021c57600080fd5b50610237600480360381019061023291906135da565b610745565b005b34801561024557600080fd5b50610260600480360381019061025b919061361a565b61085c565b005b34801561026e57600080fd5b506102896004803603810190610284919061366d565b6108bc565b005b34801561029757600080fd5b506102b260048036038101906102ad919061361a565b610b3f565b005b3480156102c057600080fd5b506102db60048036038101906102d69190613525565b610b5f565b6040516102e89190613816565b60405180910390f35b3480156102fd57600080fd5b50610306610e31565b6040516103139190613816565b60405180910390f35b34801561032857600080fd5b50610343600480360381019061033e9190613525565b611219565b6040516103509190613593565b60405180910390f35b34801561036557600080fd5b5061036e61129f565b60405161037b9190613847565b60405180910390f35b34801561039057600080fd5b506103ab60048036038101906103a69190613862565b6112a9565b6040516103b89190613847565b60405180910390f35b3480156103cd57600080fd5b506103e860048036038101906103e39190613525565b611360565b6040516103f5919061390a565b60405180910390f35b34801561040a57600080fd5b50610413611472565b60405161042091906134cd565b60405180910390f35b610443600480360381019061043e9190613525565b611504565b005b61045f600480360381019061045a9190613a5a565b61178b565b60405161046c9190613847565b60405180910390f35b34801561048157600080fd5b5061049c60048036038101906104979190613525565b61180e565b005b3480156104aa57600080fd5b506104c560048036038101906104c09190613ae2565b611a61565b005b3480156104d357600080fd5b506104ee60048036038101906104e99190613bc3565b611a77565b005b61050a60048036038101906105059190613525565b611ad9565b005b61052660048036038101906105219190613c46565b611b73565b6040516105339190613847565b60405180910390f35b34801561054857600080fd5b50610563600480360381019061055e9190613525565b611bf6565b60405161057091906134cd565b60405180910390f35b34801561058557600080fd5b5061058e611d08565b60405161059b9190613d01565b60405180910390f35b3480156105b057600080fd5b506105cb60048036038101906105c69190613d1c565b611d2e565b6040516105d89190613422565b60405180910390f35b3480156105ed57600080fd5b506105f6611dc2565b6040516106039190613847565b60405180910390f35b6000634906490660e01b7bffffffffffffffffffffffffffffffffffffffffffffffffffffffff1916827bffffffffffffffffffffffffffffffffffffffffffffffffffffffff19161480610666575061066582611dd3565b5b9050919050565b60606000805461067c90613d8b565b80601f01602080910402602001604051908101604052809291908181526020018280546106a890613d8b565b80156106f55780601f106106ca576101008083540402835291602001916106f5565b820191906000526020600020905b8154815290600101906020018083116106d857829003601f168201915b5050505050905090565b600061070a82611eb5565b6004600083815260200190815260200160002060009054906101000a900473ffffffffffffffffffffffffffffffffffffffff169050919050565b600061075082611219565b90508073ffffffffffffffffffffffffffffffffffffffff168373ffffffffffffffffffffffffffffffffffffffff16036107c0576040517f08c379a00000000000000000000000000000000000000000000000000000000081526004016107b790613e2e565b60405180910390fd5b8073ffffffffffffffffffffffffffffffffffffffff166107df611f00565b73ffffffffffffffffffffffffffffffffffffffff16148061080e575061080d81610808611f00565b611d2e565b5b61084d576040517f08c379a000000000000000000000000000000000000000000000000000000000815260040161084490613ec0565b60405180910390fd5b6108578383611f08565b505050565b61086d610867611f00565b82611fc1565b6108ac576040517f08c379a00000000000000000000000000000000000000000000000000000000081526004016108a390613f52565b60405180910390fd5b6108b7838383612056565b505050565b6108c58261234f565b610904576040517f08c379a00000000000000000000000000000000000000000000000000000000081526004016108fb90613fbe565b60405180910390fd5b3373ffffffffffffffffffffffffffffffffffffffff1661092483611219565b73ffffffffffffffffffffffffffffffffffffffff161461097a576040517f08c379a000000000000000000000000000000000000000000000000000000000815260040161097190614050565b60405180910390fd5b600081116109bd576040517f08c379a00000000000000000000000000000000000000000000000000000000081526004016109b4906140bc565b60405180910390fd5b80600d6000848152602001908152602001600020600401819055506001600d600084815260200190815260200160002060050160006101000a81548160ff02191690831515021790555033600d600084815260200190815260200160002060030160006101000a81548173ffffffffffffffffffffffffffffffffffffffff021916908373ffffffffffffffffffffffffffffffffffffffff16021790555030600d600084815260200190815260200160002060020160006101000a81548173ffffffffffffffffffffffffffffffffffffffff021916908373ffffffffffffffffffffffffffffffffffffffff160217905550610abc333084612056565b817f231c208b7b1769d9c4323b37c99fd1115e1e0651124347c214424dae3204c3723330333386604051610af4959493929190614128565b60405180910390a2817fdada05a1f900236fecce70d9c27fe4dd10a4089072be9b164d20a133cfe9d7b23033846001604051610b33949392919061418e565b60405180910390a25050565b610b5a83838360405180602001604052806000815250611a77565b505050565b60606000610b6d6008612390565b905060008060005b83811015610c025785600d6000600184610b8f9190614202565b815260200190815260200160002060010154148015610bda5750600d6000600183610bba9190614202565b815260200190815260200160002060050160009054906101000a900460ff165b15610bef57600183610bec9190614202565b92505b8080610bfa90614236565b915050610b75565b5060008267ffffffffffffffff811115610c1f57610c1e61392f565b5b604051908082528060200260200182016040528015610c5857816020015b610c4561330a565b815260200190600190039081610c3d5790505b50905060005b84811015610e245786600d6000600184610c789190614202565b815260200190815260200160002060010154148015610cc35750600d6000600183610ca39190614202565b815260200190815260200160002060050160009054906101000a900460ff165b15610e11576000600182610cd79190614202565b90506000600d60008381526020019081526020016000209050806040518060c001604052908160008201548152602001600182015481526020016002820160009054906101000a900473ffffffffffffffffffffffffffffffffffffffff1673ffffffffffffffffffffffffffffffffffffffff1673ffffffffffffffffffffffffffffffffffffffff1681526020016003820160009054906101000a900473ffffffffffffffffffffffffffffffffffffffff1673ffffffffffffffffffffffffffffffffffffffff1673ffffffffffffffffffffffffffffffffffffffff168152602001600482015481526020016005820160009054906101000a900460ff161515151581525050848681518110610df457610df361427e565b5b6020026020010181905250600185610e0c9190614202565b945050505b8080610e1c90614236565b915050610c5e565b5080945050505050919050565b60606000610e3f6008612390565b905060008060005b83811015610f60573373ffffffffffffffffffffffffffffffffffffffff16600d6000600184610e779190614202565b815260200190815260200160002060020160009054906101000a900473ffffffffffffffffffffffffffffffffffffffff1673ffffffffffffffffffffffffffffffffffffffff161480610f3857503373ffffffffffffffffffffffffffffffffffffffff16600d6000600184610eee9190614202565b815260200190815260200160002060030160009054906101000a900473ffffffffffffffffffffffffffffffffffffffff1673ffffffffffffffffffffffffffffffffffffffff16145b15610f4d57600183610f4a9190614202565b92505b8080610f5890614236565b915050610e47565b5060008267ffffffffffffffff811115610f7d57610f7c61392f565b5b604051908082528060200260200182016040528015610fb657816020015b610fa361330a565b815260200190600190039081610f9b5790505b50905060005b8481101561120e573373ffffffffffffffffffffffffffffffffffffffff16600d6000600184610fec9190614202565b815260200190815260200160002060020160009054906101000a900473ffffffffffffffffffffffffffffffffffffffff1673ffffffffffffffffffffffffffffffffffffffff1614806110ad57503373ffffffffffffffffffffffffffffffffffffffff16600d60006001846110639190614202565b815260200190815260200160002060030160009054906101000a900473ffffffffffffffffffffffffffffffffffffffff1673ffffffffffffffffffffffffffffffffffffffff16145b156111fb5760006001826110c19190614202565b90506000600d60008381526020019081526020016000209050806040518060c001604052908160008201548152602001600182015481526020016002820160009054906101000a900473ffffffffffffffffffffffffffffffffffffffff1673ffffffffffffffffffffffffffffffffffffffff1673ffffffffffffffffffffffffffffffffffffffff1681526020016003820160009054906101000a900473ffffffffffffffffffffffffffffffffffffffff1673ffffffffffffffffffffffffffffffffffffffff1673ffffffffffffffffffffffffffffffffffffffff168152602001600482015481526020016005820160009054906101000a900460ff1615151515815250508486815181106111de576111dd61427e565b5b60200260200101819052506001856111f69190614202565b945050505b808061120690614236565b915050610fbc565b508094505050505090565b6000806112258361239e565b9050600073ffffffffffffffffffffffffffffffffffffffff168173ffffffffffffffffffffffffffffffffffffffff1603611296576040517f08c379a000000000000000000000000000000000000000000000000000000000815260040161128d906142f9565b60405180910390fd5b80915050919050565b6000600c54905090565b60008073ffffffffffffffffffffffffffffffffffffffff168273ffffffffffffffffffffffffffffffffffffffff1603611319576040517f08c379a00000000000000000000000000000000000000000000000000000000081526004016113109061438b565b60405180910390fd5b600360008373ffffffffffffffffffffffffffffffffffffffff1673ffffffffffffffffffffffffffffffffffffffff168152602001908152602001600020549050919050565b61136861330a565b600d60008381526020019081526020016000206040518060c001604052908160008201548152602001600182015481526020016002820160009054906101000a900473ffffffffffffffffffffffffffffffffffffffff1673ffffffffffffffffffffffffffffffffffffffff1673ffffffffffffffffffffffffffffffffffffffff1681526020016003820160009054906101000a900473ffffffffffffffffffffffffffffffffffffffff1673ffffffffffffffffffffffffffffffffffffffff1673ffffffffffffffffffffffffffffffffffffffff168152602001600482015481526020016005820160009054906101000a900460ff1615151515815250509050919050565b60606001805461148190613d8b565b80601f01602080910402602001604051908101604052809291908181526020018280546114ad90613d8b565b80156114fa5780601f106114cf576101008083540402835291602001916114fa565b820191906000526020600020905b8154815290600101906020018083116114dd57829003601f168201915b5050505050905090565b6000600d60008381526020019081526020016000206004015490506000600d600084815260200190815260200160002060030160009054906101000a900473ffffffffffffffffffffffffffffffffffffffff16905081341461159c576040517f08c379a000000000000000000000000000000000000000000000000000000000815260040161159390614443565b60405180910390fd5b6000600d600085815260200190815260200160002060050160006101000a81548160ff02191690831515021790555033600d600085815260200190815260200160002060020160006101000a81548173ffffffffffffffffffffffffffffffffffffffff021916908373ffffffffffffffffffffffffffffffffffffffff16021790555033600d600085815260200190815260200160002060030160006101000a81548173ffffffffffffffffffffffffffffffffffffffff021916908373ffffffffffffffffffffffffffffffffffffffff16021790555061167f60096123db565b61168a303385612056565b6116943084610745565b600b60009054906101000a900473ffffffffffffffffffffffffffffffffffffffff1673ffffffffffffffffffffffffffffffffffffffff166108fc600c549081150290604051600060405180830381858888f193505050501580156116fe573d6000803e3d6000fd5b508073ffffffffffffffffffffffffffffffffffffffff166108fc349081150290604051600060405180830381858888f19350505050158015611745573d6000803e3d6000fd5b50827f231c208b7b1769d9c4323b37c99fd1115e1e0651124347c214424dae3204c372303384338760405161177e9594939291906144af565b60405180910390a2505050565b600061179760086123db565b60006117a36008612390565b90506117af33826123f1565b6117b9818561240f565b807f231c208b7b1769d9c4323b37c99fd1115e1e0651124347c214424dae3204c3723333333360006040516117f295949392919061459c565b60405180910390a261180481846124b3565b8091505092915050565b6118178161234f565b611856576040517f08c379a000000000000000000000000000000000000000000000000000000000815260040161184d90613fbe565b60405180910390fd5b600d600082815260200190815260200160002060030160009054906101000a900473ffffffffffffffffffffffffffffffffffffffff1673ffffffffffffffffffffffffffffffffffffffff163373ffffffffffffffffffffffffffffffffffffffff16146118fa576040517f08c379a00000000000000000000000000000000000000000000000000000000081526004016118f190614674565b60405180910390fd5b33600d600083815260200190815260200160002060020160006101000a81548173ffffffffffffffffffffffffffffffffffffffff021916908373ffffffffffffffffffffffffffffffffffffffff16021790555033600d600083815260200190815260200160002060030160006101000a81548173ffffffffffffffffffffffffffffffffffffffff021916908373ffffffffffffffffffffffffffffffffffffffff1602179055506000600d600083815260200190815260200160002060050160006101000a81548160ff0219169083151502179055506119de303383612056565b807f231c208b7b1769d9c4323b37c99fd1115e1e0651124347c214424dae3204c372303333336000604051611a179594939291906146e0565b60405180910390a2807fdada05a1f900236fecce70d9c27fe4dd10a4089072be9b164d20a133cfe9d7b23333600080604051611a569493929190614746565b60405180910390a250565b611a73611a6c611f00565b838361271c565b5050565b611a88611a82611f00565b83611fc1565b611ac7576040517f08c379a0000000000000000000000000000000000000000000000000000000008152600401611abe90613f52565b60405180910390fd5b611ad384848484612888565b50505050565b3373ffffffffffffffffffffffffffffffffffffffff16600b60009054906101000a900473ffffffffffffffffffffffffffffffffffffffff1673ffffffffffffffffffffffffffffffffffffffff1614611b69576040517f08c379a0000000000000000000000000000000000000000000000000000000008152600401611b60906147fd565b60405180910390fd5b80600c8190555050565b6000611b7f60086123db565b6000611b8b6008612390565b9050611b9733826123f1565b611ba1818561240f565b807f231c208b7b1769d9c4323b37c99fd1115e1e0651124347c214424dae3204c372333333336000604051611bda95949392919061459c565b60405180910390a2611bec81846128e4565b8091505092915050565b6060611c0182611eb5565b6000600660008481526020019081526020016000208054611c2190613d8b565b80601f0160208091040260200160405190810160405280929190818152602001828054611c4d90613d8b565b8015611c9a5780601f10611c6f57610100808354040283529160200191611c9a565b820191906000526020600020905b815481529060010190602001808311611c7d57829003601f168201915b505050505090506000611cab612bd2565b90506000815103611cc0578192505050611d03565b600082511115611cf5578082604051602001611cdd929190614859565b60405160208183030381529060405292505050611d03565b611cfe84612be9565b925050505b919050565b600760009054906101000a900473ffffffffffffffffffffffffffffffffffffffff1681565b6000600560008473ffffffffffffffffffffffffffffffffffffffff1673ffffffffffffffffffffffffffffffffffffffff16815260200190815260200160002060008373ffffffffffffffffffffffffffffffffffffffff1673ffffffffffffffffffffffffffffffffffffffff16815260200190815260200160002060009054906101000a900460ff16905092915050565b6000611dce6008612390565b905090565b60007f80ac58cd000000000000000000000000000000000000000000000000000000007bffffffffffffffffffffffffffffffffffffffffffffffffffffffff1916827bffffffffffffffffffffffffffffffffffffffffffffffffffffffff19161480611e9e57507f5b5e139f000000000000000000000000000000000000000000000000000000007bffffffffffffffffffffffffffffffffffffffffffffffffffffffff1916827bffffffffffffffffffffffffffffffffffffffffffffffffffffffff1916145b80611eae5750611ead82612c51565b5b9050919050565b611ebe8161234f565b611efd576040517f08c379a0000000000000000000000000000000000000000000000000000000008152600401611ef4906142f9565b60405180910390fd5b50565b600033905090565b816004600083815260200190815260200160002060006101000a81548173ffffffffffffffffffffffffffffffffffffffff021916908373ffffffffffffffffffffffffffffffffffffffff160217905550808273ffffffffffffffffffffffffffffffffffffffff16611f7b83611219565b73ffffffffffffffffffffffffffffffffffffffff167f8c5be1e5ebec7d5bd14f71427d1e84f3dd0314c0f7b2291e5b200ac8c7c3b92560405160405180910390a45050565b600080611fcd83611219565b90508073ffffffffffffffffffffffffffffffffffffffff168473ffffffffffffffffffffffffffffffffffffffff16148061200f575061200e8185611d2e565b5b8061204d57508373ffffffffffffffffffffffffffffffffffffffff16612035846106ff565b73ffffffffffffffffffffffffffffffffffffffff16145b91505092915050565b8273ffffffffffffffffffffffffffffffffffffffff1661207682611219565b73ffffffffffffffffffffffffffffffffffffffff16146120cc576040517f08c379a00000000000000000000000000000000000000000000000000000000081526004016120c3906148ef565b60405180910390fd5b600073ffffffffffffffffffffffffffffffffffffffff168273ffffffffffffffffffffffffffffffffffffffff160361213b576040517f08c379a000000000000000000000000000000000000000000000000000000000815260040161213290614981565b60405180910390fd5b6121488383836001612cbb565b8273ffffffffffffffffffffffffffffffffffffffff1661216882611219565b73ffffffffffffffffffffffffffffffffffffffff16146121be576040517f08c379a00000000000000000000000000000000000000000000000000000000081526004016121b5906148ef565b60405180910390fd5b6004600082815260200190815260200160002060006101000a81549073ffffffffffffffffffffffffffffffffffffffff02191690556001600360008573ffffffffffffffffffffffffffffffffffffffff1673ffffffffffffffffffffffffffffffffffffffff168152602001908152602001600020600082825403925050819055506001600360008473ffffffffffffffffffffffffffffffffffffffff1673ffffffffffffffffffffffffffffffffffffffff16815260200190815260200160002060008282540192505081905550816002600083815260200190815260200160002060006101000a81548173ffffffffffffffffffffffffffffffffffffffff021916908373ffffffffffffffffffffffffffffffffffffffff160217905550808273ffffffffffffffffffffffffffffffffffffffff168473ffffffffffffffffffffffffffffffffffffffff167fddf252ad1be2c89b69c2b068fc378daa952ba7f163c4a11628f55a4df523b3ef60405160405180910390a461234a8383836001612cc1565b505050565b60008073ffffffffffffffffffffffffffffffffffffffff166123718361239e565b73ffffffffffffffffffffffffffffffffffffffff1614159050919050565b600081600001549050919050565b60006002600083815260200190815260200160002060009054906101000a900473ffffffffffffffffffffffffffffffffffffffff169050919050565b6001816000016000828254019250508190555050565b61240b828260405180602001604052806000815250612cc7565b5050565b6124188261234f565b612457576040517f08c379a000000000000000000000000000000000000000000000000000000000815260040161244e90614a13565b60405180910390fd5b806006600084815260200190815260200160002090816124779190614bd5565b507ff8e1a15aba9398e019f0b49df1a4fde98ee17ae345cb5f6b5e2c27f5033e8ce7826040516124a79190613847565b60405180910390a15050565b6040518060c00160405280838152602001600760009054906101000a900473ffffffffffffffffffffffffffffffffffffffff1673ffffffffffffffffffffffffffffffffffffffff1663b2a90087336040518263ffffffff1660e01b815260040161251f9190613593565b602060405180830381865afa15801561253c573d6000803e3d6000fd5b505050506040513d601f19601f820116820180604052508101906125609190614cbc565b81526020018273ffffffffffffffffffffffffffffffffffffffff1681526020018273ffffffffffffffffffffffffffffffffffffffff1681526020016000815260200160001515815250600d6000848152602001908152602001600020600082015181600001556020820151816001015560408201518160020160006101000a81548173ffffffffffffffffffffffffffffffffffffffff021916908373ffffffffffffffffffffffffffffffffffffffff16021790555060608201518160030160006101000a81548173ffffffffffffffffffffffffffffffffffffffff021916908373ffffffffffffffffffffffffffffffffffffffff1602179055506080820151816004015560a08201518160050160006101000a81548160ff021916908315150217905550905050612698338284612056565b817f231c208b7b1769d9c4323b37c99fd1115e1e0651124347c214424dae3204c3723083308560006040516126d1959493929190614d35565b60405180910390a2817fdada05a1f900236fecce70d9c27fe4dd10a4089072be9b164d20a133cfe9d7b282836000806040516127109493929190614746565b60405180910390a25050565b8173ffffffffffffffffffffffffffffffffffffffff168373ffffffffffffffffffffffffffffffffffffffff160361278a576040517f08c379a000000000000000000000000000000000000000000000000000000000815260040161278190614de7565b60405180910390fd5b80600560008573ffffffffffffffffffffffffffffffffffffffff1673ffffffffffffffffffffffffffffffffffffffff16815260200190815260200160002060008473ffffffffffffffffffffffffffffffffffffffff1673ffffffffffffffffffffffffffffffffffffffff16815260200190815260200160002060006101000a81548160ff0219169083151502179055508173ffffffffffffffffffffffffffffffffffffffff168373ffffffffffffffffffffffffffffffffffffffff167f17307eab39ab6107e8899845ad3d59bd9653f200f220920489ca2b5937696c318360405161287b9190613422565b60405180910390a3505050565b612893848484612056565b61289f84848484612d22565b6128de576040517f08c379a00000000000000000000000000000000000000000000000000000000081526004016128d590614e79565b60405180910390fd5b50505050565b600c543414612928576040517f08c379a000000000000000000000000000000000000000000000000000000000815260040161291f90614ee5565b60405180910390fd5b6000811161296b576040517f08c379a000000000000000000000000000000000000000000000000000000000815260040161296290614f51565b60405180910390fd5b6040518060c00160405280838152602001600760009054906101000a900473ffffffffffffffffffffffffffffffffffffffff1673ffffffffffffffffffffffffffffffffffffffff1663b2a90087336040518263ffffffff1660e01b81526004016129d79190613593565b602060405180830381865afa1580156129f4573d6000803e3d6000fd5b505050506040513d601f19601f82011682018060405250810190612a189190614cbc565b81526020013073ffffffffffffffffffffffffffffffffffffffff1681526020013373ffffffffffffffffffffffffffffffffffffffff16815260200182815260200160011515815250600d6000848152602001908152602001600020600082015181600001556020820151816001015560408201518160020160006101000a81548173ffffffffffffffffffffffffffffffffffffffff021916908373ffffffffffffffffffffffffffffffffffffffff16021790555060608201518160030160006101000a81548173ffffffffffffffffffffffffffffffffffffffff021916908373ffffffffffffffffffffffffffffffffffffffff1602179055506080820151816004015560a08201518160050160006101000a81548160ff021916908315150217905550905050612b4f333084612056565b817f231c208b7b1769d9c4323b37c99fd1115e1e0651124347c214424dae3204c3723030333386604051612b87959493929190614fbd565b60405180910390a2817fdada05a1f900236fecce70d9c27fe4dd10a4089072be9b164d20a133cfe9d7b23033846001604051612bc6949392919061418e565b60405180910390a25050565b606060405180602001604052806000815250905090565b6060612bf482611eb5565b6000612bfe612bd2565b90506000815111612c1e5760405180602001604052806000815250612c49565b80612c2884612ea9565b604051602001612c39929190614859565b6040516020818303038152906040525b915050919050565b60007f01ffc9a7000000000000000000000000000000000000000000000000000000007bffffffffffffffffffffffffffffffffffffffffffffffffffffffff1916827bffffffffffffffffffffffffffffffffffffffffffffffffffffffff1916149050919050565b50505050565b50505050565b612cd18383612f77565b612cde6000848484612d22565b612d1d576040517f08c379a0000000000000000000000000000000000000000000000000000000008152600401612d1490614e79565b60405180910390fd5b505050565b6000612d438473ffffffffffffffffffffffffffffffffffffffff16613194565b15612e9c578373ffffffffffffffffffffffffffffffffffffffff1663150b7a02612d6c611f00565b8786866040518563ffffffff1660e01b8152600401612d8e9493929190615078565b6020604051808303816000875af1925050508015612dca57506040513d601f19601f82011682018060405250810190612dc791906150d9565b60015b612e4c573d8060008114612dfa576040519150601f19603f3d011682016040523d82523d6000602084013e612dff565b606091505b506000815103612e44576040517f08c379a0000000000000000000000000000000000000000000000000000000008152600401612e3b90614e79565b60405180910390fd5b805181602001fd5b63150b7a0260e01b7bffffffffffffffffffffffffffffffffffffffffffffffffffffffff1916817bffffffffffffffffffffffffffffffffffffffffffffffffffffffff191614915050612ea1565b600190505b949350505050565b606060006001612eb8846131b7565b01905060008167ffffffffffffffff811115612ed757612ed661392f565b5b6040519080825280601f01601f191660200182016040528015612f095781602001600182028036833780820191505090505b509050600082602001820190505b600115612f6c578080600190039150507f3031323334353637383961626364656600000000000000000000000000000000600a86061a8153600a8581612f6057612f5f615106565b5b04945060008503612f17575b819350505050919050565b600073ffffffffffffffffffffffffffffffffffffffff168273ffffffffffffffffffffffffffffffffffffffff1603612fe6576040517f08c379a0000000000000000000000000000000000000000000000000000000008152600401612fdd90615181565b60405180910390fd5b612fef8161234f565b1561302f576040517f08c379a0000000000000000000000000000000000000000000000000000000008152600401613026906151ed565b60405180910390fd5b61303d600083836001612cbb565b6130468161234f565b15613086576040517f08c379a000000000000000000000000000000000000000000000000000000000815260040161307d906151ed565b60405180910390fd5b6001600360008473ffffffffffffffffffffffffffffffffffffffff1673ffffffffffffffffffffffffffffffffffffffff16815260200190815260200160002060008282540192505081905550816002600083815260200190815260200160002060006101000a81548173ffffffffffffffffffffffffffffffffffffffff021916908373ffffffffffffffffffffffffffffffffffffffff160217905550808273ffffffffffffffffffffffffffffffffffffffff16600073ffffffffffffffffffffffffffffffffffffffff167fddf252ad1be2c89b69c2b068fc378daa952ba7f163c4a11628f55a4df523b3ef60405160405180910390a4613190600083836001612cc1565b5050565b6000808273ffffffffffffffffffffffffffffffffffffffff163b119050919050565b600080600090507a184f03e93ff9f4daa797ed6e38ed64bf6a1f0100000000000000008310613215577a184f03e93ff9f4daa797ed6e38ed64bf6a1f010000000000000000838161320b5761320a615106565b5b0492506040810190505b6d04ee2d6d415b85acef81000000008310613252576d04ee2d6d415b85acef8100000000838161324857613247615106565b5b0492506020810190505b662386f26fc10000831061328157662386f26fc10000838161327757613276615106565b5b0492506010810190505b6305f5e10083106132aa576305f5e10083816132a05761329f615106565b5b0492506008810190505b61271083106132cf5761271083816132c5576132c4615106565b5b0492506004810190505b606483106132f257606483816132e8576132e7615106565b5b0492506002810190505b600a8310613301576001810190505b80915050919050565b6040518060c001604052806000815260200160008152602001600073ffffffffffffffffffffffffffffffffffffffff168152602001600073ffffffffffffffffffffffffffffffffffffffff168152602001600081526020016000151581525090565b6000604051905090565b600080fd5b600080fd5b60007fffffffff0000000000000000000000000000000000000000000000000000000082169050919050565b6133b781613382565b81146133c257600080fd5b50565b6000813590506133d4816133ae565b92915050565b6000602082840312156133f0576133ef613378565b5b60006133fe848285016133c5565b91505092915050565b60008115159050919050565b61341c81613407565b82525050565b60006020820190506134376000830184613413565b92915050565b600081519050919050565b600082825260208201905092915050565b60005b8381101561347757808201518184015260208101905061345c565b60008484015250505050565b6000601f19601f8301169050919050565b600061349f8261343d565b6134a98185613448565b93506134b9818560208601613459565b6134c281613483565b840191505092915050565b600060208201905081810360008301526134e78184613494565b905092915050565b6000819050919050565b613502816134ef565b811461350d57600080fd5b50565b60008135905061351f816134f9565b92915050565b60006020828403121561353b5761353a613378565b5b600061354984828501613510565b91505092915050565b600073ffffffffffffffffffffffffffffffffffffffff82169050919050565b600061357d82613552565b9050919050565b61358d81613572565b82525050565b60006020820190506135a86000830184613584565b92915050565b6135b781613572565b81146135c257600080fd5b50565b6000813590506135d4816135ae565b92915050565b600080604083850312156135f1576135f0613378565b5b60006135ff858286016135c5565b925050602061361085828601613510565b9150509250929050565b60008060006060848603121561363357613632613378565b5b6000613641868287016135c5565b9350506020613652868287016135c5565b925050604061366386828701613510565b9150509250925092565b6000806040838503121561368457613683613378565b5b600061369285828601613510565b92505060206136a385828601613510565b9150509250929050565b600081519050919050565b600082825260208201905092915050565b6000819050602082019050919050565b6136e2816134ef565b82525050565b60006136f382613552565b9050919050565b613703816136e8565b82525050565b61371281613407565b82525050565b60c08201600082015161372e60008501826136d9565b50602082015161374160208501826136d9565b50604082015161375460408501826136fa565b50606082015161376760608501826136fa565b50608082015161377a60808501826136d9565b5060a082015161378d60a0850182613709565b50505050565b600061379f8383613718565b60c08301905092915050565b6000602082019050919050565b60006137c3826136ad565b6137cd81856136b8565b93506137d8836136c9565b8060005b838110156138095781516137f08882613793565b97506137fb836137ab565b9250506001810190506137dc565b5085935050505092915050565b6000602082019050818103600083015261383081846137b8565b905092915050565b613841816134ef565b82525050565b600060208201905061385c6000830184613838565b92915050565b60006020828403121561387857613877613378565b5b6000613886848285016135c5565b91505092915050565b60c0820160008201516138a560008501826136d9565b5060208201516138b860208501826136d9565b5060408201516138cb60408501826136fa565b5060608201516138de60608501826136fa565b5060808201516138f160808501826136d9565b5060a082015161390460a0850182613709565b50505050565b600060c08201905061391f600083018461388f565b92915050565b600080fd5b600080fd5b7f4e487b7100000000000000000000000000000000000000000000000000000000600052604160045260246000fd5b61396782613483565b810181811067ffffffffffffffff821117156139865761398561392f565b5b80604052505050565b600061399961336e565b90506139a5828261395e565b919050565b600067ffffffffffffffff8211156139c5576139c461392f565b5b6139ce82613483565b9050602081019050919050565b82818337600083830152505050565b60006139fd6139f8846139aa565b61398f565b905082815260208101848484011115613a1957613a1861392a565b5b613a248482856139db565b509392505050565b600082601f830112613a4157613a40613925565b5b8135613a518482602086016139ea565b91505092915050565b60008060408385031215613a7157613a70613378565b5b600083013567ffffffffffffffff811115613a8f57613a8e61337d565b5b613a9b85828601613a2c565b9250506020613aac858286016135c5565b9150509250929050565b613abf81613407565b8114613aca57600080fd5b50565b600081359050613adc81613ab6565b92915050565b60008060408385031215613af957613af8613378565b5b6000613b07858286016135c5565b9250506020613b1885828601613acd565b9150509250929050565b600067ffffffffffffffff821115613b3d57613b3c61392f565b5b613b4682613483565b9050602081019050919050565b6000613b66613b6184613b22565b61398f565b905082815260208101848484011115613b8257613b8161392a565b5b613b8d8482856139db565b509392505050565b600082601f830112613baa57613ba9613925565b5b8135613bba848260208601613b53565b91505092915050565b60008060008060808587031215613bdd57613bdc613378565b5b6000613beb878288016135c5565b9450506020613bfc878288016135c5565b9350506040613c0d87828801613510565b925050606085013567ffffffffffffffff811115613c2e57613c2d61337d565b5b613c3a87828801613b95565b91505092959194509250565b60008060408385031215613c5d57613c5c613378565b5b600083013567ffffffffffffffff811115613c7b57613c7a61337d565b5b613c8785828601613a2c565b9250506020613c9885828601613510565b9150509250929050565b6000819050919050565b6000613cc7613cc2613cbd84613552565b613ca2565b613552565b9050919050565b6000613cd982613cac565b9050919050565b6000613ceb82613cce565b9050919050565b613cfb81613ce0565b82525050565b6000602082019050613d166000830184613cf2565b92915050565b60008060408385031215613d3357613d32613378565b5b6000613d41858286016135c5565b9250506020613d52858286016135c5565b9150509250929050565b7f4e487b7100000000000000000000000000000000000000000000000000000000600052602260045260246000fd5b60006002820490506001821680613da357607f821691505b602082108103613db657613db5613d5c565b5b50919050565b7f4552433732313a20617070726f76616c20746f2063757272656e74206f776e6560008201527f7200000000000000000000000000000000000000000000000000000000000000602082015250565b6000613e18602183613448565b9150613e2382613dbc565b604082019050919050565b60006020820190508181036000830152613e4781613e0b565b9050919050565b7f4552433732313a20617070726f76652063616c6c6572206973206e6f7420746f60008201527f6b656e206f776e6572206f7220617070726f76656420666f7220616c6c000000602082015250565b6000613eaa603d83613448565b9150613eb582613e4e565b604082019050919050565b60006020820190508181036000830152613ed981613e9d565b9050919050565b7f4552433732313a2063616c6c6572206973206e6f7420746f6b656e206f776e6560008201527f72206f7220617070726f76656400000000000000000000000000000000000000602082015250565b6000613f3c602d83613448565b9150613f4782613ee0565b604082019050919050565b60006020820190508181036000830152613f6b81613f2f565b9050919050565b7f496e76616c696420746f6b656e20494400000000000000000000000000000000600082015250565b6000613fa8601083613448565b9150613fb382613f72565b602082019050919050565b60006020820190508181036000830152613fd781613f9b565b9050919050565b7f596f7520617265206e6f7420746865206f776e6572206f66207468697320746f60008201527f6b656e0000000000000000000000000000000000000000000000000000000000602082015250565b600061403a602383613448565b915061404582613fde565b604082019050919050565b600060208201905081810360008301526140698161402d565b9050919050565b7f5072696365206d7573742062652067726561746572207468616e207a65726f00600082015250565b60006140a6601f83613448565b91506140b182614070565b602082019050919050565b600060208201905081810360008301526140d581614099565b9050919050565b7f4c697374206f6e204d61726b6574706c61636500000000000000000000000000600082015250565b6000614112601383613448565b915061411d826140dc565b602082019050919050565b600060c08201905061413d6000830188613584565b61414a6020830187613584565b6141576040830186613584565b6141646060830185613584565b6141716080830184613838565b81810360a083015261418281614105565b90509695505050505050565b60006080820190506141a36000830187613584565b6141b06020830186613584565b6141bd6040830185613838565b6141ca6060830184613413565b95945050505050565b7f4e487b7100000000000000000000000000000000000000000000000000000000600052601160045260246000fd5b600061420d826134ef565b9150614218836134ef565b92508282019050808211156142305761422f6141d3565b5b92915050565b6000614241826134ef565b91507fffffffffffffffffffffffffffffffffffffffffffffffffffffffffffffffff8203614273576142726141d3565b5b600182019050919050565b7f4e487b7100000000000000000000000000000000000000000000000000000000600052603260045260246000fd5b7f4552433732313a20696e76616c696420746f6b656e2049440000000000000000600082015250565b60006142e3601883613448565b91506142ee826142ad565b602082019050919050565b60006020820190508181036000830152614312816142d6565b9050919050565b7f4552433732313a2061646472657373207a65726f206973206e6f74206120766160008201527f6c6964206f776e65720000000000000000000000000000000000000000000000602082015250565b6000614375602983613448565b915061438082614319565b604082019050919050565b600060208201905081810360008301526143a481614368565b9050919050565b7f596f75206e65656420746f20736574207468652061736b696e6720707269636560008201527f20696e206f7264657220746f20636f6d706c657465207468652070757263686160208201527f7365000000000000000000000000000000000000000000000000000000000000604082015250565b600061442d604283613448565b9150614438826143ab565b606082019050919050565b6000602082019050818103600083015261445c81614420565b9050919050565b7f427579204e465400000000000000000000000000000000000000000000000000600082015250565b6000614499600783613448565b91506144a482614463565b602082019050919050565b600060c0820190506144c46000830188613584565b6144d16020830187613584565b6144de6040830186613584565b6144eb6060830185613584565b6144f86080830184613838565b81810360a08301526145098161448c565b90509695505050505050565b6000819050919050565b600061453a61453561453084614515565b613ca2565b6134ef565b9050919050565b61454a8161451f565b82525050565b7f6d696e7400000000000000000000000000000000000000000000000000000000600082015250565b6000614586600483613448565b915061459182614550565b602082019050919050565b600060c0820190506145b16000830188613584565b6145be6020830187613584565b6145cb6040830186613584565b6145d86060830185613584565b6145e56080830184614541565b81810360a08301526145f681614579565b90509695505050505050565b7f594f75206e65656420746f206265207468652073656c6c6572206f662074686560008201527f204e465420746f2073656c6c2069740000000000000000000000000000000000602082015250565b600061465e602f83613448565b915061466982614602565b604082019050919050565b6000602082019050818103600083015261468d81614651565b9050919050565b7f52656d6f76652066726f6d206d61726b6574706c616365000000000000000000600082015250565b60006146ca601783613448565b91506146d582614694565b602082019050919050565b600060c0820190506146f56000830188613584565b6147026020830187613584565b61470f6040830186613584565b61471c6060830185613584565b6147296080830184614541565b81810360a083015261473a816146bd565b90509695505050505050565b600060808201905061475b6000830187613584565b6147686020830186613584565b6147756040830185614541565b6147826060830184613413565b95945050505050565b7f4f6e6c79206f776e65722063616e20757064617465206c697374696e6720707260008201527f6963650000000000000000000000000000000000000000000000000000000000602082015250565b60006147e7602383613448565b91506147f28261478b565b604082019050919050565b60006020820190508181036000830152614816816147da565b9050919050565b600081905092915050565b60006148338261343d565b61483d818561481d565b935061484d818560208601613459565b80840191505092915050565b60006148658285614828565b91506148718284614828565b91508190509392505050565b7f4552433732313a207472616e736665722066726f6d20696e636f72726563742060008201527f6f776e6572000000000000000000000000000000000000000000000000000000602082015250565b60006148d9602583613448565b91506148e48261487d565b604082019050919050565b60006020820190508181036000830152614908816148cc565b9050919050565b7f4552433732313a207472616e7366657220746f20746865207a65726f2061646460008201527f7265737300000000000000000000000000000000000000000000000000000000602082015250565b600061496b602483613448565b91506149768261490f565b604082019050919050565b6000602082019050818103600083015261499a8161495e565b9050919050565b7f45524337323155524953746f726167653a2055524920736574206f66206e6f6e60008201527f6578697374656e7420746f6b656e000000000000000000000000000000000000602082015250565b60006149fd602e83613448565b9150614a08826149a1565b604082019050919050565b60006020820190508181036000830152614a2c816149f0565b9050919050565b60008190508160005260206000209050919050565b60006020601f8301049050919050565b600082821b905092915050565b600060088302614a957fffffffffffffffffffffffffffffffffffffffffffffffffffffffffffffffff82614a58565b614a9f8683614a58565b95508019841693508086168417925050509392505050565b6000614ad2614acd614ac8846134ef565b613ca2565b6134ef565b9050919050565b6000819050919050565b614aec83614ab7565b614b00614af882614ad9565b848454614a65565b825550505050565b600090565b614b15614b08565b614b20818484614ae3565b505050565b5b81811015614b4457614b39600082614b0d565b600181019050614b26565b5050565b601f821115614b8957614b5a81614a33565b614b6384614a48565b81016020851015614b72578190505b614b86614b7e85614a48565b830182614b25565b50505b505050565b600082821c905092915050565b6000614bac60001984600802614b8e565b1980831691505092915050565b6000614bc58383614b9b565b9150826002028217905092915050565b614bde8261343d565b67ffffffffffffffff811115614bf757614bf661392f565b5b614c018254613d8b565b614c0c828285614b48565b600060209050601f831160018114614c3f5760008415614c2d578287015190505b614c378582614bb9565b865550614c9f565b601f198416614c4d86614a33565b60005b82811015614c7557848901518255600182019150602085019450602081019050614c50565b86831015614c925784890151614c8e601f891682614b9b565b8355505b6001600288020188555050505b505050505050565b600081519050614cb6816134f9565b92915050565b600060208284031215614cd257614cd1613378565b5b6000614ce084828501614ca7565b91505092915050565b7f53656e6420746f20637573746f6d657200000000000000000000000000000000600082015250565b6000614d1f601083613448565b9150614d2a82614ce9565b602082019050919050565b600060c082019050614d4a6000830188613584565b614d576020830187613584565b614d646040830186613584565b614d716060830185613584565b614d7e6080830184614541565b81810360a0830152614d8f81614d12565b90509695505050505050565b7f4552433732313a20617070726f766520746f2063616c6c657200000000000000600082015250565b6000614dd1601983613448565b9150614ddc82614d9b565b602082019050919050565b60006020820190508181036000830152614e0081614dc4565b9050919050565b7f4552433732313a207472616e7366657220746f206e6f6e20455243373231526560008201527f63656976657220696d706c656d656e7465720000000000000000000000000000602082015250565b6000614e63603283613448565b9150614e6e82614e07565b604082019050919050565b60006020820190508181036000830152614e9281614e56565b9050919050565b7f596f75206e65656420746f2073656e6420746865206c697374696e6720666565600082015250565b6000614ecf602083613448565b9150614eda82614e99565b602082019050919050565b60006020820190508181036000830152614efe81614ec2565b9050919050565b7f5072696365206e65656420746f20626520706f73697469766500000000000000600082015250565b6000614f3b601983613448565b9150614f4682614f05565b602082019050919050565b60006020820190508181036000830152614f6a81614f2e565b9050919050565b7f53656e6420746f206d61726b6574706c61636500000000000000000000000000600082015250565b6000614fa7601383613448565b9150614fb282614f71565b602082019050919050565b600060c082019050614fd26000830188613584565b614fdf6020830187613584565b614fec6040830186613584565b614ff96060830185613584565b6150066080830184613838565b81810360a083015261501781614f9a565b90509695505050505050565b600081519050919050565b600082825260208201905092915050565b600061504a82615023565b615054818561502e565b9350615064818560208601613459565b61506d81613483565b840191505092915050565b600060808201905061508d6000830187613584565b61509a6020830186613584565b6150a76040830185613838565b81810360608301526150b9818461503f565b905095945050505050565b6000815190506150d3816133ae565b92915050565b6000602082840312156150ef576150ee613378565b5b60006150fd848285016150c4565b91505092915050565b7f4e487b7100000000000000000000000000000000000000000000000000000000600052601260045260246000fd5b7f4552433732313a206d696e7420746f20746865207a65726f2061646472657373600082015250565b600061516b602083613448565b915061517682615135565b602082019050919050565b6000602082019050818103600083015261519a8161515e565b9050919050565b7f4552433732313a20746f6b656e20616c7265616479206d696e74656400000000600082015250565b60006151d7601c83613448565b91506151e2826151a1565b602082019050919050565b60006020820190508181036000830152615206816151ca565b905091905056fea2646970667358221220b7334ddf7c3e4e06b6d99d23f4362a2b8a1f8ae920fc4c4c0205729b012d6c6464736f6c63430008130033",
  "immutableReferences": {},
  "source": "//SPDX-License-Identifier: GPL-3.0\npragma solidity ^0.8.19;\n\nimport \"../node_modules/@openzeppelin/contracts/utils/Counters.sol\";\nimport \"../node_modules/@openzeppelin/contracts/token/ERC721/extensions/ERC721URIStorage.sol\";\nimport \"../node_modules/@openzeppelin/contracts/token/ERC721/ERC721.sol\";\nimport \"./LTYAccount.sol\";\n\n/// @title Loyalty Marketplace\n/// @author Thibaut Pauget\n/// @notice Loyalty NFT Marketplace : Mint, Send, Buy, Sell NFT\n/// @dev All function calls are currently implemented without side effects\ncontract LTYMarketplace is ERC721URIStorage {\n    using Counters for Counters.Counter;\n\n    LTYAccount public LTYAccountContract;\n\n    //_tokenIds variable has the most recent minted tokenId\n    Counters.Counter private _tokenIds;\n\n    //Keeps track of the number of items sold on the marketplace\n    Counters.Counter private _itemsSold;\n\n    //_Brandids variable has the most recent minted tokenId\n    Counters.Counter private _brandsIds;\n\n    //owner of the contract\n    address payable owner;\n\n    //The fee charged by the marketplace to be allowed to list an NFT\n    uint256 listPrice = 0.01 ether;\n\n    //Structure to store info about an NFT\n    struct ListedToken {\n        uint256 tokenId;\n        uint256 brandId;\n        address payable owner;\n        address payable seller;\n        uint256 price;\n        bool currentlyListed;\n    }\n\n    //the event emitted when a NFT is successfully listed\n    event EventTokenListedSuccess(\n        uint256 indexed tokenId,\n        address owner,\n        address seller,\n        uint256 price,\n        bool currentlyListed\n    );\n\n    //the event emit when an action is set on NFT (mint, list, delist ...)\n    event EventTokenTransaction(\n        uint256 indexed tokenId,\n        address ownerFrom,\n        address ownerTo,\n        address sellerFrom,\n        address sellerTo,\n        uint256 price,\n        string transactionType\n    );\n\n    //This mapping maps tokenId to token info and is helpful when retrieving details about a tokenId\n    mapping(uint256 => ListedToken) private idToListedToken;\n\n    //mapping to store all brands\n    //mapping(uint256 => UserAccount) private idToListedBrand;\n\n    //Mapping of brand\n    //mapping(address => UserAccount) public userAccounts;\n\n    constructor(address _LTYAccountContractAddress) ERC721(\"LoyaltyChain\", \"LTY\") {\n        owner = payable(msg.sender);\n        LTYAccountContract = LTYAccount(_LTYAccountContractAddress);\n    }\n\n    /// @notice Update listing price fees\n    /// @param _listPrice Price of the listing fees\n    ///TO DO  a mettre Ownable\n    function updateListPrice(uint256 _listPrice) public payable {\n        require(owner == msg.sender, \"Only owner can update listing price\");\n        listPrice = _listPrice;\n    }\n\n    /// @notice Get detail of NFT Token from Id\n    /// @param _tokenId of the brand\n    /// @return ListedToken\n    function getListedTokenForId(uint256 _tokenId)\n        public\n        view\n        returns (ListedToken memory)\n    {\n        return idToListedToken[_tokenId];\n    }\n\n    /// @notice Get current NFT Id\n    /// @return current Id\n    function getCurrentToken() public view returns (uint256) {\n        return _tokenIds.current();\n    }\n\n    /// @notice Mint and list NFT on marketplace\n    /// @dev Mint (and list NFT on marketplace with createListedToken)\n    /// @param _tokenURI of th NFT (IPFS URL with the NFT metadata)\n    /// @param _price initial listing price\n    /// @return newTokenId\n    function createTokenToMarketplace(string memory _tokenURI, uint256 _price)\n        public\n        payable\n        returns (uint256)\n    {\n        //Check if the minter is a authorized to mint NFT\n       /* \n       require( \n            LTYAccountContract.userAccounts[msg.sender].isBrandRegisterOnPlatform == true,\n            \"You need to be a registred brand to mint NFT\"\n        );\n        */\n        //Increment the tokenId counter, which is keeping track of the number of minted NFTs\n        _tokenIds.increment();\n        uint256 newTokenId = _tokenIds.current();\n\n        //Mint the NFT with newTokenId to the address who called createTokenToMarketplace\n        _safeMint(msg.sender, newTokenId);\n\n        //Map the tokenId with the tokenURI\n        _setTokenURI(newTokenId, _tokenURI);\n\n        emit EventTokenTransaction(\n            newTokenId,\n            msg.sender,\n            msg.sender,\n            msg.sender,\n            msg.sender,\n            0,\n            \"mint\"\n        );\n\n        //update Global variables, list NFT on marketplace,  and emit an event\n        createListedToken(newTokenId, _price);\n        return newTokenId;\n    }\n\n    /// @notice Mint and send NFT to an address\n    /// @dev Mint (and send NFT to an address with createListedTokenAndSendToAddress)\n    /// @param _tokenURI of th NFT (IPFS URL with the NFT metadata)\n    /// @param _addr address of the future Owner\n    /// @return newTokenId\n\n    function createTokenToAddress(string memory _tokenURI, address _addr)\n        public\n        payable\n        returns (uint256)\n    {\n        //Check if the minter is a authorized to mint NFT\n        /*\n        require(\n            LTYAccountContract.userAccounts[msg.sender].isBrandRegisterOnPlatform == true,\n            \"You need to be a registred brand to mint NFT\"\n        );\n        */\n        //Increment the tokenId counter, which is keeping track of the number of minted NFTs\n        _tokenIds.increment();\n        uint256 newTokenId = _tokenIds.current();\n\n        //Mint the NFT with tokenId newTokenId to the address who called createToken\n        _safeMint(msg.sender, newTokenId);\n\n        //Map the tokenId to the tokenURI (which is an IPFS URL with the NFT metadata)\n        _setTokenURI(newTokenId, _tokenURI);\n\n        emit EventTokenTransaction(\n            newTokenId,\n            msg.sender,\n            msg.sender,\n            msg.sender,\n            msg.sender,\n            0,\n            \"mint\"\n        );\n\n        //update Global variables, send NFT to his new Owner,  and emit an event\n        createListedTokenAndSendToAddress(newTokenId, _addr);\n        return newTokenId;\n    }\n\n   \n    /// @notice Send NFT to marketplace\n    /// @dev Update Global Variable, Send NFT to marketplace and emit event\n    /// @param _tokenId of the NFT to list on marketplace\n    /// @param _price of the listed NFT\n    function createListedToken(uint256 _tokenId, uint256 _price) private {\n        //Check if the minter is a authorized to mint NFT\n        /*\n        require(\n            LTYAccountContract.userAccounts[msg.sender].isBrandRegisterOnPlatform == true,\n            \"You need to be a registred brand to mint NFT\"\n        );\n        */\n        //Make sure the sender sent enough ETH to pay for listing\n        require(msg.value == listPrice, \"You need to send the listing fee\");\n        require(_price > 0, \"Price need to be positive\");\n\n        //Update the mapping of tokenId to Token details\n        idToListedToken[_tokenId] = ListedToken(\n            _tokenId,\n            LTYAccountContract.getIdBrandFromAddress(msg.sender), //brandId -> faire une fonction qui recup l'id de la brand a partir de l'adresse\n            payable(address(this)),\n            payable(msg.sender),\n            _price,\n            true\n        );\n\n        //Transfer NFT to the marketplace\n        _transfer(msg.sender, address(this), _tokenId);\n\n        emit EventTokenTransaction(\n            _tokenId,\n            address(this),\n            address(this),\n            msg.sender,\n            msg.sender,\n            _price,\n            \"Send to marketplace\"\n        );\n\n        //Emit the event for successful transfer. The frontend listen to this message\n        emit EventTokenListedSuccess(\n            _tokenId,\n            address(this),\n            msg.sender,\n            _price,\n            true\n        );\n    }\n\n    /// @notice get Listing price\n    /// @return listPrice\n     function getListPrice() public view returns (uint256) {\n        return listPrice;\n    }\n\n    /// @notice Send NFT to a customer\n    /// @dev Update Global Variable, Send NFT to a customer and emit event\n    /// @param _tokenId of the NFT to list on marketplace\n    /// @param _addr of the listed NFT\n    function createListedTokenAndSendToAddress(uint256 _tokenId, address _addr)\n        private\n    {\n        //Check if the minter is a authorized to mint NFT\n        /*\n        require(\n            LTYAccountContract.userAccounts[msg.sender].isBrandRegisterOnPlatform == true,\n            \"You need to be a registred brand to mint NFT\"\n        );\n        */\n        //Update the mapping of tokenId to Token details\n        idToListedToken[_tokenId] = ListedToken(\n            _tokenId,\n            LTYAccountContract.getIdBrandFromAddress(msg.sender), //brandId\n            payable(_addr),\n            payable(_addr),\n            0,\n            false\n        );\n\n        //Transfer NFT to the new Owner (= the customer)\n        _transfer(msg.sender, _addr, _tokenId);\n\n        emit EventTokenTransaction(\n            _tokenId,\n            address(this),\n            _addr,\n            address(this),\n            _addr,\n            0,\n            \"Send to customer\"\n        );\n\n        //Emit the event for successful transfer. The frontend listen to this message\n        emit EventTokenListedSuccess(_tokenId, _addr, _addr, 0, false);\n    }\n\n    /// @notice Get all the NFTs that the current user is owner or seller in\n    /// @dev return an array of NFT\n    /// @return all NFT where the current user is owner or seller\n    function getMyNFTs() public view returns (ListedToken[] memory) {\n        uint256 totalItemCount = _tokenIds.current();\n        uint256 itemCount = 0;\n        uint256 currentIndex = 0;\n        \n        //we count NFT of the user to create an array of the good size => Gaz optimisation\n        for (uint256 i = 0; i < totalItemCount; i++) {\n            if (\n                idToListedToken[i + 1].owner == msg.sender ||\n                idToListedToken[i + 1].seller == msg.sender\n            ) {\n                itemCount += 1;\n            }\n        }\n\n        //We store the Owner/seller NFT in an array\n        ListedToken[] memory items = new ListedToken[](itemCount);\n\n        for (uint256 i = 0; i < totalItemCount; i++) {\n            if (\n                idToListedToken[i + 1].owner == msg.sender ||\n                idToListedToken[i + 1].seller == msg.sender\n            ) {\n                uint256 currentId = i + 1;\n\n                ListedToken storage currentItem = idToListedToken[currentId];\n\n                items[currentIndex] = currentItem;\n\n                currentIndex += 1;\n            }\n        }\n        return items;\n    }\n\n    /// @notice Get all the NFTs associated with a brand\n    /// @dev return an array of NFT\n    /// @param _idBrand to get the NFT from\n    /// @return all NFT associated with a brand\n    function getNFTsByBrand(uint256 _idBrand)\n        public\n        view\n        returns (ListedToken[] memory)\n    {\n        uint256 totalItemCount = _tokenIds.current();\n        uint256 itemCount = 0;\n        uint256 currentIndex = 0;\n        \n        //we count NFT of the brand to create an array of the good size => Gaz optimisation\n        for (uint256 i = 0; i < totalItemCount; i++) {\n            if (\n                idToListedToken[i + 1].brandId == _idBrand &&\n                idToListedToken[i + 1].currentlyListed\n            ) {\n                itemCount += 1;\n            }\n        }\n\n        //We store the Brand NFT in an array\n        ListedToken[] memory items = new ListedToken[](itemCount);\n\n        for (uint256 i = 0; i < totalItemCount; i++) {\n            if (\n                idToListedToken[i + 1].brandId == _idBrand &&\n                idToListedToken[i + 1].currentlyListed\n            ) {\n                uint256 currentId = i + 1;\n\n                ListedToken storage currentItem = idToListedToken[currentId];\n                items[currentIndex] = currentItem;\n                currentIndex += 1;\n            }\n        }\n        return items;\n    }\n\n    /// @notice remove listed NFT from marketplace and transfer back to the owner\n    ///  @param _idToken of the NFT to remove from marketplace\n    function removeTokenFromMarket(uint256 _idToken) public {\n        require(_exists(_idToken), \"Invalid token ID\");\n\n        require(\n            msg.sender == idToListedToken[_idToken].seller,\n            \"YOu need to be the seller of the NFT to sell it\"\n        );\n\n        idToListedToken[_idToken].owner = payable(msg.sender);\n        idToListedToken[_idToken].seller = payable(msg.sender);\n        idToListedToken[_idToken].currentlyListed = false;\n        _transfer(address(this), msg.sender, _idToken);\n\n        emit EventTokenTransaction(\n            _idToken,\n            address(this),\n            msg.sender,\n            msg.sender,\n            msg.sender,\n            0,\n            \"Remove from marketplace\"\n        );\n\n        //Emit the event for successful transfer. The frontend listen to this message\n        emit EventTokenListedSuccess(\n            _idToken,\n            msg.sender,\n            msg.sender,\n            0,\n            false\n        );\n    }\n\n    /// @notice Buy an NFT on the marketplace\n    /// @param _tokenId of the NFT to buy on the marketplace\n    function executeSale(uint256 _tokenId) public payable {\n        uint256 price = idToListedToken[_tokenId].price;\n        address seller = idToListedToken[_tokenId].seller;\n\n        require(\n            msg.value == price,\n            \"You need to set the asking price in order to complete the purchase\"\n        );\n\n        //update the details of the token\n        idToListedToken[_tokenId].currentlyListed = false;\n        idToListedToken[_tokenId].owner = payable(msg.sender);\n        idToListedToken[_tokenId].seller = payable(msg.sender);\n        _itemsSold.increment();\n\n        //transfer the NFT to the new owner\n        _transfer(address(this), msg.sender, _tokenId);\n        //approve the marketplace to sell NFTs for user\n        approve(address(this), _tokenId); // a verif l'utilit\n        //Transfer the listing fee to the marketplace\n        payable(owner).transfer(listPrice);\n        //Transfer the buying price to the seller of the NFT\n        payable(seller).transfer(msg.value);\n\n        emit EventTokenTransaction(\n            _tokenId,\n            address(this),\n            msg.sender,\n            seller,\n            msg.sender,\n            price,\n            \"Buy NFT\"\n        );\n    }\n\n    /// @notice List an NFT onthe marketplace at a given price\n    /// @param _idToken of the NFT to sell on the marketplace\n    /// @param _price of the NFT to sell on the marketplace\n    /// TO DO manque l'envoi des fees\n    function addTokenToSaleOnTheMarket(uint256 _idToken, uint256 _price)\n        public\n    {\n        require(_exists(_idToken), \"Invalid token ID\");\n\n        require(\n            ownerOf(_idToken) == msg.sender,\n            \"You are not the owner of this token\"\n        );\n\n        require(_price > 0, \"Price must be greater than zero\");\n\n        idToListedToken[_idToken].price = _price;\n        idToListedToken[_idToken].currentlyListed = true;\n        idToListedToken[_idToken].seller = payable(msg.sender);\n        idToListedToken[_idToken].owner = payable(address(this));\n        _transfer(msg.sender, address(this), _idToken);\n\n        emit EventTokenTransaction(\n            _idToken,\n            msg.sender,\n            address(this),\n            msg.sender,\n            msg.sender,\n            _price,\n            \"List on Marketplace\"\n        );\n\n        emit EventTokenListedSuccess(\n            _idToken,\n            address(this),\n            msg.sender,\n            _price,\n            true\n        );\n    }\n}\n",
  "sourcePath": "/Users/thibaut/development/alyra/LoyaltyChainVF/backendTruffle/contracts/LTYMarketplace.sol",
  "compiler": {
    "name": "solc",
    "version": "0.8.19+commit.7dd6d404.Emscripten.clang"
  },
  "schemaVersion": "3.4.14",
  "updatedAt": "2023-07-09T21:51:11.823Z",
  "networkType": "ethereum",
  "devdoc": {
    "author": "Thibaut Pauget",
    "details": "All function calls are currently implemented without side effects",
    "events": {
      "Approval(address,address,uint256)": {
        "details": "Emitted when `owner` enables `approved` to manage the `tokenId` token."
      },
      "ApprovalForAll(address,address,bool)": {
        "details": "Emitted when `owner` enables or disables (`approved`) `operator` to manage all of its assets."
      },
      "BatchMetadataUpdate(uint256,uint256)": {
        "details": "This event emits when the metadata of a range of tokens is changed. So that the third-party platforms such as NFT market could timely update the images and related attributes of the NFTs."
      },
      "MetadataUpdate(uint256)": {
        "details": "This event emits when the metadata of a token is changed. So that the third-party platforms such as NFT market could timely update the images and related attributes of the NFT."
      },
      "Transfer(address,address,uint256)": {
        "details": "Emitted when `tokenId` token is transferred from `from` to `to`."
      }
    },
    "kind": "dev",
    "methods": {
      "addTokenToSaleOnTheMarket(uint256,uint256)": {
        "params": {
          "_idToken": "of the NFT to sell on the marketplace",
          "_price": "of the NFT to sell on the marketplace TO DO manque l'envoi des fees"
        }
      },
      "approve(address,uint256)": {
        "details": "See {IERC721-approve}."
      },
      "balanceOf(address)": {
        "details": "See {IERC721-balanceOf}."
      },
      "createTokenToAddress(string,address)": {
        "details": "Mint (and send NFT to an address with createListedTokenAndSendToAddress)",
        "params": {
          "_addr": "address of the future Owner",
          "_tokenURI": "of th NFT (IPFS URL with the NFT metadata)"
        },
        "returns": {
          "_0": "newTokenId"
        }
      },
      "createTokenToMarketplace(string,uint256)": {
        "details": "Mint (and list NFT on marketplace with createListedToken)",
        "params": {
          "_price": "initial listing price",
          "_tokenURI": "of th NFT (IPFS URL with the NFT metadata)"
        },
        "returns": {
          "_0": "newTokenId"
        }
      },
      "executeSale(uint256)": {
        "params": {
          "_tokenId": "of the NFT to buy on the marketplace"
        }
      },
      "getApproved(uint256)": {
        "details": "See {IERC721-getApproved}."
      },
      "getCurrentToken()": {
        "returns": {
          "_0": "current Id"
        }
      },
      "getListPrice()": {
        "returns": {
          "_0": "listPrice"
        }
      },
      "getListedTokenForId(uint256)": {
        "params": {
          "_tokenId": "of the brand"
        },
        "returns": {
          "_0": "ListedToken"
        }
      },
      "getMyNFTs()": {
        "details": "return an array of NFT",
        "returns": {
          "_0": "all NFT where the current user is owner or seller"
        }
      },
      "getNFTsByBrand(uint256)": {
        "details": "return an array of NFT",
        "params": {
          "_idBrand": "to get the NFT from"
        },
        "returns": {
          "_0": "all NFT associated with a brand"
        }
      },
      "isApprovedForAll(address,address)": {
        "details": "See {IERC721-isApprovedForAll}."
      },
      "name()": {
        "details": "See {IERC721Metadata-name}."
      },
      "ownerOf(uint256)": {
        "details": "See {IERC721-ownerOf}."
      },
      "removeTokenFromMarket(uint256)": {
        "params": {
          "_idToken": "of the NFT to remove from marketplace"
        }
      },
      "safeTransferFrom(address,address,uint256)": {
        "details": "See {IERC721-safeTransferFrom}."
      },
      "safeTransferFrom(address,address,uint256,bytes)": {
        "details": "See {IERC721-safeTransferFrom}."
      },
      "setApprovalForAll(address,bool)": {
        "details": "See {IERC721-setApprovalForAll}."
      },
      "supportsInterface(bytes4)": {
        "details": "See {IERC165-supportsInterface}"
      },
      "symbol()": {
        "details": "See {IERC721Metadata-symbol}."
      },
      "tokenURI(uint256)": {
        "details": "See {IERC721Metadata-tokenURI}."
      },
      "transferFrom(address,address,uint256)": {
        "details": "See {IERC721-transferFrom}."
      },
      "updateListPrice(uint256)": {
        "params": {
          "_listPrice": "Price of the listing fees TO DO  a mettre Ownable"
        }
      }
    },
    "title": "Loyalty Marketplace",
    "version": 1
  },
  "userdoc": {
    "kind": "user",
    "methods": {
      "addTokenToSaleOnTheMarket(uint256,uint256)": {
        "notice": "List an NFT onthe marketplace at a given price"
      },
      "createTokenToAddress(string,address)": {
        "notice": "Mint and send NFT to an address"
      },
      "createTokenToMarketplace(string,uint256)": {
        "notice": "Mint and list NFT on marketplace"
      },
      "executeSale(uint256)": {
        "notice": "Buy an NFT on the marketplace"
      },
      "getCurrentToken()": {
        "notice": "Get current NFT Id"
      },
      "getListPrice()": {
        "notice": "get Listing price"
      },
      "getListedTokenForId(uint256)": {
        "notice": "Get detail of NFT Token from Id"
      },
      "getMyNFTs()": {
        "notice": "Get all the NFTs that the current user is owner or seller in"
      },
      "getNFTsByBrand(uint256)": {
        "notice": "Get all the NFTs associated with a brand"
      },
      "removeTokenFromMarket(uint256)": {
        "notice": "remove listed NFT from marketplace and transfer back to the owner"
      },
      "updateListPrice(uint256)": {
        "notice": "Update listing price fees"
      }
    },
    "notice": "Loyalty NFT Marketplace : Mint, Send, Buy, Sell NFT",
    "version": 1
  }
}