{
  "contractName": "LoyaltyMarketplace",
  "abi": [
    {
      "inputs": [],
      "stateMutability": "nonpayable",
      "type": "constructor"
    },
    {
      "anonymous": false,
      "inputs": [
        {
          "indexed": true,
          "internalType": "address",
          "name": "owner",
          "type": "address"
        },
        {
          "indexed": true,
          "internalType": "address",
          "name": "approved",
          "type": "address"
        },
        {
          "indexed": true,
          "internalType": "uint256",
          "name": "tokenId",
          "type": "uint256"
        }
      ],
      "name": "Approval",
      "type": "event"
    },
    {
      "anonymous": false,
      "inputs": [
        {
          "indexed": true,
          "internalType": "address",
          "name": "owner",
          "type": "address"
        },
        {
          "indexed": true,
          "internalType": "address",
          "name": "operator",
          "type": "address"
        },
        {
          "indexed": false,
          "internalType": "bool",
          "name": "approved",
          "type": "bool"
        }
      ],
      "name": "ApprovalForAll",
      "type": "event"
    },
    {
      "anonymous": false,
      "inputs": [
        {
          "indexed": false,
          "internalType": "uint256",
          "name": "_fromTokenId",
          "type": "uint256"
        },
        {
          "indexed": false,
          "internalType": "uint256",
          "name": "_toTokenId",
          "type": "uint256"
        }
      ],
      "name": "BatchMetadataUpdate",
      "type": "event"
    },
    {
      "anonymous": false,
      "inputs": [
        {
          "indexed": false,
          "internalType": "uint256",
          "name": "_tokenId",
          "type": "uint256"
        }
      ],
      "name": "MetadataUpdate",
      "type": "event"
    },
    {
      "anonymous": false,
      "inputs": [
        {
          "indexed": true,
          "internalType": "uint256",
          "name": "tokenId",
          "type": "uint256"
        },
        {
          "indexed": false,
          "internalType": "address",
          "name": "owner",
          "type": "address"
        },
        {
          "indexed": false,
          "internalType": "address",
          "name": "seller",
          "type": "address"
        },
        {
          "indexed": false,
          "internalType": "uint256",
          "name": "price",
          "type": "uint256"
        },
        {
          "indexed": false,
          "internalType": "bool",
          "name": "currentlyListed",
          "type": "bool"
        }
      ],
      "name": "TokenListedSuccess",
      "type": "event"
    },
    {
      "anonymous": false,
      "inputs": [
        {
          "indexed": true,
          "internalType": "address",
          "name": "from",
          "type": "address"
        },
        {
          "indexed": true,
          "internalType": "address",
          "name": "to",
          "type": "address"
        },
        {
          "indexed": true,
          "internalType": "uint256",
          "name": "tokenId",
          "type": "uint256"
        }
      ],
      "name": "Transfer",
      "type": "event"
    },
    {
      "inputs": [
        {
          "internalType": "address",
          "name": "to",
          "type": "address"
        },
        {
          "internalType": "uint256",
          "name": "tokenId",
          "type": "uint256"
        }
      ],
      "name": "approve",
      "outputs": [],
      "stateMutability": "nonpayable",
      "type": "function"
    },
    {
      "inputs": [
        {
          "internalType": "address",
          "name": "owner",
          "type": "address"
        }
      ],
      "name": "balanceOf",
      "outputs": [
        {
          "internalType": "uint256",
          "name": "",
          "type": "uint256"
        }
      ],
      "stateMutability": "view",
      "type": "function",
      "constant": true
    },
    {
      "inputs": [
        {
          "internalType": "uint256",
          "name": "tokenId",
          "type": "uint256"
        }
      ],
      "name": "getApproved",
      "outputs": [
        {
          "internalType": "address",
          "name": "",
          "type": "address"
        }
      ],
      "stateMutability": "view",
      "type": "function",
      "constant": true
    },
    {
      "inputs": [
        {
          "internalType": "address",
          "name": "owner",
          "type": "address"
        },
        {
          "internalType": "address",
          "name": "operator",
          "type": "address"
        }
      ],
      "name": "isApprovedForAll",
      "outputs": [
        {
          "internalType": "bool",
          "name": "",
          "type": "bool"
        }
      ],
      "stateMutability": "view",
      "type": "function",
      "constant": true
    },
    {
      "inputs": [],
      "name": "name",
      "outputs": [
        {
          "internalType": "string",
          "name": "",
          "type": "string"
        }
      ],
      "stateMutability": "view",
      "type": "function",
      "constant": true
    },
    {
      "inputs": [
        {
          "internalType": "uint256",
          "name": "tokenId",
          "type": "uint256"
        }
      ],
      "name": "ownerOf",
      "outputs": [
        {
          "internalType": "address",
          "name": "",
          "type": "address"
        }
      ],
      "stateMutability": "view",
      "type": "function",
      "constant": true
    },
    {
      "inputs": [
        {
          "internalType": "address",
          "name": "from",
          "type": "address"
        },
        {
          "internalType": "address",
          "name": "to",
          "type": "address"
        },
        {
          "internalType": "uint256",
          "name": "tokenId",
          "type": "uint256"
        }
      ],
      "name": "safeTransferFrom",
      "outputs": [],
      "stateMutability": "nonpayable",
      "type": "function"
    },
    {
      "inputs": [
        {
          "internalType": "address",
          "name": "from",
          "type": "address"
        },
        {
          "internalType": "address",
          "name": "to",
          "type": "address"
        },
        {
          "internalType": "uint256",
          "name": "tokenId",
          "type": "uint256"
        },
        {
          "internalType": "bytes",
          "name": "data",
          "type": "bytes"
        }
      ],
      "name": "safeTransferFrom",
      "outputs": [],
      "stateMutability": "nonpayable",
      "type": "function"
    },
    {
      "inputs": [
        {
          "internalType": "address",
          "name": "operator",
          "type": "address"
        },
        {
          "internalType": "bool",
          "name": "approved",
          "type": "bool"
        }
      ],
      "name": "setApprovalForAll",
      "outputs": [],
      "stateMutability": "nonpayable",
      "type": "function"
    },
    {
      "inputs": [
        {
          "internalType": "bytes4",
          "name": "interfaceId",
          "type": "bytes4"
        }
      ],
      "name": "supportsInterface",
      "outputs": [
        {
          "internalType": "bool",
          "name": "",
          "type": "bool"
        }
      ],
      "stateMutability": "view",
      "type": "function",
      "constant": true
    },
    {
      "inputs": [],
      "name": "symbol",
      "outputs": [
        {
          "internalType": "string",
          "name": "",
          "type": "string"
        }
      ],
      "stateMutability": "view",
      "type": "function",
      "constant": true
    },
    {
      "inputs": [
        {
          "internalType": "uint256",
          "name": "tokenId",
          "type": "uint256"
        }
      ],
      "name": "tokenURI",
      "outputs": [
        {
          "internalType": "string",
          "name": "",
          "type": "string"
        }
      ],
      "stateMutability": "view",
      "type": "function",
      "constant": true
    },
    {
      "inputs": [
        {
          "internalType": "address",
          "name": "from",
          "type": "address"
        },
        {
          "internalType": "address",
          "name": "to",
          "type": "address"
        },
        {
          "internalType": "uint256",
          "name": "tokenId",
          "type": "uint256"
        }
      ],
      "name": "transferFrom",
      "outputs": [],
      "stateMutability": "nonpayable",
      "type": "function"
    },
    {
      "inputs": [
        {
          "internalType": "string",
          "name": "_name",
          "type": "string"
        },
        {
          "internalType": "string",
          "name": "_description",
          "type": "string"
        },
        {
          "internalType": "string",
          "name": "_image",
          "type": "string"
        }
      ],
      "name": "createUserAccount",
      "outputs": [],
      "stateMutability": "nonpayable",
      "type": "function"
    },
    {
      "inputs": [
        {
          "internalType": "address",
          "name": "_addr",
          "type": "address"
        }
      ],
      "name": "setIsBrandRegisterOnPlatform",
      "outputs": [],
      "stateMutability": "nonpayable",
      "type": "function"
    },
    {
      "inputs": [
        {
          "internalType": "address",
          "name": "_addr",
          "type": "address"
        }
      ],
      "name": "setUserIsABrand",
      "outputs": [],
      "stateMutability": "nonpayable",
      "type": "function"
    },
    {
      "inputs": [
        {
          "internalType": "uint256",
          "name": "_listPrice",
          "type": "uint256"
        }
      ],
      "name": "updateListPrice",
      "outputs": [],
      "stateMutability": "payable",
      "type": "function",
      "payable": true
    },
    {
      "inputs": [],
      "name": "getListPrice",
      "outputs": [
        {
          "internalType": "uint256",
          "name": "",
          "type": "uint256"
        }
      ],
      "stateMutability": "view",
      "type": "function",
      "constant": true
    },
    {
      "inputs": [],
      "name": "getLatestIdToListedToken",
      "outputs": [
        {
          "components": [
            {
              "internalType": "uint256",
              "name": "tokenId",
              "type": "uint256"
            },
            {
              "internalType": "uint256",
              "name": "brandId",
              "type": "uint256"
            },
            {
              "internalType": "address payable",
              "name": "owner",
              "type": "address"
            },
            {
              "internalType": "address payable",
              "name": "seller",
              "type": "address"
            },
            {
              "internalType": "uint256",
              "name": "price",
              "type": "uint256"
            },
            {
              "internalType": "bool",
              "name": "currentlyListed",
              "type": "bool"
            }
          ],
          "internalType": "struct LoyaltyMarketplace.ListedToken",
          "name": "",
          "type": "tuple"
        }
      ],
      "stateMutability": "view",
      "type": "function",
      "constant": true
    },
    {
      "inputs": [
        {
          "internalType": "uint256",
          "name": "tokenId",
          "type": "uint256"
        }
      ],
      "name": "getListedTokenForId",
      "outputs": [
        {
          "components": [
            {
              "internalType": "uint256",
              "name": "tokenId",
              "type": "uint256"
            },
            {
              "internalType": "uint256",
              "name": "brandId",
              "type": "uint256"
            },
            {
              "internalType": "address payable",
              "name": "owner",
              "type": "address"
            },
            {
              "internalType": "address payable",
              "name": "seller",
              "type": "address"
            },
            {
              "internalType": "uint256",
              "name": "price",
              "type": "uint256"
            },
            {
              "internalType": "bool",
              "name": "currentlyListed",
              "type": "bool"
            }
          ],
          "internalType": "struct LoyaltyMarketplace.ListedToken",
          "name": "",
          "type": "tuple"
        }
      ],
      "stateMutability": "view",
      "type": "function",
      "constant": true
    },
    {
      "inputs": [],
      "name": "getCurrentToken",
      "outputs": [
        {
          "internalType": "uint256",
          "name": "",
          "type": "uint256"
        }
      ],
      "stateMutability": "view",
      "type": "function",
      "constant": true
    },
    {
      "inputs": [
        {
          "internalType": "string",
          "name": "tokenURI",
          "type": "string"
        },
        {
          "internalType": "uint256",
          "name": "price",
          "type": "uint256"
        }
      ],
      "name": "createToken",
      "outputs": [
        {
          "internalType": "uint256",
          "name": "",
          "type": "uint256"
        }
      ],
      "stateMutability": "payable",
      "type": "function",
      "payable": true
    },
    {
      "inputs": [
        {
          "internalType": "address",
          "name": "_addr",
          "type": "address"
        }
      ],
      "name": "getIdBrandFromAddress",
      "outputs": [
        {
          "internalType": "uint256",
          "name": "_id",
          "type": "uint256"
        }
      ],
      "stateMutability": "view",
      "type": "function",
      "constant": true
    },
    {
      "inputs": [],
      "name": "getAllBrands",
      "outputs": [
        {
          "components": [
            {
              "internalType": "uint256",
              "name": "brandId",
              "type": "uint256"
            },
            {
              "internalType": "string",
              "name": "name",
              "type": "string"
            },
            {
              "internalType": "string",
              "name": "description",
              "type": "string"
            },
            {
              "internalType": "string",
              "name": "image",
              "type": "string"
            },
            {
              "internalType": "bool",
              "name": "isABrand",
              "type": "bool"
            },
            {
              "internalType": "bool",
              "name": "isBrandRegisterOnPlatform",
              "type": "bool"
            }
          ],
          "internalType": "struct LoyaltyMarketplace.UserAccount[]",
          "name": "",
          "type": "tuple[]"
        }
      ],
      "stateMutability": "view",
      "type": "function",
      "constant": true
    },
    {
      "inputs": [],
      "name": "getAllNFTs",
      "outputs": [
        {
          "components": [
            {
              "internalType": "uint256",
              "name": "tokenId",
              "type": "uint256"
            },
            {
              "internalType": "uint256",
              "name": "brandId",
              "type": "uint256"
            },
            {
              "internalType": "address payable",
              "name": "owner",
              "type": "address"
            },
            {
              "internalType": "address payable",
              "name": "seller",
              "type": "address"
            },
            {
              "internalType": "uint256",
              "name": "price",
              "type": "uint256"
            },
            {
              "internalType": "bool",
              "name": "currentlyListed",
              "type": "bool"
            }
          ],
          "internalType": "struct LoyaltyMarketplace.ListedToken[]",
          "name": "",
          "type": "tuple[]"
        }
      ],
      "stateMutability": "view",
      "type": "function",
      "constant": true
    },
    {
      "inputs": [],
      "name": "getMyNFTs",
      "outputs": [
        {
          "components": [
            {
              "internalType": "uint256",
              "name": "tokenId",
              "type": "uint256"
            },
            {
              "internalType": "uint256",
              "name": "brandId",
              "type": "uint256"
            },
            {
              "internalType": "address payable",
              "name": "owner",
              "type": "address"
            },
            {
              "internalType": "address payable",
              "name": "seller",
              "type": "address"
            },
            {
              "internalType": "uint256",
              "name": "price",
              "type": "uint256"
            },
            {
              "internalType": "bool",
              "name": "currentlyListed",
              "type": "bool"
            }
          ],
          "internalType": "struct LoyaltyMarketplace.ListedToken[]",
          "name": "",
          "type": "tuple[]"
        }
      ],
      "stateMutability": "view",
      "type": "function",
      "constant": true
    },
    {
      "inputs": [
        {
          "internalType": "uint256",
          "name": "_idBrand",
          "type": "uint256"
        }
      ],
      "name": "getNFTsByBrand",
      "outputs": [
        {
          "components": [
            {
              "internalType": "uint256",
              "name": "tokenId",
              "type": "uint256"
            },
            {
              "internalType": "uint256",
              "name": "brandId",
              "type": "uint256"
            },
            {
              "internalType": "address payable",
              "name": "owner",
              "type": "address"
            },
            {
              "internalType": "address payable",
              "name": "seller",
              "type": "address"
            },
            {
              "internalType": "uint256",
              "name": "price",
              "type": "uint256"
            },
            {
              "internalType": "bool",
              "name": "currentlyListed",
              "type": "bool"
            }
          ],
          "internalType": "struct LoyaltyMarketplace.ListedToken[]",
          "name": "",
          "type": "tuple[]"
        }
      ],
      "stateMutability": "view",
      "type": "function",
      "constant": true
    },
    {
      "inputs": [
        {
          "internalType": "uint256",
          "name": "tokenId",
          "type": "uint256"
        }
      ],
      "name": "executeSale",
      "outputs": [],
      "stateMutability": "payable",
      "type": "function",
      "payable": true
    }
  ],
  "bytecode": "0x6080604052662386f26fc10000600b553480156200001c57600080fd5b506040518060400160405280600e81526020017f4e46544d61726b6574706c6163650000000000000000000000000000000000008152506040518060400160405280600481526020017f4e46544d0000000000000000000000000000000000000000000000000000000081525081600090816200009a919062000370565b508060019081620000ac919062000370565b50505033600a60006101000a81548173ffffffffffffffffffffffffffffffffffffffff021916908373ffffffffffffffffffffffffffffffffffffffff16021790555062000457565b600081519050919050565b7f4e487b7100000000000000000000000000000000000000000000000000000000600052604160045260246000fd5b7f4e487b7100000000000000000000000000000000000000000000000000000000600052602260045260246000fd5b600060028204905060018216806200017857607f821691505b6020821081036200018e576200018d62000130565b5b50919050565b60008190508160005260206000209050919050565b60006020601f8301049050919050565b600082821b905092915050565b600060088302620001f87fffffffffffffffffffffffffffffffffffffffffffffffffffffffffffffffff82620001b9565b620002048683620001b9565b95508019841693508086168417925050509392505050565b6000819050919050565b6000819050919050565b6000620002516200024b62000245846200021c565b62000226565b6200021c565b9050919050565b6000819050919050565b6200026d8362000230565b620002856200027c8262000258565b848454620001c6565b825550505050565b600090565b6200029c6200028d565b620002a981848462000262565b505050565b5b81811015620002d157620002c560008262000292565b600181019050620002af565b5050565b601f8211156200032057620002ea8162000194565b620002f584620001a9565b8101602085101562000305578190505b6200031d6200031485620001a9565b830182620002ae565b50505b505050565b600082821c905092915050565b6000620003456000198460080262000325565b1980831691505092915050565b600062000360838362000332565b9150826002028217905092915050565b6200037b82620000f6565b67ffffffffffffffff81111562000397576200039662000101565b5b620003a382546200015f565b620003b0828285620002d5565b600060209050601f831160018114620003e85760008415620003d3578287015190505b620003df858262000352565b8655506200044f565b601f198416620003f88662000194565b60005b828110156200042257848901518255600182019150602085019450602081019050620003fb565b868310156200044257848901516200043e601f89168262000332565b8355505b6001600288020188555050505b505050505050565b614eed80620004676000396000f3fe6080604052600436106101b75760003560e01c806372b3b620116100ec578063b88d4fde1161008a578063d1a88ae511610064578063d1a88ae51461062b578063e0391b0914610656578063e985e9c514610681578063ef2d1746146106be576101b7565b8063b88d4fde146105a9578063c322579c146105d2578063c87b56dd146105ee576101b7565b806395d89b41116100c657806395d89b41146104fc5780639b1225c414610527578063a22cb46514610543578063b2a900871461056c576101b7565b806372b3b62014610466578063886d07e2146104965780638e264590146104bf576101b7565b806350615785116101595780636352211e116101335780636352211e1461039857806368f1945f146103d557806369a015b91461040057806370a0823114610429576101b7565b8063506157851461030557806360e8ddb014610342578063629cb2e41461036d576101b7565b8063095ea7b311610195578063095ea7b31461026157806323b872dd1461028a57806342842e0e146102b35780634450e06d146102dc576101b7565b806301ffc9a7146101bc57806306fdde03146101f9578063081812fc14610224575b600080fd5b3480156101c857600080fd5b506101e360048036038101906101de91906134ea565b6106e9565b6040516101f09190613532565b60405180910390f35b34801561020557600080fd5b5061020e61074a565b60405161021b91906135dd565b60405180910390f35b34801561023057600080fd5b5061024b60048036038101906102469190613635565b6107dc565b60405161025891906136a3565b60405180910390f35b34801561026d57600080fd5b50610288600480360381019061028391906136ea565b610822565b005b34801561029657600080fd5b506102b160048036038101906102ac919061372a565b610939565b005b3480156102bf57600080fd5b506102da60048036038101906102d5919061372a565b610999565b005b3480156102e857600080fd5b5061030360048036038101906102fe91906138b2565b6109b9565b005b34801561031157600080fd5b5061032c60048036038101906103279190613635565b610aae565b6040516103399190613ac2565b60405180910390f35b34801561034e57600080fd5b50610357610dd3565b6040516103649190613c87565b60405180910390f35b34801561037957600080fd5b506103826110bd565b60405161038f9190613ac2565b60405180910390f35b3480156103a457600080fd5b506103bf60048036038101906103ba9190613635565b6114a5565b6040516103cc91906136a3565b60405180910390f35b3480156103e157600080fd5b506103ea61152b565b6040516103f79190613cb8565b60405180910390f35b34801561040c57600080fd5b5061042760048036038101906104229190613cd3565b611535565b005b34801561043557600080fd5b50610450600480360381019061044b9190613cd3565b611593565b60405161045d9190613cb8565b60405180910390f35b610480600480360381019061047b9190613d00565b61164a565b60405161048d9190613cb8565b60405180910390f35b3480156104a257600080fd5b506104bd60048036038101906104b89190613cd3565b61168c565b005b3480156104cb57600080fd5b506104e660048036038101906104e19190613635565b611842565b6040516104f39190613dd7565b60405180910390f35b34801561050857600080fd5b50610511611954565b60405161051e91906135dd565b60405180910390f35b610541600480360381019061053c9190613635565b6119e6565b005b34801561054f57600080fd5b5061056a60048036038101906105659190613e1e565b611bd8565b005b34801561057857600080fd5b50610593600480360381019061058e9190613cd3565b611bee565b6040516105a09190613cb8565b60405180910390f35b3480156105b557600080fd5b506105d060048036038101906105cb9190613eff565b611c3a565b005b6105ec60048036038101906105e79190613635565b611c9c565b005b3480156105fa57600080fd5b5061061560048036038101906106109190613635565b611d36565b60405161062291906135dd565b60405180910390f35b34801561063757600080fd5b50610640611e48565b60405161064d9190613dd7565b60405180910390f35b34801561066257600080fd5b5061066b611f67565b6040516106789190613ac2565b60405180910390f35b34801561068d57600080fd5b506106a860048036038101906106a39190613f82565b612140565b6040516106b59190613532565b60405180910390f35b3480156106ca57600080fd5b506106d36121d4565b6040516106e09190613cb8565b60405180910390f35b6000634906490660e01b7bffffffffffffffffffffffffffffffffffffffffffffffffffffffff1916827bffffffffffffffffffffffffffffffffffffffffffffffffffffffff191614806107435750610742826121e5565b5b9050919050565b60606000805461075990613ff1565b80601f016020809104026020016040519081016040528092919081815260200182805461078590613ff1565b80156107d25780601f106107a7576101008083540402835291602001916107d2565b820191906000526020600020905b8154815290600101906020018083116107b557829003601f168201915b5050505050905090565b60006107e7826122c7565b6004600083815260200190815260200160002060009054906101000a900473ffffffffffffffffffffffffffffffffffffffff169050919050565b600061082d826114a5565b90508073ffffffffffffffffffffffffffffffffffffffff168373ffffffffffffffffffffffffffffffffffffffff160361089d576040517f08c379a000000000000000000000000000000000000000000000000000000000815260040161089490614094565b60405180910390fd5b8073ffffffffffffffffffffffffffffffffffffffff166108bc612312565b73ffffffffffffffffffffffffffffffffffffffff1614806108eb57506108ea816108e5612312565b612140565b5b61092a576040517f08c379a000000000000000000000000000000000000000000000000000000000815260040161092190614126565b60405180910390fd5b610934838361231a565b505050565b61094a610944612312565b826123d3565b610989576040517f08c379a0000000000000000000000000000000000000000000000000000000008152600401610980906141b8565b60405180910390fd5b610994838383612468565b505050565b6109b483838360405180602001604052806000815250611c3a565b505050565b82600e60003373ffffffffffffffffffffffffffffffffffffffff1673ffffffffffffffffffffffffffffffffffffffff1681526020019081526020016000206001019081610a089190614384565b5081600e60003373ffffffffffffffffffffffffffffffffffffffff1673ffffffffffffffffffffffffffffffffffffffff1681526020019081526020016000206002019081610a589190614384565b5080600e60003373ffffffffffffffffffffffffffffffffffffffff1673ffffffffffffffffffffffffffffffffffffffff1681526020019081526020016000206003019081610aa89190614384565b50505050565b60606000610abc6007612761565b905060008060005b83811015610b185785600c6000600184610ade9190614485565b81526020019081526020016000206001015403610b0557600183610b029190614485565b92505b8080610b10906144b9565b915050610ac4565b5060008267ffffffffffffffff811115610b3557610b34613787565b5b604051908082528060200260200182016040528015610b6e57816020015b610b5b6133e0565b815260200190600190039081610b535790505b50905060005b84811015610dc6573373ffffffffffffffffffffffffffffffffffffffff16600c6000600184610ba49190614485565b815260200190815260200160002060020160009054906101000a900473ffffffffffffffffffffffffffffffffffffffff1673ffffffffffffffffffffffffffffffffffffffff161480610c6557503373ffffffffffffffffffffffffffffffffffffffff16600c6000600184610c1b9190614485565b815260200190815260200160002060030160009054906101000a900473ffffffffffffffffffffffffffffffffffffffff1673ffffffffffffffffffffffffffffffffffffffff16145b15610db3576000600182610c799190614485565b90506000600c60008381526020019081526020016000209050806040518060c001604052908160008201548152602001600182015481526020016002820160009054906101000a900473ffffffffffffffffffffffffffffffffffffffff1673ffffffffffffffffffffffffffffffffffffffff1673ffffffffffffffffffffffffffffffffffffffff1681526020016003820160009054906101000a900473ffffffffffffffffffffffffffffffffffffffff1673ffffffffffffffffffffffffffffffffffffffff1673ffffffffffffffffffffffffffffffffffffffff168152602001600482015481526020016005820160009054906101000a900460ff161515151581525050848681518110610d9657610d95614501565b5b6020026020010181905250600185610dae9190614485565b945050505b8080610dbe906144b9565b915050610b74565b5080945050505050919050565b60606000610de16009612761565b905060008167ffffffffffffffff811115610dff57610dfe613787565b5b604051908082528060200260200182016040528015610e3857816020015b610e25613444565b815260200190600190039081610e1d5790505b5090506000805b838110156110b3576000600182610e569190614485565b90506000600d60008381526020019081526020016000209050806040518060c001604052908160008201548152602001600182018054610e9590613ff1565b80601f0160208091040260200160405190810160405280929190818152602001828054610ec190613ff1565b8015610f0e5780601f10610ee357610100808354040283529160200191610f0e565b820191906000526020600020905b815481529060010190602001808311610ef157829003601f168201915b50505050508152602001600282018054610f2790613ff1565b80601f0160208091040260200160405190810160405280929190818152602001828054610f5390613ff1565b8015610fa05780601f10610f7557610100808354040283529160200191610fa0565b820191906000526020600020905b815481529060010190602001808311610f8357829003601f168201915b50505050508152602001600382018054610fb990613ff1565b80601f0160208091040260200160405190810160405280929190818152602001828054610fe590613ff1565b80156110325780601f1061100757610100808354040283529160200191611032565b820191906000526020600020905b81548152906001019060200180831161101557829003601f168201915b505050505081526020016004820160009054906101000a900460ff161515151581526020016004820160019054906101000a900460ff16151515158152505085858151811061108457611083614501565b5b602002602001018190525060018461109c9190614485565b9350505080806110ab906144b9565b915050610e3f565b5081935050505090565b606060006110cb6007612761565b905060008060005b838110156111ec573373ffffffffffffffffffffffffffffffffffffffff16600c60006001846111039190614485565b815260200190815260200160002060020160009054906101000a900473ffffffffffffffffffffffffffffffffffffffff1673ffffffffffffffffffffffffffffffffffffffff1614806111c457503373ffffffffffffffffffffffffffffffffffffffff16600c600060018461117a9190614485565b815260200190815260200160002060030160009054906101000a900473ffffffffffffffffffffffffffffffffffffffff1673ffffffffffffffffffffffffffffffffffffffff16145b156111d9576001836111d69190614485565b92505b80806111e4906144b9565b9150506110d3565b5060008267ffffffffffffffff81111561120957611208613787565b5b60405190808252806020026020018201604052801561124257816020015b61122f6133e0565b8152602001906001900390816112275790505b50905060005b8481101561149a573373ffffffffffffffffffffffffffffffffffffffff16600c60006001846112789190614485565b815260200190815260200160002060020160009054906101000a900473ffffffffffffffffffffffffffffffffffffffff1673ffffffffffffffffffffffffffffffffffffffff16148061133957503373ffffffffffffffffffffffffffffffffffffffff16600c60006001846112ef9190614485565b815260200190815260200160002060030160009054906101000a900473ffffffffffffffffffffffffffffffffffffffff1673ffffffffffffffffffffffffffffffffffffffff16145b1561148757600060018261134d9190614485565b90506000600c60008381526020019081526020016000209050806040518060c001604052908160008201548152602001600182015481526020016002820160009054906101000a900473ffffffffffffffffffffffffffffffffffffffff1673ffffffffffffffffffffffffffffffffffffffff1673ffffffffffffffffffffffffffffffffffffffff1681526020016003820160009054906101000a900473ffffffffffffffffffffffffffffffffffffffff1673ffffffffffffffffffffffffffffffffffffffff1673ffffffffffffffffffffffffffffffffffffffff168152602001600482015481526020016005820160009054906101000a900460ff16151515158152505084868151811061146a57611469614501565b5b60200260200101819052506001856114829190614485565b945050505b8080611492906144b9565b915050611248565b508094505050505090565b6000806114b18361276f565b9050600073ffffffffffffffffffffffffffffffffffffffff168173ffffffffffffffffffffffffffffffffffffffff1603611522576040517f08c379a00000000000000000000000000000000000000000000000000000000081526004016115199061457c565b60405180910390fd5b80915050919050565b6000600b54905090565b6001600e60008373ffffffffffffffffffffffffffffffffffffffff1673ffffffffffffffffffffffffffffffffffffffff16815260200190815260200160002060040160006101000a81548160ff02191690831515021790555050565b60008073ffffffffffffffffffffffffffffffffffffffff168273ffffffffffffffffffffffffffffffffffffffff1603611603576040517f08c379a00000000000000000000000000000000000000000000000000000000081526004016115fa9061460e565b60405180910390fd5b600360008373ffffffffffffffffffffffffffffffffffffffff1673ffffffffffffffffffffffffffffffffffffffff168152602001908152602001600020549050919050565b600061165660076127ac565b60006116626007612761565b905061166e33826127c2565b61167881856127e0565b6116828184612884565b8091505092915050565b6001600e60008373ffffffffffffffffffffffffffffffffffffffff1673ffffffffffffffffffffffffffffffffffffffff16815260200190815260200160002060040160016101000a81548160ff0219169083151502179055506116f160096127ac565b60006116fd6009612761565b905080600e60008473ffffffffffffffffffffffffffffffffffffffff1673ffffffffffffffffffffffffffffffffffffffff16815260200190815260200160002060000181905550600e60008373ffffffffffffffffffffffffffffffffffffffff1673ffffffffffffffffffffffffffffffffffffffff168152602001908152602001600020600d600083815260200190815260200160002060008201548160000155600182018160010190816117b69190614644565b50600282018160020190816117cb9190614644565b50600382018160030190816117e09190614644565b506004820160009054906101000a900460ff168160040160006101000a81548160ff0219169083151502179055506004820160019054906101000a900460ff168160040160016101000a81548160ff0219169083151502179055509050505050565b61184a6133e0565b600c60008381526020019081526020016000206040518060c001604052908160008201548152602001600182015481526020016002820160009054906101000a900473ffffffffffffffffffffffffffffffffffffffff1673ffffffffffffffffffffffffffffffffffffffff1673ffffffffffffffffffffffffffffffffffffffff1681526020016003820160009054906101000a900473ffffffffffffffffffffffffffffffffffffffff1673ffffffffffffffffffffffffffffffffffffffff1673ffffffffffffffffffffffffffffffffffffffff168152602001600482015481526020016005820160009054906101000a900460ff1615151515815250509050919050565b60606001805461196390613ff1565b80601f016020809104026020016040519081016040528092919081815260200182805461198f90613ff1565b80156119dc5780601f106119b1576101008083540402835291602001916119dc565b820191906000526020600020905b8154815290600101906020018083116119bf57829003601f168201915b5050505050905090565b6000600c60008381526020019081526020016000206004015490506000600c600084815260200190815260200160002060030160009054906101000a900473ffffffffffffffffffffffffffffffffffffffff169050813414611a7e576040517f08c379a0000000000000000000000000000000000000000000000000000000008152600401611a759061479e565b60405180910390fd5b6001600c600085815260200190815260200160002060050160006101000a81548160ff02191690831515021790555033600c600085815260200190815260200160002060030160006101000a81548173ffffffffffffffffffffffffffffffffffffffff021916908373ffffffffffffffffffffffffffffffffffffffff160217905550611b0c60086127ac565b611b17303385612468565b611b213084610822565b600a60009054906101000a900473ffffffffffffffffffffffffffffffffffffffff1673ffffffffffffffffffffffffffffffffffffffff166108fc600b549081150290604051600060405180830381858888f19350505050158015611b8b573d6000803e3d6000fd5b508073ffffffffffffffffffffffffffffffffffffffff166108fc349081150290604051600060405180830381858888f19350505050158015611bd2573d6000803e3d6000fd5b50505050565b611bea611be3612312565b8383612a9f565b5050565b6000600e60008373ffffffffffffffffffffffffffffffffffffffff1673ffffffffffffffffffffffffffffffffffffffff168152602001908152602001600020600001549050919050565b611c4b611c45612312565b836123d3565b611c8a576040517f08c379a0000000000000000000000000000000000000000000000000000000008152600401611c81906141b8565b60405180910390fd5b611c9684848484612c0b565b50505050565b3373ffffffffffffffffffffffffffffffffffffffff16600a60009054906101000a900473ffffffffffffffffffffffffffffffffffffffff1673ffffffffffffffffffffffffffffffffffffffff1614611d2c576040517f08c379a0000000000000000000000000000000000000000000000000000000008152600401611d2390614830565b60405180910390fd5b80600b8190555050565b6060611d41826122c7565b6000600660008481526020019081526020016000208054611d6190613ff1565b80601f0160208091040260200160405190810160405280929190818152602001828054611d8d90613ff1565b8015611dda5780601f10611daf57610100808354040283529160200191611dda565b820191906000526020600020905b815481529060010190602001808311611dbd57829003601f168201915b505050505090506000611deb612c67565b90506000815103611e00578192505050611e43565b600082511115611e35578082604051602001611e1d92919061488c565b60405160208183030381529060405292505050611e43565b611e3e84612c7e565b925050505b919050565b611e506133e0565b6000611e5c6007612761565b9050600c60008281526020019081526020016000206040518060c001604052908160008201548152602001600182015481526020016002820160009054906101000a900473ffffffffffffffffffffffffffffffffffffffff1673ffffffffffffffffffffffffffffffffffffffff1673ffffffffffffffffffffffffffffffffffffffff1681526020016003820160009054906101000a900473ffffffffffffffffffffffffffffffffffffffff1673ffffffffffffffffffffffffffffffffffffffff1673ffffffffffffffffffffffffffffffffffffffff168152602001600482015481526020016005820160009054906101000a900460ff16151515158152505091505090565b60606000611f756007612761565b905060008167ffffffffffffffff811115611f9357611f92613787565b5b604051908082528060200260200182016040528015611fcc57816020015b611fb96133e0565b815260200190600190039081611fb15790505b5090506000805b83811015612136576000600182611fea9190614485565b90506000600c60008381526020019081526020016000209050806040518060c001604052908160008201548152602001600182015481526020016002820160009054906101000a900473ffffffffffffffffffffffffffffffffffffffff1673ffffffffffffffffffffffffffffffffffffffff1673ffffffffffffffffffffffffffffffffffffffff1681526020016003820160009054906101000a900473ffffffffffffffffffffffffffffffffffffffff1673ffffffffffffffffffffffffffffffffffffffff1673ffffffffffffffffffffffffffffffffffffffff168152602001600482015481526020016005820160009054906101000a900460ff16151515158152505085858151811061210757612106614501565b5b602002602001018190525060018461211f9190614485565b93505050808061212e906144b9565b915050611fd3565b5081935050505090565b6000600560008473ffffffffffffffffffffffffffffffffffffffff1673ffffffffffffffffffffffffffffffffffffffff16815260200190815260200160002060008373ffffffffffffffffffffffffffffffffffffffff1673ffffffffffffffffffffffffffffffffffffffff16815260200190815260200160002060009054906101000a900460ff16905092915050565b60006121e06007612761565b905090565b60007f80ac58cd000000000000000000000000000000000000000000000000000000007bffffffffffffffffffffffffffffffffffffffffffffffffffffffff1916827bffffffffffffffffffffffffffffffffffffffffffffffffffffffff191614806122b057507f5b5e139f000000000000000000000000000000000000000000000000000000007bffffffffffffffffffffffffffffffffffffffffffffffffffffffff1916827bffffffffffffffffffffffffffffffffffffffffffffffffffffffff1916145b806122c057506122bf82612ce6565b5b9050919050565b6122d081612d50565b61230f576040517f08c379a00000000000000000000000000000000000000000000000000000000081526004016123069061457c565b60405180910390fd5b50565b600033905090565b816004600083815260200190815260200160002060006101000a81548173ffffffffffffffffffffffffffffffffffffffff021916908373ffffffffffffffffffffffffffffffffffffffff160217905550808273ffffffffffffffffffffffffffffffffffffffff1661238d836114a5565b73ffffffffffffffffffffffffffffffffffffffff167f8c5be1e5ebec7d5bd14f71427d1e84f3dd0314c0f7b2291e5b200ac8c7c3b92560405160405180910390a45050565b6000806123df836114a5565b90508073ffffffffffffffffffffffffffffffffffffffff168473ffffffffffffffffffffffffffffffffffffffff16148061242157506124208185612140565b5b8061245f57508373ffffffffffffffffffffffffffffffffffffffff16612447846107dc565b73ffffffffffffffffffffffffffffffffffffffff16145b91505092915050565b8273ffffffffffffffffffffffffffffffffffffffff16612488826114a5565b73ffffffffffffffffffffffffffffffffffffffff16146124de576040517f08c379a00000000000000000000000000000000000000000000000000000000081526004016124d590614922565b60405180910390fd5b600073ffffffffffffffffffffffffffffffffffffffff168273ffffffffffffffffffffffffffffffffffffffff160361254d576040517f08c379a0000000000000000000000000000000000000000000000000000000008152600401612544906149b4565b60405180910390fd5b61255a8383836001612d91565b8273ffffffffffffffffffffffffffffffffffffffff1661257a826114a5565b73ffffffffffffffffffffffffffffffffffffffff16146125d0576040517f08c379a00000000000000000000000000000000000000000000000000000000081526004016125c790614922565b60405180910390fd5b6004600082815260200190815260200160002060006101000a81549073ffffffffffffffffffffffffffffffffffffffff02191690556001600360008573ffffffffffffffffffffffffffffffffffffffff1673ffffffffffffffffffffffffffffffffffffffff168152602001908152602001600020600082825403925050819055506001600360008473ffffffffffffffffffffffffffffffffffffffff1673ffffffffffffffffffffffffffffffffffffffff16815260200190815260200160002060008282540192505081905550816002600083815260200190815260200160002060006101000a81548173ffffffffffffffffffffffffffffffffffffffff021916908373ffffffffffffffffffffffffffffffffffffffff160217905550808273ffffffffffffffffffffffffffffffffffffffff168473ffffffffffffffffffffffffffffffffffffffff167fddf252ad1be2c89b69c2b068fc378daa952ba7f163c4a11628f55a4df523b3ef60405160405180910390a461275c8383836001612d97565b505050565b600081600001549050919050565b60006002600083815260200190815260200160002060009054906101000a900473ffffffffffffffffffffffffffffffffffffffff169050919050565b6001816000016000828254019250508190555050565b6127dc828260405180602001604052806000815250612d9d565b5050565b6127e982612d50565b612828576040517f08c379a000000000000000000000000000000000000000000000000000000000815260040161281f90614a46565b60405180910390fd5b806006600084815260200190815260200160002090816128489190614384565b507ff8e1a15aba9398e019f0b49df1a4fde98ee17ae345cb5f6b5e2c27f5033e8ce7826040516128789190613cb8565b60405180910390a15050565b600b5434146128c8576040517f08c379a00000000000000000000000000000000000000000000000000000000081526004016128bf90614ad8565b60405180910390fd5b6000811161290b576040517f08c379a000000000000000000000000000000000000000000000000000000000815260040161290290614b6a565b60405180910390fd5b6040518060c0016040528083815260200161292533611bee565b81526020013073ffffffffffffffffffffffffffffffffffffffff1681526020013373ffffffffffffffffffffffffffffffffffffffff16815260200182815260200160011515815250600c6000848152602001908152602001600020600082015181600001556020820151816001015560408201518160020160006101000a81548173ffffffffffffffffffffffffffffffffffffffff021916908373ffffffffffffffffffffffffffffffffffffffff16021790555060608201518160030160006101000a81548173ffffffffffffffffffffffffffffffffffffffff021916908373ffffffffffffffffffffffffffffffffffffffff1602179055506080820151816004015560a08201518160050160006101000a81548160ff021916908315150217905550905050612a5c333084612468565b817f9339409317fd01fabff48b703019016f49159bacc801ae872d2ca637d226e4c03033846001604051612a939493929190614b8a565b60405180910390a25050565b8173ffffffffffffffffffffffffffffffffffffffff168373ffffffffffffffffffffffffffffffffffffffff1603612b0d576040517f08c379a0000000000000000000000000000000000000000000000000000000008152600401612b0490614c1b565b60405180910390fd5b80600560008573ffffffffffffffffffffffffffffffffffffffff1673ffffffffffffffffffffffffffffffffffffffff16815260200190815260200160002060008473ffffffffffffffffffffffffffffffffffffffff1673ffffffffffffffffffffffffffffffffffffffff16815260200190815260200160002060006101000a81548160ff0219169083151502179055508173ffffffffffffffffffffffffffffffffffffffff168373ffffffffffffffffffffffffffffffffffffffff167f17307eab39ab6107e8899845ad3d59bd9653f200f220920489ca2b5937696c3183604051612bfe9190613532565b60405180910390a3505050565b612c16848484612468565b612c2284848484612df8565b612c61576040517f08c379a0000000000000000000000000000000000000000000000000000000008152600401612c5890614cad565b60405180910390fd5b50505050565b606060405180602001604052806000815250905090565b6060612c89826122c7565b6000612c93612c67565b90506000815111612cb35760405180602001604052806000815250612cde565b80612cbd84612f7f565b604051602001612cce92919061488c565b6040516020818303038152906040525b915050919050565b60007f01ffc9a7000000000000000000000000000000000000000000000000000000007bffffffffffffffffffffffffffffffffffffffffffffffffffffffff1916827bffffffffffffffffffffffffffffffffffffffffffffffffffffffff1916149050919050565b60008073ffffffffffffffffffffffffffffffffffffffff16612d728361276f565b73ffffffffffffffffffffffffffffffffffffffff1614159050919050565b50505050565b50505050565b612da7838361304d565b612db46000848484612df8565b612df3576040517f08c379a0000000000000000000000000000000000000000000000000000000008152600401612dea90614cad565b60405180910390fd5b505050565b6000612e198473ffffffffffffffffffffffffffffffffffffffff1661326a565b15612f72578373ffffffffffffffffffffffffffffffffffffffff1663150b7a02612e42612312565b8786866040518563ffffffff1660e01b8152600401612e649493929190614d22565b6020604051808303816000875af1925050508015612ea057506040513d601f19601f82011682018060405250810190612e9d9190614d83565b60015b612f22573d8060008114612ed0576040519150601f19603f3d011682016040523d82523d6000602084013e612ed5565b606091505b506000815103612f1a576040517f08c379a0000000000000000000000000000000000000000000000000000000008152600401612f1190614cad565b60405180910390fd5b805181602001fd5b63150b7a0260e01b7bffffffffffffffffffffffffffffffffffffffffffffffffffffffff1916817bffffffffffffffffffffffffffffffffffffffffffffffffffffffff191614915050612f77565b600190505b949350505050565b606060006001612f8e8461328d565b01905060008167ffffffffffffffff811115612fad57612fac613787565b5b6040519080825280601f01601f191660200182016040528015612fdf5781602001600182028036833780820191505090505b509050600082602001820190505b600115613042578080600190039150507f3031323334353637383961626364656600000000000000000000000000000000600a86061a8153600a858161303657613035614db0565b5b04945060008503612fed575b819350505050919050565b600073ffffffffffffffffffffffffffffffffffffffff168273ffffffffffffffffffffffffffffffffffffffff16036130bc576040517f08c379a00000000000000000000000000000000000000000000000000000000081526004016130b390614e2b565b60405180910390fd5b6130c581612d50565b15613105576040517f08c379a00000000000000000000000000000000000000000000000000000000081526004016130fc90614e97565b60405180910390fd5b613113600083836001612d91565b61311c81612d50565b1561315c576040517f08c379a000000000000000000000000000000000000000000000000000000000815260040161315390614e97565b60405180910390fd5b6001600360008473ffffffffffffffffffffffffffffffffffffffff1673ffffffffffffffffffffffffffffffffffffffff16815260200190815260200160002060008282540192505081905550816002600083815260200190815260200160002060006101000a81548173ffffffffffffffffffffffffffffffffffffffff021916908373ffffffffffffffffffffffffffffffffffffffff160217905550808273ffffffffffffffffffffffffffffffffffffffff16600073ffffffffffffffffffffffffffffffffffffffff167fddf252ad1be2c89b69c2b068fc378daa952ba7f163c4a11628f55a4df523b3ef60405160405180910390a4613266600083836001612d97565b5050565b6000808273ffffffffffffffffffffffffffffffffffffffff163b119050919050565b600080600090507a184f03e93ff9f4daa797ed6e38ed64bf6a1f01000000000000000083106132eb577a184f03e93ff9f4daa797ed6e38ed64bf6a1f01000000000000000083816132e1576132e0614db0565b5b0492506040810190505b6d04ee2d6d415b85acef81000000008310613328576d04ee2d6d415b85acef8100000000838161331e5761331d614db0565b5b0492506020810190505b662386f26fc10000831061335757662386f26fc10000838161334d5761334c614db0565b5b0492506010810190505b6305f5e1008310613380576305f5e100838161337657613375614db0565b5b0492506008810190505b61271083106133a557612710838161339b5761339a614db0565b5b0492506004810190505b606483106133c857606483816133be576133bd614db0565b5b0492506002810190505b600a83106133d7576001810190505b80915050919050565b6040518060c001604052806000815260200160008152602001600073ffffffffffffffffffffffffffffffffffffffff168152602001600073ffffffffffffffffffffffffffffffffffffffff168152602001600081526020016000151581525090565b6040518060c00160405280600081526020016060815260200160608152602001606081526020016000151581526020016000151581525090565b6000604051905090565b600080fd5b600080fd5b60007fffffffff0000000000000000000000000000000000000000000000000000000082169050919050565b6134c781613492565b81146134d257600080fd5b50565b6000813590506134e4816134be565b92915050565b600060208284031215613500576134ff613488565b5b600061350e848285016134d5565b91505092915050565b60008115159050919050565b61352c81613517565b82525050565b60006020820190506135476000830184613523565b92915050565b600081519050919050565b600082825260208201905092915050565b60005b8381101561358757808201518184015260208101905061356c565b60008484015250505050565b6000601f19601f8301169050919050565b60006135af8261354d565b6135b98185613558565b93506135c9818560208601613569565b6135d281613593565b840191505092915050565b600060208201905081810360008301526135f781846135a4565b905092915050565b6000819050919050565b613612816135ff565b811461361d57600080fd5b50565b60008135905061362f81613609565b92915050565b60006020828403121561364b5761364a613488565b5b600061365984828501613620565b91505092915050565b600073ffffffffffffffffffffffffffffffffffffffff82169050919050565b600061368d82613662565b9050919050565b61369d81613682565b82525050565b60006020820190506136b86000830184613694565b92915050565b6136c781613682565b81146136d257600080fd5b50565b6000813590506136e4816136be565b92915050565b6000806040838503121561370157613700613488565b5b600061370f858286016136d5565b925050602061372085828601613620565b9150509250929050565b60008060006060848603121561374357613742613488565b5b6000613751868287016136d5565b9350506020613762868287016136d5565b925050604061377386828701613620565b9150509250925092565b600080fd5b600080fd5b7f4e487b7100000000000000000000000000000000000000000000000000000000600052604160045260246000fd5b6137bf82613593565b810181811067ffffffffffffffff821117156137de576137dd613787565b5b80604052505050565b60006137f161347e565b90506137fd82826137b6565b919050565b600067ffffffffffffffff82111561381d5761381c613787565b5b61382682613593565b9050602081019050919050565b82818337600083830152505050565b600061385561385084613802565b6137e7565b90508281526020810184848401111561387157613870613782565b5b61387c848285613833565b509392505050565b600082601f8301126138995761389861377d565b5b81356138a9848260208601613842565b91505092915050565b6000806000606084860312156138cb576138ca613488565b5b600084013567ffffffffffffffff8111156138e9576138e861348d565b5b6138f586828701613884565b935050602084013567ffffffffffffffff8111156139165761391561348d565b5b61392286828701613884565b925050604084013567ffffffffffffffff8111156139435761394261348d565b5b61394f86828701613884565b9150509250925092565b600081519050919050565b600082825260208201905092915050565b6000819050602082019050919050565b61398e816135ff565b82525050565b600061399f82613662565b9050919050565b6139af81613994565b82525050565b6139be81613517565b82525050565b60c0820160008201516139da6000850182613985565b5060208201516139ed6020850182613985565b506040820151613a0060408501826139a6565b506060820151613a1360608501826139a6565b506080820151613a266080850182613985565b5060a0820151613a3960a08501826139b5565b50505050565b6000613a4b83836139c4565b60c08301905092915050565b6000602082019050919050565b6000613a6f82613959565b613a798185613964565b9350613a8483613975565b8060005b83811015613ab5578151613a9c8882613a3f565b9750613aa783613a57565b925050600181019050613a88565b5085935050505092915050565b60006020820190508181036000830152613adc8184613a64565b905092915050565b600081519050919050565b600082825260208201905092915050565b6000819050602082019050919050565b600082825260208201905092915050565b6000613b2c8261354d565b613b368185613b10565b9350613b46818560208601613569565b613b4f81613593565b840191505092915050565b600060c083016000830151613b726000860182613985565b5060208301518482036020860152613b8a8282613b21565b91505060408301518482036040860152613ba48282613b21565b91505060608301518482036060860152613bbe8282613b21565b9150506080830151613bd360808601826139b5565b5060a0830151613be660a08601826139b5565b508091505092915050565b6000613bfd8383613b5a565b905092915050565b6000602082019050919050565b6000613c1d82613ae4565b613c278185613aef565b935083602082028501613c3985613b00565b8060005b85811015613c755784840389528151613c568582613bf1565b9450613c6183613c05565b925060208a01995050600181019050613c3d565b50829750879550505050505092915050565b60006020820190508181036000830152613ca18184613c12565b905092915050565b613cb2816135ff565b82525050565b6000602082019050613ccd6000830184613ca9565b92915050565b600060208284031215613ce957613ce8613488565b5b6000613cf7848285016136d5565b91505092915050565b60008060408385031215613d1757613d16613488565b5b600083013567ffffffffffffffff811115613d3557613d3461348d565b5b613d4185828601613884565b9250506020613d5285828601613620565b9150509250929050565b60c082016000820151613d726000850182613985565b506020820151613d856020850182613985565b506040820151613d9860408501826139a6565b506060820151613dab60608501826139a6565b506080820151613dbe6080850182613985565b5060a0820151613dd160a08501826139b5565b50505050565b600060c082019050613dec6000830184613d5c565b92915050565b613dfb81613517565b8114613e0657600080fd5b50565b600081359050613e1881613df2565b92915050565b60008060408385031215613e3557613e34613488565b5b6000613e43858286016136d5565b9250506020613e5485828601613e09565b9150509250929050565b600067ffffffffffffffff821115613e7957613e78613787565b5b613e8282613593565b9050602081019050919050565b6000613ea2613e9d84613e5e565b6137e7565b905082815260208101848484011115613ebe57613ebd613782565b5b613ec9848285613833565b509392505050565b600082601f830112613ee657613ee561377d565b5b8135613ef6848260208601613e8f565b91505092915050565b60008060008060808587031215613f1957613f18613488565b5b6000613f27878288016136d5565b9450506020613f38878288016136d5565b9350506040613f4987828801613620565b925050606085013567ffffffffffffffff811115613f6a57613f6961348d565b5b613f7687828801613ed1565b91505092959194509250565b60008060408385031215613f9957613f98613488565b5b6000613fa7858286016136d5565b9250506020613fb8858286016136d5565b9150509250929050565b7f4e487b7100000000000000000000000000000000000000000000000000000000600052602260045260246000fd5b6000600282049050600182168061400957607f821691505b60208210810361401c5761401b613fc2565b5b50919050565b7f4552433732313a20617070726f76616c20746f2063757272656e74206f776e6560008201527f7200000000000000000000000000000000000000000000000000000000000000602082015250565b600061407e602183613558565b915061408982614022565b604082019050919050565b600060208201905081810360008301526140ad81614071565b9050919050565b7f4552433732313a20617070726f76652063616c6c6572206973206e6f7420746f60008201527f6b656e206f776e6572206f7220617070726f76656420666f7220616c6c000000602082015250565b6000614110603d83613558565b915061411b826140b4565b604082019050919050565b6000602082019050818103600083015261413f81614103565b9050919050565b7f4552433732313a2063616c6c6572206973206e6f7420746f6b656e206f776e6560008201527f72206f7220617070726f76656400000000000000000000000000000000000000602082015250565b60006141a2602d83613558565b91506141ad82614146565b604082019050919050565b600060208201905081810360008301526141d181614195565b9050919050565b60008190508160005260206000209050919050565b60006020601f8301049050919050565b600082821b905092915050565b60006008830261423a7fffffffffffffffffffffffffffffffffffffffffffffffffffffffffffffffff826141fd565b61424486836141fd565b95508019841693508086168417925050509392505050565b6000819050919050565b600061428161427c614277846135ff565b61425c565b6135ff565b9050919050565b6000819050919050565b61429b83614266565b6142af6142a782614288565b84845461420a565b825550505050565b600090565b6142c46142b7565b6142cf818484614292565b505050565b5b818110156142f3576142e86000826142bc565b6001810190506142d5565b5050565b601f82111561433857614309816141d8565b614312846141ed565b81016020851015614321578190505b61433561432d856141ed565b8301826142d4565b50505b505050565b600082821c905092915050565b600061435b6000198460080261433d565b1980831691505092915050565b6000614374838361434a565b9150826002028217905092915050565b61438d8261354d565b67ffffffffffffffff8111156143a6576143a5613787565b5b6143b08254613ff1565b6143bb8282856142f7565b600060209050601f8311600181146143ee57600084156143dc578287015190505b6143e68582614368565b86555061444e565b601f1984166143fc866141d8565b60005b82811015614424578489015182556001820191506020850194506020810190506143ff565b86831015614441578489015161443d601f89168261434a565b8355505b6001600288020188555050505b505050505050565b7f4e487b7100000000000000000000000000000000000000000000000000000000600052601160045260246000fd5b6000614490826135ff565b915061449b836135ff565b92508282019050808211156144b3576144b2614456565b5b92915050565b60006144c4826135ff565b91507fffffffffffffffffffffffffffffffffffffffffffffffffffffffffffffffff82036144f6576144f5614456565b5b600182019050919050565b7f4e487b7100000000000000000000000000000000000000000000000000000000600052603260045260246000fd5b7f4552433732313a20696e76616c696420746f6b656e2049440000000000000000600082015250565b6000614566601883613558565b915061457182614530565b602082019050919050565b6000602082019050818103600083015261459581614559565b9050919050565b7f4552433732313a2061646472657373207a65726f206973206e6f74206120766160008201527f6c6964206f776e65720000000000000000000000000000000000000000000000602082015250565b60006145f8602983613558565b91506146038261459c565b604082019050919050565b60006020820190508181036000830152614627816145eb565b9050919050565b60008154905061463d81613ff1565b9050919050565b81810361465257505061472a565b61465b8261462e565b67ffffffffffffffff81111561467457614673613787565b5b61467e8254613ff1565b6146898282856142f7565b6000601f8311600181146146b857600084156146a6578287015490505b6146b08582614368565b865550614723565b601f1984166146c6876141d8565b96506146d1866141d8565b60005b828110156146f9578489015482556001820191506001850194506020810190506146d4565b868310156147165784890154614712601f89168261434a565b8355505b6001600288020188555050505b5050505050505b565b7f506c65617365207375626d6974207468652061736b696e67207072696365206960008201527f6e206f7264657220746f20636f6d706c65746520746865207075726368617365602082015250565b6000614788604083613558565b91506147938261472c565b604082019050919050565b600060208201905081810360008301526147b78161477b565b9050919050565b7f4f6e6c79206f776e65722063616e20757064617465206c697374696e6720707260008201527f6963650000000000000000000000000000000000000000000000000000000000602082015250565b600061481a602383613558565b9150614825826147be565b604082019050919050565b600060208201905081810360008301526148498161480d565b9050919050565b600081905092915050565b60006148668261354d565b6148708185614850565b9350614880818560208601613569565b80840191505092915050565b6000614898828561485b565b91506148a4828461485b565b91508190509392505050565b7f4552433732313a207472616e736665722066726f6d20696e636f72726563742060008201527f6f776e6572000000000000000000000000000000000000000000000000000000602082015250565b600061490c602583613558565b9150614917826148b0565b604082019050919050565b6000602082019050818103600083015261493b816148ff565b9050919050565b7f4552433732313a207472616e7366657220746f20746865207a65726f2061646460008201527f7265737300000000000000000000000000000000000000000000000000000000602082015250565b600061499e602483613558565b91506149a982614942565b604082019050919050565b600060208201905081810360008301526149cd81614991565b9050919050565b7f45524337323155524953746f726167653a2055524920736574206f66206e6f6e60008201527f6578697374656e7420746f6b656e000000000000000000000000000000000000602082015250565b6000614a30602e83613558565b9150614a3b826149d4565b604082019050919050565b60006020820190508181036000830152614a5f81614a23565b9050919050565b7f486f706566756c6c792073656e64696e672074686520636f727265637420707260008201527f6963650000000000000000000000000000000000000000000000000000000000602082015250565b6000614ac2602383613558565b9150614acd82614a66565b604082019050919050565b60006020820190508181036000830152614af181614ab5565b9050919050565b7f4d616b652073757265207468652070726963652069736e2774206e656761746960008201527f7665000000000000000000000000000000000000000000000000000000000000602082015250565b6000614b54602283613558565b9150614b5f82614af8565b604082019050919050565b60006020820190508181036000830152614b8381614b47565b9050919050565b6000608082019050614b9f6000830187613694565b614bac6020830186613694565b614bb96040830185613ca9565b614bc66060830184613523565b95945050505050565b7f4552433732313a20617070726f766520746f2063616c6c657200000000000000600082015250565b6000614c05601983613558565b9150614c1082614bcf565b602082019050919050565b60006020820190508181036000830152614c3481614bf8565b9050919050565b7f4552433732313a207472616e7366657220746f206e6f6e20455243373231526560008201527f63656976657220696d706c656d656e7465720000000000000000000000000000602082015250565b6000614c97603283613558565b9150614ca282614c3b565b604082019050919050565b60006020820190508181036000830152614cc681614c8a565b9050919050565b600081519050919050565b600082825260208201905092915050565b6000614cf482614ccd565b614cfe8185614cd8565b9350614d0e818560208601613569565b614d1781613593565b840191505092915050565b6000608082019050614d376000830187613694565b614d446020830186613694565b614d516040830185613ca9565b8181036060830152614d638184614ce9565b905095945050505050565b600081519050614d7d816134be565b92915050565b600060208284031215614d9957614d98613488565b5b6000614da784828501614d6e565b91505092915050565b7f4e487b7100000000000000000000000000000000000000000000000000000000600052601260045260246000fd5b7f4552433732313a206d696e7420746f20746865207a65726f2061646472657373600082015250565b6000614e15602083613558565b9150614e2082614ddf565b602082019050919050565b60006020820190508181036000830152614e4481614e08565b9050919050565b7f4552433732313a20746f6b656e20616c7265616479206d696e74656400000000600082015250565b6000614e81601c83613558565b9150614e8c82614e4b565b602082019050919050565b60006020820190508181036000830152614eb081614e74565b905091905056fea264697066735822122057b02efe06b77dd0f81c03e9d1c15d60ef855ea2687d27368db1229f22b92fcb64736f6c63430008130033",
  "immutableReferences": {},
  "source": "//SPDX-License-Identifier: Unlicense\npragma solidity ^0.8.19;\n\nimport \"../node_modules/@openzeppelin/contracts/utils/Counters.sol\";\nimport \"../node_modules/@openzeppelin/contracts/token/ERC721/extensions/ERC721URIStorage.sol\";\nimport \"../node_modules/@openzeppelin/contracts/token/ERC721/ERC721.sol\";\n\n\ncontract LoyaltyMarketplace is ERC721URIStorage {\n\n    using Counters for Counters.Counter;\n    //_tokenIds variable has the most recent minted tokenId\n    Counters.Counter private _tokenIds;\n    //Keeps track of the number of items sold on the marketplace\n    Counters.Counter private _itemsSold;\n    \n    //_Brandids variable has the most recent minted tokenId\n    Counters.Counter private _brandsIds;\n    \n    //owner of the contract\n    address payable owner;\n\n    //The fee charged by the marketplace to be allowed to list an NFT\n    uint256 listPrice = 0.01 ether;\n\n    //Information about the brands\n    struct UserAccount {\n        uint brandId;\n        string name;\n        string description;\n        string image;\n        bool isABrand;\n        bool isBrandRegisterOnPlatform;\n    }\n\n    //The structure to store info about a listed token\n    struct ListedToken {\n        uint256 tokenId;\n        uint256 brandId;\n        address payable owner;\n        address payable seller;\n        uint256 price;\n        bool currentlyListed;\n    }\n\n    //the event emitted when a token is successfully listed\n    event TokenListedSuccess (\n        uint256 indexed tokenId,\n        address owner,\n        address seller,\n        uint256 price,\n        bool currentlyListed\n    );\n\n    //This mapping maps tokenId to token info and is helpful when retrieving details about a tokenId\n    mapping(uint256 => ListedToken) private idToListedToken;\n\n    //mapping to store all brands\n    mapping(uint256 => UserAccount) private idToListedBrand;\n\n    //Mapping of brand\n    mapping(address => UserAccount) userAccounts;\n\n    constructor() ERC721(\"NFTMarketplace\", \"NFTM\") {\n        owner = payable(msg.sender);\n    }\n\n    //set account (brand or customer)\n    function createUserAccount(\n        //address _addr, \n        string memory _name, \n        string memory _description, \n        string memory _image\n        ) public {\n        //ajouter un ownable\n        \n        userAccounts[msg.sender].name = _name;\n        userAccounts[msg.sender].description = _description;\n        userAccounts[msg.sender].image = _image;\n   }\n\n    //set brand account as registered => Allow account to mint NFT\n    function setIsBrandRegisterOnPlatform(address _addr) public{\n        userAccounts[_addr].isBrandRegisterOnPlatform = true;\n        \n        //Increment the brandId counter, which is keeping track of the number of brand registered who are allowed to mint\n        _brandsIds.increment();\n        uint256 currentBrandId = _brandsIds.current();\n        userAccounts[_addr].brandId = currentBrandId;\n        idToListedBrand[currentBrandId] = userAccounts[_addr];\n\n    }\n\n    //set account as a brand account\n    function setUserIsABrand(address _addr) public{\n        userAccounts[_addr].isABrand = true;\n    }\n\n\n    function updateListPrice(uint256 _listPrice) public payable {\n        require(owner == msg.sender, \"Only owner can update listing price\");\n        listPrice = _listPrice;\n    }\n\n    function getListPrice() public view returns (uint256) {\n        return listPrice;\n    }\n\n    function getLatestIdToListedToken() public view returns (ListedToken memory) {\n        uint256 currentTokenId = _tokenIds.current();\n        return idToListedToken[currentTokenId];\n    }\n\n    function getListedTokenForId(uint256 tokenId) public view returns (ListedToken memory) {\n        return idToListedToken[tokenId];\n    }\n\n    function getCurrentToken() public view returns (uint256) {\n        return _tokenIds.current();\n    }\n\n    //The first time a token is created, it is listed here\n    function createToken(string memory tokenURI, uint256 price) public payable returns (uint) {\n        //Increment the tokenId counter, which is keeping track of the number of minted NFTs\n        _tokenIds.increment();\n        uint256 newTokenId = _tokenIds.current();\n\n        //Mint the NFT with tokenId newTokenId to the address who called createToken\n        _safeMint(msg.sender, newTokenId);\n\n        //Map the tokenId to the tokenURI (which is an IPFS URL with the NFT metadata)\n        _setTokenURI(newTokenId, tokenURI);\n\n        //Helper function to update Global variables and emit an event\n        createListedToken(newTokenId, price);\n\n        return newTokenId;\n    }\n\n    function getIdBrandFromAddress(address _addr) public view returns (uint _id){\n        return userAccounts[_addr].brandId;\n    }\n\n    //mint NFT and sent to marketplace\n    function createListedToken(uint256 tokenId, uint256 price) private {\n        //Make sure the sender sent enough ETH to pay for listing\n        require(msg.value == listPrice, \"Hopefully sending the correct price\");\n        //Just sanity check\n        require(price > 0, \"Make sure the price isn't negative\");\n\n        //Update the mapping of tokenId's to Token details, useful for retrieval functions\n        idToListedToken[tokenId] = ListedToken(\n            tokenId,\n            getIdBrandFromAddress(msg.sender),//brandId -> faire une fonction qui recup l'id de la brand a partir de l'adresse\n            payable(address(this)),\n            payable(msg.sender),\n            price,\n            true\n        );\n\n        _transfer(msg.sender, address(this), tokenId);\n        //Emit the event for successful transfer. The frontend parses this message and updates the end user\n        emit TokenListedSuccess(\n            tokenId,\n            address(this),\n            msg.sender,\n            price,\n            true\n        );\n    }\n\n//mint NFT and sent to a customer\nfunction createListedTokenAndSendToAddress(uint256 tokenId, address _addr) private {\n        //Make sure the sender sent enough ETH to pay for listing\n        require(msg.value == listPrice, \"Hopefully sending the correct price\");\n       \n        //Update the mapping of tokenId's to Token details, useful for retrieval functions\n        idToListedToken[tokenId] = ListedToken(\n            tokenId,\n            getIdBrandFromAddress(msg.sender),//brandId \n            payable(address(this)),\n            payable(msg.sender),\n            0,\n            true\n        );\n\n        _transfer(msg.sender, _addr, tokenId);\n        //Emit the event for successful transfer. The frontend parses this message and updates the end user\n        emit TokenListedSuccess(\n            tokenId,\n            _addr,\n            msg.sender,\n            0,\n            true\n        );\n    }\n\n     //This will return all the Brands currently registered on the marketplace\n    function getAllBrands() public view returns (UserAccount[] memory) {\n        uint brandsCount = _brandsIds.current();\n        UserAccount[] memory brands = new UserAccount[](brandsCount);\n        uint currentIndex = 0;\n\n         for(uint i=0;i<brandsCount;i++)\n        {\n            uint currentId = i + 1;\n            UserAccount storage currentItem = idToListedBrand[currentId];\n            brands[currentIndex] = currentItem;\n            currentIndex += 1;\n        }\n        //the array 'tokens' has the list of all NFTs in the marketplace\n        return brands;\n    }\n    \n    //This will return all the NFTs currently listed to be sold on the marketplace\n    function getAllNFTs() public view returns (ListedToken[] memory) {\n        uint nftCount = _tokenIds.current();\n        ListedToken[] memory tokens = new ListedToken[](nftCount);\n        uint currentIndex = 0;\n\n        //at the moment currentlyListed is true for all, if it becomes false in the future we will \n        //filter out currentlyListed == false over here\n        for(uint i=0;i<nftCount;i++)\n        {\n            uint currentId = i + 1;\n            ListedToken storage currentItem = idToListedToken[currentId];\n            tokens[currentIndex] = currentItem;\n            currentIndex += 1;\n        }\n        //the array 'tokens' has the list of all NFTs in the marketplace\n        return tokens;\n    }\n    \n    //Returns all the NFTs that the current user is owner or seller in\n    function getMyNFTs() public view returns (ListedToken[] memory) {\n        uint totalItemCount = _tokenIds.current();\n        uint itemCount = 0;\n        uint currentIndex = 0;\n        \n        //Important to get a count of all the NFTs that belong to the user before we can make an array for them\n        for(uint i=0; i < totalItemCount; i++)\n        {\n            if(idToListedToken[i+1].owner == msg.sender || idToListedToken[i+1].seller == msg.sender){\n                itemCount += 1;\n            }\n        }\n\n        //Once you have the count of relevant NFTs, create an array then store all the NFTs in it\n        ListedToken[] memory items = new ListedToken[](itemCount);\n        for(uint i=0; i < totalItemCount; i++) {\n            if(idToListedToken[i+1].owner == msg.sender || idToListedToken[i+1].seller == msg.sender) {\n                uint currentId = i+1;\n                ListedToken storage currentItem = idToListedToken[currentId];\n                items[currentIndex] = currentItem;\n                currentIndex += 1;\n            }\n        }\n        return items;\n    }\n\n      //Returns all the NFTs by brand\n    function getNFTsByBrand(uint _idBrand) public view returns (ListedToken[] memory) {\n        uint totalItemCount = _tokenIds.current();\n        uint itemCount = 0;\n        uint currentIndex = 0;\n        \n        //Important to get a count of all the NFTs that belong to the user before we can make an array for them\n        for(uint i=0; i < totalItemCount; i++)\n        {\n            if(idToListedToken[i+1].brandId == _idBrand){\n                itemCount += 1;\n            }\n        }\n\n        //Once you have the count of relevant NFTs, create an array then store all the NFTs in it\n        ListedToken[] memory items = new ListedToken[](itemCount);\n        for(uint i=0; i < totalItemCount; i++) {\n            if(idToListedToken[i+1].owner == msg.sender || idToListedToken[i+1].seller == msg.sender) {\n                uint currentId = i+1;\n                ListedToken storage currentItem = idToListedToken[currentId];\n                items[currentIndex] = currentItem;\n                currentIndex += 1;\n            }\n        }\n        return items;\n    }\n\n\n    function executeSale(uint256 tokenId) public payable {\n        uint price = idToListedToken[tokenId].price;\n        address seller = idToListedToken[tokenId].seller;\n        require(msg.value == price, \"Please submit the asking price in order to complete the purchase\");\n\n        //update the details of the token\n        idToListedToken[tokenId].currentlyListed = true;\n        idToListedToken[tokenId].seller = payable(msg.sender);\n        _itemsSold.increment();\n\n        //Actually transfer the token to the new owner\n        _transfer(address(this), msg.sender, tokenId);\n        //approve the marketplace to sell NFTs on your behalf\n        approve(address(this), tokenId);\n\n        //Transfer the listing fee to the marketplace creator\n        payable(owner).transfer(listPrice);\n        //Transfer the proceeds from the sale to the seller of the NFT\n        payable(seller).transfer(msg.value);\n    }\n\n    //We might add a resell token function in the future\n    //In that case, tokens won't be listed by default but users can send a request to actually list a token\n    //Currently NFTs are listed by default\n}",
  "sourcePath": "/Users/thibaut/development/alyra/LoyaltyChain/contracts/LoyaltyMarketplace.sol",
  "compiler": {
    "name": "solc",
    "version": "0.8.19+commit.7dd6d404.Emscripten.clang"
  },
  "schemaVersion": "3.4.14",
  "updatedAt": "2023-06-16T22:12:55.380Z",
  "networkType": "ethereum",
  "devdoc": {
    "events": {
      "Approval(address,address,uint256)": {
        "details": "Emitted when `owner` enables `approved` to manage the `tokenId` token."
      },
      "ApprovalForAll(address,address,bool)": {
        "details": "Emitted when `owner` enables or disables (`approved`) `operator` to manage all of its assets."
      },
      "BatchMetadataUpdate(uint256,uint256)": {
        "details": "This event emits when the metadata of a range of tokens is changed. So that the third-party platforms such as NFT market could timely update the images and related attributes of the NFTs."
      },
      "MetadataUpdate(uint256)": {
        "details": "This event emits when the metadata of a token is changed. So that the third-party platforms such as NFT market could timely update the images and related attributes of the NFT."
      },
      "Transfer(address,address,uint256)": {
        "details": "Emitted when `tokenId` token is transferred from `from` to `to`."
      }
    },
    "kind": "dev",
    "methods": {
      "approve(address,uint256)": {
        "details": "See {IERC721-approve}."
      },
      "balanceOf(address)": {
        "details": "See {IERC721-balanceOf}."
      },
      "getApproved(uint256)": {
        "details": "See {IERC721-getApproved}."
      },
      "isApprovedForAll(address,address)": {
        "details": "See {IERC721-isApprovedForAll}."
      },
      "name()": {
        "details": "See {IERC721Metadata-name}."
      },
      "ownerOf(uint256)": {
        "details": "See {IERC721-ownerOf}."
      },
      "safeTransferFrom(address,address,uint256)": {
        "details": "See {IERC721-safeTransferFrom}."
      },
      "safeTransferFrom(address,address,uint256,bytes)": {
        "details": "See {IERC721-safeTransferFrom}."
      },
      "setApprovalForAll(address,bool)": {
        "details": "See {IERC721-setApprovalForAll}."
      },
      "supportsInterface(bytes4)": {
        "details": "See {IERC165-supportsInterface}"
      },
      "symbol()": {
        "details": "See {IERC721Metadata-symbol}."
      },
      "tokenURI(uint256)": {
        "details": "See {IERC721Metadata-tokenURI}."
      },
      "transferFrom(address,address,uint256)": {
        "details": "See {IERC721-transferFrom}."
      }
    },
    "version": 1
  },
  "userdoc": {
    "kind": "user",
    "methods": {},
    "version": 1
  }
}